{
  "address": "0x4d722c3a1Cec5306710637103495dDd9DFAda905",
  "abi": [
    {
      "anonymous": false,
      "inputs": [
        {
          "indexed": false,
          "internalType": "string",
          "name": "providerPublicKey",
          "type": "string"
        },
        {
          "indexed": false,
          "internalType": "string",
          "name": "consumerPublicKey",
          "type": "string"
        },
        {
          "indexed": false,
          "internalType": "uint256",
          "name": "id",
          "type": "uint256"
        },
        {
          "indexed": false,
          "internalType": "string",
          "name": "chosenPenalty",
          "type": "string"
        },
        {
          "indexed": false,
          "internalType": "uint256",
          "name": "newEndDate",
          "type": "uint256"
        },
        {
          "indexed": false,
          "internalType": "uint256",
          "name": "price",
          "type": "uint256"
        },
        {
          "indexed": false,
          "internalType": "uint256",
          "name": "fee",
          "type": "uint256"
        }
      ],
      "name": "AgreeOnPenalty",
      "type": "event"
    },
    {
      "anonymous": false,
      "inputs": [
        {
          "indexed": false,
          "internalType": "string",
          "name": "providerPublicKey",
          "type": "string"
        },
        {
          "indexed": false,
          "internalType": "string",
          "name": "consumerPublicKey",
          "type": "string"
        },
        {
          "indexed": false,
          "internalType": "uint256",
          "name": "id",
          "type": "uint256"
        }
      ],
      "name": "AgreementActive",
      "type": "event"
    },
    {
      "anonymous": false,
      "inputs": [
        {
          "indexed": false,
          "internalType": "string",
          "name": "providerPublicKey",
          "type": "string"
        },
        {
          "indexed": false,
          "internalType": "string",
          "name": "consumerPublicKey",
          "type": "string"
        },
        {
          "indexed": false,
          "internalType": "uint256",
          "name": "id",
          "type": "uint256"
        }
      ],
      "name": "AgreementTerminated",
      "type": "event"
    },
    {
      "anonymous": false,
      "inputs": [
        {
          "indexed": false,
          "internalType": "string",
          "name": "consumerPublicKey",
          "type": "string"
        },
        {
          "indexed": false,
          "internalType": "uint256",
          "name": "id",
          "type": "uint256"
        },
        {
          "indexed": false,
          "internalType": "string[3]",
          "name": "penaltyChoices",
          "type": "string[3]"
        }
      ],
      "name": "PenaltyChoices",
      "type": "event"
    },
    {
      "anonymous": false,
      "inputs": [
        {
          "indexed": false,
          "internalType": "string",
          "name": "publicKey",
          "type": "string"
        },
        {
          "indexed": false,
          "internalType": "uint256",
          "name": "id",
          "type": "uint256"
        }
      ],
      "name": "TerminationProposal",
      "type": "event"
    },
    {
      "inputs": [
        {
          "internalType": "uint256",
          "name": "",
          "type": "uint256"
        }
      ],
      "name": "agreements",
      "outputs": [
        {
          "internalType": "uint256",
          "name": "agreementId",
          "type": "uint256"
        },
        {
          "internalType": "string",
          "name": "providerPublicKey",
          "type": "string"
        },
        {
          "internalType": "string",
          "name": "consumerPublicKey",
          "type": "string"
        },
        {
          "internalType": "string",
          "name": "dataExchangeAgreementHash",
          "type": "string"
        },
        {
          "components": [
            {
              "internalType": "string",
              "name": "dataOfferingId",
              "type": "string"
            },
            {
              "internalType": "uint256",
              "name": "dataOfferingVersion",
              "type": "uint256"
            },
            {
              "internalType": "string",
              "name": "title",
              "type": "string"
            }
          ],
          "internalType": "struct DataOffering",
          "name": "dataOffering",
          "type": "tuple"
        },
        {
          "internalType": "string",
          "name": "purpose",
          "type": "string"
        },
        {
          "internalType": "enum State",
          "name": "state",
          "type": "uint8"
        },
        {
          "components": [
            {
              "internalType": "bool",
              "name": "processData",
              "type": "bool"
            },
            {
              "internalType": "bool",
              "name": "shareDataWithThirdParty",
              "type": "bool"
            },
            {
              "internalType": "bool",
              "name": "editData",
              "type": "bool"
            }
          ],
          "internalType": "struct IntendedUse",
          "name": "intendedUse",
          "type": "tuple"
        },
        {
          "components": [
            {
              "internalType": "bool",
              "name": "transferable",
              "type": "bool"
            },
            {
              "internalType": "bool",
              "name": "exclusiveness",
              "type": "bool"
            },
            {
              "internalType": "bool",
              "name": "paidUp",
              "type": "bool"
            },
            {
              "internalType": "bool",
              "name": "revocable",
              "type": "bool"
            },
            {
              "internalType": "bool",
              "name": "processing",
              "type": "bool"
            },
            {
              "internalType": "bool",
              "name": "modifying",
              "type": "bool"
            },
            {
              "internalType": "bool",
              "name": "analyzing",
              "type": "bool"
            },
            {
              "internalType": "bool",
              "name": "storingData",
              "type": "bool"
            },
            {
              "internalType": "bool",
              "name": "storingCopy",
              "type": "bool"
            },
            {
              "internalType": "bool",
              "name": "reproducing",
              "type": "bool"
            },
            {
              "internalType": "bool",
              "name": "distributing",
              "type": "bool"
            },
            {
              "internalType": "bool",
              "name": "loaning",
              "type": "bool"
            },
            {
              "internalType": "bool",
              "name": "selling",
              "type": "bool"
            },
            {
              "internalType": "bool",
              "name": "renting",
              "type": "bool"
            },
            {
              "internalType": "bool",
              "name": "furtherLicensing",
              "type": "bool"
            },
            {
              "internalType": "bool",
              "name": "leasing",
              "type": "bool"
            }
          ],
          "internalType": "struct LicenseGrant",
          "name": "licenseGrant",
          "type": "tuple"
        },
        {
          "components": [
            {
              "internalType": "bool",
              "name": "dataStream",
              "type": "bool"
            },
            {
              "internalType": "bool",
              "name": "personalData",
              "type": "bool"
            }
          ],
          "internalType": "struct TypeOfData",
          "name": "typeOfData",
          "type": "tuple"
        },
        {
          "components": [
            {
              "internalType": "string",
              "name": "paymentType",
              "type": "string"
            },
            {
              "internalType": "uint256",
              "name": "price",
              "type": "uint256"
            },
            {
              "internalType": "string",
              "name": "currency",
              "type": "string"
            },
            {
              "internalType": "uint256",
              "name": "fee",
              "type": "uint256"
            },
            {
              "components": [
                {
                  "internalType": "string",
                  "name": "timeDuration",
                  "type": "string"
                },
                {
                  "internalType": "string",
                  "name": "repeat",
                  "type": "string"
                }
              ],
              "internalType": "struct PaymentOnSubscription",
              "name": "paymentOnSubscription",
              "type": "tuple"
            },
            {
              "internalType": "bool",
              "name": "isFree",
              "type": "bool"
            }
          ],
          "internalType": "struct PricingModel",
          "name": "pricingModel",
          "type": "tuple"
        },
        {
          "components": [
            {
              "internalType": "enum ViolationType",
              "name": "violationType",
              "type": "uint8"
            },
            {
              "internalType": "string",
              "name": "issuerId",
              "type": "string"
            },
            {
              "internalType": "string[3]",
              "name": "penaltyChoices",
              "type": "string[3]"
            }
          ],
          "internalType": "struct Violation",
          "name": "violation",
          "type": "tuple"
        },
        {
          "internalType": "bool",
          "name": "termination",
          "type": "bool"
        }
      ],
      "stateMutability": "view",
      "type": "function"
    },
    {
      "inputs": [],
      "name": "checkActiveAgreements",
      "outputs": [
        {
          "components": [
            {
              "internalType": "uint256",
              "name": "agreementId",
              "type": "uint256"
            },
            {
              "internalType": "string",
              "name": "providerPublicKey",
              "type": "string"
            },
            {
              "internalType": "string",
              "name": "consumerPublicKey",
              "type": "string"
            },
            {
              "internalType": "string",
              "name": "dataExchangeAgreementHash",
              "type": "string"
            },
            {
              "internalType": "string[2]",
              "name": "signatures",
              "type": "string[2]"
            },
            {
              "components": [
                {
                  "internalType": "string",
                  "name": "dataOfferingId",
                  "type": "string"
                },
                {
                  "internalType": "uint256",
                  "name": "dataOfferingVersion",
                  "type": "uint256"
                },
                {
                  "internalType": "string",
                  "name": "title",
                  "type": "string"
                }
              ],
              "internalType": "struct DataOffering",
              "name": "dataOffering",
              "type": "tuple"
            },
            {
              "internalType": "string",
              "name": "purpose",
              "type": "string"
            },
            {
              "internalType": "enum State",
              "name": "state",
              "type": "uint8"
            },
            {
              "internalType": "uint256[3]",
              "name": "agreementDates",
              "type": "uint256[3]"
            },
            {
              "components": [
                {
                  "internalType": "bool",
                  "name": "processData",
                  "type": "bool"
                },
                {
                  "internalType": "bool",
                  "name": "shareDataWithThirdParty",
                  "type": "bool"
                },
                {
                  "internalType": "bool",
                  "name": "editData",
                  "type": "bool"
                }
              ],
              "internalType": "struct IntendedUse",
              "name": "intendedUse",
              "type": "tuple"
            },
            {
              "components": [
                {
                  "internalType": "bool",
                  "name": "transferable",
                  "type": "bool"
                },
                {
                  "internalType": "bool",
                  "name": "exclusiveness",
                  "type": "bool"
                },
                {
                  "internalType": "bool",
                  "name": "paidUp",
                  "type": "bool"
                },
                {
                  "internalType": "bool",
                  "name": "revocable",
                  "type": "bool"
                },
                {
                  "internalType": "bool",
                  "name": "processing",
                  "type": "bool"
                },
                {
                  "internalType": "bool",
                  "name": "modifying",
                  "type": "bool"
                },
                {
                  "internalType": "bool",
                  "name": "analyzing",
                  "type": "bool"
                },
                {
                  "internalType": "bool",
                  "name": "storingData",
                  "type": "bool"
                },
                {
                  "internalType": "bool",
                  "name": "storingCopy",
                  "type": "bool"
                },
                {
                  "internalType": "bool",
                  "name": "reproducing",
                  "type": "bool"
                },
                {
                  "internalType": "bool",
                  "name": "distributing",
                  "type": "bool"
                },
                {
                  "internalType": "bool",
                  "name": "loaning",
                  "type": "bool"
                },
                {
                  "internalType": "bool",
                  "name": "selling",
                  "type": "bool"
                },
                {
                  "internalType": "bool",
                  "name": "renting",
                  "type": "bool"
                },
                {
                  "internalType": "bool",
                  "name": "furtherLicensing",
                  "type": "bool"
                },
                {
                  "internalType": "bool",
                  "name": "leasing",
                  "type": "bool"
                }
              ],
              "internalType": "struct LicenseGrant",
              "name": "licenseGrant",
              "type": "tuple"
            },
            {
              "components": [
                {
                  "internalType": "bool",
                  "name": "dataStream",
                  "type": "bool"
                },
                {
                  "internalType": "bool",
                  "name": "personalData",
                  "type": "bool"
                }
              ],
              "internalType": "struct TypeOfData",
              "name": "typeOfData",
              "type": "tuple"
            },
            {
              "components": [
                {
                  "internalType": "string",
                  "name": "paymentType",
                  "type": "string"
                },
                {
                  "internalType": "uint256",
                  "name": "price",
                  "type": "uint256"
                },
                {
                  "internalType": "string",
                  "name": "currency",
                  "type": "string"
                },
                {
                  "internalType": "uint256",
                  "name": "fee",
                  "type": "uint256"
                },
                {
                  "components": [
                    {
                      "internalType": "string",
                      "name": "timeDuration",
                      "type": "string"
                    },
                    {
                      "internalType": "string",
                      "name": "repeat",
                      "type": "string"
                    }
                  ],
                  "internalType": "struct PaymentOnSubscription",
                  "name": "paymentOnSubscription",
                  "type": "tuple"
                },
                {
                  "internalType": "bool",
                  "name": "isFree",
                  "type": "bool"
                }
              ],
              "internalType": "struct PricingModel",
              "name": "pricingModel",
              "type": "tuple"
            },
            {
              "components": [
                {
                  "internalType": "enum ViolationType",
                  "name": "violationType",
                  "type": "uint8"
                },
                {
                  "internalType": "string",
                  "name": "issuerId",
                  "type": "string"
                },
                {
                  "internalType": "string[3]",
                  "name": "penaltyChoices",
                  "type": "string[3]"
                }
              ],
              "internalType": "struct Violation",
              "name": "violation",
              "type": "tuple"
            },
            {
              "internalType": "bool",
              "name": "termination",
              "type": "bool"
            }
          ],
          "internalType": "struct Agreement[]",
          "name": "",
          "type": "tuple[]"
        }
      ],
      "stateMutability": "view",
      "type": "function"
    },
    {
      "inputs": [
        {
          "internalType": "string",
          "name": "_dataOfferingId",
          "type": "string"
        }
      ],
      "name": "checkAgreementsByDataOffering",
      "outputs": [
        {
          "components": [
            {
              "internalType": "uint256",
              "name": "agreementId",
              "type": "uint256"
            },
            {
              "internalType": "string",
              "name": "providerPublicKey",
              "type": "string"
            },
            {
              "internalType": "string",
              "name": "consumerPublicKey",
              "type": "string"
            },
            {
              "internalType": "string",
              "name": "dataExchangeAgreementHash",
              "type": "string"
            },
            {
              "internalType": "string[2]",
              "name": "signatures",
              "type": "string[2]"
            },
            {
              "components": [
                {
                  "internalType": "string",
                  "name": "dataOfferingId",
                  "type": "string"
                },
                {
                  "internalType": "uint256",
                  "name": "dataOfferingVersion",
                  "type": "uint256"
                },
                {
                  "internalType": "string",
                  "name": "title",
                  "type": "string"
                }
              ],
              "internalType": "struct DataOffering",
              "name": "dataOffering",
              "type": "tuple"
            },
            {
              "internalType": "string",
              "name": "purpose",
              "type": "string"
            },
            {
              "internalType": "enum State",
              "name": "state",
              "type": "uint8"
            },
            {
              "internalType": "uint256[3]",
              "name": "agreementDates",
              "type": "uint256[3]"
            },
            {
              "components": [
                {
                  "internalType": "bool",
                  "name": "processData",
                  "type": "bool"
                },
                {
                  "internalType": "bool",
                  "name": "shareDataWithThirdParty",
                  "type": "bool"
                },
                {
                  "internalType": "bool",
                  "name": "editData",
                  "type": "bool"
                }
              ],
              "internalType": "struct IntendedUse",
              "name": "intendedUse",
              "type": "tuple"
            },
            {
              "components": [
                {
                  "internalType": "bool",
                  "name": "transferable",
                  "type": "bool"
                },
                {
                  "internalType": "bool",
                  "name": "exclusiveness",
                  "type": "bool"
                },
                {
                  "internalType": "bool",
                  "name": "paidUp",
                  "type": "bool"
                },
                {
                  "internalType": "bool",
                  "name": "revocable",
                  "type": "bool"
                },
                {
                  "internalType": "bool",
                  "name": "processing",
                  "type": "bool"
                },
                {
                  "internalType": "bool",
                  "name": "modifying",
                  "type": "bool"
                },
                {
                  "internalType": "bool",
                  "name": "analyzing",
                  "type": "bool"
                },
                {
                  "internalType": "bool",
                  "name": "storingData",
                  "type": "bool"
                },
                {
                  "internalType": "bool",
                  "name": "storingCopy",
                  "type": "bool"
                },
                {
                  "internalType": "bool",
                  "name": "reproducing",
                  "type": "bool"
                },
                {
                  "internalType": "bool",
                  "name": "distributing",
                  "type": "bool"
                },
                {
                  "internalType": "bool",
                  "name": "loaning",
                  "type": "bool"
                },
                {
                  "internalType": "bool",
                  "name": "selling",
                  "type": "bool"
                },
                {
                  "internalType": "bool",
                  "name": "renting",
                  "type": "bool"
                },
                {
                  "internalType": "bool",
                  "name": "furtherLicensing",
                  "type": "bool"
                },
                {
                  "internalType": "bool",
                  "name": "leasing",
                  "type": "bool"
                }
              ],
              "internalType": "struct LicenseGrant",
              "name": "licenseGrant",
              "type": "tuple"
            },
            {
              "components": [
                {
                  "internalType": "bool",
                  "name": "dataStream",
                  "type": "bool"
                },
                {
                  "internalType": "bool",
                  "name": "personalData",
                  "type": "bool"
                }
              ],
              "internalType": "struct TypeOfData",
              "name": "typeOfData",
              "type": "tuple"
            },
            {
              "components": [
                {
                  "internalType": "string",
                  "name": "paymentType",
                  "type": "string"
                },
                {
                  "internalType": "uint256",
                  "name": "price",
                  "type": "uint256"
                },
                {
                  "internalType": "string",
                  "name": "currency",
                  "type": "string"
                },
                {
                  "internalType": "uint256",
                  "name": "fee",
                  "type": "uint256"
                },
                {
                  "components": [
                    {
                      "internalType": "string",
                      "name": "timeDuration",
                      "type": "string"
                    },
                    {
                      "internalType": "string",
                      "name": "repeat",
                      "type": "string"
                    }
                  ],
                  "internalType": "struct PaymentOnSubscription",
                  "name": "paymentOnSubscription",
                  "type": "tuple"
                },
                {
                  "internalType": "bool",
                  "name": "isFree",
                  "type": "bool"
                }
              ],
              "internalType": "struct PricingModel",
              "name": "pricingModel",
              "type": "tuple"
            },
            {
              "components": [
                {
                  "internalType": "enum ViolationType",
                  "name": "violationType",
                  "type": "uint8"
                },
                {
                  "internalType": "string",
                  "name": "issuerId",
                  "type": "string"
                },
                {
                  "internalType": "string[3]",
                  "name": "penaltyChoices",
                  "type": "string[3]"
                }
              ],
              "internalType": "struct Violation",
              "name": "violation",
              "type": "tuple"
            },
            {
              "internalType": "bool",
              "name": "termination",
              "type": "bool"
            }
          ],
          "internalType": "struct Agreement[]",
          "name": "",
          "type": "tuple[]"
        }
      ],
      "stateMutability": "view",
      "type": "function"
    },
    {
      "inputs": [
        {
          "internalType": "string",
          "name": "_providerPublicKey",
          "type": "string"
        },
        {
          "internalType": "string",
          "name": "_consumerPublicKey",
          "type": "string"
        },
        {
          "internalType": "string",
          "name": "_dataExchangeAgreementHash",
          "type": "string"
        },
        {
          "internalType": "string[2]",
          "name": "_signatures",
          "type": "string[2]"
        },
        {
          "components": [
            {
              "internalType": "string",
              "name": "dataOfferingId",
              "type": "string"
            },
            {
              "internalType": "uint256",
              "name": "dataOfferingVersion",
              "type": "uint256"
            },
            {
              "internalType": "string",
              "name": "title",
              "type": "string"
            }
          ],
          "internalType": "struct DataOffering",
          "name": "dataOffering",
          "type": "tuple"
        },
        {
          "internalType": "string",
          "name": "_purpose",
          "type": "string"
        },
        {
          "internalType": "uint256[]",
          "name": "dates",
          "type": "uint256[]"
        },
        {
          "components": [
            {
              "internalType": "bool",
              "name": "processData",
              "type": "bool"
            },
            {
              "internalType": "bool",
              "name": "shareDataWithThirdParty",
              "type": "bool"
            },
            {
              "internalType": "bool",
              "name": "editData",
              "type": "bool"
            }
          ],
          "internalType": "struct IntendedUse",
          "name": "intendedUse",
          "type": "tuple"
        },
        {
          "components": [
            {
              "internalType": "bool",
              "name": "transferable",
              "type": "bool"
            },
            {
              "internalType": "bool",
              "name": "exclusiveness",
              "type": "bool"
            },
            {
              "internalType": "bool",
              "name": "paidUp",
              "type": "bool"
            },
            {
              "internalType": "bool",
              "name": "revocable",
              "type": "bool"
            },
            {
              "internalType": "bool",
              "name": "processing",
              "type": "bool"
            },
            {
              "internalType": "bool",
              "name": "modifying",
              "type": "bool"
            },
            {
              "internalType": "bool",
              "name": "analyzing",
              "type": "bool"
            },
            {
              "internalType": "bool",
              "name": "storingData",
              "type": "bool"
            },
            {
              "internalType": "bool",
              "name": "storingCopy",
              "type": "bool"
            },
            {
              "internalType": "bool",
              "name": "reproducing",
              "type": "bool"
            },
            {
              "internalType": "bool",
              "name": "distributing",
              "type": "bool"
            },
            {
              "internalType": "bool",
              "name": "loaning",
              "type": "bool"
            },
            {
              "internalType": "bool",
              "name": "selling",
              "type": "bool"
            },
            {
              "internalType": "bool",
              "name": "renting",
              "type": "bool"
            },
            {
              "internalType": "bool",
              "name": "furtherLicensing",
              "type": "bool"
            },
            {
              "internalType": "bool",
              "name": "leasing",
              "type": "bool"
            }
          ],
          "internalType": "struct LicenseGrant",
          "name": "licenseGrant",
          "type": "tuple"
        },
        {
          "components": [
            {
              "internalType": "string",
              "name": "paymentType",
              "type": "string"
            },
            {
              "internalType": "uint256",
              "name": "price",
              "type": "uint256"
            },
            {
              "internalType": "string",
              "name": "currency",
              "type": "string"
            },
            {
              "internalType": "uint256",
              "name": "fee",
              "type": "uint256"
            },
            {
              "components": [
                {
                  "internalType": "string",
                  "name": "timeDuration",
                  "type": "string"
                },
                {
                  "internalType": "string",
                  "name": "repeat",
                  "type": "string"
                }
              ],
              "internalType": "struct PaymentOnSubscription",
              "name": "paymentOnSubscription",
              "type": "tuple"
            },
            {
              "internalType": "bool",
              "name": "isFree",
              "type": "bool"
            }
          ],
          "internalType": "struct PricingModel",
          "name": "pricingModel",
          "type": "tuple"
        },
        {
          "components": [
            {
              "internalType": "bool",
              "name": "dataStream",
              "type": "bool"
            },
            {
              "internalType": "bool",
              "name": "personalData",
              "type": "bool"
            }
          ],
          "internalType": "struct TypeOfData",
          "name": "typeOfData",
          "type": "tuple"
        }
      ],
      "name": "createAgreement",
      "outputs": [],
      "stateMutability": "nonpayable",
      "type": "function"
    },
    {
      "inputs": [
        {
          "internalType": "uint256",
          "name": "_id",
          "type": "uint256"
        },
        {
          "internalType": "string",
          "name": "_chosenPenalty",
          "type": "string"
        },
        {
          "internalType": "uint256",
          "name": "_price",
          "type": "uint256"
        },
        {
          "internalType": "uint256",
          "name": "_fee",
          "type": "uint256"
        },
        {
          "internalType": "uint256",
          "name": "_newEndDate",
          "type": "uint256"
        }
      ],
      "name": "enforcePenalty",
      "outputs": [],
      "stateMutability": "nonpayable",
      "type": "function"
    },
    {
      "inputs": [
        {
          "internalType": "uint256",
          "name": "_agreementId",
          "type": "uint256"
        },
        {
          "internalType": "string",
          "name": "_proofType",
          "type": "string"
        },
        {
          "internalType": "string",
          "name": "_type",
          "type": "string"
        },
        {
          "internalType": "string",
          "name": "_resolution",
          "type": "string"
        },
        {
          "internalType": "string",
          "name": "_dataExchangeId",
          "type": "string"
        },
        {
          "internalType": "uint256",
          "name": "_iat",
          "type": "uint256"
        },
        {
          "internalType": "string",
          "name": "_iss",
          "type": "string"
        },
        {
          "internalType": "string",
          "name": "_sub",
          "type": "string"
        }
      ],
      "name": "evaluateSignedResolution",
      "outputs": [],
      "stateMutability": "nonpayable",
      "type": "function"
    },
    {
      "inputs": [
        {
          "internalType": "uint256",
          "name": "id",
          "type": "uint256"
        }
      ],
      "name": "getAgreement",
      "outputs": [
        {
          "components": [
            {
              "internalType": "uint256",
              "name": "agreementId",
              "type": "uint256"
            },
            {
              "internalType": "string",
              "name": "providerPublicKey",
              "type": "string"
            },
            {
              "internalType": "string",
              "name": "consumerPublicKey",
              "type": "string"
            },
            {
              "internalType": "string",
              "name": "dataExchangeAgreementHash",
              "type": "string"
            },
            {
              "internalType": "string[2]",
              "name": "signatures",
              "type": "string[2]"
            },
            {
              "components": [
                {
                  "internalType": "string",
                  "name": "dataOfferingId",
                  "type": "string"
                },
                {
                  "internalType": "uint256",
                  "name": "dataOfferingVersion",
                  "type": "uint256"
                },
                {
                  "internalType": "string",
                  "name": "title",
                  "type": "string"
                }
              ],
              "internalType": "struct DataOffering",
              "name": "dataOffering",
              "type": "tuple"
            },
            {
              "internalType": "string",
              "name": "purpose",
              "type": "string"
            },
            {
              "internalType": "enum State",
              "name": "state",
              "type": "uint8"
            },
            {
              "internalType": "uint256[3]",
              "name": "agreementDates",
              "type": "uint256[3]"
            },
            {
              "components": [
                {
                  "internalType": "bool",
                  "name": "processData",
                  "type": "bool"
                },
                {
                  "internalType": "bool",
                  "name": "shareDataWithThirdParty",
                  "type": "bool"
                },
                {
                  "internalType": "bool",
                  "name": "editData",
                  "type": "bool"
                }
              ],
              "internalType": "struct IntendedUse",
              "name": "intendedUse",
              "type": "tuple"
            },
            {
              "components": [
                {
                  "internalType": "bool",
                  "name": "transferable",
                  "type": "bool"
                },
                {
                  "internalType": "bool",
                  "name": "exclusiveness",
                  "type": "bool"
                },
                {
                  "internalType": "bool",
                  "name": "paidUp",
                  "type": "bool"
                },
                {
                  "internalType": "bool",
                  "name": "revocable",
                  "type": "bool"
                },
                {
                  "internalType": "bool",
                  "name": "processing",
                  "type": "bool"
                },
                {
                  "internalType": "bool",
                  "name": "modifying",
                  "type": "bool"
                },
                {
                  "internalType": "bool",
                  "name": "analyzing",
                  "type": "bool"
                },
                {
                  "internalType": "bool",
                  "name": "storingData",
                  "type": "bool"
                },
                {
                  "internalType": "bool",
                  "name": "storingCopy",
                  "type": "bool"
                },
                {
                  "internalType": "bool",
                  "name": "reproducing",
                  "type": "bool"
                },
                {
                  "internalType": "bool",
                  "name": "distributing",
                  "type": "bool"
                },
                {
                  "internalType": "bool",
                  "name": "loaning",
                  "type": "bool"
                },
                {
                  "internalType": "bool",
                  "name": "selling",
                  "type": "bool"
                },
                {
                  "internalType": "bool",
                  "name": "renting",
                  "type": "bool"
                },
                {
                  "internalType": "bool",
                  "name": "furtherLicensing",
                  "type": "bool"
                },
                {
                  "internalType": "bool",
                  "name": "leasing",
                  "type": "bool"
                }
              ],
              "internalType": "struct LicenseGrant",
              "name": "licenseGrant",
              "type": "tuple"
            },
            {
              "components": [
                {
                  "internalType": "bool",
                  "name": "dataStream",
                  "type": "bool"
                },
                {
                  "internalType": "bool",
                  "name": "personalData",
                  "type": "bool"
                }
              ],
              "internalType": "struct TypeOfData",
              "name": "typeOfData",
              "type": "tuple"
            },
            {
              "components": [
                {
                  "internalType": "string",
                  "name": "paymentType",
                  "type": "string"
                },
                {
                  "internalType": "uint256",
                  "name": "price",
                  "type": "uint256"
                },
                {
                  "internalType": "string",
                  "name": "currency",
                  "type": "string"
                },
                {
                  "internalType": "uint256",
                  "name": "fee",
                  "type": "uint256"
                },
                {
                  "components": [
                    {
                      "internalType": "string",
                      "name": "timeDuration",
                      "type": "string"
                    },
                    {
                      "internalType": "string",
                      "name": "repeat",
                      "type": "string"
                    }
                  ],
                  "internalType": "struct PaymentOnSubscription",
                  "name": "paymentOnSubscription",
                  "type": "tuple"
                },
                {
                  "internalType": "bool",
                  "name": "isFree",
                  "type": "bool"
                }
              ],
              "internalType": "struct PricingModel",
              "name": "pricingModel",
              "type": "tuple"
            },
            {
              "components": [
                {
                  "internalType": "enum ViolationType",
                  "name": "violationType",
                  "type": "uint8"
                },
                {
                  "internalType": "string",
                  "name": "issuerId",
                  "type": "string"
                },
                {
                  "internalType": "string[3]",
                  "name": "penaltyChoices",
                  "type": "string[3]"
                }
              ],
              "internalType": "struct Violation",
              "name": "violation",
              "type": "tuple"
            },
            {
              "internalType": "bool",
              "name": "termination",
              "type": "bool"
            }
          ],
          "internalType": "struct Agreement",
          "name": "",
          "type": "tuple"
        }
      ],
      "stateMutability": "view",
      "type": "function"
    },
    {
      "inputs": [
        {
          "internalType": "string[]",
          "name": "_consumerPublicKeys",
          "type": "string[]"
        },
        {
          "internalType": "bool",
          "name": "active",
          "type": "bool"
        }
      ],
      "name": "getAgreementsByConsumer",
      "outputs": [
        {
          "components": [
            {
              "internalType": "uint256",
              "name": "agreementId",
              "type": "uint256"
            },
            {
              "internalType": "string",
              "name": "providerPublicKey",
              "type": "string"
            },
            {
              "internalType": "string",
              "name": "consumerPublicKey",
              "type": "string"
            },
            {
              "internalType": "string",
              "name": "dataExchangeAgreementHash",
              "type": "string"
            },
            {
              "internalType": "string[2]",
              "name": "signatures",
              "type": "string[2]"
            },
            {
              "components": [
                {
                  "internalType": "string",
                  "name": "dataOfferingId",
                  "type": "string"
                },
                {
                  "internalType": "uint256",
                  "name": "dataOfferingVersion",
                  "type": "uint256"
                },
                {
                  "internalType": "string",
                  "name": "title",
                  "type": "string"
                }
              ],
              "internalType": "struct DataOffering",
              "name": "dataOffering",
              "type": "tuple"
            },
            {
              "internalType": "string",
              "name": "purpose",
              "type": "string"
            },
            {
              "internalType": "enum State",
              "name": "state",
              "type": "uint8"
            },
            {
              "internalType": "uint256[3]",
              "name": "agreementDates",
              "type": "uint256[3]"
            },
            {
              "components": [
                {
                  "internalType": "bool",
                  "name": "processData",
                  "type": "bool"
                },
                {
                  "internalType": "bool",
                  "name": "shareDataWithThirdParty",
                  "type": "bool"
                },
                {
                  "internalType": "bool",
                  "name": "editData",
                  "type": "bool"
                }
              ],
              "internalType": "struct IntendedUse",
              "name": "intendedUse",
              "type": "tuple"
            },
            {
              "components": [
                {
                  "internalType": "bool",
                  "name": "transferable",
                  "type": "bool"
                },
                {
                  "internalType": "bool",
                  "name": "exclusiveness",
                  "type": "bool"
                },
                {
                  "internalType": "bool",
                  "name": "paidUp",
                  "type": "bool"
                },
                {
                  "internalType": "bool",
                  "name": "revocable",
                  "type": "bool"
                },
                {
                  "internalType": "bool",
                  "name": "processing",
                  "type": "bool"
                },
                {
                  "internalType": "bool",
                  "name": "modifying",
                  "type": "bool"
                },
                {
                  "internalType": "bool",
                  "name": "analyzing",
                  "type": "bool"
                },
                {
                  "internalType": "bool",
                  "name": "storingData",
                  "type": "bool"
                },
                {
                  "internalType": "bool",
                  "name": "storingCopy",
                  "type": "bool"
                },
                {
                  "internalType": "bool",
                  "name": "reproducing",
                  "type": "bool"
                },
                {
                  "internalType": "bool",
                  "name": "distributing",
                  "type": "bool"
                },
                {
                  "internalType": "bool",
                  "name": "loaning",
                  "type": "bool"
                },
                {
                  "internalType": "bool",
                  "name": "selling",
                  "type": "bool"
                },
                {
                  "internalType": "bool",
                  "name": "renting",
                  "type": "bool"
                },
                {
                  "internalType": "bool",
                  "name": "furtherLicensing",
                  "type": "bool"
                },
                {
                  "internalType": "bool",
                  "name": "leasing",
                  "type": "bool"
                }
              ],
              "internalType": "struct LicenseGrant",
              "name": "licenseGrant",
              "type": "tuple"
            },
            {
              "components": [
                {
                  "internalType": "bool",
                  "name": "dataStream",
                  "type": "bool"
                },
                {
                  "internalType": "bool",
                  "name": "personalData",
                  "type": "bool"
                }
              ],
              "internalType": "struct TypeOfData",
              "name": "typeOfData",
              "type": "tuple"
            },
            {
              "components": [
                {
                  "internalType": "string",
                  "name": "paymentType",
                  "type": "string"
                },
                {
                  "internalType": "uint256",
                  "name": "price",
                  "type": "uint256"
                },
                {
                  "internalType": "string",
                  "name": "currency",
                  "type": "string"
                },
                {
                  "internalType": "uint256",
                  "name": "fee",
                  "type": "uint256"
                },
                {
                  "components": [
                    {
                      "internalType": "string",
                      "name": "timeDuration",
                      "type": "string"
                    },
                    {
                      "internalType": "string",
                      "name": "repeat",
                      "type": "string"
                    }
                  ],
                  "internalType": "struct PaymentOnSubscription",
                  "name": "paymentOnSubscription",
                  "type": "tuple"
                },
                {
                  "internalType": "bool",
                  "name": "isFree",
                  "type": "bool"
                }
              ],
              "internalType": "struct PricingModel",
              "name": "pricingModel",
              "type": "tuple"
            },
            {
              "components": [
                {
                  "internalType": "enum ViolationType",
                  "name": "violationType",
                  "type": "uint8"
                },
                {
                  "internalType": "string",
                  "name": "issuerId",
                  "type": "string"
                },
                {
                  "internalType": "string[3]",
                  "name": "penaltyChoices",
                  "type": "string[3]"
                }
              ],
              "internalType": "struct Violation",
              "name": "violation",
              "type": "tuple"
            },
            {
              "internalType": "bool",
              "name": "termination",
              "type": "bool"
            }
          ],
          "internalType": "struct Agreement[]",
          "name": "",
          "type": "tuple[]"
        }
      ],
      "stateMutability": "view",
      "type": "function"
    },
    {
      "inputs": [
        {
          "internalType": "string[]",
          "name": "_providerPublicKeys",
          "type": "string[]"
        },
        {
          "internalType": "bool",
          "name": "active",
          "type": "bool"
        }
      ],
      "name": "getAgreementsByProvider",
      "outputs": [
        {
          "components": [
            {
              "internalType": "uint256",
              "name": "agreementId",
              "type": "uint256"
            },
            {
              "internalType": "string",
              "name": "providerPublicKey",
              "type": "string"
            },
            {
              "internalType": "string",
              "name": "consumerPublicKey",
              "type": "string"
            },
            {
              "internalType": "string",
              "name": "dataExchangeAgreementHash",
              "type": "string"
            },
            {
              "internalType": "string[2]",
              "name": "signatures",
              "type": "string[2]"
            },
            {
              "components": [
                {
                  "internalType": "string",
                  "name": "dataOfferingId",
                  "type": "string"
                },
                {
                  "internalType": "uint256",
                  "name": "dataOfferingVersion",
                  "type": "uint256"
                },
                {
                  "internalType": "string",
                  "name": "title",
                  "type": "string"
                }
              ],
              "internalType": "struct DataOffering",
              "name": "dataOffering",
              "type": "tuple"
            },
            {
              "internalType": "string",
              "name": "purpose",
              "type": "string"
            },
            {
              "internalType": "enum State",
              "name": "state",
              "type": "uint8"
            },
            {
              "internalType": "uint256[3]",
              "name": "agreementDates",
              "type": "uint256[3]"
            },
            {
              "components": [
                {
                  "internalType": "bool",
                  "name": "processData",
                  "type": "bool"
                },
                {
                  "internalType": "bool",
                  "name": "shareDataWithThirdParty",
                  "type": "bool"
                },
                {
                  "internalType": "bool",
                  "name": "editData",
                  "type": "bool"
                }
              ],
              "internalType": "struct IntendedUse",
              "name": "intendedUse",
              "type": "tuple"
            },
            {
              "components": [
                {
                  "internalType": "bool",
                  "name": "transferable",
                  "type": "bool"
                },
                {
                  "internalType": "bool",
                  "name": "exclusiveness",
                  "type": "bool"
                },
                {
                  "internalType": "bool",
                  "name": "paidUp",
                  "type": "bool"
                },
                {
                  "internalType": "bool",
                  "name": "revocable",
                  "type": "bool"
                },
                {
                  "internalType": "bool",
                  "name": "processing",
                  "type": "bool"
                },
                {
                  "internalType": "bool",
                  "name": "modifying",
                  "type": "bool"
                },
                {
                  "internalType": "bool",
                  "name": "analyzing",
                  "type": "bool"
                },
                {
                  "internalType": "bool",
                  "name": "storingData",
                  "type": "bool"
                },
                {
                  "internalType": "bool",
                  "name": "storingCopy",
                  "type": "bool"
                },
                {
                  "internalType": "bool",
                  "name": "reproducing",
                  "type": "bool"
                },
                {
                  "internalType": "bool",
                  "name": "distributing",
                  "type": "bool"
                },
                {
                  "internalType": "bool",
                  "name": "loaning",
                  "type": "bool"
                },
                {
                  "internalType": "bool",
                  "name": "selling",
                  "type": "bool"
                },
                {
                  "internalType": "bool",
                  "name": "renting",
                  "type": "bool"
                },
                {
                  "internalType": "bool",
                  "name": "furtherLicensing",
                  "type": "bool"
                },
                {
                  "internalType": "bool",
                  "name": "leasing",
                  "type": "bool"
                }
              ],
              "internalType": "struct LicenseGrant",
              "name": "licenseGrant",
              "type": "tuple"
            },
            {
              "components": [
                {
                  "internalType": "bool",
                  "name": "dataStream",
                  "type": "bool"
                },
                {
                  "internalType": "bool",
                  "name": "personalData",
                  "type": "bool"
                }
              ],
              "internalType": "struct TypeOfData",
              "name": "typeOfData",
              "type": "tuple"
            },
            {
              "components": [
                {
                  "internalType": "string",
                  "name": "paymentType",
                  "type": "string"
                },
                {
                  "internalType": "uint256",
                  "name": "price",
                  "type": "uint256"
                },
                {
                  "internalType": "string",
                  "name": "currency",
                  "type": "string"
                },
                {
                  "internalType": "uint256",
                  "name": "fee",
                  "type": "uint256"
                },
                {
                  "components": [
                    {
                      "internalType": "string",
                      "name": "timeDuration",
                      "type": "string"
                    },
                    {
                      "internalType": "string",
                      "name": "repeat",
                      "type": "string"
                    }
                  ],
                  "internalType": "struct PaymentOnSubscription",
                  "name": "paymentOnSubscription",
                  "type": "tuple"
                },
                {
                  "internalType": "bool",
                  "name": "isFree",
                  "type": "bool"
                }
              ],
              "internalType": "struct PricingModel",
              "name": "pricingModel",
              "type": "tuple"
            },
            {
              "components": [
                {
                  "internalType": "enum ViolationType",
                  "name": "violationType",
                  "type": "uint8"
                },
                {
                  "internalType": "string",
                  "name": "issuerId",
                  "type": "string"
                },
                {
                  "internalType": "string[3]",
                  "name": "penaltyChoices",
                  "type": "string[3]"
                }
              ],
              "internalType": "struct Violation",
              "name": "violation",
              "type": "tuple"
            },
            {
              "internalType": "bool",
              "name": "termination",
              "type": "bool"
            }
          ],
          "internalType": "struct Agreement[]",
          "name": "",
          "type": "tuple[]"
        }
      ],
      "stateMutability": "view",
      "type": "function"
    },
    {
      "inputs": [],
      "name": "getAgreementsLength",
      "outputs": [
        {
          "internalType": "uint256",
          "name": "",
          "type": "uint256"
        }
      ],
      "stateMutability": "view",
      "type": "function"
    },
    {
      "inputs": [
        {
          "internalType": "uint256",
          "name": "id",
          "type": "uint256"
        }
      ],
      "name": "getState",
      "outputs": [
        {
          "internalType": "enum State",
          "name": "",
          "type": "uint8"
        }
      ],
      "stateMutability": "view",
      "type": "function"
    },
    {
      "inputs": [
        {
          "internalType": "string",
          "name": "_dataOfferingId",
          "type": "string"
        }
      ],
      "name": "notifyConsentRevoked",
      "outputs": [
        {
          "internalType": "string[]",
          "name": "",
          "type": "string[]"
        }
      ],
      "stateMutability": "view",
      "type": "function"
    },
    {
      "inputs": [
        {
          "internalType": "uint256",
          "name": "agreementId",
          "type": "uint256"
        },
        {
          "internalType": "string",
          "name": "_publicKey",
          "type": "string"
        }
      ],
      "name": "requestAgreementTermination",
      "outputs": [],
      "stateMutability": "nonpayable",
      "type": "function"
    },
    {
      "inputs": [
        {
          "internalType": "string",
          "name": "_consumerPublicKey",
          "type": "string"
        }
      ],
      "name": "retrieveAgreements",
      "outputs": [
        {
          "components": [
            {
              "internalType": "uint256",
              "name": "agreementId",
              "type": "uint256"
            },
            {
              "internalType": "string",
              "name": "providerPublicKey",
              "type": "string"
            },
            {
              "internalType": "string",
              "name": "consumerPublicKey",
              "type": "string"
            },
            {
              "internalType": "string",
              "name": "dataExchangeAgreementHash",
              "type": "string"
            },
            {
              "internalType": "string[2]",
              "name": "signatures",
              "type": "string[2]"
            },
            {
              "components": [
                {
                  "internalType": "string",
                  "name": "dataOfferingId",
                  "type": "string"
                },
                {
                  "internalType": "uint256",
                  "name": "dataOfferingVersion",
                  "type": "uint256"
                },
                {
                  "internalType": "string",
                  "name": "title",
                  "type": "string"
                }
              ],
              "internalType": "struct DataOffering",
              "name": "dataOffering",
              "type": "tuple"
            },
            {
              "internalType": "string",
              "name": "purpose",
              "type": "string"
            },
            {
              "internalType": "enum State",
              "name": "state",
              "type": "uint8"
            },
            {
              "internalType": "uint256[3]",
              "name": "agreementDates",
              "type": "uint256[3]"
            },
            {
              "components": [
                {
                  "internalType": "bool",
                  "name": "processData",
                  "type": "bool"
                },
                {
                  "internalType": "bool",
                  "name": "shareDataWithThirdParty",
                  "type": "bool"
                },
                {
                  "internalType": "bool",
                  "name": "editData",
                  "type": "bool"
                }
              ],
              "internalType": "struct IntendedUse",
              "name": "intendedUse",
              "type": "tuple"
            },
            {
              "components": [
                {
                  "internalType": "bool",
                  "name": "transferable",
                  "type": "bool"
                },
                {
                  "internalType": "bool",
                  "name": "exclusiveness",
                  "type": "bool"
                },
                {
                  "internalType": "bool",
                  "name": "paidUp",
                  "type": "bool"
                },
                {
                  "internalType": "bool",
                  "name": "revocable",
                  "type": "bool"
                },
                {
                  "internalType": "bool",
                  "name": "processing",
                  "type": "bool"
                },
                {
                  "internalType": "bool",
                  "name": "modifying",
                  "type": "bool"
                },
                {
                  "internalType": "bool",
                  "name": "analyzing",
                  "type": "bool"
                },
                {
                  "internalType": "bool",
                  "name": "storingData",
                  "type": "bool"
                },
                {
                  "internalType": "bool",
                  "name": "storingCopy",
                  "type": "bool"
                },
                {
                  "internalType": "bool",
                  "name": "reproducing",
                  "type": "bool"
                },
                {
                  "internalType": "bool",
                  "name": "distributing",
                  "type": "bool"
                },
                {
                  "internalType": "bool",
                  "name": "loaning",
                  "type": "bool"
                },
                {
                  "internalType": "bool",
                  "name": "selling",
                  "type": "bool"
                },
                {
                  "internalType": "bool",
                  "name": "renting",
                  "type": "bool"
                },
                {
                  "internalType": "bool",
                  "name": "furtherLicensing",
                  "type": "bool"
                },
                {
                  "internalType": "bool",
                  "name": "leasing",
                  "type": "bool"
                }
              ],
              "internalType": "struct LicenseGrant",
              "name": "licenseGrant",
              "type": "tuple"
            },
            {
              "components": [
                {
                  "internalType": "bool",
                  "name": "dataStream",
                  "type": "bool"
                },
                {
                  "internalType": "bool",
                  "name": "personalData",
                  "type": "bool"
                }
              ],
              "internalType": "struct TypeOfData",
              "name": "typeOfData",
              "type": "tuple"
            },
            {
              "components": [
                {
                  "internalType": "string",
                  "name": "paymentType",
                  "type": "string"
                },
                {
                  "internalType": "uint256",
                  "name": "price",
                  "type": "uint256"
                },
                {
                  "internalType": "string",
                  "name": "currency",
                  "type": "string"
                },
                {
                  "internalType": "uint256",
                  "name": "fee",
                  "type": "uint256"
                },
                {
                  "components": [
                    {
                      "internalType": "string",
                      "name": "timeDuration",
                      "type": "string"
                    },
                    {
                      "internalType": "string",
                      "name": "repeat",
                      "type": "string"
                    }
                  ],
                  "internalType": "struct PaymentOnSubscription",
                  "name": "paymentOnSubscription",
                  "type": "tuple"
                },
                {
                  "internalType": "bool",
                  "name": "isFree",
                  "type": "bool"
                }
              ],
              "internalType": "struct PricingModel",
              "name": "pricingModel",
              "type": "tuple"
            },
            {
              "components": [
                {
                  "internalType": "enum ViolationType",
                  "name": "violationType",
                  "type": "uint8"
                },
                {
                  "internalType": "string",
                  "name": "issuerId",
                  "type": "string"
                },
                {
                  "internalType": "string[3]",
                  "name": "penaltyChoices",
                  "type": "string[3]"
                }
              ],
              "internalType": "struct Violation",
              "name": "violation",
              "type": "tuple"
            },
            {
              "internalType": "bool",
              "name": "termination",
              "type": "bool"
            }
          ],
          "internalType": "struct Agreement[]",
          "name": "",
          "type": "tuple[]"
        },
        {
          "internalType": "uint256",
          "name": "k",
          "type": "uint256"
        }
      ],
      "stateMutability": "view",
      "type": "function"
    },
    {
      "inputs": [
        {
          "internalType": "uint256",
          "name": "_agreementId",
          "type": "uint256"
        }
      ],
      "name": "retrievePricingModel",
      "outputs": [
        {
          "components": [
            {
              "internalType": "string",
              "name": "paymentType",
              "type": "string"
            },
            {
              "internalType": "uint256",
              "name": "price",
              "type": "uint256"
            },
            {
              "internalType": "string",
              "name": "currency",
              "type": "string"
            },
            {
              "internalType": "uint256",
              "name": "fee",
              "type": "uint256"
            },
            {
              "components": [
                {
                  "internalType": "string",
                  "name": "timeDuration",
                  "type": "string"
                },
                {
                  "internalType": "string",
                  "name": "repeat",
                  "type": "string"
                }
              ],
              "internalType": "struct PaymentOnSubscription",
              "name": "paymentOnSubscription",
              "type": "tuple"
            },
            {
              "internalType": "bool",
              "name": "isFree",
              "type": "bool"
            }
          ],
          "internalType": "struct PricingModel",
          "name": "",
          "type": "tuple"
        }
      ],
      "stateMutability": "view",
      "type": "function"
    },
    {
      "inputs": [
        {
          "internalType": "uint256",
          "name": "_agreementId",
          "type": "uint256"
        }
      ],
      "name": "terminateAgreement",
      "outputs": [],
      "stateMutability": "nonpayable",
      "type": "function"
    }
  ],
  "transactionHash": "0x29eb49588e5c0e0a7129bc411ce45d3d3b2975f5ab1de3f4d7cee9641cb3c5ee",
  "args": [],
  "solcInputHash": "7b4b6dda4242265662469b37d10c2508",
  "bytecode": "0x608060405234801561001057600080fd5b506150c4806100206000396000f3fe608060405234801561001057600080fd5b50600436106101005760003560e01c80634f9f6fe611610097578063bd14de9611610066578063bd14de9614610236578063d8414b0214610262578063dd4be34b14610275578063ee4b2db51461028857600080fd5b80634f9f6fe6146101db578063667a8beb146101fb5780639a02692414610210578063b5bdf36b1461022357600080fd5b806330937f3a116100d357806330937f3a1461016757806332893afb1461018857806344c9af28146101a85780634dffbf0d146101c857600080fd5b8063063bd15a1461010557806311403a80146101235780631371b64a146101365780631c510ea914610156575b600080fd5b61010d61029b565b60405161011a9190613848565b60405180910390f35b61010d610131366004613a19565b610334565b610149610144366004613adc565b6103d3565b60405161011a9190613af5565b60065460405190815260200161011a565b61017a610175366004613b08565b610691565b60405161011a929190613b3d565b61019b610196366004613b08565b61072f565b60405161011a9190613b5f565b6101bb6101b6366004613adc565b61091c565b60405161011a9190613bc1565b61010d6101d6366004613b08565b61094e565b6101ee6101e9366004613adc565b6109ea565b60405161011a9190613bcf565b61020e610209366004613be2565b6114c3565b005b61020e61021e366004613adc565b61175f565b61020e610231366004613c44565b6118c1565b610249610244366004613adc565b611b45565b60405161011a9d9c9b9a99989796959493929190613c8b565b61010d610270366004613a19565b6124a8565b61020e610283366004613d97565b6124eb565b61020e6102963660046142dc565b612611565b604051632e4e974560e21b81526006600482015260006024820181905260609173d87a65a499B84CB08AD2B7Ae04951C6975Aaf3809063b93a5d149060440160006040518083038186803b1580156102f257600080fd5b505af4158015610306573d6000803e3d6000fd5b505050506040513d6000823e601f3d908101601f1916820160405261032e9190810190614bc6565b92915050565b6060600073621Ff939Fa681a7884C45F24De60D60698d5c66c630abfe6d66006868660006040518563ffffffff1660e01b81526004016103779493929190614bfb565b60006040518083038186803b15801561038f57600080fd5b505af41580156103a3573d6000803e3d6000fd5b505050506040513d6000823e601f3d908101601f191682016040526103cb9190810190614bc6565b949350505050565b6103db612f4d565b600682815481106103ee576103ee614c74565b90600052602060002090601e02016011016040518060c001604052908160008201805461041a90614c8a565b80601f016020809104026020016040519081016040528092919081815260200182805461044690614c8a565b80156104935780601f1061046857610100808354040283529160200191610493565b820191906000526020600020905b81548152906001019060200180831161047657829003601f168201915b50505050508152602001600182015481526020016002820180546104b690614c8a565b80601f01602080910402602001604051908101604052809291908181526020018280546104e290614c8a565b801561052f5780601f106105045761010080835404028352916020019161052f565b820191906000526020600020905b81548152906001019060200180831161051257829003601f168201915b50505050508152602001600382015481526020016004820160405180604001604052908160008201805461056290614c8a565b80601f016020809104026020016040519081016040528092919081815260200182805461058e90614c8a565b80156105db5780601f106105b0576101008083540402835291602001916105db565b820191906000526020600020905b8154815290600101906020018083116105be57829003601f168201915b505050505081526020016001820180546105f490614c8a565b80601f016020809104026020016040519081016040528092919081815260200182805461062090614c8a565b801561066d5780601f106106425761010080835404028352916020019161066d565b820191906000526020600020905b81548152906001019060200180831161065057829003601f168201915b5050509190925250505081526006919091015460ff16151560209091015292915050565b6060600073d87a65a499B84CB08AD2B7Ae04951C6975Aaf380631b6bcbbf60068560006040518463ffffffff1660e01b81526004016106d293929190614cc5565b60006040518083038186803b1580156106ea57600080fd5b505af41580156106fe573d6000803e3d6000fd5b505050506040513d6000823e601f3d908101601f191682016040526107269190810190614cee565b91509150915091565b6060600080600501836040516107459190614d35565b90815260200160405180910390205467ffffffffffffffff81111561076c5761076c61385b565b60405190808252806020026020018201604052801561079f57816020015b606081526020019060019003908161078a5790505b5090506000805b60065481101561091357846040516020016107c19190614d35565b60405160208183030381529060405280519060200120600682815481106107ea576107ea614c74565b90600052602060002090601e020160060160000160405160200161080e9190614d51565b604051602081830303815290604052805190602001201415610901576006818154811061083d5761083d614c74565b90600052602060002090601e0201600201805461085990614c8a565b80601f016020809104026020016040519081016040528092919081815260200182805461088590614c8a565b80156108d25780601f106108a7576101008083540402835291602001916108d2565b820191906000526020600020905b8154815290600101906020018083116108b557829003601f168201915b50505050508383806108e390614dd9565b9450815181106108f5576108f5614c74565b60200260200101819052505b8061090b81614dd9565b9150506107a6565b50909392505050565b60006006828154811061093157610931614c74565b60009182526020909120600a601e90920201015460ff1692915050565b6060600073d87a65a499B84CB08AD2B7Ae04951C6975Aaf38063e41ecb3b60068560006040518463ffffffff1660e01b815260040161098f93929190614cc5565b60006040518083038186803b1580156109a757600080fd5b505af41580156109bb573d6000803e3d6000fd5b505050506040513d6000823e601f3d908101601f191682016040526109e39190810190614bc6565b9392505050565b6109f2612f9e565b60068281548110610a0557610a05614c74565b90600052602060002090601e0201604051806101e001604052908160008201548152602001600182018054610a3990614c8a565b80601f0160208091040260200160405190810160405280929190818152602001828054610a6590614c8a565b8015610ab25780601f10610a8757610100808354040283529160200191610ab2565b820191906000526020600020905b815481529060010190602001808311610a9557829003601f168201915b50505050508152602001600282018054610acb90614c8a565b80601f0160208091040260200160405190810160405280929190818152602001828054610af790614c8a565b8015610b445780601f10610b1957610100808354040283529160200191610b44565b820191906000526020600020905b815481529060010190602001808311610b2757829003601f168201915b50505050508152602001600382018054610b5d90614c8a565b80601f0160208091040260200160405190810160405280929190818152602001828054610b8990614c8a565b8015610bd65780601f10610bab57610100808354040283529160200191610bd6565b820191906000526020600020905b815481529060010190602001808311610bb957829003601f168201915b5050509183525050604080518082019091526020909101906004830160026000835b82821015610c9b578382018054610c0e90614c8a565b80601f0160208091040260200160405190810160405280929190818152602001828054610c3a90614c8a565b8015610c875780601f10610c5c57610100808354040283529160200191610c87565b820191906000526020600020905b815481529060010190602001808311610c6a57829003601f168201915b505050505081526020019060010190610bf8565b50505050815260200160068201604051806060016040529081600082018054610cc390614c8a565b80601f0160208091040260200160405190810160405280929190818152602001828054610cef90614c8a565b8015610d3c5780601f10610d1157610100808354040283529160200191610d3c565b820191906000526020600020905b815481529060010190602001808311610d1f57829003601f168201915b5050505050815260200160018201548152602001600282018054610d5f90614c8a565b80601f0160208091040260200160405190810160405280929190818152602001828054610d8b90614c8a565b8015610dd85780601f10610dad57610100808354040283529160200191610dd8565b820191906000526020600020905b815481529060010190602001808311610dbb57829003601f168201915b5050505050815250508152602001600982018054610df590614c8a565b80601f0160208091040260200160405190810160405280929190818152602001828054610e2190614c8a565b8015610e6e5780601f10610e4357610100808354040283529160200191610e6e565b820191906000526020600020905b815481529060010190602001808311610e5157829003601f168201915b5050509183525050600a82015460209091019060ff166002811115610e9557610e95613404565b6002811115610ea657610ea6613404565b815260408051606081019182905260209092019190600b84019060039082845b815481526020019060010190808311610ec65750505091835250506040805160608082018352600e85015460ff80821615158452610100808304821615156020868101919091526201000093849004831615158688015280880195909552855161020081018752600f89015480841615158252828104841615158288015293840483161515818801526301000000840483161515818601526401000000008404831615156080808301919091526501000000000085048416151560a0830152660100000000000085048416151560c08084019190915267010000000000000086048516151560e0840152680100000000000000008604851615158385015269010000000000000000008604851615156101208401526a0100000000000000000000860485161515610140840152600160581b860485161515610160840152600160601b860485161515610180840152600160681b8604851615156101a0840152600160701b8604851615156101c0840152600160781b909504841615156101e0830152878901919091528651808801885260108a01548085161515825292909204909216151594810194909452918501929092528251918201909252601184018054929093019290918290829061109c90614c8a565b80601f01602080910402602001604051908101604052809291908181526020018280546110c890614c8a565b80156111155780601f106110ea57610100808354040283529160200191611115565b820191906000526020600020905b8154815290600101906020018083116110f857829003601f168201915b505050505081526020016001820154815260200160028201805461113890614c8a565b80601f016020809104026020016040519081016040528092919081815260200182805461116490614c8a565b80156111b15780601f10611186576101008083540402835291602001916111b1565b820191906000526020600020905b81548152906001019060200180831161119457829003601f168201915b5050505050815260200160038201548152602001600482016040518060400160405290816000820180546111e490614c8a565b80601f016020809104026020016040519081016040528092919081815260200182805461121090614c8a565b801561125d5780601f106112325761010080835404028352916020019161125d565b820191906000526020600020905b81548152906001019060200180831161124057829003601f168201915b5050505050815260200160018201805461127690614c8a565b80601f01602080910402602001604051908101604052809291908181526020018280546112a290614c8a565b80156112ef5780601f106112c4576101008083540402835291602001916112ef565b820191906000526020600020905b8154815290600101906020018083116112d257829003601f168201915b5050509190925250505081526006919091015460ff9081161515602092830152918352604080516060810190915260188501805494909201939092839116600481111561133e5761133e613404565b600481111561134f5761134f613404565b815260200160018201805461136390614c8a565b80601f016020809104026020016040519081016040528092919081815260200182805461138f90614c8a565b80156113dc5780601f106113b1576101008083540402835291602001916113dc565b820191906000526020600020905b8154815290600101906020018083116113bf57829003601f168201915b505050918352505060408051606081019091526020909101906002830160036000835b828210156114a257838201805461141590614c8a565b80601f016020809104026020016040519081016040528092919081815260200182805461144190614c8a565b801561148e5780601f106114635761010080835404028352916020019161148e565b820191906000526020600020905b81548152906001019060200180831161147157829003601f168201915b5050505050815260200190600101906113ff565b505050915250508152601d919091015460ff16151560209091015292915050565b6001600686815481106114d8576114d8614c74565b60009182526020909120600a601e90920201015460ff16600281111561150057611500613404565b146115785760405162461bcd60e51b815260206004820152603660248201527f41677265656d656e74206d7573742062652076696f6c6174656420696e206f7260448201527f64657220746f20656e666f7263652070656e616c74790000000000000000000060648201526084015b60405180910390fd5b604051685465726d696e61746560b81b602082015260290160405160208183030381529060405280519060200120846040516020016115b79190614d35565b604051602081830303815290604052805190602001201415611618576001600686815481106115e8576115e8614c74565b60009182526020909120601e90910201601d01805460ff19169115159190911790556116138561175f565b611758565b735AB30585805B1F7Df3c4000e7179B5D434a7Daf263cb5893c96006878154811061164557611645614c74565b90600052602060002090601e02018686868660006040518763ffffffff1660e01b815260040161167a96959493929190614df4565b60006040518083038186803b15801561169257600080fd5b505af41580156116a6573d6000803e3d6000fd5b505050507f6a5b41877c1e19e7405feb10468979239b83616b44fef14f87bc82641810bcde600686815481106116de576116de614c74565b90600052602060002090601e02016001016006878154811061170257611702614c74565b90600052602060002090601e02016002016006888154811061172657611726614c74565b90600052602060002090601e0201600001548785888860405161174f9796959493929190614ea9565b60405180910390a15b5050505050565b7391723B01D19111573d2a21967a7227677C847A10632cd1c6566006838154811061178c5761178c614c74565b90600052602060002090601e020160006040518363ffffffff1660e01b81526004016117c2929190918252602082015260400190565b60006040518083038186803b1580156117da57600080fd5b505af41580156117ee573d6000803e3d6000fd5b50600292506117fb915050565b6006828154811061180e5761180e614c74565b60009182526020909120600a601e90920201015460ff16600281111561183657611836613404565b14156118be577f8fdec0edc19a1eb9147642be05b326b7f5d42bf96f5ba734530bfca33bc8d7e96006828154811061187057611870614c74565b90600052602060002090601e02016001016006838154811061189457611894614c74565b90600052602060002090601e0201600201836040516118b593929190614f08565b60405180910390a15b50565b806040516020016118d29190614d35565b60405160208183030381529060405280519060200120600683815481106118fb576118fb614c74565b90600052602060002090601e020160010160405160200161191c9190614d51565b6040516020818303038152906040528051906020012014806119ac57508060405160200161194a9190614d35565b604051602081830303815290604052805190602001206006838154811061197357611973614c74565b90600052602060002090601e02016002016040516020016119949190614d51565b60405160208183030381529060405280519060200120145b6119b557600080fd5b6001600683815481106119ca576119ca614c74565b90600052602060002090601e0201601d0160006101000a81548160ff02191690831515021790555080604051602001611a039190614d35565b6040516020818303038152906040528051906020012060068381548110611a2c57611a2c614c74565b90600052602060002090601e0201600101604051602001611a4d9190614d51565b604051602081830303815290604052805190602001201415611aed577f5b110f233309bfcc0428fef61705787d5e6e67380b4a0ec71654cf1de0496a6d60068381548110611a9d57611a9d614c74565b90600052602060002090601e020160020160068481548110611ac157611ac1614c74565b90600052602060002090601e020160000154604051611ae1929190614f3e565b60405180910390a15050565b7f5b110f233309bfcc0428fef61705787d5e6e67380b4a0ec71654cf1de0496a6d60068381548110611b2157611b21614c74565b90600052602060002090601e020160010160068481548110611ac157611ac1614c74565b60068181548110611b5557600080fd5b60009182526020909120601e90910201805460018201805491935090611b7a90614c8a565b80601f0160208091040260200160405190810160405280929190818152602001828054611ba690614c8a565b8015611bf35780601f10611bc857610100808354040283529160200191611bf3565b820191906000526020600020905b815481529060010190602001808311611bd657829003601f168201915b505050505090806002018054611c0890614c8a565b80601f0160208091040260200160405190810160405280929190818152602001828054611c3490614c8a565b8015611c815780601f10611c5657610100808354040283529160200191611c81565b820191906000526020600020905b815481529060010190602001808311611c6457829003601f168201915b505050505090806003018054611c9690614c8a565b80601f0160208091040260200160405190810160405280929190818152602001828054611cc290614c8a565b8015611d0f5780601f10611ce457610100808354040283529160200191611d0f565b820191906000526020600020905b815481529060010190602001808311611cf257829003601f168201915b50505050509080600601604051806060016040529081600082018054611d3490614c8a565b80601f0160208091040260200160405190810160405280929190818152602001828054611d6090614c8a565b8015611dad5780601f10611d8257610100808354040283529160200191611dad565b820191906000526020600020905b815481529060010190602001808311611d9057829003601f168201915b5050505050815260200160018201548152602001600282018054611dd090614c8a565b80601f0160208091040260200160405190810160405280929190818152602001828054611dfc90614c8a565b8015611e495780601f10611e1e57610100808354040283529160200191611e49565b820191906000526020600020905b815481529060010190602001808311611e2c57829003601f168201915b50505050508152505090806009018054611e6290614c8a565b80601f0160208091040260200160405190810160405280929190818152602001828054611e8e90614c8a565b8015611edb5780601f10611eb057610100808354040283529160200191611edb565b820191906000526020600020905b815481529060010190602001808311611ebe57829003601f168201915b505050600a8401546040805160608082018352600e88015460ff818116151584526101008083048216151560208087019190915262010000938490048316151586880152865161020081018852600f8d0154808516151582528381048516151582840152948504841615158189015263010000008504841615159581019590955264010000000084048316151560808601526501000000000084048316151560a0860152660100000000000084048316151560c08087019190915267010000000000000085048416151560e0870152680100000000000000008504841615158684015269010000000000000000008504841615156101208701526a0100000000000000000000850484161515610140870152600160581b850484161515610160870152600160601b850484161515610180870152600160681b8504841615156101a0870152600160701b8504841615156101c0870152600160781b909404831615156101e08601528651808801885260108d015480851615158252929092048316151590820152855192830190955260118a018054999a919096169893975091955092939092918290829061208f90614c8a565b80601f01602080910402602001604051908101604052809291908181526020018280546120bb90614c8a565b80156121085780601f106120dd57610100808354040283529160200191612108565b820191906000526020600020905b8154815290600101906020018083116120eb57829003601f168201915b505050505081526020016001820154815260200160028201805461212b90614c8a565b80601f016020809104026020016040519081016040528092919081815260200182805461215790614c8a565b80156121a45780601f10612179576101008083540402835291602001916121a4565b820191906000526020600020905b81548152906001019060200180831161218757829003601f168201915b5050505050815260200160038201548152602001600482016040518060400160405290816000820180546121d790614c8a565b80601f016020809104026020016040519081016040528092919081815260200182805461220390614c8a565b80156122505780601f1061222557610100808354040283529160200191612250565b820191906000526020600020905b81548152906001019060200180831161223357829003601f168201915b5050505050815260200160018201805461226990614c8a565b80601f016020809104026020016040519081016040528092919081815260200182805461229590614c8a565b80156122e25780601f106122b7576101008083540402835291602001916122e2565b820191906000526020600020905b8154815290600101906020018083116122c557829003601f168201915b5050509190925250505081526006919091015460ff9081161515602090920191909152604080516060810190915260188401805493949391929091839116600481111561233157612331613404565b600481111561234257612342613404565b815260200160018201805461235690614c8a565b80601f016020809104026020016040519081016040528092919081815260200182805461238290614c8a565b80156123cf5780601f106123a4576101008083540402835291602001916123cf565b820191906000526020600020905b8154815290600101906020018083116123b257829003601f168201915b505050918352505060408051606081019091526020909101906002830160036000835b8282101561249557838201805461240890614c8a565b80601f016020809104026020016040519081016040528092919081815260200182805461243490614c8a565b80156124815780601f1061245657610100808354040283529160200191612481565b820191906000526020600020905b81548152906001019060200180831161246457829003601f168201915b5050505050815260200190600101906123f2565b50505091525050601d9091015460ff168d565b6060600073621Ff939Fa681a7884C45F24De60D60698d5c66c63d0aed2c16006868660006040518563ffffffff1660e01b81526004016103779493929190614bfb565b735AB30585805B1F7Df3c4000e7179B5D434a7Daf26311a55ede60068a8154811061251857612518614c74565b90600052602060002090601e02018989898989898960006040518a63ffffffff1660e01b815260040161255399989796959493929190614f51565b60006040518083038186803b15801561256b57600080fd5b505af415801561257f573d6000803e3d6000fd5b505050507ff1acc7c95db58afeb3d94de0a26290e01e681eaeae56c25b1115faf2541227f2600689815481106125b7576125b7614c74565b90600052602060002090601e02016002018960068b815481106125dc576125dc614c74565b90600052602060002090601e02016018016002016040516125ff93929190614fed565b60405180910390a15050505050505050565b60006126288c8c8c8c8c8c8c8c8c8c8c6000612bdb565b600680548083526001810182556000919091528151601e9091027ff652222313e28459528d920b65115c16c04f3efc82aaedc97be59f3f377c0d3f8101918255602080840151805194955085946126a6937ff652222313e28459528d920b65115c16c04f3efc82aaedc97be59f3f377c0d40019291909101906130f6565b50604082015180516126c29160028401916020909101906130f6565b50606082015180516126de9160038401916020909101906130f6565b5060808201516126f4906004830190600261317a565b5060a0820151805180516006840191612712918391602001906130f6565b5060208281015160018301556040830151805161273592600285019201906130f6565b50505060c082015180516127539160098401916020909101906130f6565b5060e0820151600a8201805460ff1916600183600281111561277757612777613404565b021790555061010082015161279290600b83019060036131c6565b5061012082015181600e0160008201518160000160006101000a81548160ff02191690831515021790555060208201518160000160016101000a81548160ff02191690831515021790555060408201518160000160026101000a81548160ff021916908315150217905550505061014082015181600f0160008201518160000160006101000a81548160ff02191690831515021790555060208201518160000160016101000a81548160ff02191690831515021790555060408201518160000160026101000a81548160ff02191690831515021790555060608201518160000160036101000a81548160ff02191690831515021790555060808201518160000160046101000a81548160ff02191690831515021790555060a08201518160000160056101000a81548160ff02191690831515021790555060c08201518160000160066101000a81548160ff02191690831515021790555060e08201518160000160076101000a81548160ff0219169083151502179055506101008201518160000160086101000a81548160ff0219169083151502179055506101208201518160000160096101000a81548160ff02191690831515021790555061014082015181600001600a6101000a81548160ff02191690831515021790555061016082015181600001600b6101000a81548160ff02191690831515021790555061018082015181600001600c6101000a81548160ff0219169083151502179055506101a082015181600001600d6101000a81548160ff0219169083151502179055506101c082015181600001600e6101000a81548160ff0219169083151502179055506101e082015181600001600f6101000a81548160ff02191690831515021790555050506101608201518160100160008201518160000160006101000a81548160ff02191690831515021790555060208201518160000160016101000a81548160ff0219169083151502179055505050610180820151816011016000820151816000019080519060200190612a859291906130f6565b50602082810151600183015560408301518051612aa892600285019201906130f6565b50606082015160038201556080820151805180516004840191612ad0918391602001906130f6565b506020828101518051612ae992600185019201906130f6565b50505060a091909101516006909101805491151560ff199283161790556101a08301518051601884018054929390928391166001836004811115612b2f57612b2f613404565b02179055506020828101518051612b4c92600185019201906130f6565b506040820151612b6290600283019060036131f3565b5050506101c09190910151601d909101805460ff19169115159190911790556006547f40f080228d46fb72660eddafe315e4a5b47df236dc33b76fcd122bcbea89b01d908d908d90612bb690600190615052565b604051612bc593929190615069565b60405180910390a1505050505050505050505050565b612be3612f9e565b60208181018e905260408083018e9052606083018d9052608083018c90528a5160a084018051919091528b8301518151909301929092528a8101519151015260c08101889052600060e082018190528751889190612c4357612c43614c74565b6020026020010151816101000151600060038110612c6357612c63614c74565b6020020152865187906001908110612c7d57612c7d614c74565b6020026020010151816101000151600160038110612c9d57612c9d614c74565b602002015261010081015151875188906001908110612cbe57612cbe614c74565b60200260200101511015612d245760405162461bcd60e51b815260206004820152602760248201527f53746172742064617465206d757374206265206166746572206372656174696f60448201526637103230ba329760c91b606482015260840161156f565b86600181518110612d3757612d37614c74565b602002602001015187600281518110612d5257612d52614c74565b602002602001015111612db25760405162461bcd60e51b815260206004820152602260248201527f456e642064617465206d75737420626520616674657220737461727420646174604482015261329760f11b606482015260840161156f565b86600281518110612dc557612dc5614c74565b6020026020010151816101000151600260038110612de557612de5614c74565b602090810291909101919091526101208201879052610140820186905261018082018590528351610160830180519115159091528482015190519015159101528154826000612e3383614dd9565b9190505550816001018d604051612e4a9190614d35565b9081526040519081900360200190208054906000612e6783614dd9565b9190505550816003018c604051612e7e9190614d35565b9081526040519081900360200190208054906000612e9b83614dd9565b9190505550816002018d604051612eb29190614d35565b9081526040519081900360200190208054906000612ecf83614dd9565b9190505550816004018c604051612ee69190614d35565b9081526040519081900360200190208054906000612f0383614dd9565b909155505088516040516005840191612f1b91614d35565b9081526040519081900360200190208054906000612f3883614dd9565b91905055509c9b505050505050505050505050565b6040518060c0016040528060608152602001600081526020016060815260200160008152602001612f91604051806040016040528060608152602001606081525090565b8152600060209091015290565b604051806101e0016040528060008152602001606081526020016060815260200160608152602001612fce613233565b8152602001612ff760405180606001604052806060815260200160008152602001606081525090565b8152606060208201526040016000815260200161301261325a565b81526040805160608101825260008082526020828101829052928201529101908152604080516102008101825260008082526020828101829052928201819052606082018190526080820181905260a0820181905260c0820181905260e08201819052610100820181905261012082018190526101408201819052610160820181905261018082018190526101a082018190526101c082018190526101e082015291019081526020016130dc60405180604001604052806000151581526020016000151581525090565b81526020016130e9612f4d565b8152602001612f91613278565b82805461310290614c8a565b90600052602060002090601f016020900481019282613124576000855561316a565b82601f1061313d57805160ff191683800117855561316a565b8280016001018555821561316a579182015b8281111561316a57825182559160200191906001019061314f565b5061317692915061329c565b5090565b82600281019282156131ba579160200282015b828111156131ba57825180516131aa9184916020909101906130f6565b509160200191906001019061318d565b506131769291506132b1565b826003810192821561316a579160200282018281111561316a57825182559160200191906001019061314f565b82600381019282156131ba579160200282015b828111156131ba57825180516132239184916020909101906130f6565b5091602001919060010190613206565b60405180604001604052806002905b60608152602001906001900390816132425790505090565b60405180606001604052806003906020820280368337509192915050565b60408051606080820183526000825260208201529081016132976132ce565b905290565b5b80821115613176576000815560010161329d565b808211156131765760006132c582826132e8565b506001016132b1565b604080516060808201909252908152600260208201613242565b5080546132f490614c8a565b6000825580601f10613304575050565b601f0160209004906000526020600020908101906118be919061329c565b60005b8381101561333d578181015183820152602001613325565b8381111561334c576000848401525b50505050565b6000815180845261336a816020860160208601613322565b601f01601f19169290920160200192915050565b600082604081018360005b60028110156133b85783830387526133a2838351613352565b6020978801979093509190910190600101613389565b509095945050505050565b60008151606084526133d86060850182613352565b905060208301516020850152604083015184820360408601526133fb8282613352565b95945050505050565b634e487b7160e01b600052602160045260246000fd5b6003811061342a5761342a613404565b9052565b8060005b600381101561334c578151845260209384019390910190600101613432565b805115158252602081015161346a602084018215159052565b50604081015161347e604084018215159052565b506060810151613492606084018215159052565b5060808101516134a6608084018215159052565b5060a08101516134ba60a084018215159052565b5060c08101516134ce60c084018215159052565b5060e08101516134e260e084018215159052565b5061010081810151151590830152610120808201511515908301526101408082015115159083015261016080820151151590830152610180808201511515908301526101a0808201511515908301526101c0808201511515908301526101e0808201518015158285015261334c565b6000815160c0845261356660c0850182613352565b905060208301516020850152604083015184820360408601526135898282613352565b91505060608301516060850152608083015184820360808601528051604083526135b66040840182613352565b90506020820151915082810360208401526135d18183613352565b9250505060a0830151151560a08501528091505092915050565b60008151600581106135ff576135ff613404565b8084525060208083015160608286015261361c6060860182613352565b905060408401518582036040870152818290506060830160005b600381101561366157848203835261364f828551613352565b93860193928601929150600101613636565b50979650505050505050565b600061046082518452602083015181602086015261368d82860182613352565b915050604083015184820360408601526136a78282613352565b915050606083015184820360608601526136c18282613352565b915050608083015184820360808601526136db828261337e565b91505060a083015184820360a08601526136f582826133c3565b91505060c083015184820360c086015261370f8282613352565b91505060e083015161372460e086018261341a565b50610100808401516137388287018261342e565b5050610120830151610160613769818701838051151582526020808201511515908301526040908101511515910152565b61014085015191506101c061378081880184613451565b81860151805115156103c08901526020015115156103e088015261018086015187850361040089015292506137b58484613551565b93506101a086015192508684036104208801526137d284846135eb565b935080860151925050506137eb61044086018215159052565b509392505050565b600081518084526020808501808196508360051b8101915082860160005b8581101561383b57828403895261382984835161366d565b98850198935090840190600101613811565b5091979650505050505050565b6020815260006109e360208301846137f3565b634e487b7160e01b600052604160045260246000fd5b6040516060810167ffffffffffffffff811182821017156138945761389461385b565b60405290565b604051610200810167ffffffffffffffff811182821017156138945761389461385b565b6040805190810167ffffffffffffffff811182821017156138945761389461385b565b60405160c0810167ffffffffffffffff811182821017156138945761389461385b565b6040516101e0810167ffffffffffffffff811182821017156138945761389461385b565b604051601f8201601f1916810167ffffffffffffffff811182821017156139515761395161385b565b604052919050565b600067ffffffffffffffff8211156139735761397361385b565b5060051b60200190565b600067ffffffffffffffff8211156139975761399761385b565b50601f01601f191660200190565b600082601f8301126139b657600080fd5b81356139c96139c48261397d565b613928565b8181528460208386010111156139de57600080fd5b816020850160208301376000918101602001919091529392505050565b80151581146118be57600080fd5b8035613a14816139fb565b919050565b60008060408385031215613a2c57600080fd5b823567ffffffffffffffff80821115613a4457600080fd5b818501915085601f830112613a5857600080fd5b81356020613a686139c483613959565b82815260059290921b84018101918181019089841115613a8757600080fd5b8286015b84811015613abf57803586811115613aa35760008081fd5b613ab18c86838b01016139a5565b845250918301918301613a8b565b509650613acf9050878201613a09565b9450505050509250929050565b600060208284031215613aee57600080fd5b5035919050565b6020815260006109e36020830184613551565b600060208284031215613b1a57600080fd5b813567ffffffffffffffff811115613b3157600080fd5b6103cb848285016139a5565b604081526000613b5060408301856137f3565b90508260208301529392505050565b6000602080830181845280855180835260408601915060408160051b870101925083870160005b82811015613bb457603f19888603018452613ba2858351613352565b94509285019290850190600101613b86565b5092979650505050505050565b6020810161032e828461341a565b6020815260006109e3602083018461366d565b600080600080600060a08688031215613bfa57600080fd5b85359450602086013567ffffffffffffffff811115613c1857600080fd5b613c24888289016139a5565b959895975050505060408401359360608101359360809091013592509050565b60008060408385031215613c5757600080fd5b82359150602083013567ffffffffffffffff811115613c7557600080fd5b613c81858286016139a5565b9150509250929050565b8d81526103e060208201526000613ca66103e083018f613352565b8281036040840152613cb8818f613352565b90508281036060840152613ccc818e613352565b90508281036080840152613ce0818d6133c3565b905082810360a0840152613cf4818c613352565b9050613d0360c084018b61341a565b8851151560e08401526020890151151561010084015260408901511515610120840152613d34610140840189613451565b8651151561034084015260208701511515610360840152828103610380840152613d5e8187613551565b90508281036103a0840152613d7381866135eb565b915050613d856103c083018415159052565b9e9d5050505050505050505050505050565b600080600080600080600080610100898b031215613db457600080fd5b88359750602089013567ffffffffffffffff80821115613dd357600080fd5b613ddf8c838d016139a5565b985060408b0135915080821115613df557600080fd5b613e018c838d016139a5565b975060608b0135915080821115613e1757600080fd5b613e238c838d016139a5565b965060808b0135915080821115613e3957600080fd5b613e458c838d016139a5565b955060a08b0135945060c08b0135915080821115613e6257600080fd5b613e6e8c838d016139a5565b935060e08b0135915080821115613e8457600080fd5b50613e918b828c016139a5565b9150509295985092959890939650565b600082601f830112613eb257600080fd5b613eba6138be565b806040840185811115613ecc57600080fd5b845b818110156133b857803567ffffffffffffffff811115613eee5760008081fd5b613efa888289016139a5565b85525060209384019301613ece565b600060608284031215613f1b57600080fd5b613f23613871565b9050813567ffffffffffffffff80821115613f3d57600080fd5b613f49858386016139a5565b8352602084013560208401526040840135915080821115613f6957600080fd5b50613f76848285016139a5565b60408301525092915050565b600082601f830112613f9357600080fd5b81356020613fa36139c483613959565b82815260059290921b84018101918181019086841115613fc257600080fd5b8286015b84811015613fdd5780358352918301918301613fc6565b509695505050505050565b600060608284031215613ffa57600080fd5b614002613871565b9050813561400f816139fb565b8152602082013561401f816139fb565b60208201526040820135614032816139fb565b604082015292915050565b6000610200828403121561405057600080fd5b61405861389a565b905061406382613a09565b815261407160208301613a09565b602082015261408260408301613a09565b604082015261409360608301613a09565b60608201526140a460808301613a09565b60808201526140b560a08301613a09565b60a08201526140c660c08301613a09565b60c08201526140d760e08301613a09565b60e08201526101006140ea818401613a09565b908201526101206140fc838201613a09565b9082015261014061410e838201613a09565b90820152610160614120838201613a09565b90820152610180614132838201613a09565b908201526101a0614144838201613a09565b908201526101c0614156838201613a09565b908201526101e0614168838201613a09565b9082015292915050565b60006040828403121561418457600080fd5b61418c6138be565b9050813567ffffffffffffffff808211156141a657600080fd5b6141b2858386016139a5565b835260208401359150808211156141c857600080fd5b506141d5848285016139a5565b60208301525092915050565b600060c082840312156141f357600080fd5b6141fb6138e1565b9050813567ffffffffffffffff8082111561421557600080fd5b614221858386016139a5565b835260208401356020840152604084013591508082111561424157600080fd5b61424d858386016139a5565b604084015260608401356060840152608084013591508082111561427057600080fd5b5061427d84828501614172565b60808301525061428f60a08301613a09565b60a082015292915050565b6000604082840312156142ac57600080fd5b6142b46138be565b905081356142c1816139fb565b815260208201356142d1816139fb565b602082015292915050565b60008060008060008060008060008060006103a08c8e0312156142fe57600080fd5b67ffffffffffffffff808d35111561431557600080fd5b6143228e8e358f016139a5565b9b508060208e0135111561433557600080fd5b6143458e60208f01358f016139a5565b9a508060408e0135111561435857600080fd5b6143688e60408f01358f016139a5565b99508060608e0135111561437b57600080fd5b61438b8e60608f01358f01613ea1565b98508060808e0135111561439e57600080fd5b6143ae8e60808f01358f01613f09565b97508060a08e013511156143c157600080fd5b6143d18e60a08f01358f016139a5565b96508060c08e013511156143e457600080fd5b6143f48e60c08f01358f01613f82565b95506144038e60e08f01613fe8565b94506144138e6101408f0161403d565b9350806103408e0135111561442757600080fd5b506144398d6103408e01358e016141e1565b91506144498d6103608e0161429a565b90509295989b509295989b9093969950565b600082601f83011261446c57600080fd5b815161447a6139c48261397d565b81815284602083860101111561448f57600080fd5b6103cb826020830160208701613322565b600082601f8301126144b157600080fd5b6144b96138be565b8060408401858111156144cb57600080fd5b845b818110156133b857805167ffffffffffffffff8111156144ed5760008081fd5b6144f98882890161445b565b855250602093840193016144cd565b60006060828403121561451a57600080fd5b614522613871565b9050815167ffffffffffffffff8082111561453c57600080fd5b6145488583860161445b565b835260208401516020840152604084015191508082111561456857600080fd5b50613f768482850161445b565b805160038110613a1457600080fd5b600082601f83011261459557600080fd5b61459d613871565b8060608401858111156145af57600080fd5b845b818110156133b85780518452602093840193016145b1565b8051613a14816139fb565b6000606082840312156145e657600080fd5b6145ee613871565b905081516145fb816139fb565b8152602082015161460b816139fb565b60208201526040820151614032816139fb565b6000610200828403121561463157600080fd5b61463961389a565b9050614644826145c9565b8152614652602083016145c9565b6020820152614663604083016145c9565b6040820152614674606083016145c9565b6060820152614685608083016145c9565b608082015261469660a083016145c9565b60a08201526146a760c083016145c9565b60c08201526146b860e083016145c9565b60e08201526101006146cb8184016145c9565b908201526101206146dd8382016145c9565b908201526101406146ef8382016145c9565b908201526101606147018382016145c9565b908201526101806147138382016145c9565b908201526101a06147258382016145c9565b908201526101c06147378382016145c9565b908201526101e06141688382016145c9565b60006040828403121561475b57600080fd5b6147636138be565b90508151614770816139fb565b815260208201516142d1816139fb565b60006040828403121561479257600080fd5b61479a6138be565b9050815167ffffffffffffffff808211156147b457600080fd5b6147c08583860161445b565b835260208401519150808211156147d657600080fd5b506141d58482850161445b565b600060c082840312156147f557600080fd5b6147fd6138e1565b9050815167ffffffffffffffff8082111561481757600080fd5b6148238583860161445b565b835260208401516020840152604084015191508082111561484357600080fd5b61484f8583860161445b565b604084015260608401516060840152608084015191508082111561487257600080fd5b5061487f84828501614780565b60808301525061428f60a083016145c9565b6000606082840312156148a357600080fd5b6148ab613871565b90508151600581106148bc57600080fd5b815260208281015167ffffffffffffffff808211156148da57600080fd5b6148e68683870161445b565b8385015260408501519150808211156148fe57600080fd5b818501915085601f83011261491257600080fd5b61491a613871565b80606084018881111561492c57600080fd5b845b81811015614960578051858111156149465760008081fd5b6149528b82890161445b565b85525092860192860161492e565b50506040860152509295945050505050565b600082601f83011261498357600080fd5b815160206149936139c483613959565b82815260059290921b840181019181810190868411156149b257600080fd5b8286015b84811015613fdd57805167ffffffffffffffff808211156149d75760008081fd5b90880190610460828b03601f19018113156149f25760008081fd5b6149fa613904565b87840151815260408085015184811115614a145760008081fd5b614a228e8b8389010161445b565b8a8401525060608086015185811115614a3b5760008081fd5b614a498f8c838a010161445b565b8385015250608091508186015185811115614a645760008081fd5b614a728f8c838a010161445b565b82850152505060a08086015185811115614a8c5760008081fd5b614a9a8f8c838a01016144a0565b838501525060c091508186015185811115614ab55760008081fd5b614ac38f8c838a0101614508565b82850152505060e08086015185811115614add5760008081fd5b614aeb8f8c838a010161445b565b83850152506101009150614b00828701614575565b90830152610120614b138e878301614584565b828401526101809150614b288e8388016145d4565b90830152614b3a8d6101e0870161461e565b610140830152614b4e8d6103e08701614749565b61016083015261042085015184811115614b685760008081fd5b614b768e8b838901016147e3565b82840152505061044084015183811115614b905760008081fd5b614b9e8d8a83880101614891565b6101a083015250614bb08285016145c9565b6101c082015286525050509183019183016149b6565b600060208284031215614bd857600080fd5b815167ffffffffffffffff811115614bef57600080fd5b6103cb84828501614972565b600060808201868352602060808185015281875180845260a08601915060a08160051b870101935082890160005b82811015614c5757609f19888703018452614c45868351613352565b95509284019290840190600101614c29565b505050509415156040840152606090920192909252949350505050565b634e487b7160e01b600052603260045260246000fd5b600181811c90821680614c9e57607f821691505b60208210811415614cbf57634e487b7160e01b600052602260045260246000fd5b50919050565b838152606060208201526000614cde6060830185613352565b9050826040830152949350505050565b60008060408385031215614d0157600080fd5b825167ffffffffffffffff811115614d1857600080fd5b614d2485828601614972565b925050602083015190509250929050565b60008251614d47818460208701613322565b9190910192915050565b6000808354614d5f81614c8a565b60018281168015614d775760018114614d8857614db7565b60ff19841687528287019450614db7565b8760005260208060002060005b85811015614dae5781548a820152908401908201614d95565b50505082870194505b50929695505050505050565b634e487b7160e01b600052601160045260246000fd5b6000600019821415614ded57614ded614dc3565b5060010190565b86815260c060208201526000614e0d60c0830188613352565b90508560408301528460608301528360808301528260a0830152979650505050505050565b60008154614e3f81614c8a565b808552602060018381168015614e5c5760018114614e7057614e9e565b60ff19851688840152604088019550614e9e565b866000528260002060005b85811015614e965781548a8201860152908301908401614e7b565b890184019650505b505050505092915050565b60e081526000614ebc60e083018a614e32565b8281036020840152614ece818a614e32565b90508760408401528281036060840152614ee88188613352565b6080840196909652505060a081019290925260c090910152949350505050565b606081526000614f1b6060830186614e32565b8281036020840152614f2d8186614e32565b915050826040830152949350505050565b604081526000613b506040830185614e32565b60006101208b8352806020840152614f6b8184018c613352565b90508281036040840152614f7f818b613352565b90508281036060840152614f93818a613352565b90508281036080840152614fa78189613352565b90508660a084015282810360c0840152614fc18187613352565b905082810360e0840152614fd58186613352565b915050826101008301529a9950505050505050505050565b6060815260006150006060830186614e32565b6020838101869052838203604085015281606081018660005b60038110156150435785830384526150318383614e32565b93850193925060019182019101615019565b50909998505050505050505050565b60008282101561506457615064614dc3565b500390565b60608152600061507c6060830186613352565b8281036020840152614f2d818661335256fea2646970667358221220669ed890e6564e11cac458351de626bb0a96f66eb6e1c4ba0f69d49c5293822364736f6c63430008090033",
  "deployedBytecode": "0x608060405234801561001057600080fd5b50600436106101005760003560e01c80634f9f6fe611610097578063bd14de9611610066578063bd14de9614610236578063d8414b0214610262578063dd4be34b14610275578063ee4b2db51461028857600080fd5b80634f9f6fe6146101db578063667a8beb146101fb5780639a02692414610210578063b5bdf36b1461022357600080fd5b806330937f3a116100d357806330937f3a1461016757806332893afb1461018857806344c9af28146101a85780634dffbf0d146101c857600080fd5b8063063bd15a1461010557806311403a80146101235780631371b64a146101365780631c510ea914610156575b600080fd5b61010d61029b565b60405161011a9190613848565b60405180910390f35b61010d610131366004613a19565b610334565b610149610144366004613adc565b6103d3565b60405161011a9190613af5565b60065460405190815260200161011a565b61017a610175366004613b08565b610691565b60405161011a929190613b3d565b61019b610196366004613b08565b61072f565b60405161011a9190613b5f565b6101bb6101b6366004613adc565b61091c565b60405161011a9190613bc1565b61010d6101d6366004613b08565b61094e565b6101ee6101e9366004613adc565b6109ea565b60405161011a9190613bcf565b61020e610209366004613be2565b6114c3565b005b61020e61021e366004613adc565b61175f565b61020e610231366004613c44565b6118c1565b610249610244366004613adc565b611b45565b60405161011a9d9c9b9a99989796959493929190613c8b565b61010d610270366004613a19565b6124a8565b61020e610283366004613d97565b6124eb565b61020e6102963660046142dc565b612611565b604051632e4e974560e21b81526006600482015260006024820181905260609173__$75e7f22b9b402b73b18aa123ef2235f582$__9063b93a5d149060440160006040518083038186803b1580156102f257600080fd5b505af4158015610306573d6000803e3d6000fd5b505050506040513d6000823e601f3d908101601f1916820160405261032e9190810190614bc6565b92915050565b6060600073__$2d66fcc483cad6bd344cfa2bce294ad753$__630abfe6d66006868660006040518563ffffffff1660e01b81526004016103779493929190614bfb565b60006040518083038186803b15801561038f57600080fd5b505af41580156103a3573d6000803e3d6000fd5b505050506040513d6000823e601f3d908101601f191682016040526103cb9190810190614bc6565b949350505050565b6103db612f4d565b600682815481106103ee576103ee614c74565b90600052602060002090601e02016011016040518060c001604052908160008201805461041a90614c8a565b80601f016020809104026020016040519081016040528092919081815260200182805461044690614c8a565b80156104935780601f1061046857610100808354040283529160200191610493565b820191906000526020600020905b81548152906001019060200180831161047657829003601f168201915b50505050508152602001600182015481526020016002820180546104b690614c8a565b80601f01602080910402602001604051908101604052809291908181526020018280546104e290614c8a565b801561052f5780601f106105045761010080835404028352916020019161052f565b820191906000526020600020905b81548152906001019060200180831161051257829003601f168201915b50505050508152602001600382015481526020016004820160405180604001604052908160008201805461056290614c8a565b80601f016020809104026020016040519081016040528092919081815260200182805461058e90614c8a565b80156105db5780601f106105b0576101008083540402835291602001916105db565b820191906000526020600020905b8154815290600101906020018083116105be57829003601f168201915b505050505081526020016001820180546105f490614c8a565b80601f016020809104026020016040519081016040528092919081815260200182805461062090614c8a565b801561066d5780601f106106425761010080835404028352916020019161066d565b820191906000526020600020905b81548152906001019060200180831161065057829003601f168201915b5050509190925250505081526006919091015460ff16151560209091015292915050565b6060600073__$75e7f22b9b402b73b18aa123ef2235f582$__631b6bcbbf60068560006040518463ffffffff1660e01b81526004016106d293929190614cc5565b60006040518083038186803b1580156106ea57600080fd5b505af41580156106fe573d6000803e3d6000fd5b505050506040513d6000823e601f3d908101601f191682016040526107269190810190614cee565b91509150915091565b6060600080600501836040516107459190614d35565b90815260200160405180910390205467ffffffffffffffff81111561076c5761076c61385b565b60405190808252806020026020018201604052801561079f57816020015b606081526020019060019003908161078a5790505b5090506000805b60065481101561091357846040516020016107c19190614d35565b60405160208183030381529060405280519060200120600682815481106107ea576107ea614c74565b90600052602060002090601e020160060160000160405160200161080e9190614d51565b604051602081830303815290604052805190602001201415610901576006818154811061083d5761083d614c74565b90600052602060002090601e0201600201805461085990614c8a565b80601f016020809104026020016040519081016040528092919081815260200182805461088590614c8a565b80156108d25780601f106108a7576101008083540402835291602001916108d2565b820191906000526020600020905b8154815290600101906020018083116108b557829003601f168201915b50505050508383806108e390614dd9565b9450815181106108f5576108f5614c74565b60200260200101819052505b8061090b81614dd9565b9150506107a6565b50909392505050565b60006006828154811061093157610931614c74565b60009182526020909120600a601e90920201015460ff1692915050565b6060600073__$75e7f22b9b402b73b18aa123ef2235f582$__63e41ecb3b60068560006040518463ffffffff1660e01b815260040161098f93929190614cc5565b60006040518083038186803b1580156109a757600080fd5b505af41580156109bb573d6000803e3d6000fd5b505050506040513d6000823e601f3d908101601f191682016040526109e39190810190614bc6565b9392505050565b6109f2612f9e565b60068281548110610a0557610a05614c74565b90600052602060002090601e0201604051806101e001604052908160008201548152602001600182018054610a3990614c8a565b80601f0160208091040260200160405190810160405280929190818152602001828054610a6590614c8a565b8015610ab25780601f10610a8757610100808354040283529160200191610ab2565b820191906000526020600020905b815481529060010190602001808311610a9557829003601f168201915b50505050508152602001600282018054610acb90614c8a565b80601f0160208091040260200160405190810160405280929190818152602001828054610af790614c8a565b8015610b445780601f10610b1957610100808354040283529160200191610b44565b820191906000526020600020905b815481529060010190602001808311610b2757829003601f168201915b50505050508152602001600382018054610b5d90614c8a565b80601f0160208091040260200160405190810160405280929190818152602001828054610b8990614c8a565b8015610bd65780601f10610bab57610100808354040283529160200191610bd6565b820191906000526020600020905b815481529060010190602001808311610bb957829003601f168201915b5050509183525050604080518082019091526020909101906004830160026000835b82821015610c9b578382018054610c0e90614c8a565b80601f0160208091040260200160405190810160405280929190818152602001828054610c3a90614c8a565b8015610c875780601f10610c5c57610100808354040283529160200191610c87565b820191906000526020600020905b815481529060010190602001808311610c6a57829003601f168201915b505050505081526020019060010190610bf8565b50505050815260200160068201604051806060016040529081600082018054610cc390614c8a565b80601f0160208091040260200160405190810160405280929190818152602001828054610cef90614c8a565b8015610d3c5780601f10610d1157610100808354040283529160200191610d3c565b820191906000526020600020905b815481529060010190602001808311610d1f57829003601f168201915b5050505050815260200160018201548152602001600282018054610d5f90614c8a565b80601f0160208091040260200160405190810160405280929190818152602001828054610d8b90614c8a565b8015610dd85780601f10610dad57610100808354040283529160200191610dd8565b820191906000526020600020905b815481529060010190602001808311610dbb57829003601f168201915b5050505050815250508152602001600982018054610df590614c8a565b80601f0160208091040260200160405190810160405280929190818152602001828054610e2190614c8a565b8015610e6e5780601f10610e4357610100808354040283529160200191610e6e565b820191906000526020600020905b815481529060010190602001808311610e5157829003601f168201915b5050509183525050600a82015460209091019060ff166002811115610e9557610e95613404565b6002811115610ea657610ea6613404565b815260408051606081019182905260209092019190600b84019060039082845b815481526020019060010190808311610ec65750505091835250506040805160608082018352600e85015460ff80821615158452610100808304821615156020868101919091526201000093849004831615158688015280880195909552855161020081018752600f89015480841615158252828104841615158288015293840483161515818801526301000000840483161515818601526401000000008404831615156080808301919091526501000000000085048416151560a0830152660100000000000085048416151560c08084019190915267010000000000000086048516151560e0840152680100000000000000008604851615158385015269010000000000000000008604851615156101208401526a0100000000000000000000860485161515610140840152600160581b860485161515610160840152600160601b860485161515610180840152600160681b8604851615156101a0840152600160701b8604851615156101c0840152600160781b909504841615156101e0830152878901919091528651808801885260108a01548085161515825292909204909216151594810194909452918501929092528251918201909252601184018054929093019290918290829061109c90614c8a565b80601f01602080910402602001604051908101604052809291908181526020018280546110c890614c8a565b80156111155780601f106110ea57610100808354040283529160200191611115565b820191906000526020600020905b8154815290600101906020018083116110f857829003601f168201915b505050505081526020016001820154815260200160028201805461113890614c8a565b80601f016020809104026020016040519081016040528092919081815260200182805461116490614c8a565b80156111b15780601f10611186576101008083540402835291602001916111b1565b820191906000526020600020905b81548152906001019060200180831161119457829003601f168201915b5050505050815260200160038201548152602001600482016040518060400160405290816000820180546111e490614c8a565b80601f016020809104026020016040519081016040528092919081815260200182805461121090614c8a565b801561125d5780601f106112325761010080835404028352916020019161125d565b820191906000526020600020905b81548152906001019060200180831161124057829003601f168201915b5050505050815260200160018201805461127690614c8a565b80601f01602080910402602001604051908101604052809291908181526020018280546112a290614c8a565b80156112ef5780601f106112c4576101008083540402835291602001916112ef565b820191906000526020600020905b8154815290600101906020018083116112d257829003601f168201915b5050509190925250505081526006919091015460ff9081161515602092830152918352604080516060810190915260188501805494909201939092839116600481111561133e5761133e613404565b600481111561134f5761134f613404565b815260200160018201805461136390614c8a565b80601f016020809104026020016040519081016040528092919081815260200182805461138f90614c8a565b80156113dc5780601f106113b1576101008083540402835291602001916113dc565b820191906000526020600020905b8154815290600101906020018083116113bf57829003601f168201915b505050918352505060408051606081019091526020909101906002830160036000835b828210156114a257838201805461141590614c8a565b80601f016020809104026020016040519081016040528092919081815260200182805461144190614c8a565b801561148e5780601f106114635761010080835404028352916020019161148e565b820191906000526020600020905b81548152906001019060200180831161147157829003601f168201915b5050505050815260200190600101906113ff565b505050915250508152601d919091015460ff16151560209091015292915050565b6001600686815481106114d8576114d8614c74565b60009182526020909120600a601e90920201015460ff16600281111561150057611500613404565b146115785760405162461bcd60e51b815260206004820152603660248201527f41677265656d656e74206d7573742062652076696f6c6174656420696e206f7260448201527f64657220746f20656e666f7263652070656e616c74790000000000000000000060648201526084015b60405180910390fd5b604051685465726d696e61746560b81b602082015260290160405160208183030381529060405280519060200120846040516020016115b79190614d35565b604051602081830303815290604052805190602001201415611618576001600686815481106115e8576115e8614c74565b60009182526020909120601e90910201601d01805460ff19169115159190911790556116138561175f565b611758565b73__$fd670a7a8cf286bc46dd07184f1e6a9adc$__63cb5893c96006878154811061164557611645614c74565b90600052602060002090601e02018686868660006040518763ffffffff1660e01b815260040161167a96959493929190614df4565b60006040518083038186803b15801561169257600080fd5b505af41580156116a6573d6000803e3d6000fd5b505050507f6a5b41877c1e19e7405feb10468979239b83616b44fef14f87bc82641810bcde600686815481106116de576116de614c74565b90600052602060002090601e02016001016006878154811061170257611702614c74565b90600052602060002090601e02016002016006888154811061172657611726614c74565b90600052602060002090601e0201600001548785888860405161174f9796959493929190614ea9565b60405180910390a15b5050505050565b73__$b6264364eb2f1db0035d8bfd2272b8857e$__632cd1c6566006838154811061178c5761178c614c74565b90600052602060002090601e020160006040518363ffffffff1660e01b81526004016117c2929190918252602082015260400190565b60006040518083038186803b1580156117da57600080fd5b505af41580156117ee573d6000803e3d6000fd5b50600292506117fb915050565b6006828154811061180e5761180e614c74565b60009182526020909120600a601e90920201015460ff16600281111561183657611836613404565b14156118be577f8fdec0edc19a1eb9147642be05b326b7f5d42bf96f5ba734530bfca33bc8d7e96006828154811061187057611870614c74565b90600052602060002090601e02016001016006838154811061189457611894614c74565b90600052602060002090601e0201600201836040516118b593929190614f08565b60405180910390a15b50565b806040516020016118d29190614d35565b60405160208183030381529060405280519060200120600683815481106118fb576118fb614c74565b90600052602060002090601e020160010160405160200161191c9190614d51565b6040516020818303038152906040528051906020012014806119ac57508060405160200161194a9190614d35565b604051602081830303815290604052805190602001206006838154811061197357611973614c74565b90600052602060002090601e02016002016040516020016119949190614d51565b60405160208183030381529060405280519060200120145b6119b557600080fd5b6001600683815481106119ca576119ca614c74565b90600052602060002090601e0201601d0160006101000a81548160ff02191690831515021790555080604051602001611a039190614d35565b6040516020818303038152906040528051906020012060068381548110611a2c57611a2c614c74565b90600052602060002090601e0201600101604051602001611a4d9190614d51565b604051602081830303815290604052805190602001201415611aed577f5b110f233309bfcc0428fef61705787d5e6e67380b4a0ec71654cf1de0496a6d60068381548110611a9d57611a9d614c74565b90600052602060002090601e020160020160068481548110611ac157611ac1614c74565b90600052602060002090601e020160000154604051611ae1929190614f3e565b60405180910390a15050565b7f5b110f233309bfcc0428fef61705787d5e6e67380b4a0ec71654cf1de0496a6d60068381548110611b2157611b21614c74565b90600052602060002090601e020160010160068481548110611ac157611ac1614c74565b60068181548110611b5557600080fd5b60009182526020909120601e90910201805460018201805491935090611b7a90614c8a565b80601f0160208091040260200160405190810160405280929190818152602001828054611ba690614c8a565b8015611bf35780601f10611bc857610100808354040283529160200191611bf3565b820191906000526020600020905b815481529060010190602001808311611bd657829003601f168201915b505050505090806002018054611c0890614c8a565b80601f0160208091040260200160405190810160405280929190818152602001828054611c3490614c8a565b8015611c815780601f10611c5657610100808354040283529160200191611c81565b820191906000526020600020905b815481529060010190602001808311611c6457829003601f168201915b505050505090806003018054611c9690614c8a565b80601f0160208091040260200160405190810160405280929190818152602001828054611cc290614c8a565b8015611d0f5780601f10611ce457610100808354040283529160200191611d0f565b820191906000526020600020905b815481529060010190602001808311611cf257829003601f168201915b50505050509080600601604051806060016040529081600082018054611d3490614c8a565b80601f0160208091040260200160405190810160405280929190818152602001828054611d6090614c8a565b8015611dad5780601f10611d8257610100808354040283529160200191611dad565b820191906000526020600020905b815481529060010190602001808311611d9057829003601f168201915b5050505050815260200160018201548152602001600282018054611dd090614c8a565b80601f0160208091040260200160405190810160405280929190818152602001828054611dfc90614c8a565b8015611e495780601f10611e1e57610100808354040283529160200191611e49565b820191906000526020600020905b815481529060010190602001808311611e2c57829003601f168201915b50505050508152505090806009018054611e6290614c8a565b80601f0160208091040260200160405190810160405280929190818152602001828054611e8e90614c8a565b8015611edb5780601f10611eb057610100808354040283529160200191611edb565b820191906000526020600020905b815481529060010190602001808311611ebe57829003601f168201915b505050600a8401546040805160608082018352600e88015460ff818116151584526101008083048216151560208087019190915262010000938490048316151586880152865161020081018852600f8d0154808516151582528381048516151582840152948504841615158189015263010000008504841615159581019590955264010000000084048316151560808601526501000000000084048316151560a0860152660100000000000084048316151560c08087019190915267010000000000000085048416151560e0870152680100000000000000008504841615158684015269010000000000000000008504841615156101208701526a0100000000000000000000850484161515610140870152600160581b850484161515610160870152600160601b850484161515610180870152600160681b8504841615156101a0870152600160701b8504841615156101c0870152600160781b909404831615156101e08601528651808801885260108d015480851615158252929092048316151590820152855192830190955260118a018054999a919096169893975091955092939092918290829061208f90614c8a565b80601f01602080910402602001604051908101604052809291908181526020018280546120bb90614c8a565b80156121085780601f106120dd57610100808354040283529160200191612108565b820191906000526020600020905b8154815290600101906020018083116120eb57829003601f168201915b505050505081526020016001820154815260200160028201805461212b90614c8a565b80601f016020809104026020016040519081016040528092919081815260200182805461215790614c8a565b80156121a45780601f10612179576101008083540402835291602001916121a4565b820191906000526020600020905b81548152906001019060200180831161218757829003601f168201915b5050505050815260200160038201548152602001600482016040518060400160405290816000820180546121d790614c8a565b80601f016020809104026020016040519081016040528092919081815260200182805461220390614c8a565b80156122505780601f1061222557610100808354040283529160200191612250565b820191906000526020600020905b81548152906001019060200180831161223357829003601f168201915b5050505050815260200160018201805461226990614c8a565b80601f016020809104026020016040519081016040528092919081815260200182805461229590614c8a565b80156122e25780601f106122b7576101008083540402835291602001916122e2565b820191906000526020600020905b8154815290600101906020018083116122c557829003601f168201915b5050509190925250505081526006919091015460ff9081161515602090920191909152604080516060810190915260188401805493949391929091839116600481111561233157612331613404565b600481111561234257612342613404565b815260200160018201805461235690614c8a565b80601f016020809104026020016040519081016040528092919081815260200182805461238290614c8a565b80156123cf5780601f106123a4576101008083540402835291602001916123cf565b820191906000526020600020905b8154815290600101906020018083116123b257829003601f168201915b505050918352505060408051606081019091526020909101906002830160036000835b8282101561249557838201805461240890614c8a565b80601f016020809104026020016040519081016040528092919081815260200182805461243490614c8a565b80156124815780601f1061245657610100808354040283529160200191612481565b820191906000526020600020905b81548152906001019060200180831161246457829003601f168201915b5050505050815260200190600101906123f2565b50505091525050601d9091015460ff168d565b6060600073__$2d66fcc483cad6bd344cfa2bce294ad753$__63d0aed2c16006868660006040518563ffffffff1660e01b81526004016103779493929190614bfb565b73__$fd670a7a8cf286bc46dd07184f1e6a9adc$__6311a55ede60068a8154811061251857612518614c74565b90600052602060002090601e02018989898989898960006040518a63ffffffff1660e01b815260040161255399989796959493929190614f51565b60006040518083038186803b15801561256b57600080fd5b505af415801561257f573d6000803e3d6000fd5b505050507ff1acc7c95db58afeb3d94de0a26290e01e681eaeae56c25b1115faf2541227f2600689815481106125b7576125b7614c74565b90600052602060002090601e02016002018960068b815481106125dc576125dc614c74565b90600052602060002090601e02016018016002016040516125ff93929190614fed565b60405180910390a15050505050505050565b60006126288c8c8c8c8c8c8c8c8c8c8c6000612bdb565b600680548083526001810182556000919091528151601e9091027ff652222313e28459528d920b65115c16c04f3efc82aaedc97be59f3f377c0d3f8101918255602080840151805194955085946126a6937ff652222313e28459528d920b65115c16c04f3efc82aaedc97be59f3f377c0d40019291909101906130f6565b50604082015180516126c29160028401916020909101906130f6565b50606082015180516126de9160038401916020909101906130f6565b5060808201516126f4906004830190600261317a565b5060a0820151805180516006840191612712918391602001906130f6565b5060208281015160018301556040830151805161273592600285019201906130f6565b50505060c082015180516127539160098401916020909101906130f6565b5060e0820151600a8201805460ff1916600183600281111561277757612777613404565b021790555061010082015161279290600b83019060036131c6565b5061012082015181600e0160008201518160000160006101000a81548160ff02191690831515021790555060208201518160000160016101000a81548160ff02191690831515021790555060408201518160000160026101000a81548160ff021916908315150217905550505061014082015181600f0160008201518160000160006101000a81548160ff02191690831515021790555060208201518160000160016101000a81548160ff02191690831515021790555060408201518160000160026101000a81548160ff02191690831515021790555060608201518160000160036101000a81548160ff02191690831515021790555060808201518160000160046101000a81548160ff02191690831515021790555060a08201518160000160056101000a81548160ff02191690831515021790555060c08201518160000160066101000a81548160ff02191690831515021790555060e08201518160000160076101000a81548160ff0219169083151502179055506101008201518160000160086101000a81548160ff0219169083151502179055506101208201518160000160096101000a81548160ff02191690831515021790555061014082015181600001600a6101000a81548160ff02191690831515021790555061016082015181600001600b6101000a81548160ff02191690831515021790555061018082015181600001600c6101000a81548160ff0219169083151502179055506101a082015181600001600d6101000a81548160ff0219169083151502179055506101c082015181600001600e6101000a81548160ff0219169083151502179055506101e082015181600001600f6101000a81548160ff02191690831515021790555050506101608201518160100160008201518160000160006101000a81548160ff02191690831515021790555060208201518160000160016101000a81548160ff0219169083151502179055505050610180820151816011016000820151816000019080519060200190612a859291906130f6565b50602082810151600183015560408301518051612aa892600285019201906130f6565b50606082015160038201556080820151805180516004840191612ad0918391602001906130f6565b506020828101518051612ae992600185019201906130f6565b50505060a091909101516006909101805491151560ff199283161790556101a08301518051601884018054929390928391166001836004811115612b2f57612b2f613404565b02179055506020828101518051612b4c92600185019201906130f6565b506040820151612b6290600283019060036131f3565b5050506101c09190910151601d909101805460ff19169115159190911790556006547f40f080228d46fb72660eddafe315e4a5b47df236dc33b76fcd122bcbea89b01d908d908d90612bb690600190615052565b604051612bc593929190615069565b60405180910390a1505050505050505050505050565b612be3612f9e565b60208181018e905260408083018e9052606083018d9052608083018c90528a5160a084018051919091528b8301518151909301929092528a8101519151015260c08101889052600060e082018190528751889190612c4357612c43614c74565b6020026020010151816101000151600060038110612c6357612c63614c74565b6020020152865187906001908110612c7d57612c7d614c74565b6020026020010151816101000151600160038110612c9d57612c9d614c74565b602002015261010081015151875188906001908110612cbe57612cbe614c74565b60200260200101511015612d245760405162461bcd60e51b815260206004820152602760248201527f53746172742064617465206d757374206265206166746572206372656174696f60448201526637103230ba329760c91b606482015260840161156f565b86600181518110612d3757612d37614c74565b602002602001015187600281518110612d5257612d52614c74565b602002602001015111612db25760405162461bcd60e51b815260206004820152602260248201527f456e642064617465206d75737420626520616674657220737461727420646174604482015261329760f11b606482015260840161156f565b86600281518110612dc557612dc5614c74565b6020026020010151816101000151600260038110612de557612de5614c74565b602090810291909101919091526101208201879052610140820186905261018082018590528351610160830180519115159091528482015190519015159101528154826000612e3383614dd9565b9190505550816001018d604051612e4a9190614d35565b9081526040519081900360200190208054906000612e6783614dd9565b9190505550816003018c604051612e7e9190614d35565b9081526040519081900360200190208054906000612e9b83614dd9565b9190505550816002018d604051612eb29190614d35565b9081526040519081900360200190208054906000612ecf83614dd9565b9190505550816004018c604051612ee69190614d35565b9081526040519081900360200190208054906000612f0383614dd9565b909155505088516040516005840191612f1b91614d35565b9081526040519081900360200190208054906000612f3883614dd9565b91905055509c9b505050505050505050505050565b6040518060c0016040528060608152602001600081526020016060815260200160008152602001612f91604051806040016040528060608152602001606081525090565b8152600060209091015290565b604051806101e0016040528060008152602001606081526020016060815260200160608152602001612fce613233565b8152602001612ff760405180606001604052806060815260200160008152602001606081525090565b8152606060208201526040016000815260200161301261325a565b81526040805160608101825260008082526020828101829052928201529101908152604080516102008101825260008082526020828101829052928201819052606082018190526080820181905260a0820181905260c0820181905260e08201819052610100820181905261012082018190526101408201819052610160820181905261018082018190526101a082018190526101c082018190526101e082015291019081526020016130dc60405180604001604052806000151581526020016000151581525090565b81526020016130e9612f4d565b8152602001612f91613278565b82805461310290614c8a565b90600052602060002090601f016020900481019282613124576000855561316a565b82601f1061313d57805160ff191683800117855561316a565b8280016001018555821561316a579182015b8281111561316a57825182559160200191906001019061314f565b5061317692915061329c565b5090565b82600281019282156131ba579160200282015b828111156131ba57825180516131aa9184916020909101906130f6565b509160200191906001019061318d565b506131769291506132b1565b826003810192821561316a579160200282018281111561316a57825182559160200191906001019061314f565b82600381019282156131ba579160200282015b828111156131ba57825180516132239184916020909101906130f6565b5091602001919060010190613206565b60405180604001604052806002905b60608152602001906001900390816132425790505090565b60405180606001604052806003906020820280368337509192915050565b60408051606080820183526000825260208201529081016132976132ce565b905290565b5b80821115613176576000815560010161329d565b808211156131765760006132c582826132e8565b506001016132b1565b604080516060808201909252908152600260208201613242565b5080546132f490614c8a565b6000825580601f10613304575050565b601f0160209004906000526020600020908101906118be919061329c565b60005b8381101561333d578181015183820152602001613325565b8381111561334c576000848401525b50505050565b6000815180845261336a816020860160208601613322565b601f01601f19169290920160200192915050565b600082604081018360005b60028110156133b85783830387526133a2838351613352565b6020978801979093509190910190600101613389565b509095945050505050565b60008151606084526133d86060850182613352565b905060208301516020850152604083015184820360408601526133fb8282613352565b95945050505050565b634e487b7160e01b600052602160045260246000fd5b6003811061342a5761342a613404565b9052565b8060005b600381101561334c578151845260209384019390910190600101613432565b805115158252602081015161346a602084018215159052565b50604081015161347e604084018215159052565b506060810151613492606084018215159052565b5060808101516134a6608084018215159052565b5060a08101516134ba60a084018215159052565b5060c08101516134ce60c084018215159052565b5060e08101516134e260e084018215159052565b5061010081810151151590830152610120808201511515908301526101408082015115159083015261016080820151151590830152610180808201511515908301526101a0808201511515908301526101c0808201511515908301526101e0808201518015158285015261334c565b6000815160c0845261356660c0850182613352565b905060208301516020850152604083015184820360408601526135898282613352565b91505060608301516060850152608083015184820360808601528051604083526135b66040840182613352565b90506020820151915082810360208401526135d18183613352565b9250505060a0830151151560a08501528091505092915050565b60008151600581106135ff576135ff613404565b8084525060208083015160608286015261361c6060860182613352565b905060408401518582036040870152818290506060830160005b600381101561366157848203835261364f828551613352565b93860193928601929150600101613636565b50979650505050505050565b600061046082518452602083015181602086015261368d82860182613352565b915050604083015184820360408601526136a78282613352565b915050606083015184820360608601526136c18282613352565b915050608083015184820360808601526136db828261337e565b91505060a083015184820360a08601526136f582826133c3565b91505060c083015184820360c086015261370f8282613352565b91505060e083015161372460e086018261341a565b50610100808401516137388287018261342e565b5050610120830151610160613769818701838051151582526020808201511515908301526040908101511515910152565b61014085015191506101c061378081880184613451565b81860151805115156103c08901526020015115156103e088015261018086015187850361040089015292506137b58484613551565b93506101a086015192508684036104208801526137d284846135eb565b935080860151925050506137eb61044086018215159052565b509392505050565b600081518084526020808501808196508360051b8101915082860160005b8581101561383b57828403895261382984835161366d565b98850198935090840190600101613811565b5091979650505050505050565b6020815260006109e360208301846137f3565b634e487b7160e01b600052604160045260246000fd5b6040516060810167ffffffffffffffff811182821017156138945761389461385b565b60405290565b604051610200810167ffffffffffffffff811182821017156138945761389461385b565b6040805190810167ffffffffffffffff811182821017156138945761389461385b565b60405160c0810167ffffffffffffffff811182821017156138945761389461385b565b6040516101e0810167ffffffffffffffff811182821017156138945761389461385b565b604051601f8201601f1916810167ffffffffffffffff811182821017156139515761395161385b565b604052919050565b600067ffffffffffffffff8211156139735761397361385b565b5060051b60200190565b600067ffffffffffffffff8211156139975761399761385b565b50601f01601f191660200190565b600082601f8301126139b657600080fd5b81356139c96139c48261397d565b613928565b8181528460208386010111156139de57600080fd5b816020850160208301376000918101602001919091529392505050565b80151581146118be57600080fd5b8035613a14816139fb565b919050565b60008060408385031215613a2c57600080fd5b823567ffffffffffffffff80821115613a4457600080fd5b818501915085601f830112613a5857600080fd5b81356020613a686139c483613959565b82815260059290921b84018101918181019089841115613a8757600080fd5b8286015b84811015613abf57803586811115613aa35760008081fd5b613ab18c86838b01016139a5565b845250918301918301613a8b565b509650613acf9050878201613a09565b9450505050509250929050565b600060208284031215613aee57600080fd5b5035919050565b6020815260006109e36020830184613551565b600060208284031215613b1a57600080fd5b813567ffffffffffffffff811115613b3157600080fd5b6103cb848285016139a5565b604081526000613b5060408301856137f3565b90508260208301529392505050565b6000602080830181845280855180835260408601915060408160051b870101925083870160005b82811015613bb457603f19888603018452613ba2858351613352565b94509285019290850190600101613b86565b5092979650505050505050565b6020810161032e828461341a565b6020815260006109e3602083018461366d565b600080600080600060a08688031215613bfa57600080fd5b85359450602086013567ffffffffffffffff811115613c1857600080fd5b613c24888289016139a5565b959895975050505060408401359360608101359360809091013592509050565b60008060408385031215613c5757600080fd5b82359150602083013567ffffffffffffffff811115613c7557600080fd5b613c81858286016139a5565b9150509250929050565b8d81526103e060208201526000613ca66103e083018f613352565b8281036040840152613cb8818f613352565b90508281036060840152613ccc818e613352565b90508281036080840152613ce0818d6133c3565b905082810360a0840152613cf4818c613352565b9050613d0360c084018b61341a565b8851151560e08401526020890151151561010084015260408901511515610120840152613d34610140840189613451565b8651151561034084015260208701511515610360840152828103610380840152613d5e8187613551565b90508281036103a0840152613d7381866135eb565b915050613d856103c083018415159052565b9e9d5050505050505050505050505050565b600080600080600080600080610100898b031215613db457600080fd5b88359750602089013567ffffffffffffffff80821115613dd357600080fd5b613ddf8c838d016139a5565b985060408b0135915080821115613df557600080fd5b613e018c838d016139a5565b975060608b0135915080821115613e1757600080fd5b613e238c838d016139a5565b965060808b0135915080821115613e3957600080fd5b613e458c838d016139a5565b955060a08b0135945060c08b0135915080821115613e6257600080fd5b613e6e8c838d016139a5565b935060e08b0135915080821115613e8457600080fd5b50613e918b828c016139a5565b9150509295985092959890939650565b600082601f830112613eb257600080fd5b613eba6138be565b806040840185811115613ecc57600080fd5b845b818110156133b857803567ffffffffffffffff811115613eee5760008081fd5b613efa888289016139a5565b85525060209384019301613ece565b600060608284031215613f1b57600080fd5b613f23613871565b9050813567ffffffffffffffff80821115613f3d57600080fd5b613f49858386016139a5565b8352602084013560208401526040840135915080821115613f6957600080fd5b50613f76848285016139a5565b60408301525092915050565b600082601f830112613f9357600080fd5b81356020613fa36139c483613959565b82815260059290921b84018101918181019086841115613fc257600080fd5b8286015b84811015613fdd5780358352918301918301613fc6565b509695505050505050565b600060608284031215613ffa57600080fd5b614002613871565b9050813561400f816139fb565b8152602082013561401f816139fb565b60208201526040820135614032816139fb565b604082015292915050565b6000610200828403121561405057600080fd5b61405861389a565b905061406382613a09565b815261407160208301613a09565b602082015261408260408301613a09565b604082015261409360608301613a09565b60608201526140a460808301613a09565b60808201526140b560a08301613a09565b60a08201526140c660c08301613a09565b60c08201526140d760e08301613a09565b60e08201526101006140ea818401613a09565b908201526101206140fc838201613a09565b9082015261014061410e838201613a09565b90820152610160614120838201613a09565b90820152610180614132838201613a09565b908201526101a0614144838201613a09565b908201526101c0614156838201613a09565b908201526101e0614168838201613a09565b9082015292915050565b60006040828403121561418457600080fd5b61418c6138be565b9050813567ffffffffffffffff808211156141a657600080fd5b6141b2858386016139a5565b835260208401359150808211156141c857600080fd5b506141d5848285016139a5565b60208301525092915050565b600060c082840312156141f357600080fd5b6141fb6138e1565b9050813567ffffffffffffffff8082111561421557600080fd5b614221858386016139a5565b835260208401356020840152604084013591508082111561424157600080fd5b61424d858386016139a5565b604084015260608401356060840152608084013591508082111561427057600080fd5b5061427d84828501614172565b60808301525061428f60a08301613a09565b60a082015292915050565b6000604082840312156142ac57600080fd5b6142b46138be565b905081356142c1816139fb565b815260208201356142d1816139fb565b602082015292915050565b60008060008060008060008060008060006103a08c8e0312156142fe57600080fd5b67ffffffffffffffff808d35111561431557600080fd5b6143228e8e358f016139a5565b9b508060208e0135111561433557600080fd5b6143458e60208f01358f016139a5565b9a508060408e0135111561435857600080fd5b6143688e60408f01358f016139a5565b99508060608e0135111561437b57600080fd5b61438b8e60608f01358f01613ea1565b98508060808e0135111561439e57600080fd5b6143ae8e60808f01358f01613f09565b97508060a08e013511156143c157600080fd5b6143d18e60a08f01358f016139a5565b96508060c08e013511156143e457600080fd5b6143f48e60c08f01358f01613f82565b95506144038e60e08f01613fe8565b94506144138e6101408f0161403d565b9350806103408e0135111561442757600080fd5b506144398d6103408e01358e016141e1565b91506144498d6103608e0161429a565b90509295989b509295989b9093969950565b600082601f83011261446c57600080fd5b815161447a6139c48261397d565b81815284602083860101111561448f57600080fd5b6103cb826020830160208701613322565b600082601f8301126144b157600080fd5b6144b96138be565b8060408401858111156144cb57600080fd5b845b818110156133b857805167ffffffffffffffff8111156144ed5760008081fd5b6144f98882890161445b565b855250602093840193016144cd565b60006060828403121561451a57600080fd5b614522613871565b9050815167ffffffffffffffff8082111561453c57600080fd5b6145488583860161445b565b835260208401516020840152604084015191508082111561456857600080fd5b50613f768482850161445b565b805160038110613a1457600080fd5b600082601f83011261459557600080fd5b61459d613871565b8060608401858111156145af57600080fd5b845b818110156133b85780518452602093840193016145b1565b8051613a14816139fb565b6000606082840312156145e657600080fd5b6145ee613871565b905081516145fb816139fb565b8152602082015161460b816139fb565b60208201526040820151614032816139fb565b6000610200828403121561463157600080fd5b61463961389a565b9050614644826145c9565b8152614652602083016145c9565b6020820152614663604083016145c9565b6040820152614674606083016145c9565b6060820152614685608083016145c9565b608082015261469660a083016145c9565b60a08201526146a760c083016145c9565b60c08201526146b860e083016145c9565b60e08201526101006146cb8184016145c9565b908201526101206146dd8382016145c9565b908201526101406146ef8382016145c9565b908201526101606147018382016145c9565b908201526101806147138382016145c9565b908201526101a06147258382016145c9565b908201526101c06147378382016145c9565b908201526101e06141688382016145c9565b60006040828403121561475b57600080fd5b6147636138be565b90508151614770816139fb565b815260208201516142d1816139fb565b60006040828403121561479257600080fd5b61479a6138be565b9050815167ffffffffffffffff808211156147b457600080fd5b6147c08583860161445b565b835260208401519150808211156147d657600080fd5b506141d58482850161445b565b600060c082840312156147f557600080fd5b6147fd6138e1565b9050815167ffffffffffffffff8082111561481757600080fd5b6148238583860161445b565b835260208401516020840152604084015191508082111561484357600080fd5b61484f8583860161445b565b604084015260608401516060840152608084015191508082111561487257600080fd5b5061487f84828501614780565b60808301525061428f60a083016145c9565b6000606082840312156148a357600080fd5b6148ab613871565b90508151600581106148bc57600080fd5b815260208281015167ffffffffffffffff808211156148da57600080fd5b6148e68683870161445b565b8385015260408501519150808211156148fe57600080fd5b818501915085601f83011261491257600080fd5b61491a613871565b80606084018881111561492c57600080fd5b845b81811015614960578051858111156149465760008081fd5b6149528b82890161445b565b85525092860192860161492e565b50506040860152509295945050505050565b600082601f83011261498357600080fd5b815160206149936139c483613959565b82815260059290921b840181019181810190868411156149b257600080fd5b8286015b84811015613fdd57805167ffffffffffffffff808211156149d75760008081fd5b90880190610460828b03601f19018113156149f25760008081fd5b6149fa613904565b87840151815260408085015184811115614a145760008081fd5b614a228e8b8389010161445b565b8a8401525060608086015185811115614a3b5760008081fd5b614a498f8c838a010161445b565b8385015250608091508186015185811115614a645760008081fd5b614a728f8c838a010161445b565b82850152505060a08086015185811115614a8c5760008081fd5b614a9a8f8c838a01016144a0565b838501525060c091508186015185811115614ab55760008081fd5b614ac38f8c838a0101614508565b82850152505060e08086015185811115614add5760008081fd5b614aeb8f8c838a010161445b565b83850152506101009150614b00828701614575565b90830152610120614b138e878301614584565b828401526101809150614b288e8388016145d4565b90830152614b3a8d6101e0870161461e565b610140830152614b4e8d6103e08701614749565b61016083015261042085015184811115614b685760008081fd5b614b768e8b838901016147e3565b82840152505061044084015183811115614b905760008081fd5b614b9e8d8a83880101614891565b6101a083015250614bb08285016145c9565b6101c082015286525050509183019183016149b6565b600060208284031215614bd857600080fd5b815167ffffffffffffffff811115614bef57600080fd5b6103cb84828501614972565b600060808201868352602060808185015281875180845260a08601915060a08160051b870101935082890160005b82811015614c5757609f19888703018452614c45868351613352565b95509284019290840190600101614c29565b505050509415156040840152606090920192909252949350505050565b634e487b7160e01b600052603260045260246000fd5b600181811c90821680614c9e57607f821691505b60208210811415614cbf57634e487b7160e01b600052602260045260246000fd5b50919050565b838152606060208201526000614cde6060830185613352565b9050826040830152949350505050565b60008060408385031215614d0157600080fd5b825167ffffffffffffffff811115614d1857600080fd5b614d2485828601614972565b925050602083015190509250929050565b60008251614d47818460208701613322565b9190910192915050565b6000808354614d5f81614c8a565b60018281168015614d775760018114614d8857614db7565b60ff19841687528287019450614db7565b8760005260208060002060005b85811015614dae5781548a820152908401908201614d95565b50505082870194505b50929695505050505050565b634e487b7160e01b600052601160045260246000fd5b6000600019821415614ded57614ded614dc3565b5060010190565b86815260c060208201526000614e0d60c0830188613352565b90508560408301528460608301528360808301528260a0830152979650505050505050565b60008154614e3f81614c8a565b808552602060018381168015614e5c5760018114614e7057614e9e565b60ff19851688840152604088019550614e9e565b866000528260002060005b85811015614e965781548a8201860152908301908401614e7b565b890184019650505b505050505092915050565b60e081526000614ebc60e083018a614e32565b8281036020840152614ece818a614e32565b90508760408401528281036060840152614ee88188613352565b6080840196909652505060a081019290925260c090910152949350505050565b606081526000614f1b6060830186614e32565b8281036020840152614f2d8186614e32565b915050826040830152949350505050565b604081526000613b506040830185614e32565b60006101208b8352806020840152614f6b8184018c613352565b90508281036040840152614f7f818b613352565b90508281036060840152614f93818a613352565b90508281036080840152614fa78189613352565b90508660a084015282810360c0840152614fc18187613352565b905082810360e0840152614fd58186613352565b915050826101008301529a9950505050505050505050565b6060815260006150006060830186614e32565b6020838101869052838203604085015281606081018660005b60038110156150435785830384526150318383614e32565b93850193925060019182019101615019565b50909998505050505050505050565b60008282101561506457615064614dc3565b500390565b60608152600061507c6060830186613352565b8281036020840152614f2d818661335256fea2646970667358221220669ed890e6564e11cac458351de626bb0a96f66eb6e1c4ba0f69d49c5293822364736f6c63430008090033",
  "libraries": {
    "AgreementLib": "0x91723B01D19111573d2a21967a7227677C847A10",
    "AgreementViolationLibrary": "0x5AB30585805B1F7Df3c4000e7179B5D434a7Daf2",
    "RetrieveAgreementsLibrary": "0xd87a65a499B84CB08AD2B7Ae04951C6975Aaf380",
    "GetAgreementsLibrary": "0x621Ff939Fa681a7884C45F24De60D60698d5c66c"
  },
  "devdoc": {
    "kind": "dev",
    "methods": {},
    "version": 1
  },
  "userdoc": {
    "kind": "user",
    "methods": {},
    "version": 1
  },
  "storageLayout": {
    "storage": [
      {
        "astId": 1561,
        "contract": "contracts/Agreement.sol:DataSharingAgreement",
        "label": "counter",
        "offset": 0,
        "slot": "0",
        "type": "t_struct(Counter)158_storage"
      },
      {
        "astId": 1565,
        "contract": "contracts/Agreement.sol:DataSharingAgreement",
        "label": "agreements",
        "offset": 0,
        "slot": "6",
        "type": "t_array(t_struct(Agreement)48_storage)dyn_storage"
      },
      {
        "astId": 1570,
        "contract": "contracts/Agreement.sol:DataSharingAgreement",
        "label": "agreementIdToPenalties",
        "offset": 0,
        "slot": "7",
        "type": "t_mapping(t_uint256,t_array(t_string_storage)dyn_storage)"
      }
    ],
    "types": {
      "t_array(t_string_storage)2_storage": {
        "base": "t_string_storage",
        "encoding": "inplace",
        "label": "string[2]",
        "numberOfBytes": "64"
      },
      "t_array(t_string_storage)3_storage": {
        "base": "t_string_storage",
        "encoding": "inplace",
        "label": "string[3]",
        "numberOfBytes": "96"
      },
      "t_array(t_string_storage)dyn_storage": {
        "base": "t_string_storage",
        "encoding": "dynamic_array",
        "label": "string[]",
        "numberOfBytes": "32"
      },
      "t_array(t_struct(Agreement)48_storage)dyn_storage": {
        "base": "t_struct(Agreement)48_storage",
        "encoding": "dynamic_array",
        "label": "struct Agreement[]",
        "numberOfBytes": "32"
      },
      "t_array(t_uint256)3_storage": {
        "base": "t_uint256",
        "encoding": "inplace",
        "label": "uint256[3]",
        "numberOfBytes": "96"
      },
      "t_bool": {
        "encoding": "inplace",
        "label": "bool",
        "numberOfBytes": "1"
      },
      "t_enum(State)6": {
        "encoding": "inplace",
        "label": "enum State",
        "numberOfBytes": "1"
      },
      "t_enum(ViolationType)125": {
        "encoding": "inplace",
        "label": "enum ViolationType",
        "numberOfBytes": "1"
      },
      "t_mapping(t_string_memory_ptr,t_uint256)": {
        "encoding": "mapping",
        "key": "t_string_memory_ptr",
        "label": "mapping(string => uint256)",
        "numberOfBytes": "32",
        "value": "t_uint256"
      },
      "t_mapping(t_uint256,t_array(t_string_storage)dyn_storage)": {
        "encoding": "mapping",
        "key": "t_uint256",
        "label": "mapping(uint256 => string[])",
        "numberOfBytes": "32",
        "value": "t_array(t_string_storage)dyn_storage"
      },
      "t_string_memory_ptr": {
        "encoding": "bytes",
        "label": "string",
        "numberOfBytes": "32"
      },
      "t_string_storage": {
        "encoding": "bytes",
        "label": "string",
        "numberOfBytes": "32"
      },
      "t_struct(Agreement)48_storage": {
        "encoding": "inplace",
        "label": "struct Agreement",
        "members": [
          {
            "astId": 8,
            "contract": "contracts/Agreement.sol:DataSharingAgreement",
            "label": "agreementId",
            "offset": 0,
            "slot": "0",
            "type": "t_uint256"
          },
          {
            "astId": 10,
            "contract": "contracts/Agreement.sol:DataSharingAgreement",
            "label": "providerPublicKey",
            "offset": 0,
            "slot": "1",
            "type": "t_string_storage"
          },
          {
            "astId": 12,
            "contract": "contracts/Agreement.sol:DataSharingAgreement",
            "label": "consumerPublicKey",
            "offset": 0,
            "slot": "2",
            "type": "t_string_storage"
          },
          {
            "astId": 14,
            "contract": "contracts/Agreement.sol:DataSharingAgreement",
            "label": "dataExchangeAgreementHash",
            "offset": 0,
            "slot": "3",
            "type": "t_string_storage"
          },
          {
            "astId": 18,
            "contract": "contracts/Agreement.sol:DataSharingAgreement",
            "label": "signatures",
            "offset": 0,
            "slot": "4",
            "type": "t_array(t_string_storage)2_storage"
          },
          {
            "astId": 21,
            "contract": "contracts/Agreement.sol:DataSharingAgreement",
            "label": "dataOffering",
            "offset": 0,
            "slot": "6",
            "type": "t_struct(DataOffering)60_storage"
          },
          {
            "astId": 23,
            "contract": "contracts/Agreement.sol:DataSharingAgreement",
            "label": "purpose",
            "offset": 0,
            "slot": "9",
            "type": "t_string_storage"
          },
          {
            "astId": 26,
            "contract": "contracts/Agreement.sol:DataSharingAgreement",
            "label": "state",
            "offset": 0,
            "slot": "10",
            "type": "t_enum(State)6"
          },
          {
            "astId": 30,
            "contract": "contracts/Agreement.sol:DataSharingAgreement",
            "label": "agreementDates",
            "offset": 0,
            "slot": "11",
            "type": "t_array(t_uint256)3_storage"
          },
          {
            "astId": 33,
            "contract": "contracts/Agreement.sol:DataSharingAgreement",
            "label": "intendedUse",
            "offset": 0,
            "slot": "14",
            "type": "t_struct(IntendedUse)67_storage"
          },
          {
            "astId": 36,
            "contract": "contracts/Agreement.sol:DataSharingAgreement",
            "label": "licenseGrant",
            "offset": 0,
            "slot": "15",
            "type": "t_struct(LicenseGrant)100_storage"
          },
          {
            "astId": 39,
            "contract": "contracts/Agreement.sol:DataSharingAgreement",
            "label": "typeOfData",
            "offset": 0,
            "slot": "16",
            "type": "t_struct(TypeOfData)53_storage"
          },
          {
            "astId": 42,
            "contract": "contracts/Agreement.sol:DataSharingAgreement",
            "label": "pricingModel",
            "offset": 0,
            "slot": "17",
            "type": "t_struct(PricingModel)114_storage"
          },
          {
            "astId": 45,
            "contract": "contracts/Agreement.sol:DataSharingAgreement",
            "label": "violation",
            "offset": 0,
            "slot": "24",
            "type": "t_struct(Violation)135_storage"
          },
          {
            "astId": 47,
            "contract": "contracts/Agreement.sol:DataSharingAgreement",
            "label": "termination",
            "offset": 0,
            "slot": "29",
            "type": "t_bool"
          }
        ],
        "numberOfBytes": "960"
      },
      "t_struct(Counter)158_storage": {
        "encoding": "inplace",
        "label": "struct Counter",
        "members": [
          {
            "astId": 137,
            "contract": "contracts/Agreement.sol:DataSharingAgreement",
            "label": "activeAgreementCount",
            "offset": 0,
            "slot": "0",
            "type": "t_uint256"
          },
          {
            "astId": 141,
            "contract": "contracts/Agreement.sol:DataSharingAgreement",
            "label": "providerCount",
            "offset": 0,
            "slot": "1",
            "type": "t_mapping(t_string_memory_ptr,t_uint256)"
          },
          {
            "astId": 145,
            "contract": "contracts/Agreement.sol:DataSharingAgreement",
            "label": "providerActiveCount",
            "offset": 0,
            "slot": "2",
            "type": "t_mapping(t_string_memory_ptr,t_uint256)"
          },
          {
            "astId": 149,
            "contract": "contracts/Agreement.sol:DataSharingAgreement",
            "label": "consumerCount",
            "offset": 0,
            "slot": "3",
            "type": "t_mapping(t_string_memory_ptr,t_uint256)"
          },
          {
            "astId": 153,
            "contract": "contracts/Agreement.sol:DataSharingAgreement",
            "label": "consumerActiveCount",
            "offset": 0,
            "slot": "4",
            "type": "t_mapping(t_string_memory_ptr,t_uint256)"
          },
          {
            "astId": 157,
            "contract": "contracts/Agreement.sol:DataSharingAgreement",
            "label": "dataOfferingCount",
            "offset": 0,
            "slot": "5",
            "type": "t_mapping(t_string_memory_ptr,t_uint256)"
          }
        ],
        "numberOfBytes": "192"
      },
      "t_struct(DataOffering)60_storage": {
        "encoding": "inplace",
        "label": "struct DataOffering",
        "members": [
          {
            "astId": 55,
            "contract": "contracts/Agreement.sol:DataSharingAgreement",
            "label": "dataOfferingId",
            "offset": 0,
            "slot": "0",
            "type": "t_string_storage"
          },
          {
            "astId": 57,
            "contract": "contracts/Agreement.sol:DataSharingAgreement",
            "label": "dataOfferingVersion",
            "offset": 0,
            "slot": "1",
            "type": "t_uint256"
          },
          {
            "astId": 59,
            "contract": "contracts/Agreement.sol:DataSharingAgreement",
            "label": "title",
            "offset": 0,
            "slot": "2",
            "type": "t_string_storage"
          }
        ],
        "numberOfBytes": "96"
      },
      "t_struct(IntendedUse)67_storage": {
        "encoding": "inplace",
        "label": "struct IntendedUse",
        "members": [
          {
            "astId": 62,
            "contract": "contracts/Agreement.sol:DataSharingAgreement",
            "label": "processData",
            "offset": 0,
            "slot": "0",
            "type": "t_bool"
          },
          {
            "astId": 64,
            "contract": "contracts/Agreement.sol:DataSharingAgreement",
            "label": "shareDataWithThirdParty",
            "offset": 1,
            "slot": "0",
            "type": "t_bool"
          },
          {
            "astId": 66,
            "contract": "contracts/Agreement.sol:DataSharingAgreement",
            "label": "editData",
            "offset": 2,
            "slot": "0",
            "type": "t_bool"
          }
        ],
        "numberOfBytes": "32"
      },
      "t_struct(LicenseGrant)100_storage": {
        "encoding": "inplace",
        "label": "struct LicenseGrant",
        "members": [
          {
            "astId": 69,
            "contract": "contracts/Agreement.sol:DataSharingAgreement",
            "label": "transferable",
            "offset": 0,
            "slot": "0",
            "type": "t_bool"
          },
          {
            "astId": 71,
            "contract": "contracts/Agreement.sol:DataSharingAgreement",
            "label": "exclusiveness",
            "offset": 1,
            "slot": "0",
            "type": "t_bool"
          },
          {
            "astId": 73,
            "contract": "contracts/Agreement.sol:DataSharingAgreement",
            "label": "paidUp",
            "offset": 2,
            "slot": "0",
            "type": "t_bool"
          },
          {
            "astId": 75,
            "contract": "contracts/Agreement.sol:DataSharingAgreement",
            "label": "revocable",
            "offset": 3,
            "slot": "0",
            "type": "t_bool"
          },
          {
            "astId": 77,
            "contract": "contracts/Agreement.sol:DataSharingAgreement",
            "label": "processing",
            "offset": 4,
            "slot": "0",
            "type": "t_bool"
          },
          {
            "astId": 79,
            "contract": "contracts/Agreement.sol:DataSharingAgreement",
            "label": "modifying",
            "offset": 5,
            "slot": "0",
            "type": "t_bool"
          },
          {
            "astId": 81,
            "contract": "contracts/Agreement.sol:DataSharingAgreement",
            "label": "analyzing",
            "offset": 6,
            "slot": "0",
            "type": "t_bool"
          },
          {
            "astId": 83,
            "contract": "contracts/Agreement.sol:DataSharingAgreement",
            "label": "storingData",
            "offset": 7,
            "slot": "0",
            "type": "t_bool"
          },
          {
            "astId": 85,
            "contract": "contracts/Agreement.sol:DataSharingAgreement",
            "label": "storingCopy",
            "offset": 8,
            "slot": "0",
            "type": "t_bool"
          },
          {
            "astId": 87,
            "contract": "contracts/Agreement.sol:DataSharingAgreement",
            "label": "reproducing",
            "offset": 9,
            "slot": "0",
            "type": "t_bool"
          },
          {
            "astId": 89,
            "contract": "contracts/Agreement.sol:DataSharingAgreement",
            "label": "distributing",
            "offset": 10,
            "slot": "0",
            "type": "t_bool"
          },
          {
            "astId": 91,
            "contract": "contracts/Agreement.sol:DataSharingAgreement",
            "label": "loaning",
            "offset": 11,
            "slot": "0",
            "type": "t_bool"
          },
          {
            "astId": 93,
            "contract": "contracts/Agreement.sol:DataSharingAgreement",
            "label": "selling",
            "offset": 12,
            "slot": "0",
            "type": "t_bool"
          },
          {
            "astId": 95,
            "contract": "contracts/Agreement.sol:DataSharingAgreement",
            "label": "renting",
            "offset": 13,
            "slot": "0",
            "type": "t_bool"
          },
          {
            "astId": 97,
            "contract": "contracts/Agreement.sol:DataSharingAgreement",
            "label": "furtherLicensing",
            "offset": 14,
            "slot": "0",
            "type": "t_bool"
          },
          {
            "astId": 99,
            "contract": "contracts/Agreement.sol:DataSharingAgreement",
            "label": "leasing",
            "offset": 15,
            "slot": "0",
            "type": "t_bool"
          }
        ],
        "numberOfBytes": "32"
      },
      "t_struct(PaymentOnSubscription)119_storage": {
        "encoding": "inplace",
        "label": "struct PaymentOnSubscription",
        "members": [
          {
            "astId": 116,
            "contract": "contracts/Agreement.sol:DataSharingAgreement",
            "label": "timeDuration",
            "offset": 0,
            "slot": "0",
            "type": "t_string_storage"
          },
          {
            "astId": 118,
            "contract": "contracts/Agreement.sol:DataSharingAgreement",
            "label": "repeat",
            "offset": 0,
            "slot": "1",
            "type": "t_string_storage"
          }
        ],
        "numberOfBytes": "64"
      },
      "t_struct(PricingModel)114_storage": {
        "encoding": "inplace",
        "label": "struct PricingModel",
        "members": [
          {
            "astId": 102,
            "contract": "contracts/Agreement.sol:DataSharingAgreement",
            "label": "paymentType",
            "offset": 0,
            "slot": "0",
            "type": "t_string_storage"
          },
          {
            "astId": 104,
            "contract": "contracts/Agreement.sol:DataSharingAgreement",
            "label": "price",
            "offset": 0,
            "slot": "1",
            "type": "t_uint256"
          },
          {
            "astId": 106,
            "contract": "contracts/Agreement.sol:DataSharingAgreement",
            "label": "currency",
            "offset": 0,
            "slot": "2",
            "type": "t_string_storage"
          },
          {
            "astId": 108,
            "contract": "contracts/Agreement.sol:DataSharingAgreement",
            "label": "fee",
            "offset": 0,
            "slot": "3",
            "type": "t_uint256"
          },
          {
            "astId": 111,
            "contract": "contracts/Agreement.sol:DataSharingAgreement",
            "label": "paymentOnSubscription",
            "offset": 0,
            "slot": "4",
            "type": "t_struct(PaymentOnSubscription)119_storage"
          },
          {
            "astId": 113,
            "contract": "contracts/Agreement.sol:DataSharingAgreement",
            "label": "isFree",
            "offset": 0,
            "slot": "6",
            "type": "t_bool"
          }
        ],
        "numberOfBytes": "224"
      },
      "t_struct(TypeOfData)53_storage": {
        "encoding": "inplace",
        "label": "struct TypeOfData",
        "members": [
          {
            "astId": 50,
            "contract": "contracts/Agreement.sol:DataSharingAgreement",
            "label": "dataStream",
            "offset": 0,
            "slot": "0",
            "type": "t_bool"
          },
          {
            "astId": 52,
            "contract": "contracts/Agreement.sol:DataSharingAgreement",
            "label": "personalData",
            "offset": 1,
            "slot": "0",
            "type": "t_bool"
          }
        ],
        "numberOfBytes": "32"
      },
      "t_struct(Violation)135_storage": {
        "encoding": "inplace",
        "label": "struct Violation",
        "members": [
          {
            "astId": 128,
            "contract": "contracts/Agreement.sol:DataSharingAgreement",
            "label": "violationType",
            "offset": 0,
            "slot": "0",
            "type": "t_enum(ViolationType)125"
          },
          {
            "astId": 130,
            "contract": "contracts/Agreement.sol:DataSharingAgreement",
            "label": "issuerId",
            "offset": 0,
            "slot": "1",
            "type": "t_string_storage"
          },
          {
            "astId": 134,
            "contract": "contracts/Agreement.sol:DataSharingAgreement",
            "label": "penaltyChoices",
            "offset": 0,
            "slot": "2",
            "type": "t_array(t_string_storage)3_storage"
          }
        ],
        "numberOfBytes": "160"
      },
      "t_uint256": {
        "encoding": "inplace",
        "label": "uint256",
        "numberOfBytes": "32"
      }
    }
  }
}