{
  "address": "0xa616AbdE63788D6f4B1A6A780D477361f43ADB24",
  "abi": [
    {
      "anonymous": false,
      "inputs": [
        {
          "indexed": false,
          "internalType": "string",
          "name": "providerPublicKey",
          "type": "string"
        },
        {
          "indexed": false,
          "internalType": "string",
          "name": "consumerPublicKey",
          "type": "string"
        },
        {
          "indexed": false,
          "internalType": "uint256",
          "name": "id",
          "type": "uint256"
        },
        {
          "indexed": false,
          "internalType": "string",
          "name": "chosenPenalty",
          "type": "string"
        },
        {
          "indexed": false,
          "internalType": "uint256",
          "name": "newEndDate",
          "type": "uint256"
        },
        {
          "indexed": false,
          "internalType": "uint256",
          "name": "price",
          "type": "uint256"
        },
        {
          "indexed": false,
          "internalType": "uint256",
          "name": "fee",
          "type": "uint256"
        }
      ],
      "name": "AgreeOnPenalty",
      "type": "event"
    },
    {
      "anonymous": false,
      "inputs": [
        {
          "indexed": false,
          "internalType": "string",
          "name": "providerPublicKey",
          "type": "string"
        },
        {
          "indexed": false,
          "internalType": "string",
          "name": "consumerPublicKey",
          "type": "string"
        },
        {
          "indexed": false,
          "internalType": "uint256",
          "name": "id",
          "type": "uint256"
        }
      ],
      "name": "AgreementActive",
      "type": "event"
    },
    {
      "anonymous": false,
      "inputs": [
        {
          "indexed": false,
          "internalType": "string",
          "name": "providerPublicKey",
          "type": "string"
        },
        {
          "indexed": false,
          "internalType": "string",
          "name": "consumerPublicKey",
          "type": "string"
        },
        {
          "indexed": false,
          "internalType": "uint256",
          "name": "id",
          "type": "uint256"
        }
      ],
      "name": "AgreementTerminated",
      "type": "event"
    },
    {
      "anonymous": false,
      "inputs": [
        {
          "indexed": false,
          "internalType": "string",
          "name": "consumerPublicKey",
          "type": "string"
        },
        {
          "indexed": false,
          "internalType": "uint256",
          "name": "id",
          "type": "uint256"
        },
        {
          "indexed": false,
          "internalType": "string[3]",
          "name": "penaltyChoices",
          "type": "string[3]"
        }
      ],
      "name": "PenaltyChoices",
      "type": "event"
    },
    {
      "inputs": [
        {
          "internalType": "string",
          "name": "_dataOfferingId",
          "type": "string"
        }
      ],
      "name": "checkAgreementsByDataOffering",
      "outputs": [
        {
          "internalType": "uint256[]",
          "name": "",
          "type": "uint256[]"
        }
      ],
      "stateMutability": "view",
      "type": "function"
    },
    {
      "inputs": [
        {
          "internalType": "string",
          "name": "_providerPublicKey",
          "type": "string"
        },
        {
          "internalType": "string",
          "name": "_consumerPublicKey",
          "type": "string"
        },
        {
          "internalType": "string",
          "name": "_dataExchangeAgreementHash",
          "type": "string"
        },
        {
          "internalType": "string[2]",
          "name": "_signatures",
          "type": "string[2]"
        },
        {
          "components": [
            {
              "internalType": "string",
              "name": "dataOfferingId",
              "type": "string"
            },
            {
              "internalType": "uint256",
              "name": "dataOfferingVersion",
              "type": "uint256"
            },
            {
              "internalType": "string",
              "name": "title",
              "type": "string"
            }
          ],
          "internalType": "struct DataOffering",
          "name": "dataOffering",
          "type": "tuple"
        },
        {
          "internalType": "string",
          "name": "_purpose",
          "type": "string"
        },
        {
          "internalType": "uint256[3]",
          "name": "dates",
          "type": "uint256[3]"
        },
        {
          "components": [
            {
              "internalType": "bool",
              "name": "processData",
              "type": "bool"
            },
            {
              "internalType": "bool",
              "name": "shareDataWithThirdParty",
              "type": "bool"
            },
            {
              "internalType": "bool",
              "name": "editData",
              "type": "bool"
            }
          ],
          "internalType": "struct IntendedUse",
          "name": "intendedUse",
          "type": "tuple"
        },
        {
          "components": [
            {
              "internalType": "bool",
              "name": "transferable",
              "type": "bool"
            },
            {
              "internalType": "bool",
              "name": "exclusiveness",
              "type": "bool"
            },
            {
              "internalType": "bool",
              "name": "paidUp",
              "type": "bool"
            },
            {
              "internalType": "bool",
              "name": "revocable",
              "type": "bool"
            },
            {
              "internalType": "bool",
              "name": "processing",
              "type": "bool"
            },
            {
              "internalType": "bool",
              "name": "modifying",
              "type": "bool"
            },
            {
              "internalType": "bool",
              "name": "analyzing",
              "type": "bool"
            },
            {
              "internalType": "bool",
              "name": "storingData",
              "type": "bool"
            },
            {
              "internalType": "bool",
              "name": "storingCopy",
              "type": "bool"
            },
            {
              "internalType": "bool",
              "name": "reproducing",
              "type": "bool"
            },
            {
              "internalType": "bool",
              "name": "distributing",
              "type": "bool"
            },
            {
              "internalType": "bool",
              "name": "loaning",
              "type": "bool"
            },
            {
              "internalType": "bool",
              "name": "selling",
              "type": "bool"
            },
            {
              "internalType": "bool",
              "name": "renting",
              "type": "bool"
            },
            {
              "internalType": "bool",
              "name": "furtherLicensing",
              "type": "bool"
            },
            {
              "internalType": "bool",
              "name": "leasing",
              "type": "bool"
            }
          ],
          "internalType": "struct LicenseGrant",
          "name": "licenseGrant",
          "type": "tuple"
        },
        {
          "components": [
            {
              "internalType": "string",
              "name": "paymentType",
              "type": "string"
            },
            {
              "internalType": "uint256",
              "name": "price",
              "type": "uint256"
            },
            {
              "internalType": "string",
              "name": "currency",
              "type": "string"
            },
            {
              "internalType": "uint256",
              "name": "fee",
              "type": "uint256"
            },
            {
              "components": [
                {
                  "internalType": "string",
                  "name": "timeDuration",
                  "type": "string"
                },
                {
                  "internalType": "string",
                  "name": "repeat",
                  "type": "string"
                }
              ],
              "internalType": "struct PaymentOnSubscription",
              "name": "paymentOnSubscription",
              "type": "tuple"
            },
            {
              "internalType": "bool",
              "name": "isFree",
              "type": "bool"
            }
          ],
          "internalType": "struct PricingModel",
          "name": "pricingModel",
          "type": "tuple"
        },
        {
          "components": [
            {
              "internalType": "bool",
              "name": "dataStream",
              "type": "bool"
            },
            {
              "internalType": "bool",
              "name": "personalData",
              "type": "bool"
            }
          ],
          "internalType": "struct TypeOfData",
          "name": "typeOfData",
          "type": "tuple"
        }
      ],
      "name": "createAgreement",
      "outputs": [],
      "stateMutability": "nonpayable",
      "type": "function"
    },
    {
      "inputs": [
        {
          "internalType": "uint256",
          "name": "_id",
          "type": "uint256"
        },
        {
          "internalType": "string",
          "name": "_chosenPenalty",
          "type": "string"
        },
        {
          "internalType": "uint256",
          "name": "_price",
          "type": "uint256"
        },
        {
          "internalType": "uint256",
          "name": "_fee",
          "type": "uint256"
        },
        {
          "internalType": "uint256",
          "name": "_newEndDate",
          "type": "uint256"
        }
      ],
      "name": "enforcePenalty",
      "outputs": [],
      "stateMutability": "nonpayable",
      "type": "function"
    },
    {
      "inputs": [
        {
          "internalType": "uint256",
          "name": "_agreementId",
          "type": "uint256"
        },
        {
          "internalType": "string",
          "name": "_proofType",
          "type": "string"
        },
        {
          "internalType": "string",
          "name": "_type",
          "type": "string"
        },
        {
          "internalType": "string",
          "name": "_resolution",
          "type": "string"
        },
        {
          "internalType": "string",
          "name": "_dataExchangeId",
          "type": "string"
        },
        {
          "internalType": "uint256",
          "name": "_iat",
          "type": "uint256"
        },
        {
          "internalType": "string",
          "name": "_iss",
          "type": "string"
        },
        {
          "internalType": "string",
          "name": "_sub",
          "type": "string"
        }
      ],
      "name": "evaluateSignedResolution",
      "outputs": [],
      "stateMutability": "nonpayable",
      "type": "function"
    },
    {
      "inputs": [
        {
          "internalType": "uint256",
          "name": "id",
          "type": "uint256"
        }
      ],
      "name": "getAgreement",
      "outputs": [
        {
          "components": [
            {
              "internalType": "uint256",
              "name": "agreementId",
              "type": "uint256"
            },
            {
              "internalType": "string",
              "name": "providerPublicKey",
              "type": "string"
            },
            {
              "internalType": "string",
              "name": "consumerPublicKey",
              "type": "string"
            },
            {
              "internalType": "string",
              "name": "dataExchangeAgreementHash",
              "type": "string"
            },
            {
              "internalType": "string[2]",
              "name": "signatures",
              "type": "string[2]"
            },
            {
              "components": [
                {
                  "internalType": "string",
                  "name": "dataOfferingId",
                  "type": "string"
                },
                {
                  "internalType": "uint256",
                  "name": "dataOfferingVersion",
                  "type": "uint256"
                },
                {
                  "internalType": "string",
                  "name": "title",
                  "type": "string"
                }
              ],
              "internalType": "struct DataOffering",
              "name": "dataOffering",
              "type": "tuple"
            },
            {
              "internalType": "string",
              "name": "purpose",
              "type": "string"
            },
            {
              "internalType": "enum State",
              "name": "state",
              "type": "uint8"
            },
            {
              "internalType": "uint256[3]",
              "name": "agreementDates",
              "type": "uint256[3]"
            },
            {
              "components": [
                {
                  "internalType": "bool",
                  "name": "processData",
                  "type": "bool"
                },
                {
                  "internalType": "bool",
                  "name": "shareDataWithThirdParty",
                  "type": "bool"
                },
                {
                  "internalType": "bool",
                  "name": "editData",
                  "type": "bool"
                }
              ],
              "internalType": "struct IntendedUse",
              "name": "intendedUse",
              "type": "tuple"
            },
            {
              "components": [
                {
                  "internalType": "bool",
                  "name": "transferable",
                  "type": "bool"
                },
                {
                  "internalType": "bool",
                  "name": "exclusiveness",
                  "type": "bool"
                },
                {
                  "internalType": "bool",
                  "name": "paidUp",
                  "type": "bool"
                },
                {
                  "internalType": "bool",
                  "name": "revocable",
                  "type": "bool"
                },
                {
                  "internalType": "bool",
                  "name": "processing",
                  "type": "bool"
                },
                {
                  "internalType": "bool",
                  "name": "modifying",
                  "type": "bool"
                },
                {
                  "internalType": "bool",
                  "name": "analyzing",
                  "type": "bool"
                },
                {
                  "internalType": "bool",
                  "name": "storingData",
                  "type": "bool"
                },
                {
                  "internalType": "bool",
                  "name": "storingCopy",
                  "type": "bool"
                },
                {
                  "internalType": "bool",
                  "name": "reproducing",
                  "type": "bool"
                },
                {
                  "internalType": "bool",
                  "name": "distributing",
                  "type": "bool"
                },
                {
                  "internalType": "bool",
                  "name": "loaning",
                  "type": "bool"
                },
                {
                  "internalType": "bool",
                  "name": "selling",
                  "type": "bool"
                },
                {
                  "internalType": "bool",
                  "name": "renting",
                  "type": "bool"
                },
                {
                  "internalType": "bool",
                  "name": "furtherLicensing",
                  "type": "bool"
                },
                {
                  "internalType": "bool",
                  "name": "leasing",
                  "type": "bool"
                }
              ],
              "internalType": "struct LicenseGrant",
              "name": "licenseGrant",
              "type": "tuple"
            },
            {
              "components": [
                {
                  "internalType": "bool",
                  "name": "dataStream",
                  "type": "bool"
                },
                {
                  "internalType": "bool",
                  "name": "personalData",
                  "type": "bool"
                }
              ],
              "internalType": "struct TypeOfData",
              "name": "typeOfData",
              "type": "tuple"
            },
            {
              "components": [
                {
                  "internalType": "string",
                  "name": "paymentType",
                  "type": "string"
                },
                {
                  "internalType": "uint256",
                  "name": "price",
                  "type": "uint256"
                },
                {
                  "internalType": "string",
                  "name": "currency",
                  "type": "string"
                },
                {
                  "internalType": "uint256",
                  "name": "fee",
                  "type": "uint256"
                },
                {
                  "components": [
                    {
                      "internalType": "string",
                      "name": "timeDuration",
                      "type": "string"
                    },
                    {
                      "internalType": "string",
                      "name": "repeat",
                      "type": "string"
                    }
                  ],
                  "internalType": "struct PaymentOnSubscription",
                  "name": "paymentOnSubscription",
                  "type": "tuple"
                },
                {
                  "internalType": "bool",
                  "name": "isFree",
                  "type": "bool"
                }
              ],
              "internalType": "struct PricingModel",
              "name": "pricingModel",
              "type": "tuple"
            },
            {
              "components": [
                {
                  "internalType": "enum ViolationType",
                  "name": "violationType",
                  "type": "uint8"
                },
                {
                  "internalType": "string",
                  "name": "issuerId",
                  "type": "string"
                },
                {
                  "internalType": "string[3]",
                  "name": "penaltyChoices",
                  "type": "string[3]"
                }
              ],
              "internalType": "struct Violation",
              "name": "violation",
              "type": "tuple"
            }
          ],
          "internalType": "struct Agreement",
          "name": "",
          "type": "tuple"
        }
      ],
      "stateMutability": "view",
      "type": "function"
    },
    {
      "inputs": [
        {
          "internalType": "string",
          "name": "_consumerPublicKey",
          "type": "string"
        },
        {
          "internalType": "bool",
          "name": "active",
          "type": "bool"
        }
      ],
      "name": "getAgreementsByConsumer",
      "outputs": [
        {
          "components": [
            {
              "internalType": "uint256",
              "name": "agreementId",
              "type": "uint256"
            },
            {
              "internalType": "string",
              "name": "providerPublicKey",
              "type": "string"
            },
            {
              "internalType": "string",
              "name": "consumerPublicKey",
              "type": "string"
            },
            {
              "internalType": "string",
              "name": "dataExchangeAgreementHash",
              "type": "string"
            },
            {
              "internalType": "string[2]",
              "name": "signatures",
              "type": "string[2]"
            },
            {
              "components": [
                {
                  "internalType": "string",
                  "name": "dataOfferingId",
                  "type": "string"
                },
                {
                  "internalType": "uint256",
                  "name": "dataOfferingVersion",
                  "type": "uint256"
                },
                {
                  "internalType": "string",
                  "name": "title",
                  "type": "string"
                }
              ],
              "internalType": "struct DataOffering",
              "name": "dataOffering",
              "type": "tuple"
            },
            {
              "internalType": "string",
              "name": "purpose",
              "type": "string"
            },
            {
              "internalType": "enum State",
              "name": "state",
              "type": "uint8"
            },
            {
              "internalType": "uint256[3]",
              "name": "agreementDates",
              "type": "uint256[3]"
            },
            {
              "components": [
                {
                  "internalType": "bool",
                  "name": "processData",
                  "type": "bool"
                },
                {
                  "internalType": "bool",
                  "name": "shareDataWithThirdParty",
                  "type": "bool"
                },
                {
                  "internalType": "bool",
                  "name": "editData",
                  "type": "bool"
                }
              ],
              "internalType": "struct IntendedUse",
              "name": "intendedUse",
              "type": "tuple"
            },
            {
              "components": [
                {
                  "internalType": "bool",
                  "name": "transferable",
                  "type": "bool"
                },
                {
                  "internalType": "bool",
                  "name": "exclusiveness",
                  "type": "bool"
                },
                {
                  "internalType": "bool",
                  "name": "paidUp",
                  "type": "bool"
                },
                {
                  "internalType": "bool",
                  "name": "revocable",
                  "type": "bool"
                },
                {
                  "internalType": "bool",
                  "name": "processing",
                  "type": "bool"
                },
                {
                  "internalType": "bool",
                  "name": "modifying",
                  "type": "bool"
                },
                {
                  "internalType": "bool",
                  "name": "analyzing",
                  "type": "bool"
                },
                {
                  "internalType": "bool",
                  "name": "storingData",
                  "type": "bool"
                },
                {
                  "internalType": "bool",
                  "name": "storingCopy",
                  "type": "bool"
                },
                {
                  "internalType": "bool",
                  "name": "reproducing",
                  "type": "bool"
                },
                {
                  "internalType": "bool",
                  "name": "distributing",
                  "type": "bool"
                },
                {
                  "internalType": "bool",
                  "name": "loaning",
                  "type": "bool"
                },
                {
                  "internalType": "bool",
                  "name": "selling",
                  "type": "bool"
                },
                {
                  "internalType": "bool",
                  "name": "renting",
                  "type": "bool"
                },
                {
                  "internalType": "bool",
                  "name": "furtherLicensing",
                  "type": "bool"
                },
                {
                  "internalType": "bool",
                  "name": "leasing",
                  "type": "bool"
                }
              ],
              "internalType": "struct LicenseGrant",
              "name": "licenseGrant",
              "type": "tuple"
            },
            {
              "components": [
                {
                  "internalType": "bool",
                  "name": "dataStream",
                  "type": "bool"
                },
                {
                  "internalType": "bool",
                  "name": "personalData",
                  "type": "bool"
                }
              ],
              "internalType": "struct TypeOfData",
              "name": "typeOfData",
              "type": "tuple"
            },
            {
              "components": [
                {
                  "internalType": "string",
                  "name": "paymentType",
                  "type": "string"
                },
                {
                  "internalType": "uint256",
                  "name": "price",
                  "type": "uint256"
                },
                {
                  "internalType": "string",
                  "name": "currency",
                  "type": "string"
                },
                {
                  "internalType": "uint256",
                  "name": "fee",
                  "type": "uint256"
                },
                {
                  "components": [
                    {
                      "internalType": "string",
                      "name": "timeDuration",
                      "type": "string"
                    },
                    {
                      "internalType": "string",
                      "name": "repeat",
                      "type": "string"
                    }
                  ],
                  "internalType": "struct PaymentOnSubscription",
                  "name": "paymentOnSubscription",
                  "type": "tuple"
                },
                {
                  "internalType": "bool",
                  "name": "isFree",
                  "type": "bool"
                }
              ],
              "internalType": "struct PricingModel",
              "name": "pricingModel",
              "type": "tuple"
            },
            {
              "components": [
                {
                  "internalType": "enum ViolationType",
                  "name": "violationType",
                  "type": "uint8"
                },
                {
                  "internalType": "string",
                  "name": "issuerId",
                  "type": "string"
                },
                {
                  "internalType": "string[3]",
                  "name": "penaltyChoices",
                  "type": "string[3]"
                }
              ],
              "internalType": "struct Violation",
              "name": "violation",
              "type": "tuple"
            }
          ],
          "internalType": "struct Agreement",
          "name": "consumerAgreement",
          "type": "tuple"
        }
      ],
      "stateMutability": "view",
      "type": "function"
    },
    {
      "inputs": [
        {
          "internalType": "string",
          "name": "_providerPublicKeys",
          "type": "string"
        },
        {
          "internalType": "bool",
          "name": "active",
          "type": "bool"
        }
      ],
      "name": "getAgreementsByProvider",
      "outputs": [
        {
          "components": [
            {
              "internalType": "uint256",
              "name": "agreementId",
              "type": "uint256"
            },
            {
              "internalType": "string",
              "name": "providerPublicKey",
              "type": "string"
            },
            {
              "internalType": "string",
              "name": "consumerPublicKey",
              "type": "string"
            },
            {
              "internalType": "string",
              "name": "dataExchangeAgreementHash",
              "type": "string"
            },
            {
              "internalType": "string[2]",
              "name": "signatures",
              "type": "string[2]"
            },
            {
              "components": [
                {
                  "internalType": "string",
                  "name": "dataOfferingId",
                  "type": "string"
                },
                {
                  "internalType": "uint256",
                  "name": "dataOfferingVersion",
                  "type": "uint256"
                },
                {
                  "internalType": "string",
                  "name": "title",
                  "type": "string"
                }
              ],
              "internalType": "struct DataOffering",
              "name": "dataOffering",
              "type": "tuple"
            },
            {
              "internalType": "string",
              "name": "purpose",
              "type": "string"
            },
            {
              "internalType": "enum State",
              "name": "state",
              "type": "uint8"
            },
            {
              "internalType": "uint256[3]",
              "name": "agreementDates",
              "type": "uint256[3]"
            },
            {
              "components": [
                {
                  "internalType": "bool",
                  "name": "processData",
                  "type": "bool"
                },
                {
                  "internalType": "bool",
                  "name": "shareDataWithThirdParty",
                  "type": "bool"
                },
                {
                  "internalType": "bool",
                  "name": "editData",
                  "type": "bool"
                }
              ],
              "internalType": "struct IntendedUse",
              "name": "intendedUse",
              "type": "tuple"
            },
            {
              "components": [
                {
                  "internalType": "bool",
                  "name": "transferable",
                  "type": "bool"
                },
                {
                  "internalType": "bool",
                  "name": "exclusiveness",
                  "type": "bool"
                },
                {
                  "internalType": "bool",
                  "name": "paidUp",
                  "type": "bool"
                },
                {
                  "internalType": "bool",
                  "name": "revocable",
                  "type": "bool"
                },
                {
                  "internalType": "bool",
                  "name": "processing",
                  "type": "bool"
                },
                {
                  "internalType": "bool",
                  "name": "modifying",
                  "type": "bool"
                },
                {
                  "internalType": "bool",
                  "name": "analyzing",
                  "type": "bool"
                },
                {
                  "internalType": "bool",
                  "name": "storingData",
                  "type": "bool"
                },
                {
                  "internalType": "bool",
                  "name": "storingCopy",
                  "type": "bool"
                },
                {
                  "internalType": "bool",
                  "name": "reproducing",
                  "type": "bool"
                },
                {
                  "internalType": "bool",
                  "name": "distributing",
                  "type": "bool"
                },
                {
                  "internalType": "bool",
                  "name": "loaning",
                  "type": "bool"
                },
                {
                  "internalType": "bool",
                  "name": "selling",
                  "type": "bool"
                },
                {
                  "internalType": "bool",
                  "name": "renting",
                  "type": "bool"
                },
                {
                  "internalType": "bool",
                  "name": "furtherLicensing",
                  "type": "bool"
                },
                {
                  "internalType": "bool",
                  "name": "leasing",
                  "type": "bool"
                }
              ],
              "internalType": "struct LicenseGrant",
              "name": "licenseGrant",
              "type": "tuple"
            },
            {
              "components": [
                {
                  "internalType": "bool",
                  "name": "dataStream",
                  "type": "bool"
                },
                {
                  "internalType": "bool",
                  "name": "personalData",
                  "type": "bool"
                }
              ],
              "internalType": "struct TypeOfData",
              "name": "typeOfData",
              "type": "tuple"
            },
            {
              "components": [
                {
                  "internalType": "string",
                  "name": "paymentType",
                  "type": "string"
                },
                {
                  "internalType": "uint256",
                  "name": "price",
                  "type": "uint256"
                },
                {
                  "internalType": "string",
                  "name": "currency",
                  "type": "string"
                },
                {
                  "internalType": "uint256",
                  "name": "fee",
                  "type": "uint256"
                },
                {
                  "components": [
                    {
                      "internalType": "string",
                      "name": "timeDuration",
                      "type": "string"
                    },
                    {
                      "internalType": "string",
                      "name": "repeat",
                      "type": "string"
                    }
                  ],
                  "internalType": "struct PaymentOnSubscription",
                  "name": "paymentOnSubscription",
                  "type": "tuple"
                },
                {
                  "internalType": "bool",
                  "name": "isFree",
                  "type": "bool"
                }
              ],
              "internalType": "struct PricingModel",
              "name": "pricingModel",
              "type": "tuple"
            },
            {
              "components": [
                {
                  "internalType": "enum ViolationType",
                  "name": "violationType",
                  "type": "uint8"
                },
                {
                  "internalType": "string",
                  "name": "issuerId",
                  "type": "string"
                },
                {
                  "internalType": "string[3]",
                  "name": "penaltyChoices",
                  "type": "string[3]"
                }
              ],
              "internalType": "struct Violation",
              "name": "violation",
              "type": "tuple"
            }
          ],
          "internalType": "struct Agreement",
          "name": "providerAgreement",
          "type": "tuple"
        }
      ],
      "stateMutability": "view",
      "type": "function"
    },
    {
      "inputs": [
        {
          "internalType": "uint256",
          "name": "id",
          "type": "uint256"
        }
      ],
      "name": "getState",
      "outputs": [
        {
          "internalType": "enum State",
          "name": "",
          "type": "uint8"
        }
      ],
      "stateMutability": "view",
      "type": "function"
    },
    {
      "inputs": [
        {
          "internalType": "string",
          "name": "_dataOfferingId",
          "type": "string"
        }
      ],
      "name": "notifyConsentRevoked",
      "outputs": [
        {
          "internalType": "string[]",
          "name": "",
          "type": "string[]"
        }
      ],
      "stateMutability": "view",
      "type": "function"
    },
    {
      "inputs": [
        {
          "internalType": "uint256",
          "name": "_agreementId",
          "type": "uint256"
        }
      ],
      "name": "retrievePricingModel",
      "outputs": [
        {
          "components": [
            {
              "internalType": "string",
              "name": "paymentType",
              "type": "string"
            },
            {
              "internalType": "uint256",
              "name": "price",
              "type": "uint256"
            },
            {
              "internalType": "string",
              "name": "currency",
              "type": "string"
            },
            {
              "internalType": "uint256",
              "name": "fee",
              "type": "uint256"
            },
            {
              "components": [
                {
                  "internalType": "string",
                  "name": "timeDuration",
                  "type": "string"
                },
                {
                  "internalType": "string",
                  "name": "repeat",
                  "type": "string"
                }
              ],
              "internalType": "struct PaymentOnSubscription",
              "name": "paymentOnSubscription",
              "type": "tuple"
            },
            {
              "internalType": "bool",
              "name": "isFree",
              "type": "bool"
            }
          ],
          "internalType": "struct PricingModel",
          "name": "",
          "type": "tuple"
        }
      ],
      "stateMutability": "view",
      "type": "function"
    },
    {
      "inputs": [
        {
          "internalType": "uint256",
          "name": "_agreementId",
          "type": "uint256"
        },
        {
          "internalType": "bool",
          "name": "terminate",
          "type": "bool"
        }
      ],
      "name": "terminateAgreement",
      "outputs": [],
      "stateMutability": "nonpayable",
      "type": "function"
    }
  ],
  "transactionHash": "0x27d3a7009825274670e592481dd07acac7183014a9c1b3e1497929d8ae0a39b8",
  "args": [],
  "solcInputHash": "35c5884c2adbf2630669334f8983c84f",
  "bytecode": "0x608060405234801561001057600080fd5b50614985806100206000396000f3fe608060405234801561001057600080fd5b50600436106100b95760003560e01c80634f9f6fe611610081578063667a8beb1161005b578063667a8beb146101b5578063dd4be34b146101c8578063fcbc08e7146101db57600080fd5b80634f9f6fe61461016f57806354e2c8051461018f5780635580dd14146101a257600080fd5b80631371b64a146100be57806332893afb146100e7578063375e893b1461010757806344c9af281461011c5780634dffbf0d1461014f575b600080fd5b6100d16100cc36600461372e565b6101ee565b6040516100de919061383d565b60405180910390f35b6100fa6100f536600461398d565b610498565b6040516100de91906139ca565b61011a610115366004613a41565b610653565b005b61014261012a36600461372e565b6000908152600360205260409020600a015460ff1690565b6040516100de9190613a97565b61016261015d36600461398d565b6106db565b6040516100de9190613aa5565b61018261017d36600461372e565b61074b565b6040516100de9190613d14565b61011a61019d3660046142fa565b6111f8565b6101826101b0366004614466565b611aad565b61011a6101c33660046144ab565b6125b5565b61011a6101d636600461450d565b6127bc565b6101826101e9366004614466565b612899565b6101f6613356565b60008281526003602052604090819020815160c0810190925260110180548290829061022190614617565b80601f016020809104026020016040519081016040528092919081815260200182805461024d90614617565b801561029a5780601f1061026f5761010080835404028352916020019161029a565b820191906000526020600020905b81548152906001019060200180831161027d57829003601f168201915b50505050508152602001600182015481526020016002820180546102bd90614617565b80601f01602080910402602001604051908101604052809291908181526020018280546102e990614617565b80156103365780601f1061030b57610100808354040283529160200191610336565b820191906000526020600020905b81548152906001019060200180831161031957829003601f168201915b50505050508152602001600382015481526020016004820160405180604001604052908160008201805461036990614617565b80601f016020809104026020016040519081016040528092919081815260200182805461039590614617565b80156103e25780601f106103b7576101008083540402835291602001916103e2565b820191906000526020600020905b8154815290600101906020018083116103c557829003601f168201915b505050505081526020016001820180546103fb90614617565b80601f016020809104026020016040519081016040528092919081815260200182805461042790614617565b80156104745780601f1061044957610100808354040283529160200191610474565b820191906000526020600020905b81548152906001019060200180831161045757829003601f168201915b5050509190925250505081526006919091015460ff16151560209091015292915050565b606060006006836040516104ac9190614652565b90815260408051918290036020908101832080548083028501830190935282845291908301828280156104fe57602002820191906000526020600020905b8154815260200190600101908083116104ea575b505050505090506000815167ffffffffffffffff81111561052157610521613857565b60405190808252806020026020018201604052801561055457816020015b606081526020019060019003908161053f5790505b50905060005b825181101561064b57600360008483815181106105795761057961466e565b60200260200101518152602001908152602001600020600201805461059d90614617565b80601f01602080910402602001604051908101604052809291908181526020018280546105c990614617565b80156106165780601f106105eb57610100808354040283529160200191610616565b820191906000526020600020905b8154815290600101906020018083116105f957829003601f168201915b505050505082828151811061062d5761062d61466e565b6020026020010181905250808061064390614684565b91505061055a565b509392505050565b6000828152600360205260409020600d0154421015806106705750805b156106d75760008281526003602052604090819020600a8101805460ff1916600290811790915591517f8fdec0edc19a1eb9147642be05b326b7f5d42bf96f5ba734530bfca33bc8d7e9926106ce926001810192910190869061474e565b60405180910390a15b5050565b60606006826040516106ed9190614652565b908152604080519182900360209081018320805480830285018301909352828452919083018282801561073f57602002820191906000526020600020905b81548152602001906001019080831161072b575b50505050509050919050565b6107536133a7565b60036000838152602001908152602001600020604051806101c00160405290816000820154815260200160018201805461078c90614617565b80601f01602080910402602001604051908101604052809291908181526020018280546107b890614617565b80156108055780601f106107da57610100808354040283529160200191610805565b820191906000526020600020905b8154815290600101906020018083116107e857829003601f168201915b5050505050815260200160028201805461081e90614617565b80601f016020809104026020016040519081016040528092919081815260200182805461084a90614617565b80156108975780601f1061086c57610100808354040283529160200191610897565b820191906000526020600020905b81548152906001019060200180831161087a57829003601f168201915b505050505081526020016003820180546108b090614617565b80601f01602080910402602001604051908101604052809291908181526020018280546108dc90614617565b80156109295780601f106108fe57610100808354040283529160200191610929565b820191906000526020600020905b81548152906001019060200180831161090c57829003601f168201915b5050509183525050604080518082019091526020909101906004830160026000835b828210156109ee57838201805461096190614617565b80601f016020809104026020016040519081016040528092919081815260200182805461098d90614617565b80156109da5780601f106109af576101008083540402835291602001916109da565b820191906000526020600020905b8154815290600101906020018083116109bd57829003601f168201915b50505050508152602001906001019061094b565b50505050815260200160068201604051806060016040529081600082018054610a1690614617565b80601f0160208091040260200160405190810160405280929190818152602001828054610a4290614617565b8015610a8f5780601f10610a6457610100808354040283529160200191610a8f565b820191906000526020600020905b815481529060010190602001808311610a7257829003601f168201915b5050505050815260200160018201548152602001600282018054610ab290614617565b80601f0160208091040260200160405190810160405280929190818152602001828054610ade90614617565b8015610b2b5780601f10610b0057610100808354040283529160200191610b2b565b820191906000526020600020905b815481529060010190602001808311610b0e57829003601f168201915b5050505050815250508152602001600982018054610b4890614617565b80601f0160208091040260200160405190810160405280929190818152602001828054610b7490614617565b8015610bc15780601f10610b9657610100808354040283529160200191610bc1565b820191906000526020600020905b815481529060010190602001808311610ba457829003601f168201915b5050509183525050600a82015460209091019060ff166002811115610be857610be8613a6d565b6002811115610bf957610bf9613a6d565b815260408051606081019182905260209092019190600b84019060039082845b815481526020019060010190808311610c195750505091835250506040805160608082018352600e85015460ff80821615158452610100808304821615156020868101919091526201000093849004831615158688015280880195909552855161020081018752600f89015480841615158252828104841615158288015293840483161515818801526301000000840483161515818601526401000000008404831615156080808301919091526501000000000085048416151560a0830152660100000000000085048416151560c08084019190915267010000000000000086048516151560e08401526801000000000000000086048516151583850152600160481b860485161515610120840152600160501b860485161515610140840152600160581b860485161515610160840152600160601b860485161515610180840152600160681b8604851615156101a0840152600160701b8604851615156101c0840152600160781b909504841615156101e0830152878901919091528651808801885260108a015480851615158252929092049092161515948101949094529185019290925282519182019092526011840180549290930192909182908290610de290614617565b80601f0160208091040260200160405190810160405280929190818152602001828054610e0e90614617565b8015610e5b5780601f10610e3057610100808354040283529160200191610e5b565b820191906000526020600020905b815481529060010190602001808311610e3e57829003601f168201915b5050505050815260200160018201548152602001600282018054610e7e90614617565b80601f0160208091040260200160405190810160405280929190818152602001828054610eaa90614617565b8015610ef75780601f10610ecc57610100808354040283529160200191610ef7565b820191906000526020600020905b815481529060010190602001808311610eda57829003601f168201915b505050505081526020016003820154815260200160048201604051806040016040529081600082018054610f2a90614617565b80601f0160208091040260200160405190810160405280929190818152602001828054610f5690614617565b8015610fa35780601f10610f7857610100808354040283529160200191610fa3565b820191906000526020600020905b815481529060010190602001808311610f8657829003601f168201915b50505050508152602001600182018054610fbc90614617565b80601f0160208091040260200160405190810160405280929190818152602001828054610fe890614617565b80156110355780601f1061100a57610100808354040283529160200191611035565b820191906000526020600020905b81548152906001019060200180831161101857829003601f168201915b5050509190925250505081526006919091015460ff9081161515602092830152918352604080516060810190915260188501805494909201939092839116600481111561108457611084613a6d565b600481111561109557611095613a6d565b81526020016001820180546110a990614617565b80601f01602080910402602001604051908101604052809291908181526020018280546110d590614617565b80156111225780601f106110f757610100808354040283529160200191611122565b820191906000526020600020905b81548152906001019060200180831161110557829003601f168201915b505050918352505060408051606081019091526020909101906002830160036000835b828210156111e857838201805461115b90614617565b80601f016020809104026020016040519081016040528092919081815260200182805461118790614617565b80156111d45780601f106111a9576101008083540402835291602001916111d4565b820191906000526020600020905b8154815290600101906020018083116111b757829003601f168201915b505050505081526020019060010190611145565b5050509152505090525092915050565b60018b6040516112089190614652565b9081526040519081900360200190205460ff161561126d5760405162461bcd60e51b815260206004820152601d60248201527f50726f766964657220704b2073686f756c6420626520756e697175652e00000060448201526064015b60405180910390fd5b60028a60405161127d9190614652565b9081526040519081900360200190205460ff16156112dd5760405162461bcd60e51b815260206004820152601d60248201527f436f6e73756d657220704b2073686f756c6420626520756e697175652e0000006044820152606401611264565b8451602086015110156113425760405162461bcd60e51b815260206004820152602760248201527f53746172742064617465206d757374206265206166746572206372656174696f60448201526637103230ba329760c91b6064820152608401611264565b60208501516040860151116113a45760405162461bcd60e51b815260206004820152602260248201527f456e642064617465206d75737420626520616674657220737461727420646174604482015261329760f11b6064820152608401611264565b6000805490806113b383614684565b9190505550604051806101c0016040528060005481526020018c81526020018b81526020018a81526020018981526020018881526020018781526020016000600281111561140357611403613a6d565b815260200186815260200185815260200184815260200182815260200183815260200160405180606001604052806000600481111561144457611444613a6d565b81526040805160208181018352600080835281850192909252825160808101845260608101838152815283518083018552838152818301528351808301855283815281850152938301939093529290935281548252600381529190208251815582820151805191926114be92600185019290910190613504565b50604082015180516114da916002840191602090910190613504565b50606082015180516114f6916003840191602090910190613504565b50608082015161150c9060048301906002613588565b5060a082015180518051600684019161152a91839160200190613504565b5060208281015160018301556040830151805161154d9260028501920190613504565b50505060c0820151805161156b916009840191602090910190613504565b5060e0820151600a8201805460ff1916600183600281111561158f5761158f613a6d565b02179055506101008201516115aa90600b83019060036135d4565b5061012082015181600e0160008201518160000160006101000a81548160ff02191690831515021790555060208201518160000160016101000a81548160ff02191690831515021790555060408201518160000160026101000a81548160ff021916908315150217905550505061014082015181600f0160008201518160000160006101000a81548160ff02191690831515021790555060208201518160000160016101000a81548160ff02191690831515021790555060408201518160000160026101000a81548160ff02191690831515021790555060608201518160000160036101000a81548160ff02191690831515021790555060808201518160000160046101000a81548160ff02191690831515021790555060a08201518160000160056101000a81548160ff02191690831515021790555060c08201518160000160066101000a81548160ff02191690831515021790555060e08201518160000160076101000a81548160ff0219169083151502179055506101008201518160000160086101000a81548160ff0219169083151502179055506101208201518160000160096101000a81548160ff02191690831515021790555061014082015181600001600a6101000a81548160ff02191690831515021790555061016082015181600001600b6101000a81548160ff02191690831515021790555061018082015181600001600c6101000a81548160ff0219169083151502179055506101a082015181600001600d6101000a81548160ff0219169083151502179055506101c082015181600001600e6101000a81548160ff0219169083151502179055506101e082015181600001600f6101000a81548160ff02191690831515021790555050506101608201518160100160008201518160000160006101000a81548160ff02191690831515021790555060208201518160000160016101000a81548160ff021916908315150217905550505061018082015181601101600082015181600001908051906020019061189d929190613504565b506020828101516001830155604083015180516118c09260028501920190613504565b506060820151600382015560808201518051805160048401916118e891839160200190613504565b5060208281015180516119019260018501920190613504565b50505060a091909101516006909101805491151560ff199283161790556101a0830151805160188401805492939092839116600183600481111561194757611947613a6d565b021790555060208281015180516119649260018501920190613504565b50604082015161197a9060028301906003613601565b50505090505060005460048b6040516119939190614652565b90815260200160405180910390208190555060005460058c6040516119b89190614652565b9081526040519081900360200181209190915587516006916119da9190614652565b908152604051602091819003820181206000805482546001808201855593835294909120909301929092558190611a12908e90614652565b908152604051908190036020018120805492151560ff1990931692909217909155600190600290611a44908d90614652565b908152604051908190036020018120805492151560ff19909316929092179091556000547f40f080228d46fb72660eddafe315e4a5b47df236dc33b76fcd122bcbea89b01d91611a98918e918e9190614784565b60405180910390a15050505050505050505050565b611ab56133a7565b600060036000600586604051611acb9190614652565b9081526020016040518091039020548152602001908152602001600020604051806101c001604052908160008201548152602001600182018054611b0e90614617565b80601f0160208091040260200160405190810160405280929190818152602001828054611b3a90614617565b8015611b875780601f10611b5c57610100808354040283529160200191611b87565b820191906000526020600020905b815481529060010190602001808311611b6a57829003601f168201915b50505050508152602001600282018054611ba090614617565b80601f0160208091040260200160405190810160405280929190818152602001828054611bcc90614617565b8015611c195780601f10611bee57610100808354040283529160200191611c19565b820191906000526020600020905b815481529060010190602001808311611bfc57829003601f168201915b50505050508152602001600382018054611c3290614617565b80601f0160208091040260200160405190810160405280929190818152602001828054611c5e90614617565b8015611cab5780601f10611c8057610100808354040283529160200191611cab565b820191906000526020600020905b815481529060010190602001808311611c8e57829003601f168201915b5050509183525050604080518082019091526020909101906004830160026000835b82821015611d70578382018054611ce390614617565b80601f0160208091040260200160405190810160405280929190818152602001828054611d0f90614617565b8015611d5c5780601f10611d3157610100808354040283529160200191611d5c565b820191906000526020600020905b815481529060010190602001808311611d3f57829003601f168201915b505050505081526020019060010190611ccd565b50505050815260200160068201604051806060016040529081600082018054611d9890614617565b80601f0160208091040260200160405190810160405280929190818152602001828054611dc490614617565b8015611e115780601f10611de657610100808354040283529160200191611e11565b820191906000526020600020905b815481529060010190602001808311611df457829003601f168201915b5050505050815260200160018201548152602001600282018054611e3490614617565b80601f0160208091040260200160405190810160405280929190818152602001828054611e6090614617565b8015611ead5780601f10611e8257610100808354040283529160200191611ead565b820191906000526020600020905b815481529060010190602001808311611e9057829003601f168201915b5050505050815250508152602001600982018054611eca90614617565b80601f0160208091040260200160405190810160405280929190818152602001828054611ef690614617565b8015611f435780601f10611f1857610100808354040283529160200191611f43565b820191906000526020600020905b815481529060010190602001808311611f2657829003601f168201915b5050509183525050600a82015460209091019060ff166002811115611f6a57611f6a613a6d565b6002811115611f7b57611f7b613a6d565b815260408051606081019182905260209092019190600b84019060039082845b815481526020019060010190808311611f9b5750505091835250506040805160608082018352600e85015460ff80821615158452610100808304821615156020868101919091526201000093849004831615158688015280880195909552855161020081018752600f89015480841615158252828104841615158288015293840483161515818801526301000000840483161515818601526401000000008404831615156080808301919091526501000000000085048416151560a0830152660100000000000085048416151560c08084019190915267010000000000000086048516151560e08401526801000000000000000086048516151583850152600160481b860485161515610120840152600160501b860485161515610140840152600160581b860485161515610160840152600160601b860485161515610180840152600160681b8604851615156101a0840152600160701b8604851615156101c0840152600160781b909504841615156101e0830152878901919091528651808801885260108a01548085161515825292909204909216151594810194909452918501929092528251918201909252601184018054929093019290918290829061216490614617565b80601f016020809104026020016040519081016040528092919081815260200182805461219090614617565b80156121dd5780601f106121b2576101008083540402835291602001916121dd565b820191906000526020600020905b8154815290600101906020018083116121c057829003601f168201915b505050505081526020016001820154815260200160028201805461220090614617565b80601f016020809104026020016040519081016040528092919081815260200182805461222c90614617565b80156122795780601f1061224e57610100808354040283529160200191612279565b820191906000526020600020905b81548152906001019060200180831161225c57829003601f168201915b5050505050815260200160038201548152602001600482016040518060400160405290816000820180546122ac90614617565b80601f01602080910402602001604051908101604052809291908181526020018280546122d890614617565b80156123255780601f106122fa57610100808354040283529160200191612325565b820191906000526020600020905b81548152906001019060200180831161230857829003601f168201915b5050505050815260200160018201805461233e90614617565b80601f016020809104026020016040519081016040528092919081815260200182805461236a90614617565b80156123b75780601f1061238c576101008083540402835291602001916123b7565b820191906000526020600020905b81548152906001019060200180831161239a57829003601f168201915b5050509190925250505081526006919091015460ff9081161515602092830152918352604080516060810190915260188501805494909201939092839116600481111561240657612406613a6d565b600481111561241757612417613a6d565b815260200160018201805461242b90614617565b80601f016020809104026020016040519081016040528092919081815260200182805461245790614617565b80156124a45780601f10612479576101008083540402835291602001916124a4565b820191906000526020600020905b81548152906001019060200180831161248757829003601f168201915b505050918352505060408051606081019091526020909101906002830160036000835b8282101561256a5783820180546124dd90614617565b80601f016020809104026020016040519081016040528092919081815260200182805461250990614617565b80156125565780601f1061252b57610100808354040283529160200191612556565b820191906000526020600020905b81548152906001019060200180831161253957829003601f168201915b5050505050815260200190600101906124c7565b50505091525050905250905082156125a65760008160e00151600281111561259457612594613a6d565b14156125a15790506125af565b6125ad565b90506125af565b505b92915050565b60016000868152600360205260409020600a015460ff1660028111156125dd576125dd613a6d565b146126505760405162461bcd60e51b815260206004820152603660248201527f41677265656d656e74206d7573742062652076696f6c6174656420696e206f7260448201527f64657220746f20656e666f7263652070656e616c7479000000000000000000006064820152608401611264565b604051685465726d696e61746560b81b6020820152602901604051602081830303815290604052805190602001208460405160200161268f9190614652565b6040516020818303038152906040528051906020012014156126bb576126b6856001610653565b6127b5565b600085815260036020526040908190209051633afe752b60e11b815273356E8c2366f886241ac8AF2d63069Bb2fCAd4175916375fcea5691612708919088908890889088906004016147a9565b60206040518083038186803b15801561272057600080fd5b505af4158015612734573d6000803e3d6000fd5b505050506040513d601f19601f8201168201806040525081019061275891906147df565b5060008581526003602052604090819020805491517f6a5b41877c1e19e7405feb10468979239b83616b44fef14f87bc82641810bcde926127ac92600181019260029091019190899087908a908a906147f8565b60405180910390a15b5050505050565b6000888152600360205260409081902090516315a5255360e21b815273356E8c2366f886241ac8AF2d63069Bb2fCAd417591635694954c9161280f91908b908b908b908b908b908b908b90600401614857565b60006040518083038186803b15801561282757600080fd5b505af415801561283b573d6000803e3d6000fd5b5050506000898152600360205260409081902090517ff1acc7c95db58afeb3d94de0a26290e01e681eaeae56c25b1115faf2541227f292506128879160028101918c91601a01906148ea565b60405180910390a15050505050505050565b6128a16133a7565b6000600360006004866040516128b79190614652565b9081526020016040518091039020548152602001908152602001600020604051806101c0016040529081600082015481526020016001820180546128fa90614617565b80601f016020809104026020016040519081016040528092919081815260200182805461292690614617565b80156129735780601f1061294857610100808354040283529160200191612973565b820191906000526020600020905b81548152906001019060200180831161295657829003601f168201915b5050505050815260200160028201805461298c90614617565b80601f01602080910402602001604051908101604052809291908181526020018280546129b890614617565b8015612a055780601f106129da57610100808354040283529160200191612a05565b820191906000526020600020905b8154815290600101906020018083116129e857829003601f168201915b50505050508152602001600382018054612a1e90614617565b80601f0160208091040260200160405190810160405280929190818152602001828054612a4a90614617565b8015612a975780601f10612a6c57610100808354040283529160200191612a97565b820191906000526020600020905b815481529060010190602001808311612a7a57829003601f168201915b5050509183525050604080518082019091526020909101906004830160026000835b82821015612b5c578382018054612acf90614617565b80601f0160208091040260200160405190810160405280929190818152602001828054612afb90614617565b8015612b485780601f10612b1d57610100808354040283529160200191612b48565b820191906000526020600020905b815481529060010190602001808311612b2b57829003601f168201915b505050505081526020019060010190612ab9565b50505050815260200160068201604051806060016040529081600082018054612b8490614617565b80601f0160208091040260200160405190810160405280929190818152602001828054612bb090614617565b8015612bfd5780601f10612bd257610100808354040283529160200191612bfd565b820191906000526020600020905b815481529060010190602001808311612be057829003601f168201915b5050505050815260200160018201548152602001600282018054612c2090614617565b80601f0160208091040260200160405190810160405280929190818152602001828054612c4c90614617565b8015612c995780601f10612c6e57610100808354040283529160200191612c99565b820191906000526020600020905b815481529060010190602001808311612c7c57829003601f168201915b5050505050815250508152602001600982018054612cb690614617565b80601f0160208091040260200160405190810160405280929190818152602001828054612ce290614617565b8015612d2f5780601f10612d0457610100808354040283529160200191612d2f565b820191906000526020600020905b815481529060010190602001808311612d1257829003601f168201915b5050509183525050600a82015460209091019060ff166002811115612d5657612d56613a6d565b6002811115612d6757612d67613a6d565b815260408051606081019182905260209092019190600b84019060039082845b815481526020019060010190808311612d875750505091835250506040805160608082018352600e85015460ff80821615158452610100808304821615156020868101919091526201000093849004831615158688015280880195909552855161020081018752600f89015480841615158252828104841615158288015293840483161515818801526301000000840483161515818601526401000000008404831615156080808301919091526501000000000085048416151560a0830152660100000000000085048416151560c08084019190915267010000000000000086048516151560e08401526801000000000000000086048516151583850152600160481b860485161515610120840152600160501b860485161515610140840152600160581b860485161515610160840152600160601b860485161515610180840152600160681b8604851615156101a0840152600160701b8604851615156101c0840152600160781b909504841615156101e0830152878901919091528651808801885260108a015480851615158252929092049092161515948101949094529185019290925282519182019092526011840180549290930192909182908290612f5090614617565b80601f0160208091040260200160405190810160405280929190818152602001828054612f7c90614617565b8015612fc95780601f10612f9e57610100808354040283529160200191612fc9565b820191906000526020600020905b815481529060010190602001808311612fac57829003601f168201915b5050505050815260200160018201548152602001600282018054612fec90614617565b80601f016020809104026020016040519081016040528092919081815260200182805461301890614617565b80156130655780601f1061303a57610100808354040283529160200191613065565b820191906000526020600020905b81548152906001019060200180831161304857829003601f168201915b50505050508152602001600382015481526020016004820160405180604001604052908160008201805461309890614617565b80601f01602080910402602001604051908101604052809291908181526020018280546130c490614617565b80156131115780601f106130e657610100808354040283529160200191613111565b820191906000526020600020905b8154815290600101906020018083116130f457829003601f168201915b5050505050815260200160018201805461312a90614617565b80601f016020809104026020016040519081016040528092919081815260200182805461315690614617565b80156131a35780601f10613178576101008083540402835291602001916131a3565b820191906000526020600020905b81548152906001019060200180831161318657829003601f168201915b5050509190925250505081526006919091015460ff908116151560209283015291835260408051606081019091526018850180549490920193909283911660048111156131f2576131f2613a6d565b600481111561320357613203613a6d565b815260200160018201805461321790614617565b80601f016020809104026020016040519081016040528092919081815260200182805461324390614617565b80156132905780601f1061326557610100808354040283529160200191613290565b820191906000526020600020905b81548152906001019060200180831161327357829003601f168201915b505050918352505060408051606081019091526020909101906002830160036000835b8282101561256a5783820180546132c990614617565b80601f01602080910402602001604051908101604052809291908181526020018280546132f590614617565b80156133425780601f1061331757610100808354040283529160200191613342565b820191906000526020600020905b81548152906001019060200180831161332557829003601f168201915b5050505050815260200190600101906132b3565b6040518060c001604052806060815260200160008152602001606081526020016000815260200161339a604051806040016040528060608152602001606081525090565b8152600060209091015290565b604051806101c00160405280600081526020016060815260200160608152602001606081526020016133d7613641565b815260200161340060405180606001604052806060815260200160008152602001606081525090565b8152606060208201526040016000815260200161341b613668565b81526040805160608101825260008082526020828101829052928201529101908152604080516102008101825260008082526020828101829052928201819052606082018190526080820181905260a0820181905260c0820181905260e08201819052610100820181905261012082018190526101408201819052610160820181905261018082018190526101a082018190526101c082018190526101e082015291019081526020016134e560405180604001604052806000151581526020016000151581525090565b81526020016134f2613356565b81526020016134ff613686565b905290565b82805461351090614617565b90600052602060002090601f0160209004810192826135325760008555613578565b82601f1061354b57805160ff1916838001178555613578565b82800160010185558215613578579182015b8281111561357857825182559160200191906001019061355d565b506135849291506136a5565b5090565b82600281019282156135c8579160200282015b828111156135c857825180516135b8918491602090910190613504565b509160200191906001019061359b565b506135849291506136ba565b8260038101928215613578579160200282018281111561357857825182559160200191906001019061355d565b82600381019282156135c8579160200282015b828111156135c85782518051613631918491602090910190613504565b5091602001919060010190613614565b60405180604001604052806002905b60608152602001906001900390816136505790505090565b60405180606001604052806003906020820280368337509192915050565b60408051606080820183526000825260208201529081016134ff6136d7565b5b8082111561358457600081556001016136a6565b808211156135845760006136ce82826136f1565b506001016136ba565b604080516060808201909252908152600260208201613650565b5080546136fd90614617565b6000825580601f1061370d575050565b601f01602090049060005260206000209081019061372b91906136a5565b50565b60006020828403121561374057600080fd5b5035919050565b60005b8381101561376257818101518382015260200161374a565b83811115613771576000848401525b50505050565b6000815180845261378f816020860160208601613747565b601f01601f19169290920160200192915050565b6000815160c084526137b860c0850182613777565b905060208301516020850152604083015184820360408601526137db8282613777565b91505060608301516060850152608083015184820360808601528051604083526138086040840182613777565b90506020820151915082810360208401526138238183613777565b9250505060a0830151151560a08501528091505092915050565b60208152600061385060208301846137a3565b9392505050565b634e487b7160e01b600052604160045260246000fd5b6040516060810167ffffffffffffffff8111828210171561389057613890613857565b60405290565b604051610200810167ffffffffffffffff8111828210171561389057613890613857565b6040805190810167ffffffffffffffff8111828210171561389057613890613857565b60405160c0810167ffffffffffffffff8111828210171561389057613890613857565b600082601f83011261391157600080fd5b813567ffffffffffffffff8082111561392c5761392c613857565b604051601f8301601f19908116603f0116810190828211818310171561395457613954613857565b8160405283815286602085880101111561396d57600080fd5b836020870160208301376000602085830101528094505050505092915050565b60006020828403121561399f57600080fd5b813567ffffffffffffffff8111156139b657600080fd5b6139c284828501613900565b949350505050565b6000602080830181845280855180835260408601915060408160051b870101925083870160005b82811015613a1f57603f19888603018452613a0d858351613777565b945092850192908501906001016139f1565b5092979650505050505050565b80358015158114613a3c57600080fd5b919050565b60008060408385031215613a5457600080fd5b82359150613a6460208401613a2c565b90509250929050565b634e487b7160e01b600052602160045260246000fd5b60038110613a9357613a93613a6d565b9052565b602081016125af8284613a83565b6020808252825182820181905260009190848201906040850190845b81811015613add57835183529284019291840191600101613ac1565b50909695505050505050565b600082604081018360005b6002811015613b23578383038752613b0d838351613777565b6020978801979093509190910190600101613af4565b509095945050505050565b6000815160608452613b436060850182613777565b90506020830151602085015260408301518482036040860152613b668282613777565b95945050505050565b8060005b6003811015613771578151845260209384019390910190600101613b73565b8051151582526020810151613bab602084018215159052565b506040810151613bbf604084018215159052565b506060810151613bd3606084018215159052565b506080810151613be7608084018215159052565b5060a0810151613bfb60a084018215159052565b5060c0810151613c0f60c084018215159052565b5060e0810151613c2360e084018215159052565b5061010081810151151590830152610120808201511515908301526101408082015115159083015261016080820151151590830152610180808201511515908301526101a0808201511515908301526101c0808201511515908301526101e08082015180151582850152613771565b6000815160058110613ca657613ca6613a6d565b80845250602080830151606082860152613cc36060860182613777565b905060408401518582036040870152818290506060830160005b6003811015613d08578482038352613cf6828551613777565b93860193928601929150600101613cdd565b50979650505050505050565b602081528151602082015260006020830151610440806040850152613d3d610460850183613777565b91506040850151601f1980868503016060870152613d5b8483613777565b93506060870151915080868503016080870152613d788483613777565b935060808701519150808685030160a0870152613d958483613ae9565b935060a08701519150808685030160c0870152613db28483613b2e565b935060c08701519150808685030160e0870152613dcf8483613777565b935060e08701519150610100613de781880184613a83565b8701519150610120613dfb87820184613b6f565b8701519150610180613e29878201848051151582526020808201511515908301526040908101511515910152565b6101408801519250613e3f6101e0880184613b92565b610160880151805115156103e089015260200151151561040088015287015186850382016104208801529150613e7584836137a3565b93506101a0870151915080868503018387015250613e938382613c92565b9695505050505050565b600082601f830112613eae57600080fd5b6040516040810167ffffffffffffffff8282108183111715613ed257613ed2613857565b60409182528291850186811115613ee857600080fd5b855b81811015613f1d57803583811115613f025760008081fd5b613f0e89828a01613900565b85525060209384019301613eea565b50929695505050505050565b600060608284031215613f3b57600080fd5b613f4361386d565b9050813567ffffffffffffffff80821115613f5d57600080fd5b613f6985838601613900565b8352602084013560208401526040840135915080821115613f8957600080fd5b50613f9684828501613900565b60408301525092915050565b600082601f830112613fb357600080fd5b6040516060810181811067ffffffffffffffff82111715613fd657613fd6613857565b604052806060840185811115613feb57600080fd5b845b81811015614005578035835260209283019201613fed565b509195945050505050565b60006060828403121561402257600080fd5b61402a61386d565b905061403582613a2c565b815261404360208301613a2c565b602082015261405460408301613a2c565b604082015292915050565b6000610200828403121561407257600080fd5b61407a613896565b905061408582613a2c565b815261409360208301613a2c565b60208201526140a460408301613a2c565b60408201526140b560608301613a2c565b60608201526140c660808301613a2c565b60808201526140d760a08301613a2c565b60a08201526140e860c08301613a2c565b60c08201526140f960e08301613a2c565b60e082015261010061410c818401613a2c565b9082015261012061411e838201613a2c565b90820152610140614130838201613a2c565b90820152610160614142838201613a2c565b90820152610180614154838201613a2c565b908201526101a0614166838201613a2c565b908201526101c0614178838201613a2c565b908201526101e061418a838201613a2c565b9082015292915050565b6000604082840312156141a657600080fd5b6141ae6138ba565b9050813567ffffffffffffffff808211156141c857600080fd5b6141d485838601613900565b835260208401359150808211156141ea57600080fd5b506141f784828501613900565b60208301525092915050565b600060c0828403121561421557600080fd5b61421d6138dd565b9050813567ffffffffffffffff8082111561423757600080fd5b61424385838601613900565b835260208401356020840152604084013591508082111561426357600080fd5b61426f85838601613900565b604084015260608401356060840152608084013591508082111561429257600080fd5b5061429f84828501614194565b6080830152506142b160a08301613a2c565b60a082015292915050565b6000604082840312156142ce57600080fd5b6142d66138ba565b90506142e182613a2c565b81526142ef60208301613a2c565b602082015292915050565b60008060008060008060008060008060006103e08c8e03121561431c57600080fd5b67ffffffffffffffff808d35111561433357600080fd5b6143408e8e358f01613900565b9b508060208e0135111561435357600080fd5b6143638e60208f01358f01613900565b9a508060408e0135111561437657600080fd5b6143868e60408f01358f01613900565b99508060608e0135111561439957600080fd5b6143a98e60608f01358f01613e9d565b98508060808e013511156143bc57600080fd5b6143cc8e60808f01358f01613f29565b97508060a08e013511156143df57600080fd5b6143ef8e60a08f01358f01613900565b96506143fe8e60c08f01613fa2565b955061440e8e6101208f01614010565b945061441e8e6101808f0161405f565b9350806103808e0135111561443257600080fd5b506144448d6103808e01358e01614203565b91506144548d6103a08e016142bc565b90509295989b509295989b9093969950565b6000806040838503121561447957600080fd5b823567ffffffffffffffff81111561449057600080fd5b61449c85828601613900565b925050613a6460208401613a2c565b600080600080600060a086880312156144c357600080fd5b85359450602086013567ffffffffffffffff8111156144e157600080fd5b6144ed88828901613900565b959895975050505060408401359360608101359360809091013592509050565b600080600080600080600080610100898b03121561452a57600080fd5b88359750602089013567ffffffffffffffff8082111561454957600080fd5b6145558c838d01613900565b985060408b013591508082111561456b57600080fd5b6145778c838d01613900565b975060608b013591508082111561458d57600080fd5b6145998c838d01613900565b965060808b01359150808211156145af57600080fd5b6145bb8c838d01613900565b955060a08b0135945060c08b01359150808211156145d857600080fd5b6145e48c838d01613900565b935060e08b01359150808211156145fa57600080fd5b506146078b828c01613900565b9150509295985092959890939650565b600181811c9082168061462b57607f821691505b6020821081141561464c57634e487b7160e01b600052602260045260246000fd5b50919050565b60008251614664818460208701613747565b9190910192915050565b634e487b7160e01b600052603260045260246000fd5b60006000198214156146a657634e487b7160e01b600052601160045260246000fd5b5060010190565b8054600090600181811c90808316806146c757607f831692505b60208084108214156146e957634e487b7160e01b600052602260045260246000fd5b838852818015614700576001811461471457614742565b60ff19861689830152604089019650614742565b876000528160002060005b8681101561473a5781548b820185015290850190830161471f565b8a0183019750505b50505050505092915050565b60608152600061476160608301866146ad565b828103602084015261477381866146ad565b915050826040830152949350505050565b6060815260006147976060830186613777565b82810360208401526147738186613777565b85815260a0602082015260006147c260a0830187613777565b604083019590955250606081019290925260809091015292915050565b6000602082840312156147f157600080fd5b5051919050565b60e08152600061480b60e083018a6146ad565b828103602084015261481d818a6146ad565b905087604084015282810360608401526148378188613777565b6080840196909652505060a081019290925260c090910152949350505050565b60006101008a83528060208401526148718184018b613777565b90508281036040840152614885818a613777565b905082810360608401526148998189613777565b905082810360808401526148ad8188613777565b90508560a084015282810360c08401526148c78186613777565b905082810360e08401526148db8185613777565b9b9a5050505050505050505050565b6060815260006148fd60608301866146ad565b6020838101869052838203604085015281606081018660005b600381101561494057858303845261492e83836146ad565b93850193925060019182019101614916565b5090999850505050505050505056fea2646970667358221220fa3d6083c87227c93108314eda2f810677cb12ea769a602898f2158880a5302f64736f6c63430008090033",
  "deployedBytecode": "0x608060405234801561001057600080fd5b50600436106100b95760003560e01c80634f9f6fe611610081578063667a8beb1161005b578063667a8beb146101b5578063dd4be34b146101c8578063fcbc08e7146101db57600080fd5b80634f9f6fe61461016f57806354e2c8051461018f5780635580dd14146101a257600080fd5b80631371b64a146100be57806332893afb146100e7578063375e893b1461010757806344c9af281461011c5780634dffbf0d1461014f575b600080fd5b6100d16100cc36600461372e565b6101ee565b6040516100de919061383d565b60405180910390f35b6100fa6100f536600461398d565b610498565b6040516100de91906139ca565b61011a610115366004613a41565b610653565b005b61014261012a36600461372e565b6000908152600360205260409020600a015460ff1690565b6040516100de9190613a97565b61016261015d36600461398d565b6106db565b6040516100de9190613aa5565b61018261017d36600461372e565b61074b565b6040516100de9190613d14565b61011a61019d3660046142fa565b6111f8565b6101826101b0366004614466565b611aad565b61011a6101c33660046144ab565b6125b5565b61011a6101d636600461450d565b6127bc565b6101826101e9366004614466565b612899565b6101f6613356565b60008281526003602052604090819020815160c0810190925260110180548290829061022190614617565b80601f016020809104026020016040519081016040528092919081815260200182805461024d90614617565b801561029a5780601f1061026f5761010080835404028352916020019161029a565b820191906000526020600020905b81548152906001019060200180831161027d57829003601f168201915b50505050508152602001600182015481526020016002820180546102bd90614617565b80601f01602080910402602001604051908101604052809291908181526020018280546102e990614617565b80156103365780601f1061030b57610100808354040283529160200191610336565b820191906000526020600020905b81548152906001019060200180831161031957829003601f168201915b50505050508152602001600382015481526020016004820160405180604001604052908160008201805461036990614617565b80601f016020809104026020016040519081016040528092919081815260200182805461039590614617565b80156103e25780601f106103b7576101008083540402835291602001916103e2565b820191906000526020600020905b8154815290600101906020018083116103c557829003601f168201915b505050505081526020016001820180546103fb90614617565b80601f016020809104026020016040519081016040528092919081815260200182805461042790614617565b80156104745780601f1061044957610100808354040283529160200191610474565b820191906000526020600020905b81548152906001019060200180831161045757829003601f168201915b5050509190925250505081526006919091015460ff16151560209091015292915050565b606060006006836040516104ac9190614652565b90815260408051918290036020908101832080548083028501830190935282845291908301828280156104fe57602002820191906000526020600020905b8154815260200190600101908083116104ea575b505050505090506000815167ffffffffffffffff81111561052157610521613857565b60405190808252806020026020018201604052801561055457816020015b606081526020019060019003908161053f5790505b50905060005b825181101561064b57600360008483815181106105795761057961466e565b60200260200101518152602001908152602001600020600201805461059d90614617565b80601f01602080910402602001604051908101604052809291908181526020018280546105c990614617565b80156106165780601f106105eb57610100808354040283529160200191610616565b820191906000526020600020905b8154815290600101906020018083116105f957829003601f168201915b505050505082828151811061062d5761062d61466e565b6020026020010181905250808061064390614684565b91505061055a565b509392505050565b6000828152600360205260409020600d0154421015806106705750805b156106d75760008281526003602052604090819020600a8101805460ff1916600290811790915591517f8fdec0edc19a1eb9147642be05b326b7f5d42bf96f5ba734530bfca33bc8d7e9926106ce926001810192910190869061474e565b60405180910390a15b5050565b60606006826040516106ed9190614652565b908152604080519182900360209081018320805480830285018301909352828452919083018282801561073f57602002820191906000526020600020905b81548152602001906001019080831161072b575b50505050509050919050565b6107536133a7565b60036000838152602001908152602001600020604051806101c00160405290816000820154815260200160018201805461078c90614617565b80601f01602080910402602001604051908101604052809291908181526020018280546107b890614617565b80156108055780601f106107da57610100808354040283529160200191610805565b820191906000526020600020905b8154815290600101906020018083116107e857829003601f168201915b5050505050815260200160028201805461081e90614617565b80601f016020809104026020016040519081016040528092919081815260200182805461084a90614617565b80156108975780601f1061086c57610100808354040283529160200191610897565b820191906000526020600020905b81548152906001019060200180831161087a57829003601f168201915b505050505081526020016003820180546108b090614617565b80601f01602080910402602001604051908101604052809291908181526020018280546108dc90614617565b80156109295780601f106108fe57610100808354040283529160200191610929565b820191906000526020600020905b81548152906001019060200180831161090c57829003601f168201915b5050509183525050604080518082019091526020909101906004830160026000835b828210156109ee57838201805461096190614617565b80601f016020809104026020016040519081016040528092919081815260200182805461098d90614617565b80156109da5780601f106109af576101008083540402835291602001916109da565b820191906000526020600020905b8154815290600101906020018083116109bd57829003601f168201915b50505050508152602001906001019061094b565b50505050815260200160068201604051806060016040529081600082018054610a1690614617565b80601f0160208091040260200160405190810160405280929190818152602001828054610a4290614617565b8015610a8f5780601f10610a6457610100808354040283529160200191610a8f565b820191906000526020600020905b815481529060010190602001808311610a7257829003601f168201915b5050505050815260200160018201548152602001600282018054610ab290614617565b80601f0160208091040260200160405190810160405280929190818152602001828054610ade90614617565b8015610b2b5780601f10610b0057610100808354040283529160200191610b2b565b820191906000526020600020905b815481529060010190602001808311610b0e57829003601f168201915b5050505050815250508152602001600982018054610b4890614617565b80601f0160208091040260200160405190810160405280929190818152602001828054610b7490614617565b8015610bc15780601f10610b9657610100808354040283529160200191610bc1565b820191906000526020600020905b815481529060010190602001808311610ba457829003601f168201915b5050509183525050600a82015460209091019060ff166002811115610be857610be8613a6d565b6002811115610bf957610bf9613a6d565b815260408051606081019182905260209092019190600b84019060039082845b815481526020019060010190808311610c195750505091835250506040805160608082018352600e85015460ff80821615158452610100808304821615156020868101919091526201000093849004831615158688015280880195909552855161020081018752600f89015480841615158252828104841615158288015293840483161515818801526301000000840483161515818601526401000000008404831615156080808301919091526501000000000085048416151560a0830152660100000000000085048416151560c08084019190915267010000000000000086048516151560e08401526801000000000000000086048516151583850152600160481b860485161515610120840152600160501b860485161515610140840152600160581b860485161515610160840152600160601b860485161515610180840152600160681b8604851615156101a0840152600160701b8604851615156101c0840152600160781b909504841615156101e0830152878901919091528651808801885260108a015480851615158252929092049092161515948101949094529185019290925282519182019092526011840180549290930192909182908290610de290614617565b80601f0160208091040260200160405190810160405280929190818152602001828054610e0e90614617565b8015610e5b5780601f10610e3057610100808354040283529160200191610e5b565b820191906000526020600020905b815481529060010190602001808311610e3e57829003601f168201915b5050505050815260200160018201548152602001600282018054610e7e90614617565b80601f0160208091040260200160405190810160405280929190818152602001828054610eaa90614617565b8015610ef75780601f10610ecc57610100808354040283529160200191610ef7565b820191906000526020600020905b815481529060010190602001808311610eda57829003601f168201915b505050505081526020016003820154815260200160048201604051806040016040529081600082018054610f2a90614617565b80601f0160208091040260200160405190810160405280929190818152602001828054610f5690614617565b8015610fa35780601f10610f7857610100808354040283529160200191610fa3565b820191906000526020600020905b815481529060010190602001808311610f8657829003601f168201915b50505050508152602001600182018054610fbc90614617565b80601f0160208091040260200160405190810160405280929190818152602001828054610fe890614617565b80156110355780601f1061100a57610100808354040283529160200191611035565b820191906000526020600020905b81548152906001019060200180831161101857829003601f168201915b5050509190925250505081526006919091015460ff9081161515602092830152918352604080516060810190915260188501805494909201939092839116600481111561108457611084613a6d565b600481111561109557611095613a6d565b81526020016001820180546110a990614617565b80601f01602080910402602001604051908101604052809291908181526020018280546110d590614617565b80156111225780601f106110f757610100808354040283529160200191611122565b820191906000526020600020905b81548152906001019060200180831161110557829003601f168201915b505050918352505060408051606081019091526020909101906002830160036000835b828210156111e857838201805461115b90614617565b80601f016020809104026020016040519081016040528092919081815260200182805461118790614617565b80156111d45780601f106111a9576101008083540402835291602001916111d4565b820191906000526020600020905b8154815290600101906020018083116111b757829003601f168201915b505050505081526020019060010190611145565b5050509152505090525092915050565b60018b6040516112089190614652565b9081526040519081900360200190205460ff161561126d5760405162461bcd60e51b815260206004820152601d60248201527f50726f766964657220704b2073686f756c6420626520756e697175652e00000060448201526064015b60405180910390fd5b60028a60405161127d9190614652565b9081526040519081900360200190205460ff16156112dd5760405162461bcd60e51b815260206004820152601d60248201527f436f6e73756d657220704b2073686f756c6420626520756e697175652e0000006044820152606401611264565b8451602086015110156113425760405162461bcd60e51b815260206004820152602760248201527f53746172742064617465206d757374206265206166746572206372656174696f60448201526637103230ba329760c91b6064820152608401611264565b60208501516040860151116113a45760405162461bcd60e51b815260206004820152602260248201527f456e642064617465206d75737420626520616674657220737461727420646174604482015261329760f11b6064820152608401611264565b6000805490806113b383614684565b9190505550604051806101c0016040528060005481526020018c81526020018b81526020018a81526020018981526020018881526020018781526020016000600281111561140357611403613a6d565b815260200186815260200185815260200184815260200182815260200183815260200160405180606001604052806000600481111561144457611444613a6d565b81526040805160208181018352600080835281850192909252825160808101845260608101838152815283518083018552838152818301528351808301855283815281850152938301939093529290935281548252600381529190208251815582820151805191926114be92600185019290910190613504565b50604082015180516114da916002840191602090910190613504565b50606082015180516114f6916003840191602090910190613504565b50608082015161150c9060048301906002613588565b5060a082015180518051600684019161152a91839160200190613504565b5060208281015160018301556040830151805161154d9260028501920190613504565b50505060c0820151805161156b916009840191602090910190613504565b5060e0820151600a8201805460ff1916600183600281111561158f5761158f613a6d565b02179055506101008201516115aa90600b83019060036135d4565b5061012082015181600e0160008201518160000160006101000a81548160ff02191690831515021790555060208201518160000160016101000a81548160ff02191690831515021790555060408201518160000160026101000a81548160ff021916908315150217905550505061014082015181600f0160008201518160000160006101000a81548160ff02191690831515021790555060208201518160000160016101000a81548160ff02191690831515021790555060408201518160000160026101000a81548160ff02191690831515021790555060608201518160000160036101000a81548160ff02191690831515021790555060808201518160000160046101000a81548160ff02191690831515021790555060a08201518160000160056101000a81548160ff02191690831515021790555060c08201518160000160066101000a81548160ff02191690831515021790555060e08201518160000160076101000a81548160ff0219169083151502179055506101008201518160000160086101000a81548160ff0219169083151502179055506101208201518160000160096101000a81548160ff02191690831515021790555061014082015181600001600a6101000a81548160ff02191690831515021790555061016082015181600001600b6101000a81548160ff02191690831515021790555061018082015181600001600c6101000a81548160ff0219169083151502179055506101a082015181600001600d6101000a81548160ff0219169083151502179055506101c082015181600001600e6101000a81548160ff0219169083151502179055506101e082015181600001600f6101000a81548160ff02191690831515021790555050506101608201518160100160008201518160000160006101000a81548160ff02191690831515021790555060208201518160000160016101000a81548160ff021916908315150217905550505061018082015181601101600082015181600001908051906020019061189d929190613504565b506020828101516001830155604083015180516118c09260028501920190613504565b506060820151600382015560808201518051805160048401916118e891839160200190613504565b5060208281015180516119019260018501920190613504565b50505060a091909101516006909101805491151560ff199283161790556101a0830151805160188401805492939092839116600183600481111561194757611947613a6d565b021790555060208281015180516119649260018501920190613504565b50604082015161197a9060028301906003613601565b50505090505060005460048b6040516119939190614652565b90815260200160405180910390208190555060005460058c6040516119b89190614652565b9081526040519081900360200181209190915587516006916119da9190614652565b908152604051602091819003820181206000805482546001808201855593835294909120909301929092558190611a12908e90614652565b908152604051908190036020018120805492151560ff1990931692909217909155600190600290611a44908d90614652565b908152604051908190036020018120805492151560ff19909316929092179091556000547f40f080228d46fb72660eddafe315e4a5b47df236dc33b76fcd122bcbea89b01d91611a98918e918e9190614784565b60405180910390a15050505050505050505050565b611ab56133a7565b600060036000600586604051611acb9190614652565b9081526020016040518091039020548152602001908152602001600020604051806101c001604052908160008201548152602001600182018054611b0e90614617565b80601f0160208091040260200160405190810160405280929190818152602001828054611b3a90614617565b8015611b875780601f10611b5c57610100808354040283529160200191611b87565b820191906000526020600020905b815481529060010190602001808311611b6a57829003601f168201915b50505050508152602001600282018054611ba090614617565b80601f0160208091040260200160405190810160405280929190818152602001828054611bcc90614617565b8015611c195780601f10611bee57610100808354040283529160200191611c19565b820191906000526020600020905b815481529060010190602001808311611bfc57829003601f168201915b50505050508152602001600382018054611c3290614617565b80601f0160208091040260200160405190810160405280929190818152602001828054611c5e90614617565b8015611cab5780601f10611c8057610100808354040283529160200191611cab565b820191906000526020600020905b815481529060010190602001808311611c8e57829003601f168201915b5050509183525050604080518082019091526020909101906004830160026000835b82821015611d70578382018054611ce390614617565b80601f0160208091040260200160405190810160405280929190818152602001828054611d0f90614617565b8015611d5c5780601f10611d3157610100808354040283529160200191611d5c565b820191906000526020600020905b815481529060010190602001808311611d3f57829003601f168201915b505050505081526020019060010190611ccd565b50505050815260200160068201604051806060016040529081600082018054611d9890614617565b80601f0160208091040260200160405190810160405280929190818152602001828054611dc490614617565b8015611e115780601f10611de657610100808354040283529160200191611e11565b820191906000526020600020905b815481529060010190602001808311611df457829003601f168201915b5050505050815260200160018201548152602001600282018054611e3490614617565b80601f0160208091040260200160405190810160405280929190818152602001828054611e6090614617565b8015611ead5780601f10611e8257610100808354040283529160200191611ead565b820191906000526020600020905b815481529060010190602001808311611e9057829003601f168201915b5050505050815250508152602001600982018054611eca90614617565b80601f0160208091040260200160405190810160405280929190818152602001828054611ef690614617565b8015611f435780601f10611f1857610100808354040283529160200191611f43565b820191906000526020600020905b815481529060010190602001808311611f2657829003601f168201915b5050509183525050600a82015460209091019060ff166002811115611f6a57611f6a613a6d565b6002811115611f7b57611f7b613a6d565b815260408051606081019182905260209092019190600b84019060039082845b815481526020019060010190808311611f9b5750505091835250506040805160608082018352600e85015460ff80821615158452610100808304821615156020868101919091526201000093849004831615158688015280880195909552855161020081018752600f89015480841615158252828104841615158288015293840483161515818801526301000000840483161515818601526401000000008404831615156080808301919091526501000000000085048416151560a0830152660100000000000085048416151560c08084019190915267010000000000000086048516151560e08401526801000000000000000086048516151583850152600160481b860485161515610120840152600160501b860485161515610140840152600160581b860485161515610160840152600160601b860485161515610180840152600160681b8604851615156101a0840152600160701b8604851615156101c0840152600160781b909504841615156101e0830152878901919091528651808801885260108a01548085161515825292909204909216151594810194909452918501929092528251918201909252601184018054929093019290918290829061216490614617565b80601f016020809104026020016040519081016040528092919081815260200182805461219090614617565b80156121dd5780601f106121b2576101008083540402835291602001916121dd565b820191906000526020600020905b8154815290600101906020018083116121c057829003601f168201915b505050505081526020016001820154815260200160028201805461220090614617565b80601f016020809104026020016040519081016040528092919081815260200182805461222c90614617565b80156122795780601f1061224e57610100808354040283529160200191612279565b820191906000526020600020905b81548152906001019060200180831161225c57829003601f168201915b5050505050815260200160038201548152602001600482016040518060400160405290816000820180546122ac90614617565b80601f01602080910402602001604051908101604052809291908181526020018280546122d890614617565b80156123255780601f106122fa57610100808354040283529160200191612325565b820191906000526020600020905b81548152906001019060200180831161230857829003601f168201915b5050505050815260200160018201805461233e90614617565b80601f016020809104026020016040519081016040528092919081815260200182805461236a90614617565b80156123b75780601f1061238c576101008083540402835291602001916123b7565b820191906000526020600020905b81548152906001019060200180831161239a57829003601f168201915b5050509190925250505081526006919091015460ff9081161515602092830152918352604080516060810190915260188501805494909201939092839116600481111561240657612406613a6d565b600481111561241757612417613a6d565b815260200160018201805461242b90614617565b80601f016020809104026020016040519081016040528092919081815260200182805461245790614617565b80156124a45780601f10612479576101008083540402835291602001916124a4565b820191906000526020600020905b81548152906001019060200180831161248757829003601f168201915b505050918352505060408051606081019091526020909101906002830160036000835b8282101561256a5783820180546124dd90614617565b80601f016020809104026020016040519081016040528092919081815260200182805461250990614617565b80156125565780601f1061252b57610100808354040283529160200191612556565b820191906000526020600020905b81548152906001019060200180831161253957829003601f168201915b5050505050815260200190600101906124c7565b50505091525050905250905082156125a65760008160e00151600281111561259457612594613a6d565b14156125a15790506125af565b6125ad565b90506125af565b505b92915050565b60016000868152600360205260409020600a015460ff1660028111156125dd576125dd613a6d565b146126505760405162461bcd60e51b815260206004820152603660248201527f41677265656d656e74206d7573742062652076696f6c6174656420696e206f7260448201527f64657220746f20656e666f7263652070656e616c7479000000000000000000006064820152608401611264565b604051685465726d696e61746560b81b6020820152602901604051602081830303815290604052805190602001208460405160200161268f9190614652565b6040516020818303038152906040528051906020012014156126bb576126b6856001610653565b6127b5565b600085815260036020526040908190209051633afe752b60e11b815273__$fd670a7a8cf286bc46dd07184f1e6a9adc$__916375fcea5691612708919088908890889088906004016147a9565b60206040518083038186803b15801561272057600080fd5b505af4158015612734573d6000803e3d6000fd5b505050506040513d601f19601f8201168201806040525081019061275891906147df565b5060008581526003602052604090819020805491517f6a5b41877c1e19e7405feb10468979239b83616b44fef14f87bc82641810bcde926127ac92600181019260029091019190899087908a908a906147f8565b60405180910390a15b5050505050565b6000888152600360205260409081902090516315a5255360e21b815273__$fd670a7a8cf286bc46dd07184f1e6a9adc$__91635694954c9161280f91908b908b908b908b908b908b908b90600401614857565b60006040518083038186803b15801561282757600080fd5b505af415801561283b573d6000803e3d6000fd5b5050506000898152600360205260409081902090517ff1acc7c95db58afeb3d94de0a26290e01e681eaeae56c25b1115faf2541227f292506128879160028101918c91601a01906148ea565b60405180910390a15050505050505050565b6128a16133a7565b6000600360006004866040516128b79190614652565b9081526020016040518091039020548152602001908152602001600020604051806101c0016040529081600082015481526020016001820180546128fa90614617565b80601f016020809104026020016040519081016040528092919081815260200182805461292690614617565b80156129735780601f1061294857610100808354040283529160200191612973565b820191906000526020600020905b81548152906001019060200180831161295657829003601f168201915b5050505050815260200160028201805461298c90614617565b80601f01602080910402602001604051908101604052809291908181526020018280546129b890614617565b8015612a055780601f106129da57610100808354040283529160200191612a05565b820191906000526020600020905b8154815290600101906020018083116129e857829003601f168201915b50505050508152602001600382018054612a1e90614617565b80601f0160208091040260200160405190810160405280929190818152602001828054612a4a90614617565b8015612a975780601f10612a6c57610100808354040283529160200191612a97565b820191906000526020600020905b815481529060010190602001808311612a7a57829003601f168201915b5050509183525050604080518082019091526020909101906004830160026000835b82821015612b5c578382018054612acf90614617565b80601f0160208091040260200160405190810160405280929190818152602001828054612afb90614617565b8015612b485780601f10612b1d57610100808354040283529160200191612b48565b820191906000526020600020905b815481529060010190602001808311612b2b57829003601f168201915b505050505081526020019060010190612ab9565b50505050815260200160068201604051806060016040529081600082018054612b8490614617565b80601f0160208091040260200160405190810160405280929190818152602001828054612bb090614617565b8015612bfd5780601f10612bd257610100808354040283529160200191612bfd565b820191906000526020600020905b815481529060010190602001808311612be057829003601f168201915b5050505050815260200160018201548152602001600282018054612c2090614617565b80601f0160208091040260200160405190810160405280929190818152602001828054612c4c90614617565b8015612c995780601f10612c6e57610100808354040283529160200191612c99565b820191906000526020600020905b815481529060010190602001808311612c7c57829003601f168201915b5050505050815250508152602001600982018054612cb690614617565b80601f0160208091040260200160405190810160405280929190818152602001828054612ce290614617565b8015612d2f5780601f10612d0457610100808354040283529160200191612d2f565b820191906000526020600020905b815481529060010190602001808311612d1257829003601f168201915b5050509183525050600a82015460209091019060ff166002811115612d5657612d56613a6d565b6002811115612d6757612d67613a6d565b815260408051606081019182905260209092019190600b84019060039082845b815481526020019060010190808311612d875750505091835250506040805160608082018352600e85015460ff80821615158452610100808304821615156020868101919091526201000093849004831615158688015280880195909552855161020081018752600f89015480841615158252828104841615158288015293840483161515818801526301000000840483161515818601526401000000008404831615156080808301919091526501000000000085048416151560a0830152660100000000000085048416151560c08084019190915267010000000000000086048516151560e08401526801000000000000000086048516151583850152600160481b860485161515610120840152600160501b860485161515610140840152600160581b860485161515610160840152600160601b860485161515610180840152600160681b8604851615156101a0840152600160701b8604851615156101c0840152600160781b909504841615156101e0830152878901919091528651808801885260108a015480851615158252929092049092161515948101949094529185019290925282519182019092526011840180549290930192909182908290612f5090614617565b80601f0160208091040260200160405190810160405280929190818152602001828054612f7c90614617565b8015612fc95780601f10612f9e57610100808354040283529160200191612fc9565b820191906000526020600020905b815481529060010190602001808311612fac57829003601f168201915b5050505050815260200160018201548152602001600282018054612fec90614617565b80601f016020809104026020016040519081016040528092919081815260200182805461301890614617565b80156130655780601f1061303a57610100808354040283529160200191613065565b820191906000526020600020905b81548152906001019060200180831161304857829003601f168201915b50505050508152602001600382015481526020016004820160405180604001604052908160008201805461309890614617565b80601f01602080910402602001604051908101604052809291908181526020018280546130c490614617565b80156131115780601f106130e657610100808354040283529160200191613111565b820191906000526020600020905b8154815290600101906020018083116130f457829003601f168201915b5050505050815260200160018201805461312a90614617565b80601f016020809104026020016040519081016040528092919081815260200182805461315690614617565b80156131a35780601f10613178576101008083540402835291602001916131a3565b820191906000526020600020905b81548152906001019060200180831161318657829003601f168201915b5050509190925250505081526006919091015460ff908116151560209283015291835260408051606081019091526018850180549490920193909283911660048111156131f2576131f2613a6d565b600481111561320357613203613a6d565b815260200160018201805461321790614617565b80601f016020809104026020016040519081016040528092919081815260200182805461324390614617565b80156132905780601f1061326557610100808354040283529160200191613290565b820191906000526020600020905b81548152906001019060200180831161327357829003601f168201915b505050918352505060408051606081019091526020909101906002830160036000835b8282101561256a5783820180546132c990614617565b80601f01602080910402602001604051908101604052809291908181526020018280546132f590614617565b80156133425780601f1061331757610100808354040283529160200191613342565b820191906000526020600020905b81548152906001019060200180831161332557829003601f168201915b5050505050815260200190600101906132b3565b6040518060c001604052806060815260200160008152602001606081526020016000815260200161339a604051806040016040528060608152602001606081525090565b8152600060209091015290565b604051806101c00160405280600081526020016060815260200160608152602001606081526020016133d7613641565b815260200161340060405180606001604052806060815260200160008152602001606081525090565b8152606060208201526040016000815260200161341b613668565b81526040805160608101825260008082526020828101829052928201529101908152604080516102008101825260008082526020828101829052928201819052606082018190526080820181905260a0820181905260c0820181905260e08201819052610100820181905261012082018190526101408201819052610160820181905261018082018190526101a082018190526101c082018190526101e082015291019081526020016134e560405180604001604052806000151581526020016000151581525090565b81526020016134f2613356565b81526020016134ff613686565b905290565b82805461351090614617565b90600052602060002090601f0160209004810192826135325760008555613578565b82601f1061354b57805160ff1916838001178555613578565b82800160010185558215613578579182015b8281111561357857825182559160200191906001019061355d565b506135849291506136a5565b5090565b82600281019282156135c8579160200282015b828111156135c857825180516135b8918491602090910190613504565b509160200191906001019061359b565b506135849291506136ba565b8260038101928215613578579160200282018281111561357857825182559160200191906001019061355d565b82600381019282156135c8579160200282015b828111156135c85782518051613631918491602090910190613504565b5091602001919060010190613614565b60405180604001604052806002905b60608152602001906001900390816136505790505090565b60405180606001604052806003906020820280368337509192915050565b60408051606080820183526000825260208201529081016134ff6136d7565b5b8082111561358457600081556001016136a6565b808211156135845760006136ce82826136f1565b506001016136ba565b604080516060808201909252908152600260208201613650565b5080546136fd90614617565b6000825580601f1061370d575050565b601f01602090049060005260206000209081019061372b91906136a5565b50565b60006020828403121561374057600080fd5b5035919050565b60005b8381101561376257818101518382015260200161374a565b83811115613771576000848401525b50505050565b6000815180845261378f816020860160208601613747565b601f01601f19169290920160200192915050565b6000815160c084526137b860c0850182613777565b905060208301516020850152604083015184820360408601526137db8282613777565b91505060608301516060850152608083015184820360808601528051604083526138086040840182613777565b90506020820151915082810360208401526138238183613777565b9250505060a0830151151560a08501528091505092915050565b60208152600061385060208301846137a3565b9392505050565b634e487b7160e01b600052604160045260246000fd5b6040516060810167ffffffffffffffff8111828210171561389057613890613857565b60405290565b604051610200810167ffffffffffffffff8111828210171561389057613890613857565b6040805190810167ffffffffffffffff8111828210171561389057613890613857565b60405160c0810167ffffffffffffffff8111828210171561389057613890613857565b600082601f83011261391157600080fd5b813567ffffffffffffffff8082111561392c5761392c613857565b604051601f8301601f19908116603f0116810190828211818310171561395457613954613857565b8160405283815286602085880101111561396d57600080fd5b836020870160208301376000602085830101528094505050505092915050565b60006020828403121561399f57600080fd5b813567ffffffffffffffff8111156139b657600080fd5b6139c284828501613900565b949350505050565b6000602080830181845280855180835260408601915060408160051b870101925083870160005b82811015613a1f57603f19888603018452613a0d858351613777565b945092850192908501906001016139f1565b5092979650505050505050565b80358015158114613a3c57600080fd5b919050565b60008060408385031215613a5457600080fd5b82359150613a6460208401613a2c565b90509250929050565b634e487b7160e01b600052602160045260246000fd5b60038110613a9357613a93613a6d565b9052565b602081016125af8284613a83565b6020808252825182820181905260009190848201906040850190845b81811015613add57835183529284019291840191600101613ac1565b50909695505050505050565b600082604081018360005b6002811015613b23578383038752613b0d838351613777565b6020978801979093509190910190600101613af4565b509095945050505050565b6000815160608452613b436060850182613777565b90506020830151602085015260408301518482036040860152613b668282613777565b95945050505050565b8060005b6003811015613771578151845260209384019390910190600101613b73565b8051151582526020810151613bab602084018215159052565b506040810151613bbf604084018215159052565b506060810151613bd3606084018215159052565b506080810151613be7608084018215159052565b5060a0810151613bfb60a084018215159052565b5060c0810151613c0f60c084018215159052565b5060e0810151613c2360e084018215159052565b5061010081810151151590830152610120808201511515908301526101408082015115159083015261016080820151151590830152610180808201511515908301526101a0808201511515908301526101c0808201511515908301526101e08082015180151582850152613771565b6000815160058110613ca657613ca6613a6d565b80845250602080830151606082860152613cc36060860182613777565b905060408401518582036040870152818290506060830160005b6003811015613d08578482038352613cf6828551613777565b93860193928601929150600101613cdd565b50979650505050505050565b602081528151602082015260006020830151610440806040850152613d3d610460850183613777565b91506040850151601f1980868503016060870152613d5b8483613777565b93506060870151915080868503016080870152613d788483613777565b935060808701519150808685030160a0870152613d958483613ae9565b935060a08701519150808685030160c0870152613db28483613b2e565b935060c08701519150808685030160e0870152613dcf8483613777565b935060e08701519150610100613de781880184613a83565b8701519150610120613dfb87820184613b6f565b8701519150610180613e29878201848051151582526020808201511515908301526040908101511515910152565b6101408801519250613e3f6101e0880184613b92565b610160880151805115156103e089015260200151151561040088015287015186850382016104208801529150613e7584836137a3565b93506101a0870151915080868503018387015250613e938382613c92565b9695505050505050565b600082601f830112613eae57600080fd5b6040516040810167ffffffffffffffff8282108183111715613ed257613ed2613857565b60409182528291850186811115613ee857600080fd5b855b81811015613f1d57803583811115613f025760008081fd5b613f0e89828a01613900565b85525060209384019301613eea565b50929695505050505050565b600060608284031215613f3b57600080fd5b613f4361386d565b9050813567ffffffffffffffff80821115613f5d57600080fd5b613f6985838601613900565b8352602084013560208401526040840135915080821115613f8957600080fd5b50613f9684828501613900565b60408301525092915050565b600082601f830112613fb357600080fd5b6040516060810181811067ffffffffffffffff82111715613fd657613fd6613857565b604052806060840185811115613feb57600080fd5b845b81811015614005578035835260209283019201613fed565b509195945050505050565b60006060828403121561402257600080fd5b61402a61386d565b905061403582613a2c565b815261404360208301613a2c565b602082015261405460408301613a2c565b604082015292915050565b6000610200828403121561407257600080fd5b61407a613896565b905061408582613a2c565b815261409360208301613a2c565b60208201526140a460408301613a2c565b60408201526140b560608301613a2c565b60608201526140c660808301613a2c565b60808201526140d760a08301613a2c565b60a08201526140e860c08301613a2c565b60c08201526140f960e08301613a2c565b60e082015261010061410c818401613a2c565b9082015261012061411e838201613a2c565b90820152610140614130838201613a2c565b90820152610160614142838201613a2c565b90820152610180614154838201613a2c565b908201526101a0614166838201613a2c565b908201526101c0614178838201613a2c565b908201526101e061418a838201613a2c565b9082015292915050565b6000604082840312156141a657600080fd5b6141ae6138ba565b9050813567ffffffffffffffff808211156141c857600080fd5b6141d485838601613900565b835260208401359150808211156141ea57600080fd5b506141f784828501613900565b60208301525092915050565b600060c0828403121561421557600080fd5b61421d6138dd565b9050813567ffffffffffffffff8082111561423757600080fd5b61424385838601613900565b835260208401356020840152604084013591508082111561426357600080fd5b61426f85838601613900565b604084015260608401356060840152608084013591508082111561429257600080fd5b5061429f84828501614194565b6080830152506142b160a08301613a2c565b60a082015292915050565b6000604082840312156142ce57600080fd5b6142d66138ba565b90506142e182613a2c565b81526142ef60208301613a2c565b602082015292915050565b60008060008060008060008060008060006103e08c8e03121561431c57600080fd5b67ffffffffffffffff808d35111561433357600080fd5b6143408e8e358f01613900565b9b508060208e0135111561435357600080fd5b6143638e60208f01358f01613900565b9a508060408e0135111561437657600080fd5b6143868e60408f01358f01613900565b99508060608e0135111561439957600080fd5b6143a98e60608f01358f01613e9d565b98508060808e013511156143bc57600080fd5b6143cc8e60808f01358f01613f29565b97508060a08e013511156143df57600080fd5b6143ef8e60a08f01358f01613900565b96506143fe8e60c08f01613fa2565b955061440e8e6101208f01614010565b945061441e8e6101808f0161405f565b9350806103808e0135111561443257600080fd5b506144448d6103808e01358e01614203565b91506144548d6103a08e016142bc565b90509295989b509295989b9093969950565b6000806040838503121561447957600080fd5b823567ffffffffffffffff81111561449057600080fd5b61449c85828601613900565b925050613a6460208401613a2c565b600080600080600060a086880312156144c357600080fd5b85359450602086013567ffffffffffffffff8111156144e157600080fd5b6144ed88828901613900565b959895975050505060408401359360608101359360809091013592509050565b600080600080600080600080610100898b03121561452a57600080fd5b88359750602089013567ffffffffffffffff8082111561454957600080fd5b6145558c838d01613900565b985060408b013591508082111561456b57600080fd5b6145778c838d01613900565b975060608b013591508082111561458d57600080fd5b6145998c838d01613900565b965060808b01359150808211156145af57600080fd5b6145bb8c838d01613900565b955060a08b0135945060c08b01359150808211156145d857600080fd5b6145e48c838d01613900565b935060e08b01359150808211156145fa57600080fd5b506146078b828c01613900565b9150509295985092959890939650565b600181811c9082168061462b57607f821691505b6020821081141561464c57634e487b7160e01b600052602260045260246000fd5b50919050565b60008251614664818460208701613747565b9190910192915050565b634e487b7160e01b600052603260045260246000fd5b60006000198214156146a657634e487b7160e01b600052601160045260246000fd5b5060010190565b8054600090600181811c90808316806146c757607f831692505b60208084108214156146e957634e487b7160e01b600052602260045260246000fd5b838852818015614700576001811461471457614742565b60ff19861689830152604089019650614742565b876000528160002060005b8681101561473a5781548b820185015290850190830161471f565b8a0183019750505b50505050505092915050565b60608152600061476160608301866146ad565b828103602084015261477381866146ad565b915050826040830152949350505050565b6060815260006147976060830186613777565b82810360208401526147738186613777565b85815260a0602082015260006147c260a0830187613777565b604083019590955250606081019290925260809091015292915050565b6000602082840312156147f157600080fd5b5051919050565b60e08152600061480b60e083018a6146ad565b828103602084015261481d818a6146ad565b905087604084015282810360608401526148378188613777565b6080840196909652505060a081019290925260c090910152949350505050565b60006101008a83528060208401526148718184018b613777565b90508281036040840152614885818a613777565b905082810360608401526148998189613777565b905082810360808401526148ad8188613777565b90508560a084015282810360c08401526148c78186613777565b905082810360e08401526148db8185613777565b9b9a5050505050505050505050565b6060815260006148fd60608301866146ad565b6020838101869052838203604085015281606081018660005b600381101561494057858303845261492e83836146ad565b93850193925060019182019101614916565b5090999850505050505050505056fea2646970667358221220fa3d6083c87227c93108314eda2f810677cb12ea769a602898f2158880a5302f64736f6c63430008090033",
  "libraries": {
    "AgreementViolationLibrary": "0x356E8c2366f886241ac8AF2d63069Bb2fCAd4175"
  },
  "devdoc": {
    "kind": "dev",
    "methods": {},
    "version": 1
  },
  "userdoc": {
    "kind": "user",
    "methods": {},
    "version": 1
  },
  "storageLayout": {
    "storage": [
      {
        "astId": 451,
        "contract": "contracts/Agreement.sol:DataSharingAgreement",
        "label": "agreementId",
        "offset": 0,
        "slot": "0",
        "type": "t_uint256"
      },
      {
        "astId": 455,
        "contract": "contracts/Agreement.sol:DataSharingAgreement",
        "label": "isPublicKeyProvider",
        "offset": 0,
        "slot": "1",
        "type": "t_mapping(t_string_memory_ptr,t_bool)"
      },
      {
        "astId": 459,
        "contract": "contracts/Agreement.sol:DataSharingAgreement",
        "label": "isPublicKeyConsumer",
        "offset": 0,
        "slot": "2",
        "type": "t_mapping(t_string_memory_ptr,t_bool)"
      },
      {
        "astId": 464,
        "contract": "contracts/Agreement.sol:DataSharingAgreement",
        "label": "agreements",
        "offset": 0,
        "slot": "3",
        "type": "t_mapping(t_uint256,t_struct(Agreement)45_storage)"
      },
      {
        "astId": 468,
        "contract": "contracts/Agreement.sol:DataSharingAgreement",
        "label": "consumerKey2agreementId",
        "offset": 0,
        "slot": "4",
        "type": "t_mapping(t_string_memory_ptr,t_uint256)"
      },
      {
        "astId": 472,
        "contract": "contracts/Agreement.sol:DataSharingAgreement",
        "label": "providerKey2agreementId",
        "offset": 0,
        "slot": "5",
        "type": "t_mapping(t_string_memory_ptr,t_uint256)"
      },
      {
        "astId": 477,
        "contract": "contracts/Agreement.sol:DataSharingAgreement",
        "label": "offeringId2agreementIds",
        "offset": 0,
        "slot": "6",
        "type": "t_mapping(t_string_memory_ptr,t_array(t_uint256)dyn_storage)"
      }
    ],
    "types": {
      "t_array(t_string_storage)2_storage": {
        "base": "t_string_storage",
        "encoding": "inplace",
        "label": "string[2]",
        "numberOfBytes": "64"
      },
      "t_array(t_string_storage)3_storage": {
        "base": "t_string_storage",
        "encoding": "inplace",
        "label": "string[3]",
        "numberOfBytes": "96"
      },
      "t_array(t_uint256)3_storage": {
        "base": "t_uint256",
        "encoding": "inplace",
        "label": "uint256[3]",
        "numberOfBytes": "96"
      },
      "t_array(t_uint256)dyn_storage": {
        "base": "t_uint256",
        "encoding": "dynamic_array",
        "label": "uint256[]",
        "numberOfBytes": "32"
      },
      "t_bool": {
        "encoding": "inplace",
        "label": "bool",
        "numberOfBytes": "1"
      },
      "t_enum(State)5": {
        "encoding": "inplace",
        "label": "enum State",
        "numberOfBytes": "1"
      },
      "t_enum(ViolationType)122": {
        "encoding": "inplace",
        "label": "enum ViolationType",
        "numberOfBytes": "1"
      },
      "t_mapping(t_string_memory_ptr,t_array(t_uint256)dyn_storage)": {
        "encoding": "mapping",
        "key": "t_string_memory_ptr",
        "label": "mapping(string => uint256[])",
        "numberOfBytes": "32",
        "value": "t_array(t_uint256)dyn_storage"
      },
      "t_mapping(t_string_memory_ptr,t_bool)": {
        "encoding": "mapping",
        "key": "t_string_memory_ptr",
        "label": "mapping(string => bool)",
        "numberOfBytes": "32",
        "value": "t_bool"
      },
      "t_mapping(t_string_memory_ptr,t_uint256)": {
        "encoding": "mapping",
        "key": "t_string_memory_ptr",
        "label": "mapping(string => uint256)",
        "numberOfBytes": "32",
        "value": "t_uint256"
      },
      "t_mapping(t_uint256,t_struct(Agreement)45_storage)": {
        "encoding": "mapping",
        "key": "t_uint256",
        "label": "mapping(uint256 => struct Agreement)",
        "numberOfBytes": "32",
        "value": "t_struct(Agreement)45_storage"
      },
      "t_string_memory_ptr": {
        "encoding": "bytes",
        "label": "string",
        "numberOfBytes": "32"
      },
      "t_string_storage": {
        "encoding": "bytes",
        "label": "string",
        "numberOfBytes": "32"
      },
      "t_struct(Agreement)45_storage": {
        "encoding": "inplace",
        "label": "struct Agreement",
        "members": [
          {
            "astId": 7,
            "contract": "contracts/Agreement.sol:DataSharingAgreement",
            "label": "agreementId",
            "offset": 0,
            "slot": "0",
            "type": "t_uint256"
          },
          {
            "astId": 9,
            "contract": "contracts/Agreement.sol:DataSharingAgreement",
            "label": "providerPublicKey",
            "offset": 0,
            "slot": "1",
            "type": "t_string_storage"
          },
          {
            "astId": 11,
            "contract": "contracts/Agreement.sol:DataSharingAgreement",
            "label": "consumerPublicKey",
            "offset": 0,
            "slot": "2",
            "type": "t_string_storage"
          },
          {
            "astId": 13,
            "contract": "contracts/Agreement.sol:DataSharingAgreement",
            "label": "dataExchangeAgreementHash",
            "offset": 0,
            "slot": "3",
            "type": "t_string_storage"
          },
          {
            "astId": 17,
            "contract": "contracts/Agreement.sol:DataSharingAgreement",
            "label": "signatures",
            "offset": 0,
            "slot": "4",
            "type": "t_array(t_string_storage)2_storage"
          },
          {
            "astId": 20,
            "contract": "contracts/Agreement.sol:DataSharingAgreement",
            "label": "dataOffering",
            "offset": 0,
            "slot": "6",
            "type": "t_struct(DataOffering)57_storage"
          },
          {
            "astId": 22,
            "contract": "contracts/Agreement.sol:DataSharingAgreement",
            "label": "purpose",
            "offset": 0,
            "slot": "9",
            "type": "t_string_storage"
          },
          {
            "astId": 25,
            "contract": "contracts/Agreement.sol:DataSharingAgreement",
            "label": "state",
            "offset": 0,
            "slot": "10",
            "type": "t_enum(State)5"
          },
          {
            "astId": 29,
            "contract": "contracts/Agreement.sol:DataSharingAgreement",
            "label": "agreementDates",
            "offset": 0,
            "slot": "11",
            "type": "t_array(t_uint256)3_storage"
          },
          {
            "astId": 32,
            "contract": "contracts/Agreement.sol:DataSharingAgreement",
            "label": "intendedUse",
            "offset": 0,
            "slot": "14",
            "type": "t_struct(IntendedUse)64_storage"
          },
          {
            "astId": 35,
            "contract": "contracts/Agreement.sol:DataSharingAgreement",
            "label": "licenseGrant",
            "offset": 0,
            "slot": "15",
            "type": "t_struct(LicenseGrant)97_storage"
          },
          {
            "astId": 38,
            "contract": "contracts/Agreement.sol:DataSharingAgreement",
            "label": "typeOfData",
            "offset": 0,
            "slot": "16",
            "type": "t_struct(TypeOfData)50_storage"
          },
          {
            "astId": 41,
            "contract": "contracts/Agreement.sol:DataSharingAgreement",
            "label": "pricingModel",
            "offset": 0,
            "slot": "17",
            "type": "t_struct(PricingModel)111_storage"
          },
          {
            "astId": 44,
            "contract": "contracts/Agreement.sol:DataSharingAgreement",
            "label": "violation",
            "offset": 0,
            "slot": "24",
            "type": "t_struct(Violation)132_storage"
          }
        ],
        "numberOfBytes": "928"
      },
      "t_struct(DataOffering)57_storage": {
        "encoding": "inplace",
        "label": "struct DataOffering",
        "members": [
          {
            "astId": 52,
            "contract": "contracts/Agreement.sol:DataSharingAgreement",
            "label": "dataOfferingId",
            "offset": 0,
            "slot": "0",
            "type": "t_string_storage"
          },
          {
            "astId": 54,
            "contract": "contracts/Agreement.sol:DataSharingAgreement",
            "label": "dataOfferingVersion",
            "offset": 0,
            "slot": "1",
            "type": "t_uint256"
          },
          {
            "astId": 56,
            "contract": "contracts/Agreement.sol:DataSharingAgreement",
            "label": "title",
            "offset": 0,
            "slot": "2",
            "type": "t_string_storage"
          }
        ],
        "numberOfBytes": "96"
      },
      "t_struct(IntendedUse)64_storage": {
        "encoding": "inplace",
        "label": "struct IntendedUse",
        "members": [
          {
            "astId": 59,
            "contract": "contracts/Agreement.sol:DataSharingAgreement",
            "label": "processData",
            "offset": 0,
            "slot": "0",
            "type": "t_bool"
          },
          {
            "astId": 61,
            "contract": "contracts/Agreement.sol:DataSharingAgreement",
            "label": "shareDataWithThirdParty",
            "offset": 1,
            "slot": "0",
            "type": "t_bool"
          },
          {
            "astId": 63,
            "contract": "contracts/Agreement.sol:DataSharingAgreement",
            "label": "editData",
            "offset": 2,
            "slot": "0",
            "type": "t_bool"
          }
        ],
        "numberOfBytes": "32"
      },
      "t_struct(LicenseGrant)97_storage": {
        "encoding": "inplace",
        "label": "struct LicenseGrant",
        "members": [
          {
            "astId": 66,
            "contract": "contracts/Agreement.sol:DataSharingAgreement",
            "label": "transferable",
            "offset": 0,
            "slot": "0",
            "type": "t_bool"
          },
          {
            "astId": 68,
            "contract": "contracts/Agreement.sol:DataSharingAgreement",
            "label": "exclusiveness",
            "offset": 1,
            "slot": "0",
            "type": "t_bool"
          },
          {
            "astId": 70,
            "contract": "contracts/Agreement.sol:DataSharingAgreement",
            "label": "paidUp",
            "offset": 2,
            "slot": "0",
            "type": "t_bool"
          },
          {
            "astId": 72,
            "contract": "contracts/Agreement.sol:DataSharingAgreement",
            "label": "revocable",
            "offset": 3,
            "slot": "0",
            "type": "t_bool"
          },
          {
            "astId": 74,
            "contract": "contracts/Agreement.sol:DataSharingAgreement",
            "label": "processing",
            "offset": 4,
            "slot": "0",
            "type": "t_bool"
          },
          {
            "astId": 76,
            "contract": "contracts/Agreement.sol:DataSharingAgreement",
            "label": "modifying",
            "offset": 5,
            "slot": "0",
            "type": "t_bool"
          },
          {
            "astId": 78,
            "contract": "contracts/Agreement.sol:DataSharingAgreement",
            "label": "analyzing",
            "offset": 6,
            "slot": "0",
            "type": "t_bool"
          },
          {
            "astId": 80,
            "contract": "contracts/Agreement.sol:DataSharingAgreement",
            "label": "storingData",
            "offset": 7,
            "slot": "0",
            "type": "t_bool"
          },
          {
            "astId": 82,
            "contract": "contracts/Agreement.sol:DataSharingAgreement",
            "label": "storingCopy",
            "offset": 8,
            "slot": "0",
            "type": "t_bool"
          },
          {
            "astId": 84,
            "contract": "contracts/Agreement.sol:DataSharingAgreement",
            "label": "reproducing",
            "offset": 9,
            "slot": "0",
            "type": "t_bool"
          },
          {
            "astId": 86,
            "contract": "contracts/Agreement.sol:DataSharingAgreement",
            "label": "distributing",
            "offset": 10,
            "slot": "0",
            "type": "t_bool"
          },
          {
            "astId": 88,
            "contract": "contracts/Agreement.sol:DataSharingAgreement",
            "label": "loaning",
            "offset": 11,
            "slot": "0",
            "type": "t_bool"
          },
          {
            "astId": 90,
            "contract": "contracts/Agreement.sol:DataSharingAgreement",
            "label": "selling",
            "offset": 12,
            "slot": "0",
            "type": "t_bool"
          },
          {
            "astId": 92,
            "contract": "contracts/Agreement.sol:DataSharingAgreement",
            "label": "renting",
            "offset": 13,
            "slot": "0",
            "type": "t_bool"
          },
          {
            "astId": 94,
            "contract": "contracts/Agreement.sol:DataSharingAgreement",
            "label": "furtherLicensing",
            "offset": 14,
            "slot": "0",
            "type": "t_bool"
          },
          {
            "astId": 96,
            "contract": "contracts/Agreement.sol:DataSharingAgreement",
            "label": "leasing",
            "offset": 15,
            "slot": "0",
            "type": "t_bool"
          }
        ],
        "numberOfBytes": "32"
      },
      "t_struct(PaymentOnSubscription)116_storage": {
        "encoding": "inplace",
        "label": "struct PaymentOnSubscription",
        "members": [
          {
            "astId": 113,
            "contract": "contracts/Agreement.sol:DataSharingAgreement",
            "label": "timeDuration",
            "offset": 0,
            "slot": "0",
            "type": "t_string_storage"
          },
          {
            "astId": 115,
            "contract": "contracts/Agreement.sol:DataSharingAgreement",
            "label": "repeat",
            "offset": 0,
            "slot": "1",
            "type": "t_string_storage"
          }
        ],
        "numberOfBytes": "64"
      },
      "t_struct(PricingModel)111_storage": {
        "encoding": "inplace",
        "label": "struct PricingModel",
        "members": [
          {
            "astId": 99,
            "contract": "contracts/Agreement.sol:DataSharingAgreement",
            "label": "paymentType",
            "offset": 0,
            "slot": "0",
            "type": "t_string_storage"
          },
          {
            "astId": 101,
            "contract": "contracts/Agreement.sol:DataSharingAgreement",
            "label": "price",
            "offset": 0,
            "slot": "1",
            "type": "t_uint256"
          },
          {
            "astId": 103,
            "contract": "contracts/Agreement.sol:DataSharingAgreement",
            "label": "currency",
            "offset": 0,
            "slot": "2",
            "type": "t_string_storage"
          },
          {
            "astId": 105,
            "contract": "contracts/Agreement.sol:DataSharingAgreement",
            "label": "fee",
            "offset": 0,
            "slot": "3",
            "type": "t_uint256"
          },
          {
            "astId": 108,
            "contract": "contracts/Agreement.sol:DataSharingAgreement",
            "label": "paymentOnSubscription",
            "offset": 0,
            "slot": "4",
            "type": "t_struct(PaymentOnSubscription)116_storage"
          },
          {
            "astId": 110,
            "contract": "contracts/Agreement.sol:DataSharingAgreement",
            "label": "isFree",
            "offset": 0,
            "slot": "6",
            "type": "t_bool"
          }
        ],
        "numberOfBytes": "224"
      },
      "t_struct(TypeOfData)50_storage": {
        "encoding": "inplace",
        "label": "struct TypeOfData",
        "members": [
          {
            "astId": 47,
            "contract": "contracts/Agreement.sol:DataSharingAgreement",
            "label": "dataStream",
            "offset": 0,
            "slot": "0",
            "type": "t_bool"
          },
          {
            "astId": 49,
            "contract": "contracts/Agreement.sol:DataSharingAgreement",
            "label": "personalData",
            "offset": 1,
            "slot": "0",
            "type": "t_bool"
          }
        ],
        "numberOfBytes": "32"
      },
      "t_struct(Violation)132_storage": {
        "encoding": "inplace",
        "label": "struct Violation",
        "members": [
          {
            "astId": 125,
            "contract": "contracts/Agreement.sol:DataSharingAgreement",
            "label": "violationType",
            "offset": 0,
            "slot": "0",
            "type": "t_enum(ViolationType)122"
          },
          {
            "astId": 127,
            "contract": "contracts/Agreement.sol:DataSharingAgreement",
            "label": "issuerId",
            "offset": 0,
            "slot": "1",
            "type": "t_string_storage"
          },
          {
            "astId": 131,
            "contract": "contracts/Agreement.sol:DataSharingAgreement",
            "label": "penaltyChoices",
            "offset": 0,
            "slot": "2",
            "type": "t_array(t_string_storage)3_storage"
          }
        ],
        "numberOfBytes": "160"
      },
      "t_uint256": {
        "encoding": "inplace",
        "label": "uint256",
        "numberOfBytes": "32"
      }
    }
  }
}