{
  "address": "0xA78892aa2f84d6F64d8B610345FD15A86632091a",
  "abi": [
    {
      "anonymous": false,
      "inputs": [
        {
          "indexed": false,
          "internalType": "string",
          "name": "providerId",
          "type": "string"
        },
        {
          "indexed": false,
          "internalType": "string",
          "name": "consumerId",
          "type": "string"
        },
        {
          "indexed": false,
          "internalType": "uint256",
          "name": "id",
          "type": "uint256"
        }
      ],
      "name": "AgreementCreated",
      "type": "event"
    },
    {
      "anonymous": false,
      "inputs": [
        {
          "indexed": false,
          "internalType": "uint256",
          "name": "id",
          "type": "uint256"
        }
      ],
      "name": "AgreementSigned",
      "type": "event"
    },
    {
      "anonymous": false,
      "inputs": [
        {
          "indexed": false,
          "internalType": "string",
          "name": "providerId",
          "type": "string"
        },
        {
          "indexed": false,
          "internalType": "string",
          "name": "consumerId",
          "type": "string"
        },
        {
          "indexed": false,
          "internalType": "uint256",
          "name": "id",
          "type": "uint256"
        }
      ],
      "name": "AgreementUpdated",
      "type": "event"
    },
    {
      "inputs": [
        {
          "internalType": "uint256",
          "name": "",
          "type": "uint256"
        }
      ],
      "name": "agreements",
      "outputs": [
        {
          "internalType": "uint256",
          "name": "dataOfferingId",
          "type": "uint256"
        },
        {
          "internalType": "string",
          "name": "purpose",
          "type": "string"
        },
        {
          "internalType": "enum DataSharingAgreement.State",
          "name": "state",
          "type": "uint8"
        },
        {
          "internalType": "string",
          "name": "providerId",
          "type": "string"
        },
        {
          "internalType": "string",
          "name": "consumerId",
          "type": "string"
        },
        {
          "components": [
            {
              "internalType": "string",
              "name": "dataType",
              "type": "string"
            },
            {
              "internalType": "string",
              "name": "dataFormat",
              "type": "string"
            },
            {
              "internalType": "string",
              "name": "dataSource",
              "type": "string"
            }
          ],
          "internalType": "struct DataSharingAgreement.DescriptionOfData",
          "name": "descriptionOfData",
          "type": "tuple"
        },
        {
          "components": [
            {
              "internalType": "bool",
              "name": "processData",
              "type": "bool"
            },
            {
              "internalType": "bool",
              "name": "shareDataWithThirdParty",
              "type": "bool"
            },
            {
              "internalType": "bool",
              "name": "editData",
              "type": "bool"
            }
          ],
          "internalType": "struct DataSharingAgreement.IntendedUse",
          "name": "intendedUse",
          "type": "tuple"
        },
        {
          "components": [
            {
              "internalType": "bool",
              "name": "copyData",
              "type": "bool"
            },
            {
              "internalType": "bool",
              "name": "transferable",
              "type": "bool"
            },
            {
              "internalType": "bool",
              "name": "exclusiveness",
              "type": "bool"
            },
            {
              "internalType": "bool",
              "name": "revocable",
              "type": "bool"
            }
          ],
          "internalType": "struct DataSharingAgreement.LicenseGrant",
          "name": "licenseGrant",
          "type": "tuple"
        },
        {
          "internalType": "bool",
          "name": "dataStream",
          "type": "bool"
        },
        {
          "internalType": "bool",
          "name": "signed",
          "type": "bool"
        },
        {
          "components": [
            {
              "internalType": "enum DataSharingAgreement.ViolationType",
              "name": "violationType",
              "type": "uint8"
            },
            {
              "internalType": "string",
              "name": "issuerId",
              "type": "string"
            }
          ],
          "internalType": "struct DataSharingAgreement.Violation",
          "name": "violation",
          "type": "tuple"
        }
      ],
      "stateMutability": "view",
      "type": "function"
    },
    {
      "inputs": [],
      "name": "checkActiveAgreements",
      "outputs": [
        {
          "components": [
            {
              "internalType": "uint256",
              "name": "dataOfferingId",
              "type": "uint256"
            },
            {
              "internalType": "string",
              "name": "purpose",
              "type": "string"
            },
            {
              "internalType": "enum DataSharingAgreement.State",
              "name": "state",
              "type": "uint8"
            },
            {
              "internalType": "string",
              "name": "providerId",
              "type": "string"
            },
            {
              "internalType": "string",
              "name": "consumerId",
              "type": "string"
            },
            {
              "internalType": "uint256[3]",
              "name": "agreementDates",
              "type": "uint256[3]"
            },
            {
              "components": [
                {
                  "internalType": "string",
                  "name": "dataType",
                  "type": "string"
                },
                {
                  "internalType": "string",
                  "name": "dataFormat",
                  "type": "string"
                },
                {
                  "internalType": "string",
                  "name": "dataSource",
                  "type": "string"
                }
              ],
              "internalType": "struct DataSharingAgreement.DescriptionOfData",
              "name": "descriptionOfData",
              "type": "tuple"
            },
            {
              "components": [
                {
                  "internalType": "bool",
                  "name": "processData",
                  "type": "bool"
                },
                {
                  "internalType": "bool",
                  "name": "shareDataWithThirdParty",
                  "type": "bool"
                },
                {
                  "internalType": "bool",
                  "name": "editData",
                  "type": "bool"
                }
              ],
              "internalType": "struct DataSharingAgreement.IntendedUse",
              "name": "intendedUse",
              "type": "tuple"
            },
            {
              "components": [
                {
                  "internalType": "bool",
                  "name": "copyData",
                  "type": "bool"
                },
                {
                  "internalType": "bool",
                  "name": "transferable",
                  "type": "bool"
                },
                {
                  "internalType": "bool",
                  "name": "exclusiveness",
                  "type": "bool"
                },
                {
                  "internalType": "bool",
                  "name": "revocable",
                  "type": "bool"
                }
              ],
              "internalType": "struct DataSharingAgreement.LicenseGrant",
              "name": "licenseGrant",
              "type": "tuple"
            },
            {
              "internalType": "bool",
              "name": "dataStream",
              "type": "bool"
            },
            {
              "internalType": "bool",
              "name": "signed",
              "type": "bool"
            },
            {
              "components": [
                {
                  "internalType": "enum DataSharingAgreement.ViolationType",
                  "name": "violationType",
                  "type": "uint8"
                },
                {
                  "internalType": "string",
                  "name": "issuerId",
                  "type": "string"
                }
              ],
              "internalType": "struct DataSharingAgreement.Violation",
              "name": "violation",
              "type": "tuple"
            }
          ],
          "internalType": "struct DataSharingAgreement.Agreement[]",
          "name": "",
          "type": "tuple[]"
        }
      ],
      "stateMutability": "view",
      "type": "function"
    },
    {
      "inputs": [
        {
          "internalType": "string",
          "name": "_consumerId",
          "type": "string"
        }
      ],
      "name": "checkAgreementsByConsumer",
      "outputs": [
        {
          "components": [
            {
              "internalType": "uint256",
              "name": "dataOfferingId",
              "type": "uint256"
            },
            {
              "internalType": "string",
              "name": "purpose",
              "type": "string"
            },
            {
              "internalType": "enum DataSharingAgreement.State",
              "name": "state",
              "type": "uint8"
            },
            {
              "internalType": "string",
              "name": "providerId",
              "type": "string"
            },
            {
              "internalType": "string",
              "name": "consumerId",
              "type": "string"
            },
            {
              "internalType": "uint256[3]",
              "name": "agreementDates",
              "type": "uint256[3]"
            },
            {
              "components": [
                {
                  "internalType": "string",
                  "name": "dataType",
                  "type": "string"
                },
                {
                  "internalType": "string",
                  "name": "dataFormat",
                  "type": "string"
                },
                {
                  "internalType": "string",
                  "name": "dataSource",
                  "type": "string"
                }
              ],
              "internalType": "struct DataSharingAgreement.DescriptionOfData",
              "name": "descriptionOfData",
              "type": "tuple"
            },
            {
              "components": [
                {
                  "internalType": "bool",
                  "name": "processData",
                  "type": "bool"
                },
                {
                  "internalType": "bool",
                  "name": "shareDataWithThirdParty",
                  "type": "bool"
                },
                {
                  "internalType": "bool",
                  "name": "editData",
                  "type": "bool"
                }
              ],
              "internalType": "struct DataSharingAgreement.IntendedUse",
              "name": "intendedUse",
              "type": "tuple"
            },
            {
              "components": [
                {
                  "internalType": "bool",
                  "name": "copyData",
                  "type": "bool"
                },
                {
                  "internalType": "bool",
                  "name": "transferable",
                  "type": "bool"
                },
                {
                  "internalType": "bool",
                  "name": "exclusiveness",
                  "type": "bool"
                },
                {
                  "internalType": "bool",
                  "name": "revocable",
                  "type": "bool"
                }
              ],
              "internalType": "struct DataSharingAgreement.LicenseGrant",
              "name": "licenseGrant",
              "type": "tuple"
            },
            {
              "internalType": "bool",
              "name": "dataStream",
              "type": "bool"
            },
            {
              "internalType": "bool",
              "name": "signed",
              "type": "bool"
            },
            {
              "components": [
                {
                  "internalType": "enum DataSharingAgreement.ViolationType",
                  "name": "violationType",
                  "type": "uint8"
                },
                {
                  "internalType": "string",
                  "name": "issuerId",
                  "type": "string"
                }
              ],
              "internalType": "struct DataSharingAgreement.Violation",
              "name": "violation",
              "type": "tuple"
            }
          ],
          "internalType": "struct DataSharingAgreement.Agreement[]",
          "name": "",
          "type": "tuple[]"
        }
      ],
      "stateMutability": "view",
      "type": "function"
    },
    {
      "inputs": [
        {
          "internalType": "string",
          "name": "_providerId",
          "type": "string"
        }
      ],
      "name": "checkAgreementsByProvider",
      "outputs": [
        {
          "components": [
            {
              "internalType": "uint256",
              "name": "dataOfferingId",
              "type": "uint256"
            },
            {
              "internalType": "string",
              "name": "purpose",
              "type": "string"
            },
            {
              "internalType": "enum DataSharingAgreement.State",
              "name": "state",
              "type": "uint8"
            },
            {
              "internalType": "string",
              "name": "providerId",
              "type": "string"
            },
            {
              "internalType": "string",
              "name": "consumerId",
              "type": "string"
            },
            {
              "internalType": "uint256[3]",
              "name": "agreementDates",
              "type": "uint256[3]"
            },
            {
              "components": [
                {
                  "internalType": "string",
                  "name": "dataType",
                  "type": "string"
                },
                {
                  "internalType": "string",
                  "name": "dataFormat",
                  "type": "string"
                },
                {
                  "internalType": "string",
                  "name": "dataSource",
                  "type": "string"
                }
              ],
              "internalType": "struct DataSharingAgreement.DescriptionOfData",
              "name": "descriptionOfData",
              "type": "tuple"
            },
            {
              "components": [
                {
                  "internalType": "bool",
                  "name": "processData",
                  "type": "bool"
                },
                {
                  "internalType": "bool",
                  "name": "shareDataWithThirdParty",
                  "type": "bool"
                },
                {
                  "internalType": "bool",
                  "name": "editData",
                  "type": "bool"
                }
              ],
              "internalType": "struct DataSharingAgreement.IntendedUse",
              "name": "intendedUse",
              "type": "tuple"
            },
            {
              "components": [
                {
                  "internalType": "bool",
                  "name": "copyData",
                  "type": "bool"
                },
                {
                  "internalType": "bool",
                  "name": "transferable",
                  "type": "bool"
                },
                {
                  "internalType": "bool",
                  "name": "exclusiveness",
                  "type": "bool"
                },
                {
                  "internalType": "bool",
                  "name": "revocable",
                  "type": "bool"
                }
              ],
              "internalType": "struct DataSharingAgreement.LicenseGrant",
              "name": "licenseGrant",
              "type": "tuple"
            },
            {
              "internalType": "bool",
              "name": "dataStream",
              "type": "bool"
            },
            {
              "internalType": "bool",
              "name": "signed",
              "type": "bool"
            },
            {
              "components": [
                {
                  "internalType": "enum DataSharingAgreement.ViolationType",
                  "name": "violationType",
                  "type": "uint8"
                },
                {
                  "internalType": "string",
                  "name": "issuerId",
                  "type": "string"
                }
              ],
              "internalType": "struct DataSharingAgreement.Violation",
              "name": "violation",
              "type": "tuple"
            }
          ],
          "internalType": "struct DataSharingAgreement.Agreement[]",
          "name": "",
          "type": "tuple[]"
        }
      ],
      "stateMutability": "view",
      "type": "function"
    },
    {
      "inputs": [
        {
          "internalType": "uint256",
          "name": "_dataOfferingId",
          "type": "uint256"
        },
        {
          "internalType": "string",
          "name": "_purpose",
          "type": "string"
        },
        {
          "internalType": "string",
          "name": "_providerId",
          "type": "string"
        },
        {
          "internalType": "string",
          "name": "_consumerId",
          "type": "string"
        },
        {
          "internalType": "uint256[]",
          "name": "dates",
          "type": "uint256[]"
        },
        {
          "components": [
            {
              "internalType": "string",
              "name": "dataType",
              "type": "string"
            },
            {
              "internalType": "string",
              "name": "dataFormat",
              "type": "string"
            },
            {
              "internalType": "string",
              "name": "dataSource",
              "type": "string"
            }
          ],
          "internalType": "struct DataSharingAgreement.DescriptionOfData",
          "name": "descriptionOfData",
          "type": "tuple"
        },
        {
          "components": [
            {
              "internalType": "bool",
              "name": "processData",
              "type": "bool"
            },
            {
              "internalType": "bool",
              "name": "shareDataWithThirdParty",
              "type": "bool"
            },
            {
              "internalType": "bool",
              "name": "editData",
              "type": "bool"
            }
          ],
          "internalType": "struct DataSharingAgreement.IntendedUse",
          "name": "intendedUse",
          "type": "tuple"
        },
        {
          "components": [
            {
              "internalType": "bool",
              "name": "copyData",
              "type": "bool"
            },
            {
              "internalType": "bool",
              "name": "transferable",
              "type": "bool"
            },
            {
              "internalType": "bool",
              "name": "exclusiveness",
              "type": "bool"
            },
            {
              "internalType": "bool",
              "name": "revocable",
              "type": "bool"
            }
          ],
          "internalType": "struct DataSharingAgreement.LicenseGrant",
          "name": "licenseGrant",
          "type": "tuple"
        },
        {
          "internalType": "bool",
          "name": "_dataStream",
          "type": "bool"
        }
      ],
      "name": "createAgreement",
      "outputs": [],
      "stateMutability": "nonpayable",
      "type": "function"
    },
    {
      "inputs": [
        {
          "internalType": "uint256",
          "name": "id",
          "type": "uint256"
        }
      ],
      "name": "getAgreement",
      "outputs": [
        {
          "components": [
            {
              "internalType": "uint256",
              "name": "dataOfferingId",
              "type": "uint256"
            },
            {
              "internalType": "string",
              "name": "purpose",
              "type": "string"
            },
            {
              "internalType": "enum DataSharingAgreement.State",
              "name": "state",
              "type": "uint8"
            },
            {
              "internalType": "string",
              "name": "providerId",
              "type": "string"
            },
            {
              "internalType": "string",
              "name": "consumerId",
              "type": "string"
            },
            {
              "internalType": "uint256[3]",
              "name": "agreementDates",
              "type": "uint256[3]"
            },
            {
              "components": [
                {
                  "internalType": "string",
                  "name": "dataType",
                  "type": "string"
                },
                {
                  "internalType": "string",
                  "name": "dataFormat",
                  "type": "string"
                },
                {
                  "internalType": "string",
                  "name": "dataSource",
                  "type": "string"
                }
              ],
              "internalType": "struct DataSharingAgreement.DescriptionOfData",
              "name": "descriptionOfData",
              "type": "tuple"
            },
            {
              "components": [
                {
                  "internalType": "bool",
                  "name": "processData",
                  "type": "bool"
                },
                {
                  "internalType": "bool",
                  "name": "shareDataWithThirdParty",
                  "type": "bool"
                },
                {
                  "internalType": "bool",
                  "name": "editData",
                  "type": "bool"
                }
              ],
              "internalType": "struct DataSharingAgreement.IntendedUse",
              "name": "intendedUse",
              "type": "tuple"
            },
            {
              "components": [
                {
                  "internalType": "bool",
                  "name": "copyData",
                  "type": "bool"
                },
                {
                  "internalType": "bool",
                  "name": "transferable",
                  "type": "bool"
                },
                {
                  "internalType": "bool",
                  "name": "exclusiveness",
                  "type": "bool"
                },
                {
                  "internalType": "bool",
                  "name": "revocable",
                  "type": "bool"
                }
              ],
              "internalType": "struct DataSharingAgreement.LicenseGrant",
              "name": "licenseGrant",
              "type": "tuple"
            },
            {
              "internalType": "bool",
              "name": "dataStream",
              "type": "bool"
            },
            {
              "internalType": "bool",
              "name": "signed",
              "type": "bool"
            },
            {
              "components": [
                {
                  "internalType": "enum DataSharingAgreement.ViolationType",
                  "name": "violationType",
                  "type": "uint8"
                },
                {
                  "internalType": "string",
                  "name": "issuerId",
                  "type": "string"
                }
              ],
              "internalType": "struct DataSharingAgreement.Violation",
              "name": "violation",
              "type": "tuple"
            }
          ],
          "internalType": "struct DataSharingAgreement.Agreement",
          "name": "",
          "type": "tuple"
        }
      ],
      "stateMutability": "view",
      "type": "function"
    },
    {
      "inputs": [],
      "name": "getAgreements",
      "outputs": [
        {
          "components": [
            {
              "internalType": "uint256",
              "name": "dataOfferingId",
              "type": "uint256"
            },
            {
              "internalType": "string",
              "name": "purpose",
              "type": "string"
            },
            {
              "internalType": "enum DataSharingAgreement.State",
              "name": "state",
              "type": "uint8"
            },
            {
              "internalType": "string",
              "name": "providerId",
              "type": "string"
            },
            {
              "internalType": "string",
              "name": "consumerId",
              "type": "string"
            },
            {
              "internalType": "uint256[3]",
              "name": "agreementDates",
              "type": "uint256[3]"
            },
            {
              "components": [
                {
                  "internalType": "string",
                  "name": "dataType",
                  "type": "string"
                },
                {
                  "internalType": "string",
                  "name": "dataFormat",
                  "type": "string"
                },
                {
                  "internalType": "string",
                  "name": "dataSource",
                  "type": "string"
                }
              ],
              "internalType": "struct DataSharingAgreement.DescriptionOfData",
              "name": "descriptionOfData",
              "type": "tuple"
            },
            {
              "components": [
                {
                  "internalType": "bool",
                  "name": "processData",
                  "type": "bool"
                },
                {
                  "internalType": "bool",
                  "name": "shareDataWithThirdParty",
                  "type": "bool"
                },
                {
                  "internalType": "bool",
                  "name": "editData",
                  "type": "bool"
                }
              ],
              "internalType": "struct DataSharingAgreement.IntendedUse",
              "name": "intendedUse",
              "type": "tuple"
            },
            {
              "components": [
                {
                  "internalType": "bool",
                  "name": "copyData",
                  "type": "bool"
                },
                {
                  "internalType": "bool",
                  "name": "transferable",
                  "type": "bool"
                },
                {
                  "internalType": "bool",
                  "name": "exclusiveness",
                  "type": "bool"
                },
                {
                  "internalType": "bool",
                  "name": "revocable",
                  "type": "bool"
                }
              ],
              "internalType": "struct DataSharingAgreement.LicenseGrant",
              "name": "licenseGrant",
              "type": "tuple"
            },
            {
              "internalType": "bool",
              "name": "dataStream",
              "type": "bool"
            },
            {
              "internalType": "bool",
              "name": "signed",
              "type": "bool"
            },
            {
              "components": [
                {
                  "internalType": "enum DataSharingAgreement.ViolationType",
                  "name": "violationType",
                  "type": "uint8"
                },
                {
                  "internalType": "string",
                  "name": "issuerId",
                  "type": "string"
                }
              ],
              "internalType": "struct DataSharingAgreement.Violation",
              "name": "violation",
              "type": "tuple"
            }
          ],
          "internalType": "struct DataSharingAgreement.Agreement[]",
          "name": "",
          "type": "tuple[]"
        }
      ],
      "stateMutability": "view",
      "type": "function"
    },
    {
      "inputs": [],
      "name": "getAgreementsLength",
      "outputs": [
        {
          "internalType": "uint256",
          "name": "",
          "type": "uint256"
        }
      ],
      "stateMutability": "view",
      "type": "function"
    },
    {
      "inputs": [
        {
          "internalType": "uint256",
          "name": "id",
          "type": "uint256"
        }
      ],
      "name": "getState",
      "outputs": [
        {
          "internalType": "enum DataSharingAgreement.State",
          "name": "",
          "type": "uint8"
        }
      ],
      "stateMutability": "view",
      "type": "function"
    },
    {
      "inputs": [
        {
          "internalType": "uint256",
          "name": "id",
          "type": "uint256"
        },
        {
          "internalType": "string",
          "name": "_consumerId",
          "type": "string"
        }
      ],
      "name": "signAgreement",
      "outputs": [],
      "stateMutability": "nonpayable",
      "type": "function"
    },
    {
      "inputs": [
        {
          "internalType": "uint256",
          "name": "_id",
          "type": "uint256"
        },
        {
          "internalType": "uint256",
          "name": "_dataOfferingId",
          "type": "uint256"
        },
        {
          "internalType": "string",
          "name": "_purpose",
          "type": "string"
        },
        {
          "internalType": "string",
          "name": "_providerId",
          "type": "string"
        },
        {
          "internalType": "string",
          "name": "_consumerId",
          "type": "string"
        },
        {
          "internalType": "uint256[]",
          "name": "dates",
          "type": "uint256[]"
        },
        {
          "components": [
            {
              "internalType": "string",
              "name": "dataType",
              "type": "string"
            },
            {
              "internalType": "string",
              "name": "dataFormat",
              "type": "string"
            },
            {
              "internalType": "string",
              "name": "dataSource",
              "type": "string"
            }
          ],
          "internalType": "struct DataSharingAgreement.DescriptionOfData",
          "name": "descriptionOfData",
          "type": "tuple"
        },
        {
          "components": [
            {
              "internalType": "bool",
              "name": "processData",
              "type": "bool"
            },
            {
              "internalType": "bool",
              "name": "shareDataWithThirdParty",
              "type": "bool"
            },
            {
              "internalType": "bool",
              "name": "editData",
              "type": "bool"
            }
          ],
          "internalType": "struct DataSharingAgreement.IntendedUse",
          "name": "intendedUse",
          "type": "tuple"
        },
        {
          "components": [
            {
              "internalType": "bool",
              "name": "copyData",
              "type": "bool"
            },
            {
              "internalType": "bool",
              "name": "transferable",
              "type": "bool"
            },
            {
              "internalType": "bool",
              "name": "exclusiveness",
              "type": "bool"
            },
            {
              "internalType": "bool",
              "name": "revocable",
              "type": "bool"
            }
          ],
          "internalType": "struct DataSharingAgreement.LicenseGrant",
          "name": "licenseGrant",
          "type": "tuple"
        },
        {
          "internalType": "bool",
          "name": "_dataStream",
          "type": "bool"
        }
      ],
      "name": "updateAgreement",
      "outputs": [],
      "stateMutability": "nonpayable",
      "type": "function"
    }
  ],
  "transactionHash": "0x80cd6c8c5bdd101bb8e79d6d688791068a3c85d349d3f7cc21cfe67b06456004",
  "args": [],
  "solcInputHash": "955aa3a60339bae86d684d211e31ecfa",
  "bytecode": "0x608060405234801561001057600080fd5b50614ceb806100206000396000f3fe608060405234801561001057600080fd5b50600436106100a95760003560e01c80634f9f6fe6116100715780634f9f6fe614610166578063a630518914610196578063bd14de96146101b2578063cf7e9242146101ec578063d526c0301461020a578063e0f1a4271461023a576100a9565b8063063bd15a146100ae5780630bbaa621146100cc5780631c510ea9146100e857806344c9af28146101065780634d9af52814610136575b600080fd5b6100b6610256565b6040516100c39190613cd1565b60405180910390f35b6100e660048036038101906100e191906140fa565b610946565b005b6100f0610d25565b6040516100fd9190614274565b60405180910390f35b610120600480360381019061011b919061428f565b610d31565b60405161012d91906142cb565b60405180910390f35b610150600480360381019061014b91906142e6565b610d6c565b60405161015d9190613cd1565b60405180910390f35b610180600480360381019061017b919061428f565b611477565b60405161018d9190614451565b60405180910390f35b6101b060048036038101906101ab9190614473565b611aba565b005b6101cc60048036038101906101c7919061428f565b611be5565b6040516101e39b9a9998979695949392919061465a565b60405180910390f35b6101f4612176565b6040516102019190613cd1565b60405180910390f35b610224600480360381019061021f91906142e6565b6127dc565b6040516102319190613cd1565b60405180910390f35b610254600480360381019061024f9190614729565b612ee7565b005b6060806000805b60008054905081101561093d576001600381111561027e5761027d613871565b5b6000828154811061029257610291614880565b5b906000526020600020906010020160020160009054906101000a900460ff1660038111156102c3576102c2613871565b5b141561092a57600081815481106102dd576102dc614880565b5b90600052602060002090601002016040518061018001604052908160008201548152602001600182018054610311906148de565b80601f016020809104026020016040519081016040528092919081815260200182805461033d906148de565b801561038a5780601f1061035f5761010080835404028352916020019161038a565b820191906000526020600020905b81548152906001019060200180831161036d57829003601f168201915b505050505081526020016002820160009054906101000a900460ff1660038111156103b8576103b7613871565b5b60038111156103ca576103c9613871565b5b81526020016003820180546103de906148de565b80601f016020809104026020016040519081016040528092919081815260200182805461040a906148de565b80156104575780601f1061042c57610100808354040283529160200191610457565b820191906000526020600020905b81548152906001019060200180831161043a57829003601f168201915b50505050508152602001600482018054610470906148de565b80601f016020809104026020016040519081016040528092919081815260200182805461049c906148de565b80156104e95780601f106104be576101008083540402835291602001916104e9565b820191906000526020600020905b8154815290600101906020018083116104cc57829003601f168201915b505050505081526020016005820160038060200260405190810160405280929190826003801561052e576020028201915b81548152602001906001019080831161051a575b5050505050815260200160088201604051806060016040529081600082018054610557906148de565b80601f0160208091040260200160405190810160405280929190818152602001828054610583906148de565b80156105d05780601f106105a5576101008083540402835291602001916105d0565b820191906000526020600020905b8154815290600101906020018083116105b357829003601f168201915b505050505081526020016001820180546105e9906148de565b80601f0160208091040260200160405190810160405280929190818152602001828054610615906148de565b80156106625780601f1061063757610100808354040283529160200191610662565b820191906000526020600020905b81548152906001019060200180831161064557829003601f168201915b5050505050815260200160028201805461067b906148de565b80601f01602080910402602001604051908101604052809291908181526020018280546106a7906148de565b80156106f45780601f106106c9576101008083540402835291602001916106f4565b820191906000526020600020905b8154815290600101906020018083116106d757829003601f168201915b5050505050815250508152602001600b82016040518060600160405290816000820160009054906101000a900460ff161515151581526020016000820160019054906101000a900460ff161515151581526020016000820160029054906101000a900460ff1615151515815250508152602001600c82016040518060800160405290816000820160009054906101000a900460ff161515151581526020016000820160019054906101000a900460ff161515151581526020016000820160029054906101000a900460ff161515151581526020016000820160039054906101000a900460ff1615151515815250508152602001600d820160009054906101000a900460ff16151515158152602001600d820160019054906101000a900460ff16151515158152602001600e82016040518060400160405290816000820160009054906101000a900460ff16600581111561085157610850613871565b5b600581111561086357610862613871565b5b8152602001600182018054610877906148de565b80601f01602080910402602001604051908101604052809291908181526020018280546108a3906148de565b80156108f05780601f106108c5576101008083540402835291602001916108f0565b820191906000526020600020905b8154815290600101906020018083116108d357829003601f168201915b505050505081525050815250508383815181106109105761090f614880565b5b602002602001018190525081806109269061493f565b9250505b80806109359061493f565b91505061025d565b50819250505090565b6000808b8154811061095b5761095a614880565b5b906000526020600020906010020190508981600001819055508881600101908051906020019061098c929190613555565b50878160030190805190602001906109a5929190613555565b50868160040190805190602001906109be929190613555565b5042866000815181106109d4576109d3614880565b5b602002602001015111610a0f5760018160020160006101000a81548160ff02191690836003811115610a0957610a08613871565b5b02179055505b85600081518110610a2357610a22614880565b5b602002602001015181600501600160038110610a4257610a41614880565b5b018190555080600501600060038110610a5e57610a5d614880565b5b015486600181518110610a7457610a73614880565b5b602002602001015111610abc576040517f08c379a0000000000000000000000000000000000000000000000000000000008152600401610ab3906149fa565b60405180910390fd5b85600081518110610ad057610acf614880565b5b602002602001015186600181518110610aec57610aeb614880565b5b602002602001015111610b34576040517f08c379a0000000000000000000000000000000000000000000000000000000008152600401610b2b90614a8c565b60405180910390fd5b85600181518110610b4857610b47614880565b5b602002602001015181600501600260038110610b6757610b66614880565b5b01819055508460000151816008016000019080519060200190610b8b929190613555565b508460200151816008016001019080519060200190610bab929190613555565b508460400151816008016002019080519060200190610bcb929190613555565b50836000015181600b0160000160006101000a81548160ff021916908315150217905550836020015181600b0160000160016101000a81548160ff021916908315150217905550836040015181600b0160000160026101000a81548160ff021916908315150217905550826000015181600c0160000160006101000a81548160ff021916908315150217905550826020015181600c0160000160016101000a81548160ff021916908315150217905550826040015181600c0160000160026101000a81548160ff021916908315150217905550826060015181600c0160000160036101000a81548160ff0219169083151502179055508181600d0160006101000a81548160ff0219169083151502179055507fe45a4efc7be91ee38226641b8dfb0a53e062696831d4052b7b79903b7d39301188888d604051610d1093929190614aac565b60405180910390a15050505050505050505050565b60008080549050905090565b6000808281548110610d4657610d45614880565b5b906000526020600020906010020160020160009054906101000a900460ff169050919050565b6060806000805b60008054905081101561146c5784604051602001610d919190614b2d565b6040516020818303038152906040528051906020012060008281548110610dbb57610dba614880565b5b9060005260206000209060100201600301604051602001610ddc9190614bd8565b6040516020818303038152906040528051906020012014156114595760008181548110610e0c57610e0b614880565b5b90600052602060002090601002016040518061018001604052908160008201548152602001600182018054610e40906148de565b80601f0160208091040260200160405190810160405280929190818152602001828054610e6c906148de565b8015610eb95780601f10610e8e57610100808354040283529160200191610eb9565b820191906000526020600020905b815481529060010190602001808311610e9c57829003601f168201915b505050505081526020016002820160009054906101000a900460ff166003811115610ee757610ee6613871565b5b6003811115610ef957610ef8613871565b5b8152602001600382018054610f0d906148de565b80601f0160208091040260200160405190810160405280929190818152602001828054610f39906148de565b8015610f865780601f10610f5b57610100808354040283529160200191610f86565b820191906000526020600020905b815481529060010190602001808311610f6957829003601f168201915b50505050508152602001600482018054610f9f906148de565b80601f0160208091040260200160405190810160405280929190818152602001828054610fcb906148de565b80156110185780601f10610fed57610100808354040283529160200191611018565b820191906000526020600020905b815481529060010190602001808311610ffb57829003601f168201915b505050505081526020016005820160038060200260405190810160405280929190826003801561105d576020028201915b815481526020019060010190808311611049575b5050505050815260200160088201604051806060016040529081600082018054611086906148de565b80601f01602080910402602001604051908101604052809291908181526020018280546110b2906148de565b80156110ff5780601f106110d4576101008083540402835291602001916110ff565b820191906000526020600020905b8154815290600101906020018083116110e257829003601f168201915b50505050508152602001600182018054611118906148de565b80601f0160208091040260200160405190810160405280929190818152602001828054611144906148de565b80156111915780601f1061116657610100808354040283529160200191611191565b820191906000526020600020905b81548152906001019060200180831161117457829003601f168201915b505050505081526020016002820180546111aa906148de565b80601f01602080910402602001604051908101604052809291908181526020018280546111d6906148de565b80156112235780601f106111f857610100808354040283529160200191611223565b820191906000526020600020905b81548152906001019060200180831161120657829003601f168201915b5050505050815250508152602001600b82016040518060600160405290816000820160009054906101000a900460ff161515151581526020016000820160019054906101000a900460ff161515151581526020016000820160029054906101000a900460ff1615151515815250508152602001600c82016040518060800160405290816000820160009054906101000a900460ff161515151581526020016000820160019054906101000a900460ff161515151581526020016000820160029054906101000a900460ff161515151581526020016000820160039054906101000a900460ff1615151515815250508152602001600d820160009054906101000a900460ff16151515158152602001600d820160019054906101000a900460ff16151515158152602001600e82016040518060400160405290816000820160009054906101000a900460ff1660058111156113805761137f613871565b5b600581111561139257611391613871565b5b81526020016001820180546113a6906148de565b80601f01602080910402602001604051908101604052809291908181526020018280546113d2906148de565b801561141f5780601f106113f45761010080835404028352916020019161141f565b820191906000526020600020905b81548152906001019060200180831161140257829003601f168201915b5050505050815250508152505083838151811061143f5761143e614880565b5b602002602001018190525081806114559061493f565b9250505b80806114649061493f565b915050610d73565b508192505050919050565b61147f6135db565b6000828154811061149357611492614880565b5b906000526020600020906010020160405180610180016040529081600082015481526020016001820180546114c7906148de565b80601f01602080910402602001604051908101604052809291908181526020018280546114f3906148de565b80156115405780601f1061151557610100808354040283529160200191611540565b820191906000526020600020905b81548152906001019060200180831161152357829003601f168201915b505050505081526020016002820160009054906101000a900460ff16600381111561156e5761156d613871565b5b60038111156115805761157f613871565b5b8152602001600382018054611594906148de565b80601f01602080910402602001604051908101604052809291908181526020018280546115c0906148de565b801561160d5780601f106115e25761010080835404028352916020019161160d565b820191906000526020600020905b8154815290600101906020018083116115f057829003601f168201915b50505050508152602001600482018054611626906148de565b80601f0160208091040260200160405190810160405280929190818152602001828054611652906148de565b801561169f5780601f106116745761010080835404028352916020019161169f565b820191906000526020600020905b81548152906001019060200180831161168257829003601f168201915b50505050508152602001600582016003806020026040519081016040528092919082600380156116e4576020028201915b8154815260200190600101908083116116d0575b505050505081526020016008820160405180606001604052908160008201805461170d906148de565b80601f0160208091040260200160405190810160405280929190818152602001828054611739906148de565b80156117865780601f1061175b57610100808354040283529160200191611786565b820191906000526020600020905b81548152906001019060200180831161176957829003601f168201915b5050505050815260200160018201805461179f906148de565b80601f01602080910402602001604051908101604052809291908181526020018280546117cb906148de565b80156118185780601f106117ed57610100808354040283529160200191611818565b820191906000526020600020905b8154815290600101906020018083116117fb57829003601f168201915b50505050508152602001600282018054611831906148de565b80601f016020809104026020016040519081016040528092919081815260200182805461185d906148de565b80156118aa5780601f1061187f576101008083540402835291602001916118aa565b820191906000526020600020905b81548152906001019060200180831161188d57829003601f168201915b5050505050815250508152602001600b82016040518060600160405290816000820160009054906101000a900460ff161515151581526020016000820160019054906101000a900460ff161515151581526020016000820160029054906101000a900460ff1615151515815250508152602001600c82016040518060800160405290816000820160009054906101000a900460ff161515151581526020016000820160019054906101000a900460ff161515151581526020016000820160029054906101000a900460ff161515151581526020016000820160039054906101000a900460ff1615151515815250508152602001600d820160009054906101000a900460ff16151515158152602001600d820160019054906101000a900460ff16151515158152602001600e82016040518060400160405290816000820160009054906101000a900460ff166005811115611a0757611a06613871565b5b6005811115611a1957611a18613871565b5b8152602001600182018054611a2d906148de565b80601f0160208091040260200160405190810160405280929190818152602001828054611a59906148de565b8015611aa65780601f10611a7b57610100808354040283529160200191611aa6565b820191906000526020600020905b815481529060010190602001808311611a8957829003601f168201915b505050505081525050815250509050919050565b80604051602001611acb9190614b2d565b6040516020818303038152906040528051906020012060008381548110611af557611af4614880565b5b9060005260206000209060100201600401604051602001611b169190614bd8565b6040516020818303038152906040528051906020012014611b6c576040517f08c379a0000000000000000000000000000000000000000000000000000000008152600401611b6390614c61565b60405180910390fd5b600160008381548110611b8257611b81614880565b5b9060005260206000209060100201600d0160016101000a81548160ff0219169083151502179055507fe128256da5d46f76aecc0d0cc60c2dbe58656f40c7cbd375a9115d2b6520201282604051611bd99190614274565b60405180910390a15050565b60008181548110611bf557600080fd5b9060005260206000209060100201600091509050806000015490806001018054611c1e906148de565b80601f0160208091040260200160405190810160405280929190818152602001828054611c4a906148de565b8015611c975780601f10611c6c57610100808354040283529160200191611c97565b820191906000526020600020905b815481529060010190602001808311611c7a57829003601f168201915b5050505050908060020160009054906101000a900460ff1690806003018054611cbf906148de565b80601f0160208091040260200160405190810160405280929190818152602001828054611ceb906148de565b8015611d385780601f10611d0d57610100808354040283529160200191611d38565b820191906000526020600020905b815481529060010190602001808311611d1b57829003601f168201915b505050505090806004018054611d4d906148de565b80601f0160208091040260200160405190810160405280929190818152602001828054611d79906148de565b8015611dc65780601f10611d9b57610100808354040283529160200191611dc6565b820191906000526020600020905b815481529060010190602001808311611da957829003601f168201915b50505050509080600801604051806060016040529081600082018054611deb906148de565b80601f0160208091040260200160405190810160405280929190818152602001828054611e17906148de565b8015611e645780601f10611e3957610100808354040283529160200191611e64565b820191906000526020600020905b815481529060010190602001808311611e4757829003601f168201915b50505050508152602001600182018054611e7d906148de565b80601f0160208091040260200160405190810160405280929190818152602001828054611ea9906148de565b8015611ef65780601f10611ecb57610100808354040283529160200191611ef6565b820191906000526020600020905b815481529060010190602001808311611ed957829003601f168201915b50505050508152602001600282018054611f0f906148de565b80601f0160208091040260200160405190810160405280929190818152602001828054611f3b906148de565b8015611f885780601f10611f5d57610100808354040283529160200191611f88565b820191906000526020600020905b815481529060010190602001808311611f6b57829003601f168201915b5050505050815250509080600b016040518060600160405290816000820160009054906101000a900460ff161515151581526020016000820160019054906101000a900460ff161515151581526020016000820160029054906101000a900460ff1615151515815250509080600c016040518060800160405290816000820160009054906101000a900460ff161515151581526020016000820160019054906101000a900460ff161515151581526020016000820160029054906101000a900460ff161515151581526020016000820160039054906101000a900460ff1615151515815250509080600d0160009054906101000a900460ff169080600d0160019054906101000a900460ff169080600e016040518060400160405290816000820160009054906101000a900460ff1660058111156120c9576120c8613871565b5b60058111156120db576120da613871565b5b81526020016001820180546120ef906148de565b80601f016020809104026020016040519081016040528092919081815260200182805461211b906148de565b80156121685780601f1061213d57610100808354040283529160200191612168565b820191906000526020600020905b81548152906001019060200180831161214b57829003601f168201915b50505050508152505090508b565b60606000805480602002602001604051908101604052809291908181526020016000905b828210156127d3578382906000526020600020906010020160405180610180016040529081600082015481526020016001820180546121d8906148de565b80601f0160208091040260200160405190810160405280929190818152602001828054612204906148de565b80156122515780601f1061222657610100808354040283529160200191612251565b820191906000526020600020905b81548152906001019060200180831161223457829003601f168201915b505050505081526020016002820160009054906101000a900460ff16600381111561227f5761227e613871565b5b600381111561229157612290613871565b5b81526020016003820180546122a5906148de565b80601f01602080910402602001604051908101604052809291908181526020018280546122d1906148de565b801561231e5780601f106122f35761010080835404028352916020019161231e565b820191906000526020600020905b81548152906001019060200180831161230157829003601f168201915b50505050508152602001600482018054612337906148de565b80601f0160208091040260200160405190810160405280929190818152602001828054612363906148de565b80156123b05780601f10612385576101008083540402835291602001916123b0565b820191906000526020600020905b81548152906001019060200180831161239357829003601f168201915b50505050508152602001600582016003806020026040519081016040528092919082600380156123f5576020028201915b8154815260200190600101908083116123e1575b505050505081526020016008820160405180606001604052908160008201805461241e906148de565b80601f016020809104026020016040519081016040528092919081815260200182805461244a906148de565b80156124975780601f1061246c57610100808354040283529160200191612497565b820191906000526020600020905b81548152906001019060200180831161247a57829003601f168201915b505050505081526020016001820180546124b0906148de565b80601f01602080910402602001604051908101604052809291908181526020018280546124dc906148de565b80156125295780601f106124fe57610100808354040283529160200191612529565b820191906000526020600020905b81548152906001019060200180831161250c57829003601f168201915b50505050508152602001600282018054612542906148de565b80601f016020809104026020016040519081016040528092919081815260200182805461256e906148de565b80156125bb5780601f10612590576101008083540402835291602001916125bb565b820191906000526020600020905b81548152906001019060200180831161259e57829003601f168201915b5050505050815250508152602001600b82016040518060600160405290816000820160009054906101000a900460ff161515151581526020016000820160019054906101000a900460ff161515151581526020016000820160029054906101000a900460ff1615151515815250508152602001600c82016040518060800160405290816000820160009054906101000a900460ff161515151581526020016000820160019054906101000a900460ff161515151581526020016000820160029054906101000a900460ff161515151581526020016000820160039054906101000a900460ff1615151515815250508152602001600d820160009054906101000a900460ff16151515158152602001600d820160019054906101000a900460ff16151515158152602001600e82016040518060400160405290816000820160009054906101000a900460ff16600581111561271857612717613871565b5b600581111561272a57612729613871565b5b815260200160018201805461273e906148de565b80601f016020809104026020016040519081016040528092919081815260200182805461276a906148de565b80156127b75780601f1061278c576101008083540402835291602001916127b7565b820191906000526020600020905b81548152906001019060200180831161279a57829003601f168201915b505050505081525050815250508152602001906001019061219a565b50505050905090565b6060806000805b600080549050811015612edc57846040516020016128019190614b2d565b604051602081830303815290604052805190602001206000828154811061282b5761282a614880565b5b906000526020600020906010020160040160405160200161284c9190614bd8565b604051602081830303815290604052805190602001201415612ec9576000818154811061287c5761287b614880565b5b906000526020600020906010020160405180610180016040529081600082015481526020016001820180546128b0906148de565b80601f01602080910402602001604051908101604052809291908181526020018280546128dc906148de565b80156129295780601f106128fe57610100808354040283529160200191612929565b820191906000526020600020905b81548152906001019060200180831161290c57829003601f168201915b505050505081526020016002820160009054906101000a900460ff16600381111561295757612956613871565b5b600381111561296957612968613871565b5b815260200160038201805461297d906148de565b80601f01602080910402602001604051908101604052809291908181526020018280546129a9906148de565b80156129f65780601f106129cb576101008083540402835291602001916129f6565b820191906000526020600020905b8154815290600101906020018083116129d957829003601f168201915b50505050508152602001600482018054612a0f906148de565b80601f0160208091040260200160405190810160405280929190818152602001828054612a3b906148de565b8015612a885780601f10612a5d57610100808354040283529160200191612a88565b820191906000526020600020905b815481529060010190602001808311612a6b57829003601f168201915b5050505050815260200160058201600380602002604051908101604052809291908260038015612acd576020028201915b815481526020019060010190808311612ab9575b5050505050815260200160088201604051806060016040529081600082018054612af6906148de565b80601f0160208091040260200160405190810160405280929190818152602001828054612b22906148de565b8015612b6f5780601f10612b4457610100808354040283529160200191612b6f565b820191906000526020600020905b815481529060010190602001808311612b5257829003601f168201915b50505050508152602001600182018054612b88906148de565b80601f0160208091040260200160405190810160405280929190818152602001828054612bb4906148de565b8015612c015780601f10612bd657610100808354040283529160200191612c01565b820191906000526020600020905b815481529060010190602001808311612be457829003601f168201915b50505050508152602001600282018054612c1a906148de565b80601f0160208091040260200160405190810160405280929190818152602001828054612c46906148de565b8015612c935780601f10612c6857610100808354040283529160200191612c93565b820191906000526020600020905b815481529060010190602001808311612c7657829003601f168201915b5050505050815250508152602001600b82016040518060600160405290816000820160009054906101000a900460ff161515151581526020016000820160019054906101000a900460ff161515151581526020016000820160029054906101000a900460ff1615151515815250508152602001600c82016040518060800160405290816000820160009054906101000a900460ff161515151581526020016000820160019054906101000a900460ff161515151581526020016000820160029054906101000a900460ff161515151581526020016000820160039054906101000a900460ff1615151515815250508152602001600d820160009054906101000a900460ff16151515158152602001600d820160019054906101000a900460ff16151515158152602001600e82016040518060400160405290816000820160009054906101000a900460ff166005811115612df057612def613871565b5b6005811115612e0257612e01613871565b5b8152602001600182018054612e16906148de565b80601f0160208091040260200160405190810160405280929190818152602001828054612e42906148de565b8015612e8f5780601f10612e6457610100808354040283529160200191612e8f565b820191906000526020600020905b815481529060010190602001808311612e7257829003601f168201915b50505050508152505081525050838381518110612eaf57612eae614880565b5b60200260200101819052508180612ec59061493f565b9250505b8080612ed49061493f565b9150506127e3565b508192505050919050565b612eef6135db565b89816000018181525050888160200181905250878160600181905250868160800181905250600081604001906003811115612f2d57612f2c613871565b5b90816003811115612f4157612f40613871565b5b81525050428160a00151600060038110612f5e57612f5d614880565b5b6020020181815250508060a00151600060038110612f7f57612f7e614880565b5b602002015186600081518110612f9857612f97614880565b5b602002602001015111612fd757600181604001906003811115612fbe57612fbd613871565b5b90816003811115612fd257612fd1613871565b5b815250505b85600081518110612feb57612fea614880565b5b60200260200101518160a0015160016003811061300b5761300a614880565b5b6020020181815250508060a0015160006003811061302c5761302b614880565b5b60200201518660018151811061304557613044614880565b5b60200260200101511161308d576040517f08c379a0000000000000000000000000000000000000000000000000000000008152600401613084906149fa565b60405180910390fd5b856000815181106130a1576130a0614880565b5b6020026020010151866001815181106130bd576130bc614880565b5b602002602001015111613105576040517f08c379a00000000000000000000000000000000000000000000000000000000081526004016130fc90614a8c565b60405180910390fd5b8560018151811061311957613118614880565b5b60200260200101518160a0015160026003811061313957613138614880565b5b60200201818152505084600001518160c001516000018190525084602001518160c001516020018190525084604001518160c001516040018190525083600001518160e00151600001901515908115158152505083602001518160e00151602001901515908115158152505083604001518160e0015160400190151590811515815250508260000151816101000151600001901515908115158152505082602001518161010001516020019015159081151581525050826040015181610100015160400190151590811515815250508260600151816101000151606001901515908115158152505081816101200190151590811515815250506000819080600181540180825580915050600190039060005260206000209060100201600090919091909150600082015181600001556020820151816001019080519060200190613284929190613555565b5060408201518160020160006101000a81548160ff021916908360038111156132b0576132af613871565b5b021790555060608201518160030190805190602001906132d1929190613555565b5060808201518160040190805190602001906132ee929190613555565b5060a082015181600501906003613306929190613670565b5060c082015181600801600082015181600001908051906020019061332c929190613555565b506020820151816001019080519060200190613349929190613555565b506040820151816002019080519060200190613366929190613555565b50505060e082015181600b0160008201518160000160006101000a81548160ff02191690831515021790555060208201518160000160016101000a81548160ff02191690831515021790555060408201518160000160026101000a81548160ff021916908315150217905550505061010082015181600c0160008201518160000160006101000a81548160ff02191690831515021790555060208201518160000160016101000a81548160ff02191690831515021790555060408201518160000160026101000a81548160ff02191690831515021790555060608201518160000160036101000a81548160ff021916908315150217905550505061012082015181600d0160006101000a81548160ff02191690831515021790555061014082015181600d0160016101000a81548160ff02191690831515021790555061016082015181600e0160008201518160000160006101000a81548160ff021916908360058111156134d7576134d6613871565b5b021790555060208201518160010190805190602001906134f8929190613555565b50505050507f6435418332f1be3deea10416eedb87e64daa2a2b4a284b051f39244cc3a0dfa6888860016000805490506135329190614c81565b60405161354193929190614aac565b60405180910390a150505050505050505050565b828054613561906148de565b90600052602060002090601f01602090048101928261358357600085556135ca565b82601f1061359c57805160ff19168380011785556135ca565b828001600101855582156135ca579182015b828111156135c95782518255916020019190600101906135ae565b5b5090506135d791906136b0565b5090565b60405180610180016040528060008152602001606081526020016000600381111561360957613608613871565b5b815260200160608152602001606081526020016136246136cd565b81526020016136316136ef565b815260200161363e613710565b815260200161364b613737565b815260200160001515815260200160001515815260200161366a613767565b81525090565b826003810192821561369f579160200282015b8281111561369e578251825591602001919060010190613683565b5b5090506136ac91906136b0565b5090565b5b808211156136c95760008160009055506001016136b1565b5090565b6040518060600160405280600390602082028036833780820191505090505090565b60405180606001604052806060815260200160608152602001606081525090565b60405180606001604052806000151581526020016000151581526020016000151581525090565b60405180608001604052806000151581526020016000151581526020016000151581526020016000151581525090565b60405180604001604052806000600581111561378657613785613871565b5b8152602001606081525090565b600081519050919050565b600082825260208201905092915050565b6000819050602082019050919050565b6000819050919050565b6137d2816137bf565b82525050565b600081519050919050565b600082825260208201905092915050565b60005b838110156138125780820151818401526020810190506137f7565b83811115613821576000848401525b50505050565b6000601f19601f8301169050919050565b6000613843826137d8565b61384d81856137e3565b935061385d8185602086016137f4565b61386681613827565b840191505092915050565b7f4e487b7100000000000000000000000000000000000000000000000000000000600052602160045260246000fd5b600481106138b1576138b0613871565b5b50565b60008190506138c2826138a0565b919050565b60006138d2826138b4565b9050919050565b6138e2816138c7565b82525050565b600060039050919050565b600081905092915050565b6000819050919050565b600061391483836137c9565b60208301905092915050565b6000602082019050919050565b613936816138e8565b61394081846138f3565b925061394b826138fe565b8060005b8381101561397c5781516139638782613908565b965061396e83613920565b92505060018101905061394f565b505050505050565b600060608301600083015184820360008601526139a18282613838565b915050602083015184820360208601526139bb8282613838565b915050604083015184820360408601526139d58282613838565b9150508091505092915050565b60008115159050919050565b6139f7816139e2565b82525050565b606082016000820151613a1360008501826139ee565b506020820151613a2660208501826139ee565b506040820151613a3960408501826139ee565b50505050565b608082016000820151613a5560008501826139ee565b506020820151613a6860208501826139ee565b506040820151613a7b60408501826139ee565b506060820151613a8e60608501826139ee565b50505050565b60068110613aa557613aa4613871565b5b50565b6000819050613ab682613a94565b919050565b6000613ac682613aa8565b9050919050565b613ad681613abb565b82525050565b6000604083016000830151613af46000860182613acd565b5060208301518482036020860152613b0c8282613838565b9150508091505092915050565b600061026083016000830151613b3260008601826137c9565b5060208301518482036020860152613b4a8282613838565b9150506040830151613b5f60408601826138d9565b5060608301518482036060860152613b778282613838565b91505060808301518482036080860152613b918282613838565b91505060a0830151613ba660a086018261392d565b5060c0830151848203610100860152613bbf8282613984565b91505060e0830151613bd56101208601826139fd565b50610100830151613bea610180860182613a3f565b50610120830151613bff6102008601826139ee565b50610140830151613c146102208601826139ee565b50610160830151848203610240860152613c2e8282613adc565b9150508091505092915050565b6000613c478383613b19565b905092915050565b6000602082019050919050565b6000613c6782613793565b613c71818561379e565b935083602082028501613c83856137af565b8060005b85811015613cbf5784840389528151613ca08582613c3b565b9450613cab83613c4f565b925060208a01995050600181019050613c87565b50829750879550505050505092915050565b60006020820190508181036000830152613ceb8184613c5c565b905092915050565b6000604051905090565b600080fd5b600080fd5b613d10816137bf565b8114613d1b57600080fd5b50565b600081359050613d2d81613d07565b92915050565b600080fd5b600080fd5b7f4e487b7100000000000000000000000000000000000000000000000000000000600052604160045260246000fd5b613d7582613827565b810181811067ffffffffffffffff82111715613d9457613d93613d3d565b5b80604052505050565b6000613da7613cf3565b9050613db38282613d6c565b919050565b600067ffffffffffffffff821115613dd357613dd2613d3d565b5b613ddc82613827565b9050602081019050919050565b82818337600083830152505050565b6000613e0b613e0684613db8565b613d9d565b905082815260208101848484011115613e2757613e26613d38565b5b613e32848285613de9565b509392505050565b600082601f830112613e4f57613e4e613d33565b5b8135613e5f848260208601613df8565b91505092915050565b600067ffffffffffffffff821115613e8357613e82613d3d565b5b602082029050602081019050919050565b600080fd5b6000613eac613ea784613e68565b613d9d565b90508083825260208201905060208402830185811115613ecf57613ece613e94565b5b835b81811015613ef85780613ee48882613d1e565b845260208401935050602081019050613ed1565b5050509392505050565b600082601f830112613f1757613f16613d33565b5b8135613f27848260208601613e99565b91505092915050565b600080fd5b600080fd5b600060608284031215613f5057613f4f613f30565b5b613f5a6060613d9d565b9050600082013567ffffffffffffffff811115613f7a57613f79613f35565b5b613f8684828501613e3a565b600083015250602082013567ffffffffffffffff811115613faa57613fa9613f35565b5b613fb684828501613e3a565b602083015250604082013567ffffffffffffffff811115613fda57613fd9613f35565b5b613fe684828501613e3a565b60408301525092915050565b613ffb816139e2565b811461400657600080fd5b50565b60008135905061401881613ff2565b92915050565b60006060828403121561403457614033613f30565b5b61403e6060613d9d565b9050600061404e84828501614009565b600083015250602061406284828501614009565b602083015250604061407684828501614009565b60408301525092915050565b60006080828403121561409857614097613f30565b5b6140a26080613d9d565b905060006140b284828501614009565b60008301525060206140c684828501614009565b60208301525060406140da84828501614009565b60408301525060606140ee84828501614009565b60608301525092915050565b6000806000806000806000806000806101e08b8d03121561411e5761411d613cfd565b5b600061412c8d828e01613d1e565b9a5050602061413d8d828e01613d1e565b99505060408b013567ffffffffffffffff81111561415e5761415d613d02565b5b61416a8d828e01613e3a565b98505060608b013567ffffffffffffffff81111561418b5761418a613d02565b5b6141978d828e01613e3a565b97505060808b013567ffffffffffffffff8111156141b8576141b7613d02565b5b6141c48d828e01613e3a565b96505060a08b013567ffffffffffffffff8111156141e5576141e4613d02565b5b6141f18d828e01613f02565b95505060c08b013567ffffffffffffffff81111561421257614211613d02565b5b61421e8d828e01613f3a565b94505060e061422f8d828e0161401e565b9350506101406142418d828e01614082565b9250506101c06142538d828e01614009565b9150509295989b9194979a5092959850565b61426e816137bf565b82525050565b60006020820190506142896000830184614265565b92915050565b6000602082840312156142a5576142a4613cfd565b5b60006142b384828501613d1e565b91505092915050565b6142c5816138c7565b82525050565b60006020820190506142e060008301846142bc565b92915050565b6000602082840312156142fc576142fb613cfd565b5b600082013567ffffffffffffffff81111561431a57614319613d02565b5b61432684828501613e3a565b91505092915050565b60006102608301600083015161434860008601826137c9565b50602083015184820360208601526143608282613838565b915050604083015161437560408601826138d9565b506060830151848203606086015261438d8282613838565b915050608083015184820360808601526143a78282613838565b91505060a08301516143bc60a086018261392d565b5060c08301518482036101008601526143d58282613984565b91505060e08301516143eb6101208601826139fd565b50610100830151614400610180860182613a3f565b506101208301516144156102008601826139ee565b5061014083015161442a6102208601826139ee565b506101608301518482036102408601526144448282613adc565b9150508091505092915050565b6000602082019050818103600083015261446b818461432f565b905092915050565b6000806040838503121561448a57614489613cfd565b5b600061449885828601613d1e565b925050602083013567ffffffffffffffff8111156144b9576144b8613d02565b5b6144c585828601613e3a565b9150509250929050565b600082825260208201905092915050565b60006144eb826137d8565b6144f581856144cf565b93506145058185602086016137f4565b61450e81613827565b840191505092915050565b600060608301600083015184820360008601526145368282613838565b915050602083015184820360208601526145508282613838565b9150506040830151848203604086015261456a8282613838565b9150508091505092915050565b60608201600082015161458d60008501826139ee565b5060208201516145a060208501826139ee565b5060408201516145b360408501826139ee565b50505050565b6080820160008201516145cf60008501826139ee565b5060208201516145e260208501826139ee565b5060408201516145f560408501826139ee565b50606082015161460860608501826139ee565b50505050565b614617816139e2565b82525050565b60006040830160008301516146356000860182613acd565b506020830151848203602086015261464d8282613838565b9150508091505092915050565b600061020082019050614670600083018e614265565b8181036020830152614682818d6144e0565b9050614691604083018c6142bc565b81810360608301526146a3818b6144e0565b905081810360808301526146b7818a6144e0565b905081810360a08301526146cb8189614519565b90506146da60c0830188614577565b6146e86101208301876145b9565b6146f66101a083018661460e565b6147046101c083018561460e565b8181036101e0830152614717818461461d565b90509c9b505050505050505050505050565b60008060008060008060008060006101c08a8c03121561474c5761474b613cfd565b5b600061475a8c828d01613d1e565b99505060208a013567ffffffffffffffff81111561477b5761477a613d02565b5b6147878c828d01613e3a565b98505060408a013567ffffffffffffffff8111156147a8576147a7613d02565b5b6147b48c828d01613e3a565b97505060608a013567ffffffffffffffff8111156147d5576147d4613d02565b5b6147e18c828d01613e3a565b96505060808a013567ffffffffffffffff81111561480257614801613d02565b5b61480e8c828d01613f02565b95505060a08a013567ffffffffffffffff81111561482f5761482e613d02565b5b61483b8c828d01613f3a565b94505060c061484c8c828d0161401e565b93505061012061485e8c828d01614082565b9250506101a06148708c828d01614009565b9150509295985092959850929598565b7f4e487b7100000000000000000000000000000000000000000000000000000000600052603260045260246000fd5b7f4e487b7100000000000000000000000000000000000000000000000000000000600052602260045260246000fd5b600060028204905060018216806148f657607f821691505b6020821081141561490a576149096148af565b5b50919050565b7f4e487b7100000000000000000000000000000000000000000000000000000000600052601160045260246000fd5b600061494a826137bf565b91507fffffffffffffffffffffffffffffffffffffffffffffffffffffffffffffffff82141561497d5761497c614910565b5b600182019050919050565b7f456e642064617465206d757374206265206166746572206372656174696f6e2060008201527f646174652e000000000000000000000000000000000000000000000000000000602082015250565b60006149e46025836144cf565b91506149ef82614988565b604082019050919050565b60006020820190508181036000830152614a13816149d7565b9050919050565b7f456e642064617465206d7573742062652061667465722073746172742064617460008201527f652e000000000000000000000000000000000000000000000000000000000000602082015250565b6000614a766022836144cf565b9150614a8182614a1a565b604082019050919050565b60006020820190508181036000830152614aa581614a69565b9050919050565b60006060820190508181036000830152614ac681866144e0565b90508181036020830152614ada81856144e0565b9050614ae96040830184614265565b949350505050565b600081905092915050565b6000614b07826137d8565b614b118185614af1565b9350614b218185602086016137f4565b80840191505092915050565b6000614b398284614afc565b915081905092915050565b60008190508160005260206000209050919050565b60008154614b66816148de565b614b708186614af1565b94506001821660008114614b8b5760018114614b9c57614bcf565b60ff19831686528186019350614bcf565b614ba585614b44565b60005b83811015614bc757815481890152600182019150602081019050614ba8565b838801955050505b50505092915050565b6000614be48284614b59565b915081905092915050565b7f4f6e6c792074686520636f6e73756d6572206f6620746869732061677265656d60008201527f656e742063616e207369676e2e00000000000000000000000000000000000000602082015250565b6000614c4b602d836144cf565b9150614c5682614bef565b604082019050919050565b60006020820190508181036000830152614c7a81614c3e565b9050919050565b6000614c8c826137bf565b9150614c97836137bf565b925082821015614caa57614ca9614910565b5b82820390509291505056fea2646970667358221220130805b75a1150e8251ea508863512034d661d195b61ddb73be3bf8fb6392ac364736f6c63430008090033",
  "devdoc": {
    "kind": "dev",
    "methods": {},
    "version": 1
  },
  "userdoc": {
    "kind": "user",
    "methods": {},
    "version": 1
  },
  "storageLayout": {
    "storage": [
      {
        "astId": 78,
        "contract": "contracts/Agreement-toDeploy.sol:DataSharingAgreement",
        "label": "agreements",
        "offset": 0,
        "slot": "0",
        "type": "t_array(t_struct(Agreement)45_storage)dyn_storage"
      }
    ],
    "types": {
      "t_array(t_struct(Agreement)45_storage)dyn_storage": {
        "base": "t_struct(Agreement)45_storage",
        "encoding": "dynamic_array",
        "label": "struct DataSharingAgreement.Agreement[]",
        "numberOfBytes": "32"
      },
      "t_array(t_uint256)3_storage": {
        "base": "t_uint256",
        "encoding": "inplace",
        "label": "uint256[3]",
        "numberOfBytes": "96"
      },
      "t_bool": {
        "encoding": "inplace",
        "label": "bool",
        "numberOfBytes": "1"
      },
      "t_enum(State)6": {
        "encoding": "inplace",
        "label": "enum DataSharingAgreement.State",
        "numberOfBytes": "1"
      },
      "t_enum(ViolationType)13": {
        "encoding": "inplace",
        "label": "enum DataSharingAgreement.ViolationType",
        "numberOfBytes": "1"
      },
      "t_string_storage": {
        "encoding": "bytes",
        "label": "string",
        "numberOfBytes": "32"
      },
      "t_struct(Agreement)45_storage": {
        "encoding": "inplace",
        "label": "struct DataSharingAgreement.Agreement",
        "members": [
          {
            "astId": 15,
            "contract": "contracts/Agreement-toDeploy.sol:DataSharingAgreement",
            "label": "dataOfferingId",
            "offset": 0,
            "slot": "0",
            "type": "t_uint256"
          },
          {
            "astId": 17,
            "contract": "contracts/Agreement-toDeploy.sol:DataSharingAgreement",
            "label": "purpose",
            "offset": 0,
            "slot": "1",
            "type": "t_string_storage"
          },
          {
            "astId": 20,
            "contract": "contracts/Agreement-toDeploy.sol:DataSharingAgreement",
            "label": "state",
            "offset": 0,
            "slot": "2",
            "type": "t_enum(State)6"
          },
          {
            "astId": 22,
            "contract": "contracts/Agreement-toDeploy.sol:DataSharingAgreement",
            "label": "providerId",
            "offset": 0,
            "slot": "3",
            "type": "t_string_storage"
          },
          {
            "astId": 24,
            "contract": "contracts/Agreement-toDeploy.sol:DataSharingAgreement",
            "label": "consumerId",
            "offset": 0,
            "slot": "4",
            "type": "t_string_storage"
          },
          {
            "astId": 28,
            "contract": "contracts/Agreement-toDeploy.sol:DataSharingAgreement",
            "label": "agreementDates",
            "offset": 0,
            "slot": "5",
            "type": "t_array(t_uint256)3_storage"
          },
          {
            "astId": 31,
            "contract": "contracts/Agreement-toDeploy.sol:DataSharingAgreement",
            "label": "descriptionOfData",
            "offset": 0,
            "slot": "8",
            "type": "t_struct(DescriptionOfData)52_storage"
          },
          {
            "astId": 34,
            "contract": "contracts/Agreement-toDeploy.sol:DataSharingAgreement",
            "label": "intendedUse",
            "offset": 0,
            "slot": "11",
            "type": "t_struct(IntendedUse)59_storage"
          },
          {
            "astId": 37,
            "contract": "contracts/Agreement-toDeploy.sol:DataSharingAgreement",
            "label": "licenseGrant",
            "offset": 0,
            "slot": "12",
            "type": "t_struct(LicenseGrant)68_storage"
          },
          {
            "astId": 39,
            "contract": "contracts/Agreement-toDeploy.sol:DataSharingAgreement",
            "label": "dataStream",
            "offset": 0,
            "slot": "13",
            "type": "t_bool"
          },
          {
            "astId": 41,
            "contract": "contracts/Agreement-toDeploy.sol:DataSharingAgreement",
            "label": "signed",
            "offset": 1,
            "slot": "13",
            "type": "t_bool"
          },
          {
            "astId": 44,
            "contract": "contracts/Agreement-toDeploy.sol:DataSharingAgreement",
            "label": "violation",
            "offset": 0,
            "slot": "14",
            "type": "t_struct(Violation)74_storage"
          }
        ],
        "numberOfBytes": "512"
      },
      "t_struct(DescriptionOfData)52_storage": {
        "encoding": "inplace",
        "label": "struct DataSharingAgreement.DescriptionOfData",
        "members": [
          {
            "astId": 47,
            "contract": "contracts/Agreement-toDeploy.sol:DataSharingAgreement",
            "label": "dataType",
            "offset": 0,
            "slot": "0",
            "type": "t_string_storage"
          },
          {
            "astId": 49,
            "contract": "contracts/Agreement-toDeploy.sol:DataSharingAgreement",
            "label": "dataFormat",
            "offset": 0,
            "slot": "1",
            "type": "t_string_storage"
          },
          {
            "astId": 51,
            "contract": "contracts/Agreement-toDeploy.sol:DataSharingAgreement",
            "label": "dataSource",
            "offset": 0,
            "slot": "2",
            "type": "t_string_storage"
          }
        ],
        "numberOfBytes": "96"
      },
      "t_struct(IntendedUse)59_storage": {
        "encoding": "inplace",
        "label": "struct DataSharingAgreement.IntendedUse",
        "members": [
          {
            "astId": 54,
            "contract": "contracts/Agreement-toDeploy.sol:DataSharingAgreement",
            "label": "processData",
            "offset": 0,
            "slot": "0",
            "type": "t_bool"
          },
          {
            "astId": 56,
            "contract": "contracts/Agreement-toDeploy.sol:DataSharingAgreement",
            "label": "shareDataWithThirdParty",
            "offset": 1,
            "slot": "0",
            "type": "t_bool"
          },
          {
            "astId": 58,
            "contract": "contracts/Agreement-toDeploy.sol:DataSharingAgreement",
            "label": "editData",
            "offset": 2,
            "slot": "0",
            "type": "t_bool"
          }
        ],
        "numberOfBytes": "32"
      },
      "t_struct(LicenseGrant)68_storage": {
        "encoding": "inplace",
        "label": "struct DataSharingAgreement.LicenseGrant",
        "members": [
          {
            "astId": 61,
            "contract": "contracts/Agreement-toDeploy.sol:DataSharingAgreement",
            "label": "copyData",
            "offset": 0,
            "slot": "0",
            "type": "t_bool"
          },
          {
            "astId": 63,
            "contract": "contracts/Agreement-toDeploy.sol:DataSharingAgreement",
            "label": "transferable",
            "offset": 1,
            "slot": "0",
            "type": "t_bool"
          },
          {
            "astId": 65,
            "contract": "contracts/Agreement-toDeploy.sol:DataSharingAgreement",
            "label": "exclusiveness",
            "offset": 2,
            "slot": "0",
            "type": "t_bool"
          },
          {
            "astId": 67,
            "contract": "contracts/Agreement-toDeploy.sol:DataSharingAgreement",
            "label": "revocable",
            "offset": 3,
            "slot": "0",
            "type": "t_bool"
          }
        ],
        "numberOfBytes": "32"
      },
      "t_struct(Violation)74_storage": {
        "encoding": "inplace",
        "label": "struct DataSharingAgreement.Violation",
        "members": [
          {
            "astId": 71,
            "contract": "contracts/Agreement-toDeploy.sol:DataSharingAgreement",
            "label": "violationType",
            "offset": 0,
            "slot": "0",
            "type": "t_enum(ViolationType)13"
          },
          {
            "astId": 73,
            "contract": "contracts/Agreement-toDeploy.sol:DataSharingAgreement",
            "label": "issuerId",
            "offset": 0,
            "slot": "1",
            "type": "t_string_storage"
          }
        ],
        "numberOfBytes": "64"
      },
      "t_uint256": {
        "encoding": "inplace",
        "label": "uint256",
        "numberOfBytes": "32"
      }
    }
  }
}