{
  "address": "0x316577B13792DA931f5705E322A83AD7004C2F47",
  "abi": [
    {
      "anonymous": false,
      "inputs": [
        {
          "indexed": false,
          "internalType": "string",
          "name": "providerPublicKey",
          "type": "string"
        },
        {
          "indexed": false,
          "internalType": "string",
          "name": "consumerPublicKey",
          "type": "string"
        },
        {
          "indexed": false,
          "internalType": "uint256",
          "name": "id",
          "type": "uint256"
        },
        {
          "indexed": false,
          "internalType": "string",
          "name": "chosenPenalty",
          "type": "string"
        },
        {
          "indexed": false,
          "internalType": "uint256",
          "name": "newEndDate",
          "type": "uint256"
        },
        {
          "indexed": false,
          "internalType": "uint256",
          "name": "price",
          "type": "uint256"
        },
        {
          "indexed": false,
          "internalType": "uint256",
          "name": "fee",
          "type": "uint256"
        }
      ],
      "name": "AgreeOnPenalty",
      "type": "event"
    },
    {
      "anonymous": false,
      "inputs": [
        {
          "indexed": false,
          "internalType": "string",
          "name": "providerPublicKey",
          "type": "string"
        },
        {
          "indexed": false,
          "internalType": "string",
          "name": "consumerPublicKey",
          "type": "string"
        },
        {
          "indexed": false,
          "internalType": "uint256",
          "name": "id",
          "type": "uint256"
        }
      ],
      "name": "AgreementActive",
      "type": "event"
    },
    {
      "anonymous": false,
      "inputs": [
        {
          "indexed": false,
          "internalType": "string",
          "name": "providerPublicKey",
          "type": "string"
        },
        {
          "indexed": false,
          "internalType": "string",
          "name": "consumerPublicKey",
          "type": "string"
        },
        {
          "indexed": false,
          "internalType": "uint256",
          "name": "id",
          "type": "uint256"
        }
      ],
      "name": "AgreementTerminated",
      "type": "event"
    },
    {
      "anonymous": false,
      "inputs": [
        {
          "indexed": false,
          "internalType": "string",
          "name": "consumerPublicKey",
          "type": "string"
        },
        {
          "indexed": false,
          "internalType": "uint256",
          "name": "id",
          "type": "uint256"
        },
        {
          "indexed": false,
          "internalType": "string[3]",
          "name": "penaltyChoices",
          "type": "string[3]"
        }
      ],
      "name": "PenaltyChoices",
      "type": "event"
    },
    {
      "anonymous": false,
      "inputs": [
        {
          "indexed": false,
          "internalType": "string",
          "name": "publicKey",
          "type": "string"
        },
        {
          "indexed": false,
          "internalType": "uint256",
          "name": "id",
          "type": "uint256"
        }
      ],
      "name": "TerminationProposal",
      "type": "event"
    },
    {
      "inputs": [
        {
          "internalType": "uint256",
          "name": "",
          "type": "uint256"
        }
      ],
      "name": "agreements",
      "outputs": [
        {
          "internalType": "uint256",
          "name": "agreementId",
          "type": "uint256"
        },
        {
          "internalType": "string",
          "name": "providerPublicKey",
          "type": "string"
        },
        {
          "internalType": "string",
          "name": "consumerPublicKey",
          "type": "string"
        },
        {
          "internalType": "string",
          "name": "dataExchangeAgreementHash",
          "type": "string"
        },
        {
          "components": [
            {
              "internalType": "string",
              "name": "dataOfferingId",
              "type": "string"
            },
            {
              "internalType": "uint256",
              "name": "dataOfferingVersion",
              "type": "uint256"
            },
            {
              "internalType": "string",
              "name": "title",
              "type": "string"
            }
          ],
          "internalType": "struct DataOffering",
          "name": "dataOffering",
          "type": "tuple"
        },
        {
          "internalType": "string",
          "name": "purpose",
          "type": "string"
        },
        {
          "internalType": "enum State",
          "name": "state",
          "type": "uint8"
        },
        {
          "components": [
            {
              "internalType": "bool",
              "name": "processData",
              "type": "bool"
            },
            {
              "internalType": "bool",
              "name": "shareDataWithThirdParty",
              "type": "bool"
            },
            {
              "internalType": "bool",
              "name": "editData",
              "type": "bool"
            }
          ],
          "internalType": "struct IntendedUse",
          "name": "intendedUse",
          "type": "tuple"
        },
        {
          "components": [
            {
              "internalType": "bool",
              "name": "transferable",
              "type": "bool"
            },
            {
              "internalType": "bool",
              "name": "exclusiveness",
              "type": "bool"
            },
            {
              "internalType": "bool",
              "name": "paidUp",
              "type": "bool"
            },
            {
              "internalType": "bool",
              "name": "revocable",
              "type": "bool"
            },
            {
              "internalType": "bool",
              "name": "processing",
              "type": "bool"
            },
            {
              "internalType": "bool",
              "name": "modifying",
              "type": "bool"
            },
            {
              "internalType": "bool",
              "name": "analyzing",
              "type": "bool"
            },
            {
              "internalType": "bool",
              "name": "storingData",
              "type": "bool"
            },
            {
              "internalType": "bool",
              "name": "storingCopy",
              "type": "bool"
            },
            {
              "internalType": "bool",
              "name": "reproducing",
              "type": "bool"
            },
            {
              "internalType": "bool",
              "name": "distributing",
              "type": "bool"
            },
            {
              "internalType": "bool",
              "name": "loaning",
              "type": "bool"
            },
            {
              "internalType": "bool",
              "name": "selling",
              "type": "bool"
            },
            {
              "internalType": "bool",
              "name": "renting",
              "type": "bool"
            },
            {
              "internalType": "bool",
              "name": "furtherLicensing",
              "type": "bool"
            },
            {
              "internalType": "bool",
              "name": "leasing",
              "type": "bool"
            }
          ],
          "internalType": "struct LicenseGrant",
          "name": "licenseGrant",
          "type": "tuple"
        },
        {
          "components": [
            {
              "internalType": "bool",
              "name": "dataStream",
              "type": "bool"
            },
            {
              "internalType": "bool",
              "name": "personalData",
              "type": "bool"
            }
          ],
          "internalType": "struct TypeOfData",
          "name": "typeOfData",
          "type": "tuple"
        },
        {
          "components": [
            {
              "internalType": "string",
              "name": "paymentType",
              "type": "string"
            },
            {
              "internalType": "uint256",
              "name": "price",
              "type": "uint256"
            },
            {
              "internalType": "string",
              "name": "currency",
              "type": "string"
            },
            {
              "internalType": "uint256",
              "name": "fee",
              "type": "uint256"
            },
            {
              "components": [
                {
                  "internalType": "string",
                  "name": "timeDuration",
                  "type": "string"
                },
                {
                  "internalType": "string",
                  "name": "repeat",
                  "type": "string"
                }
              ],
              "internalType": "struct PaymentOnSubscription",
              "name": "paymentOnSubscription",
              "type": "tuple"
            },
            {
              "internalType": "bool",
              "name": "isFree",
              "type": "bool"
            }
          ],
          "internalType": "struct PricingModel",
          "name": "pricingModel",
          "type": "tuple"
        },
        {
          "components": [
            {
              "internalType": "enum ViolationType",
              "name": "violationType",
              "type": "uint8"
            },
            {
              "internalType": "string",
              "name": "issuerId",
              "type": "string"
            },
            {
              "internalType": "string[3]",
              "name": "penaltyChoices",
              "type": "string[3]"
            }
          ],
          "internalType": "struct Violation",
          "name": "violation",
          "type": "tuple"
        },
        {
          "internalType": "uint256",
          "name": "termination",
          "type": "uint256"
        }
      ],
      "stateMutability": "view",
      "type": "function"
    },
    {
      "inputs": [],
      "name": "checkActiveAgreements",
      "outputs": [
        {
          "components": [
            {
              "internalType": "uint256",
              "name": "agreementId",
              "type": "uint256"
            },
            {
              "internalType": "string",
              "name": "providerPublicKey",
              "type": "string"
            },
            {
              "internalType": "string",
              "name": "consumerPublicKey",
              "type": "string"
            },
            {
              "internalType": "string",
              "name": "dataExchangeAgreementHash",
              "type": "string"
            },
            {
              "internalType": "string[2]",
              "name": "signatures",
              "type": "string[2]"
            },
            {
              "components": [
                {
                  "internalType": "string",
                  "name": "dataOfferingId",
                  "type": "string"
                },
                {
                  "internalType": "uint256",
                  "name": "dataOfferingVersion",
                  "type": "uint256"
                },
                {
                  "internalType": "string",
                  "name": "title",
                  "type": "string"
                }
              ],
              "internalType": "struct DataOffering",
              "name": "dataOffering",
              "type": "tuple"
            },
            {
              "internalType": "string",
              "name": "purpose",
              "type": "string"
            },
            {
              "internalType": "enum State",
              "name": "state",
              "type": "uint8"
            },
            {
              "internalType": "uint256[3]",
              "name": "agreementDates",
              "type": "uint256[3]"
            },
            {
              "components": [
                {
                  "internalType": "bool",
                  "name": "processData",
                  "type": "bool"
                },
                {
                  "internalType": "bool",
                  "name": "shareDataWithThirdParty",
                  "type": "bool"
                },
                {
                  "internalType": "bool",
                  "name": "editData",
                  "type": "bool"
                }
              ],
              "internalType": "struct IntendedUse",
              "name": "intendedUse",
              "type": "tuple"
            },
            {
              "components": [
                {
                  "internalType": "bool",
                  "name": "transferable",
                  "type": "bool"
                },
                {
                  "internalType": "bool",
                  "name": "exclusiveness",
                  "type": "bool"
                },
                {
                  "internalType": "bool",
                  "name": "paidUp",
                  "type": "bool"
                },
                {
                  "internalType": "bool",
                  "name": "revocable",
                  "type": "bool"
                },
                {
                  "internalType": "bool",
                  "name": "processing",
                  "type": "bool"
                },
                {
                  "internalType": "bool",
                  "name": "modifying",
                  "type": "bool"
                },
                {
                  "internalType": "bool",
                  "name": "analyzing",
                  "type": "bool"
                },
                {
                  "internalType": "bool",
                  "name": "storingData",
                  "type": "bool"
                },
                {
                  "internalType": "bool",
                  "name": "storingCopy",
                  "type": "bool"
                },
                {
                  "internalType": "bool",
                  "name": "reproducing",
                  "type": "bool"
                },
                {
                  "internalType": "bool",
                  "name": "distributing",
                  "type": "bool"
                },
                {
                  "internalType": "bool",
                  "name": "loaning",
                  "type": "bool"
                },
                {
                  "internalType": "bool",
                  "name": "selling",
                  "type": "bool"
                },
                {
                  "internalType": "bool",
                  "name": "renting",
                  "type": "bool"
                },
                {
                  "internalType": "bool",
                  "name": "furtherLicensing",
                  "type": "bool"
                },
                {
                  "internalType": "bool",
                  "name": "leasing",
                  "type": "bool"
                }
              ],
              "internalType": "struct LicenseGrant",
              "name": "licenseGrant",
              "type": "tuple"
            },
            {
              "components": [
                {
                  "internalType": "bool",
                  "name": "dataStream",
                  "type": "bool"
                },
                {
                  "internalType": "bool",
                  "name": "personalData",
                  "type": "bool"
                }
              ],
              "internalType": "struct TypeOfData",
              "name": "typeOfData",
              "type": "tuple"
            },
            {
              "components": [
                {
                  "internalType": "string",
                  "name": "paymentType",
                  "type": "string"
                },
                {
                  "internalType": "uint256",
                  "name": "price",
                  "type": "uint256"
                },
                {
                  "internalType": "string",
                  "name": "currency",
                  "type": "string"
                },
                {
                  "internalType": "uint256",
                  "name": "fee",
                  "type": "uint256"
                },
                {
                  "components": [
                    {
                      "internalType": "string",
                      "name": "timeDuration",
                      "type": "string"
                    },
                    {
                      "internalType": "string",
                      "name": "repeat",
                      "type": "string"
                    }
                  ],
                  "internalType": "struct PaymentOnSubscription",
                  "name": "paymentOnSubscription",
                  "type": "tuple"
                },
                {
                  "internalType": "bool",
                  "name": "isFree",
                  "type": "bool"
                }
              ],
              "internalType": "struct PricingModel",
              "name": "pricingModel",
              "type": "tuple"
            },
            {
              "components": [
                {
                  "internalType": "enum ViolationType",
                  "name": "violationType",
                  "type": "uint8"
                },
                {
                  "internalType": "string",
                  "name": "issuerId",
                  "type": "string"
                },
                {
                  "internalType": "string[3]",
                  "name": "penaltyChoices",
                  "type": "string[3]"
                }
              ],
              "internalType": "struct Violation",
              "name": "violation",
              "type": "tuple"
            },
            {
              "internalType": "uint256",
              "name": "termination",
              "type": "uint256"
            }
          ],
          "internalType": "struct Agreement[]",
          "name": "",
          "type": "tuple[]"
        }
      ],
      "stateMutability": "view",
      "type": "function"
    },
    {
      "inputs": [
        {
          "internalType": "string",
          "name": "_consumerPublicKey",
          "type": "string"
        },
        {
          "internalType": "bool",
          "name": "active",
          "type": "bool"
        }
      ],
      "name": "checkAgreementsByConsumer",
      "outputs": [
        {
          "components": [
            {
              "internalType": "uint256",
              "name": "agreementId",
              "type": "uint256"
            },
            {
              "internalType": "string",
              "name": "providerPublicKey",
              "type": "string"
            },
            {
              "internalType": "string",
              "name": "consumerPublicKey",
              "type": "string"
            },
            {
              "internalType": "string",
              "name": "dataExchangeAgreementHash",
              "type": "string"
            },
            {
              "internalType": "string[2]",
              "name": "signatures",
              "type": "string[2]"
            },
            {
              "components": [
                {
                  "internalType": "string",
                  "name": "dataOfferingId",
                  "type": "string"
                },
                {
                  "internalType": "uint256",
                  "name": "dataOfferingVersion",
                  "type": "uint256"
                },
                {
                  "internalType": "string",
                  "name": "title",
                  "type": "string"
                }
              ],
              "internalType": "struct DataOffering",
              "name": "dataOffering",
              "type": "tuple"
            },
            {
              "internalType": "string",
              "name": "purpose",
              "type": "string"
            },
            {
              "internalType": "enum State",
              "name": "state",
              "type": "uint8"
            },
            {
              "internalType": "uint256[3]",
              "name": "agreementDates",
              "type": "uint256[3]"
            },
            {
              "components": [
                {
                  "internalType": "bool",
                  "name": "processData",
                  "type": "bool"
                },
                {
                  "internalType": "bool",
                  "name": "shareDataWithThirdParty",
                  "type": "bool"
                },
                {
                  "internalType": "bool",
                  "name": "editData",
                  "type": "bool"
                }
              ],
              "internalType": "struct IntendedUse",
              "name": "intendedUse",
              "type": "tuple"
            },
            {
              "components": [
                {
                  "internalType": "bool",
                  "name": "transferable",
                  "type": "bool"
                },
                {
                  "internalType": "bool",
                  "name": "exclusiveness",
                  "type": "bool"
                },
                {
                  "internalType": "bool",
                  "name": "paidUp",
                  "type": "bool"
                },
                {
                  "internalType": "bool",
                  "name": "revocable",
                  "type": "bool"
                },
                {
                  "internalType": "bool",
                  "name": "processing",
                  "type": "bool"
                },
                {
                  "internalType": "bool",
                  "name": "modifying",
                  "type": "bool"
                },
                {
                  "internalType": "bool",
                  "name": "analyzing",
                  "type": "bool"
                },
                {
                  "internalType": "bool",
                  "name": "storingData",
                  "type": "bool"
                },
                {
                  "internalType": "bool",
                  "name": "storingCopy",
                  "type": "bool"
                },
                {
                  "internalType": "bool",
                  "name": "reproducing",
                  "type": "bool"
                },
                {
                  "internalType": "bool",
                  "name": "distributing",
                  "type": "bool"
                },
                {
                  "internalType": "bool",
                  "name": "loaning",
                  "type": "bool"
                },
                {
                  "internalType": "bool",
                  "name": "selling",
                  "type": "bool"
                },
                {
                  "internalType": "bool",
                  "name": "renting",
                  "type": "bool"
                },
                {
                  "internalType": "bool",
                  "name": "furtherLicensing",
                  "type": "bool"
                },
                {
                  "internalType": "bool",
                  "name": "leasing",
                  "type": "bool"
                }
              ],
              "internalType": "struct LicenseGrant",
              "name": "licenseGrant",
              "type": "tuple"
            },
            {
              "components": [
                {
                  "internalType": "bool",
                  "name": "dataStream",
                  "type": "bool"
                },
                {
                  "internalType": "bool",
                  "name": "personalData",
                  "type": "bool"
                }
              ],
              "internalType": "struct TypeOfData",
              "name": "typeOfData",
              "type": "tuple"
            },
            {
              "components": [
                {
                  "internalType": "string",
                  "name": "paymentType",
                  "type": "string"
                },
                {
                  "internalType": "uint256",
                  "name": "price",
                  "type": "uint256"
                },
                {
                  "internalType": "string",
                  "name": "currency",
                  "type": "string"
                },
                {
                  "internalType": "uint256",
                  "name": "fee",
                  "type": "uint256"
                },
                {
                  "components": [
                    {
                      "internalType": "string",
                      "name": "timeDuration",
                      "type": "string"
                    },
                    {
                      "internalType": "string",
                      "name": "repeat",
                      "type": "string"
                    }
                  ],
                  "internalType": "struct PaymentOnSubscription",
                  "name": "paymentOnSubscription",
                  "type": "tuple"
                },
                {
                  "internalType": "bool",
                  "name": "isFree",
                  "type": "bool"
                }
              ],
              "internalType": "struct PricingModel",
              "name": "pricingModel",
              "type": "tuple"
            },
            {
              "components": [
                {
                  "internalType": "enum ViolationType",
                  "name": "violationType",
                  "type": "uint8"
                },
                {
                  "internalType": "string",
                  "name": "issuerId",
                  "type": "string"
                },
                {
                  "internalType": "string[3]",
                  "name": "penaltyChoices",
                  "type": "string[3]"
                }
              ],
              "internalType": "struct Violation",
              "name": "violation",
              "type": "tuple"
            },
            {
              "internalType": "uint256",
              "name": "termination",
              "type": "uint256"
            }
          ],
          "internalType": "struct Agreement[]",
          "name": "",
          "type": "tuple[]"
        }
      ],
      "stateMutability": "view",
      "type": "function"
    },
    {
      "inputs": [
        {
          "internalType": "string",
          "name": "_dataOfferingId",
          "type": "string"
        }
      ],
      "name": "checkAgreementsByDataOffering",
      "outputs": [
        {
          "components": [
            {
              "internalType": "uint256",
              "name": "agreementId",
              "type": "uint256"
            },
            {
              "internalType": "string",
              "name": "providerPublicKey",
              "type": "string"
            },
            {
              "internalType": "string",
              "name": "consumerPublicKey",
              "type": "string"
            },
            {
              "internalType": "string",
              "name": "dataExchangeAgreementHash",
              "type": "string"
            },
            {
              "internalType": "string[2]",
              "name": "signatures",
              "type": "string[2]"
            },
            {
              "components": [
                {
                  "internalType": "string",
                  "name": "dataOfferingId",
                  "type": "string"
                },
                {
                  "internalType": "uint256",
                  "name": "dataOfferingVersion",
                  "type": "uint256"
                },
                {
                  "internalType": "string",
                  "name": "title",
                  "type": "string"
                }
              ],
              "internalType": "struct DataOffering",
              "name": "dataOffering",
              "type": "tuple"
            },
            {
              "internalType": "string",
              "name": "purpose",
              "type": "string"
            },
            {
              "internalType": "enum State",
              "name": "state",
              "type": "uint8"
            },
            {
              "internalType": "uint256[3]",
              "name": "agreementDates",
              "type": "uint256[3]"
            },
            {
              "components": [
                {
                  "internalType": "bool",
                  "name": "processData",
                  "type": "bool"
                },
                {
                  "internalType": "bool",
                  "name": "shareDataWithThirdParty",
                  "type": "bool"
                },
                {
                  "internalType": "bool",
                  "name": "editData",
                  "type": "bool"
                }
              ],
              "internalType": "struct IntendedUse",
              "name": "intendedUse",
              "type": "tuple"
            },
            {
              "components": [
                {
                  "internalType": "bool",
                  "name": "transferable",
                  "type": "bool"
                },
                {
                  "internalType": "bool",
                  "name": "exclusiveness",
                  "type": "bool"
                },
                {
                  "internalType": "bool",
                  "name": "paidUp",
                  "type": "bool"
                },
                {
                  "internalType": "bool",
                  "name": "revocable",
                  "type": "bool"
                },
                {
                  "internalType": "bool",
                  "name": "processing",
                  "type": "bool"
                },
                {
                  "internalType": "bool",
                  "name": "modifying",
                  "type": "bool"
                },
                {
                  "internalType": "bool",
                  "name": "analyzing",
                  "type": "bool"
                },
                {
                  "internalType": "bool",
                  "name": "storingData",
                  "type": "bool"
                },
                {
                  "internalType": "bool",
                  "name": "storingCopy",
                  "type": "bool"
                },
                {
                  "internalType": "bool",
                  "name": "reproducing",
                  "type": "bool"
                },
                {
                  "internalType": "bool",
                  "name": "distributing",
                  "type": "bool"
                },
                {
                  "internalType": "bool",
                  "name": "loaning",
                  "type": "bool"
                },
                {
                  "internalType": "bool",
                  "name": "selling",
                  "type": "bool"
                },
                {
                  "internalType": "bool",
                  "name": "renting",
                  "type": "bool"
                },
                {
                  "internalType": "bool",
                  "name": "furtherLicensing",
                  "type": "bool"
                },
                {
                  "internalType": "bool",
                  "name": "leasing",
                  "type": "bool"
                }
              ],
              "internalType": "struct LicenseGrant",
              "name": "licenseGrant",
              "type": "tuple"
            },
            {
              "components": [
                {
                  "internalType": "bool",
                  "name": "dataStream",
                  "type": "bool"
                },
                {
                  "internalType": "bool",
                  "name": "personalData",
                  "type": "bool"
                }
              ],
              "internalType": "struct TypeOfData",
              "name": "typeOfData",
              "type": "tuple"
            },
            {
              "components": [
                {
                  "internalType": "string",
                  "name": "paymentType",
                  "type": "string"
                },
                {
                  "internalType": "uint256",
                  "name": "price",
                  "type": "uint256"
                },
                {
                  "internalType": "string",
                  "name": "currency",
                  "type": "string"
                },
                {
                  "internalType": "uint256",
                  "name": "fee",
                  "type": "uint256"
                },
                {
                  "components": [
                    {
                      "internalType": "string",
                      "name": "timeDuration",
                      "type": "string"
                    },
                    {
                      "internalType": "string",
                      "name": "repeat",
                      "type": "string"
                    }
                  ],
                  "internalType": "struct PaymentOnSubscription",
                  "name": "paymentOnSubscription",
                  "type": "tuple"
                },
                {
                  "internalType": "bool",
                  "name": "isFree",
                  "type": "bool"
                }
              ],
              "internalType": "struct PricingModel",
              "name": "pricingModel",
              "type": "tuple"
            },
            {
              "components": [
                {
                  "internalType": "enum ViolationType",
                  "name": "violationType",
                  "type": "uint8"
                },
                {
                  "internalType": "string",
                  "name": "issuerId",
                  "type": "string"
                },
                {
                  "internalType": "string[3]",
                  "name": "penaltyChoices",
                  "type": "string[3]"
                }
              ],
              "internalType": "struct Violation",
              "name": "violation",
              "type": "tuple"
            },
            {
              "internalType": "uint256",
              "name": "termination",
              "type": "uint256"
            }
          ],
          "internalType": "struct Agreement[]",
          "name": "",
          "type": "tuple[]"
        }
      ],
      "stateMutability": "view",
      "type": "function"
    },
    {
      "inputs": [
        {
          "internalType": "string",
          "name": "_providerPublicKey",
          "type": "string"
        },
        {
          "internalType": "bool",
          "name": "active",
          "type": "bool"
        }
      ],
      "name": "checkAgreementsByProvider",
      "outputs": [
        {
          "components": [
            {
              "internalType": "uint256",
              "name": "agreementId",
              "type": "uint256"
            },
            {
              "internalType": "string",
              "name": "providerPublicKey",
              "type": "string"
            },
            {
              "internalType": "string",
              "name": "consumerPublicKey",
              "type": "string"
            },
            {
              "internalType": "string",
              "name": "dataExchangeAgreementHash",
              "type": "string"
            },
            {
              "internalType": "string[2]",
              "name": "signatures",
              "type": "string[2]"
            },
            {
              "components": [
                {
                  "internalType": "string",
                  "name": "dataOfferingId",
                  "type": "string"
                },
                {
                  "internalType": "uint256",
                  "name": "dataOfferingVersion",
                  "type": "uint256"
                },
                {
                  "internalType": "string",
                  "name": "title",
                  "type": "string"
                }
              ],
              "internalType": "struct DataOffering",
              "name": "dataOffering",
              "type": "tuple"
            },
            {
              "internalType": "string",
              "name": "purpose",
              "type": "string"
            },
            {
              "internalType": "enum State",
              "name": "state",
              "type": "uint8"
            },
            {
              "internalType": "uint256[3]",
              "name": "agreementDates",
              "type": "uint256[3]"
            },
            {
              "components": [
                {
                  "internalType": "bool",
                  "name": "processData",
                  "type": "bool"
                },
                {
                  "internalType": "bool",
                  "name": "shareDataWithThirdParty",
                  "type": "bool"
                },
                {
                  "internalType": "bool",
                  "name": "editData",
                  "type": "bool"
                }
              ],
              "internalType": "struct IntendedUse",
              "name": "intendedUse",
              "type": "tuple"
            },
            {
              "components": [
                {
                  "internalType": "bool",
                  "name": "transferable",
                  "type": "bool"
                },
                {
                  "internalType": "bool",
                  "name": "exclusiveness",
                  "type": "bool"
                },
                {
                  "internalType": "bool",
                  "name": "paidUp",
                  "type": "bool"
                },
                {
                  "internalType": "bool",
                  "name": "revocable",
                  "type": "bool"
                },
                {
                  "internalType": "bool",
                  "name": "processing",
                  "type": "bool"
                },
                {
                  "internalType": "bool",
                  "name": "modifying",
                  "type": "bool"
                },
                {
                  "internalType": "bool",
                  "name": "analyzing",
                  "type": "bool"
                },
                {
                  "internalType": "bool",
                  "name": "storingData",
                  "type": "bool"
                },
                {
                  "internalType": "bool",
                  "name": "storingCopy",
                  "type": "bool"
                },
                {
                  "internalType": "bool",
                  "name": "reproducing",
                  "type": "bool"
                },
                {
                  "internalType": "bool",
                  "name": "distributing",
                  "type": "bool"
                },
                {
                  "internalType": "bool",
                  "name": "loaning",
                  "type": "bool"
                },
                {
                  "internalType": "bool",
                  "name": "selling",
                  "type": "bool"
                },
                {
                  "internalType": "bool",
                  "name": "renting",
                  "type": "bool"
                },
                {
                  "internalType": "bool",
                  "name": "furtherLicensing",
                  "type": "bool"
                },
                {
                  "internalType": "bool",
                  "name": "leasing",
                  "type": "bool"
                }
              ],
              "internalType": "struct LicenseGrant",
              "name": "licenseGrant",
              "type": "tuple"
            },
            {
              "components": [
                {
                  "internalType": "bool",
                  "name": "dataStream",
                  "type": "bool"
                },
                {
                  "internalType": "bool",
                  "name": "personalData",
                  "type": "bool"
                }
              ],
              "internalType": "struct TypeOfData",
              "name": "typeOfData",
              "type": "tuple"
            },
            {
              "components": [
                {
                  "internalType": "string",
                  "name": "paymentType",
                  "type": "string"
                },
                {
                  "internalType": "uint256",
                  "name": "price",
                  "type": "uint256"
                },
                {
                  "internalType": "string",
                  "name": "currency",
                  "type": "string"
                },
                {
                  "internalType": "uint256",
                  "name": "fee",
                  "type": "uint256"
                },
                {
                  "components": [
                    {
                      "internalType": "string",
                      "name": "timeDuration",
                      "type": "string"
                    },
                    {
                      "internalType": "string",
                      "name": "repeat",
                      "type": "string"
                    }
                  ],
                  "internalType": "struct PaymentOnSubscription",
                  "name": "paymentOnSubscription",
                  "type": "tuple"
                },
                {
                  "internalType": "bool",
                  "name": "isFree",
                  "type": "bool"
                }
              ],
              "internalType": "struct PricingModel",
              "name": "pricingModel",
              "type": "tuple"
            },
            {
              "components": [
                {
                  "internalType": "enum ViolationType",
                  "name": "violationType",
                  "type": "uint8"
                },
                {
                  "internalType": "string",
                  "name": "issuerId",
                  "type": "string"
                },
                {
                  "internalType": "string[3]",
                  "name": "penaltyChoices",
                  "type": "string[3]"
                }
              ],
              "internalType": "struct Violation",
              "name": "violation",
              "type": "tuple"
            },
            {
              "internalType": "uint256",
              "name": "termination",
              "type": "uint256"
            }
          ],
          "internalType": "struct Agreement[]",
          "name": "",
          "type": "tuple[]"
        }
      ],
      "stateMutability": "view",
      "type": "function"
    },
    {
      "inputs": [
        {
          "internalType": "string",
          "name": "_providerPublicKey",
          "type": "string"
        },
        {
          "internalType": "string",
          "name": "_consumerPublicKey",
          "type": "string"
        },
        {
          "internalType": "string",
          "name": "_dataExchangeAgreementHash",
          "type": "string"
        },
        {
          "internalType": "string[2]",
          "name": "_signatures",
          "type": "string[2]"
        },
        {
          "components": [
            {
              "internalType": "string",
              "name": "dataOfferingId",
              "type": "string"
            },
            {
              "internalType": "uint256",
              "name": "dataOfferingVersion",
              "type": "uint256"
            },
            {
              "internalType": "string",
              "name": "title",
              "type": "string"
            }
          ],
          "internalType": "struct DataOffering",
          "name": "dataOffering",
          "type": "tuple"
        },
        {
          "internalType": "string",
          "name": "_purpose",
          "type": "string"
        },
        {
          "internalType": "uint256[]",
          "name": "dates",
          "type": "uint256[]"
        },
        {
          "components": [
            {
              "internalType": "bool",
              "name": "processData",
              "type": "bool"
            },
            {
              "internalType": "bool",
              "name": "shareDataWithThirdParty",
              "type": "bool"
            },
            {
              "internalType": "bool",
              "name": "editData",
              "type": "bool"
            }
          ],
          "internalType": "struct IntendedUse",
          "name": "intendedUse",
          "type": "tuple"
        },
        {
          "components": [
            {
              "internalType": "bool",
              "name": "transferable",
              "type": "bool"
            },
            {
              "internalType": "bool",
              "name": "exclusiveness",
              "type": "bool"
            },
            {
              "internalType": "bool",
              "name": "paidUp",
              "type": "bool"
            },
            {
              "internalType": "bool",
              "name": "revocable",
              "type": "bool"
            },
            {
              "internalType": "bool",
              "name": "processing",
              "type": "bool"
            },
            {
              "internalType": "bool",
              "name": "modifying",
              "type": "bool"
            },
            {
              "internalType": "bool",
              "name": "analyzing",
              "type": "bool"
            },
            {
              "internalType": "bool",
              "name": "storingData",
              "type": "bool"
            },
            {
              "internalType": "bool",
              "name": "storingCopy",
              "type": "bool"
            },
            {
              "internalType": "bool",
              "name": "reproducing",
              "type": "bool"
            },
            {
              "internalType": "bool",
              "name": "distributing",
              "type": "bool"
            },
            {
              "internalType": "bool",
              "name": "loaning",
              "type": "bool"
            },
            {
              "internalType": "bool",
              "name": "selling",
              "type": "bool"
            },
            {
              "internalType": "bool",
              "name": "renting",
              "type": "bool"
            },
            {
              "internalType": "bool",
              "name": "furtherLicensing",
              "type": "bool"
            },
            {
              "internalType": "bool",
              "name": "leasing",
              "type": "bool"
            }
          ],
          "internalType": "struct LicenseGrant",
          "name": "licenseGrant",
          "type": "tuple"
        },
        {
          "components": [
            {
              "internalType": "string",
              "name": "paymentType",
              "type": "string"
            },
            {
              "internalType": "uint256",
              "name": "price",
              "type": "uint256"
            },
            {
              "internalType": "string",
              "name": "currency",
              "type": "string"
            },
            {
              "internalType": "uint256",
              "name": "fee",
              "type": "uint256"
            },
            {
              "components": [
                {
                  "internalType": "string",
                  "name": "timeDuration",
                  "type": "string"
                },
                {
                  "internalType": "string",
                  "name": "repeat",
                  "type": "string"
                }
              ],
              "internalType": "struct PaymentOnSubscription",
              "name": "paymentOnSubscription",
              "type": "tuple"
            },
            {
              "internalType": "bool",
              "name": "isFree",
              "type": "bool"
            }
          ],
          "internalType": "struct PricingModel",
          "name": "pricingModel",
          "type": "tuple"
        },
        {
          "components": [
            {
              "internalType": "bool",
              "name": "dataStream",
              "type": "bool"
            },
            {
              "internalType": "bool",
              "name": "personalData",
              "type": "bool"
            }
          ],
          "internalType": "struct TypeOfData",
          "name": "typeOfData",
          "type": "tuple"
        }
      ],
      "name": "createAgreement",
      "outputs": [],
      "stateMutability": "nonpayable",
      "type": "function"
    },
    {
      "inputs": [
        {
          "internalType": "uint256",
          "name": "_id",
          "type": "uint256"
        },
        {
          "internalType": "string",
          "name": "_chosenPenalty",
          "type": "string"
        },
        {
          "internalType": "uint256",
          "name": "_price",
          "type": "uint256"
        },
        {
          "internalType": "uint256",
          "name": "_fee",
          "type": "uint256"
        },
        {
          "internalType": "uint256",
          "name": "_newEndDate",
          "type": "uint256"
        }
      ],
      "name": "enforcePenalty",
      "outputs": [],
      "stateMutability": "nonpayable",
      "type": "function"
    },
    {
      "inputs": [
        {
          "internalType": "uint256",
          "name": "_agreementId",
          "type": "uint256"
        },
        {
          "internalType": "string",
          "name": "_proofType",
          "type": "string"
        },
        {
          "internalType": "string",
          "name": "_type",
          "type": "string"
        },
        {
          "internalType": "string",
          "name": "_resolution",
          "type": "string"
        },
        {
          "internalType": "string",
          "name": "_dataExchangeId",
          "type": "string"
        },
        {
          "internalType": "uint256",
          "name": "_iat",
          "type": "uint256"
        },
        {
          "internalType": "string",
          "name": "_iss",
          "type": "string"
        },
        {
          "internalType": "string",
          "name": "_sub",
          "type": "string"
        }
      ],
      "name": "evaluateSignedResolution",
      "outputs": [],
      "stateMutability": "nonpayable",
      "type": "function"
    },
    {
      "inputs": [
        {
          "internalType": "uint256",
          "name": "id",
          "type": "uint256"
        }
      ],
      "name": "getAgreement",
      "outputs": [
        {
          "components": [
            {
              "internalType": "uint256",
              "name": "agreementId",
              "type": "uint256"
            },
            {
              "internalType": "string",
              "name": "providerPublicKey",
              "type": "string"
            },
            {
              "internalType": "string",
              "name": "consumerPublicKey",
              "type": "string"
            },
            {
              "internalType": "string",
              "name": "dataExchangeAgreementHash",
              "type": "string"
            },
            {
              "internalType": "string[2]",
              "name": "signatures",
              "type": "string[2]"
            },
            {
              "components": [
                {
                  "internalType": "string",
                  "name": "dataOfferingId",
                  "type": "string"
                },
                {
                  "internalType": "uint256",
                  "name": "dataOfferingVersion",
                  "type": "uint256"
                },
                {
                  "internalType": "string",
                  "name": "title",
                  "type": "string"
                }
              ],
              "internalType": "struct DataOffering",
              "name": "dataOffering",
              "type": "tuple"
            },
            {
              "internalType": "string",
              "name": "purpose",
              "type": "string"
            },
            {
              "internalType": "enum State",
              "name": "state",
              "type": "uint8"
            },
            {
              "internalType": "uint256[3]",
              "name": "agreementDates",
              "type": "uint256[3]"
            },
            {
              "components": [
                {
                  "internalType": "bool",
                  "name": "processData",
                  "type": "bool"
                },
                {
                  "internalType": "bool",
                  "name": "shareDataWithThirdParty",
                  "type": "bool"
                },
                {
                  "internalType": "bool",
                  "name": "editData",
                  "type": "bool"
                }
              ],
              "internalType": "struct IntendedUse",
              "name": "intendedUse",
              "type": "tuple"
            },
            {
              "components": [
                {
                  "internalType": "bool",
                  "name": "transferable",
                  "type": "bool"
                },
                {
                  "internalType": "bool",
                  "name": "exclusiveness",
                  "type": "bool"
                },
                {
                  "internalType": "bool",
                  "name": "paidUp",
                  "type": "bool"
                },
                {
                  "internalType": "bool",
                  "name": "revocable",
                  "type": "bool"
                },
                {
                  "internalType": "bool",
                  "name": "processing",
                  "type": "bool"
                },
                {
                  "internalType": "bool",
                  "name": "modifying",
                  "type": "bool"
                },
                {
                  "internalType": "bool",
                  "name": "analyzing",
                  "type": "bool"
                },
                {
                  "internalType": "bool",
                  "name": "storingData",
                  "type": "bool"
                },
                {
                  "internalType": "bool",
                  "name": "storingCopy",
                  "type": "bool"
                },
                {
                  "internalType": "bool",
                  "name": "reproducing",
                  "type": "bool"
                },
                {
                  "internalType": "bool",
                  "name": "distributing",
                  "type": "bool"
                },
                {
                  "internalType": "bool",
                  "name": "loaning",
                  "type": "bool"
                },
                {
                  "internalType": "bool",
                  "name": "selling",
                  "type": "bool"
                },
                {
                  "internalType": "bool",
                  "name": "renting",
                  "type": "bool"
                },
                {
                  "internalType": "bool",
                  "name": "furtherLicensing",
                  "type": "bool"
                },
                {
                  "internalType": "bool",
                  "name": "leasing",
                  "type": "bool"
                }
              ],
              "internalType": "struct LicenseGrant",
              "name": "licenseGrant",
              "type": "tuple"
            },
            {
              "components": [
                {
                  "internalType": "bool",
                  "name": "dataStream",
                  "type": "bool"
                },
                {
                  "internalType": "bool",
                  "name": "personalData",
                  "type": "bool"
                }
              ],
              "internalType": "struct TypeOfData",
              "name": "typeOfData",
              "type": "tuple"
            },
            {
              "components": [
                {
                  "internalType": "string",
                  "name": "paymentType",
                  "type": "string"
                },
                {
                  "internalType": "uint256",
                  "name": "price",
                  "type": "uint256"
                },
                {
                  "internalType": "string",
                  "name": "currency",
                  "type": "string"
                },
                {
                  "internalType": "uint256",
                  "name": "fee",
                  "type": "uint256"
                },
                {
                  "components": [
                    {
                      "internalType": "string",
                      "name": "timeDuration",
                      "type": "string"
                    },
                    {
                      "internalType": "string",
                      "name": "repeat",
                      "type": "string"
                    }
                  ],
                  "internalType": "struct PaymentOnSubscription",
                  "name": "paymentOnSubscription",
                  "type": "tuple"
                },
                {
                  "internalType": "bool",
                  "name": "isFree",
                  "type": "bool"
                }
              ],
              "internalType": "struct PricingModel",
              "name": "pricingModel",
              "type": "tuple"
            },
            {
              "components": [
                {
                  "internalType": "enum ViolationType",
                  "name": "violationType",
                  "type": "uint8"
                },
                {
                  "internalType": "string",
                  "name": "issuerId",
                  "type": "string"
                },
                {
                  "internalType": "string[3]",
                  "name": "penaltyChoices",
                  "type": "string[3]"
                }
              ],
              "internalType": "struct Violation",
              "name": "violation",
              "type": "tuple"
            },
            {
              "internalType": "uint256",
              "name": "termination",
              "type": "uint256"
            }
          ],
          "internalType": "struct Agreement",
          "name": "",
          "type": "tuple"
        }
      ],
      "stateMutability": "view",
      "type": "function"
    },
    {
      "inputs": [],
      "name": "getAgreementsLength",
      "outputs": [
        {
          "internalType": "uint256",
          "name": "",
          "type": "uint256"
        }
      ],
      "stateMutability": "view",
      "type": "function"
    },
    {
      "inputs": [
        {
          "internalType": "uint256",
          "name": "id",
          "type": "uint256"
        }
      ],
      "name": "getState",
      "outputs": [
        {
          "internalType": "enum State",
          "name": "",
          "type": "uint8"
        }
      ],
      "stateMutability": "view",
      "type": "function"
    },
    {
      "inputs": [
        {
          "internalType": "string",
          "name": "_dataOfferingId",
          "type": "string"
        }
      ],
      "name": "notifyConsentRevoked",
      "outputs": [
        {
          "internalType": "string[]",
          "name": "",
          "type": "string[]"
        }
      ],
      "stateMutability": "view",
      "type": "function"
    },
    {
      "inputs": [
        {
          "internalType": "uint256",
          "name": "agreementId",
          "type": "uint256"
        },
        {
          "internalType": "string",
          "name": "_publicKey",
          "type": "string"
        }
      ],
      "name": "requestAgreementTermination",
      "outputs": [],
      "stateMutability": "nonpayable",
      "type": "function"
    },
    {
      "inputs": [
        {
          "internalType": "string",
          "name": "_consumerPublicKey",
          "type": "string"
        }
      ],
      "name": "retrieveAgreements",
      "outputs": [
        {
          "components": [
            {
              "internalType": "uint256",
              "name": "agreementId",
              "type": "uint256"
            },
            {
              "internalType": "string",
              "name": "providerPublicKey",
              "type": "string"
            },
            {
              "internalType": "string",
              "name": "consumerPublicKey",
              "type": "string"
            },
            {
              "internalType": "string",
              "name": "dataExchangeAgreementHash",
              "type": "string"
            },
            {
              "internalType": "string[2]",
              "name": "signatures",
              "type": "string[2]"
            },
            {
              "components": [
                {
                  "internalType": "string",
                  "name": "dataOfferingId",
                  "type": "string"
                },
                {
                  "internalType": "uint256",
                  "name": "dataOfferingVersion",
                  "type": "uint256"
                },
                {
                  "internalType": "string",
                  "name": "title",
                  "type": "string"
                }
              ],
              "internalType": "struct DataOffering",
              "name": "dataOffering",
              "type": "tuple"
            },
            {
              "internalType": "string",
              "name": "purpose",
              "type": "string"
            },
            {
              "internalType": "enum State",
              "name": "state",
              "type": "uint8"
            },
            {
              "internalType": "uint256[3]",
              "name": "agreementDates",
              "type": "uint256[3]"
            },
            {
              "components": [
                {
                  "internalType": "bool",
                  "name": "processData",
                  "type": "bool"
                },
                {
                  "internalType": "bool",
                  "name": "shareDataWithThirdParty",
                  "type": "bool"
                },
                {
                  "internalType": "bool",
                  "name": "editData",
                  "type": "bool"
                }
              ],
              "internalType": "struct IntendedUse",
              "name": "intendedUse",
              "type": "tuple"
            },
            {
              "components": [
                {
                  "internalType": "bool",
                  "name": "transferable",
                  "type": "bool"
                },
                {
                  "internalType": "bool",
                  "name": "exclusiveness",
                  "type": "bool"
                },
                {
                  "internalType": "bool",
                  "name": "paidUp",
                  "type": "bool"
                },
                {
                  "internalType": "bool",
                  "name": "revocable",
                  "type": "bool"
                },
                {
                  "internalType": "bool",
                  "name": "processing",
                  "type": "bool"
                },
                {
                  "internalType": "bool",
                  "name": "modifying",
                  "type": "bool"
                },
                {
                  "internalType": "bool",
                  "name": "analyzing",
                  "type": "bool"
                },
                {
                  "internalType": "bool",
                  "name": "storingData",
                  "type": "bool"
                },
                {
                  "internalType": "bool",
                  "name": "storingCopy",
                  "type": "bool"
                },
                {
                  "internalType": "bool",
                  "name": "reproducing",
                  "type": "bool"
                },
                {
                  "internalType": "bool",
                  "name": "distributing",
                  "type": "bool"
                },
                {
                  "internalType": "bool",
                  "name": "loaning",
                  "type": "bool"
                },
                {
                  "internalType": "bool",
                  "name": "selling",
                  "type": "bool"
                },
                {
                  "internalType": "bool",
                  "name": "renting",
                  "type": "bool"
                },
                {
                  "internalType": "bool",
                  "name": "furtherLicensing",
                  "type": "bool"
                },
                {
                  "internalType": "bool",
                  "name": "leasing",
                  "type": "bool"
                }
              ],
              "internalType": "struct LicenseGrant",
              "name": "licenseGrant",
              "type": "tuple"
            },
            {
              "components": [
                {
                  "internalType": "bool",
                  "name": "dataStream",
                  "type": "bool"
                },
                {
                  "internalType": "bool",
                  "name": "personalData",
                  "type": "bool"
                }
              ],
              "internalType": "struct TypeOfData",
              "name": "typeOfData",
              "type": "tuple"
            },
            {
              "components": [
                {
                  "internalType": "string",
                  "name": "paymentType",
                  "type": "string"
                },
                {
                  "internalType": "uint256",
                  "name": "price",
                  "type": "uint256"
                },
                {
                  "internalType": "string",
                  "name": "currency",
                  "type": "string"
                },
                {
                  "internalType": "uint256",
                  "name": "fee",
                  "type": "uint256"
                },
                {
                  "components": [
                    {
                      "internalType": "string",
                      "name": "timeDuration",
                      "type": "string"
                    },
                    {
                      "internalType": "string",
                      "name": "repeat",
                      "type": "string"
                    }
                  ],
                  "internalType": "struct PaymentOnSubscription",
                  "name": "paymentOnSubscription",
                  "type": "tuple"
                },
                {
                  "internalType": "bool",
                  "name": "isFree",
                  "type": "bool"
                }
              ],
              "internalType": "struct PricingModel",
              "name": "pricingModel",
              "type": "tuple"
            },
            {
              "components": [
                {
                  "internalType": "enum ViolationType",
                  "name": "violationType",
                  "type": "uint8"
                },
                {
                  "internalType": "string",
                  "name": "issuerId",
                  "type": "string"
                },
                {
                  "internalType": "string[3]",
                  "name": "penaltyChoices",
                  "type": "string[3]"
                }
              ],
              "internalType": "struct Violation",
              "name": "violation",
              "type": "tuple"
            },
            {
              "internalType": "uint256",
              "name": "termination",
              "type": "uint256"
            }
          ],
          "internalType": "struct Agreement[]",
          "name": "",
          "type": "tuple[]"
        },
        {
          "internalType": "uint256",
          "name": "k",
          "type": "uint256"
        }
      ],
      "stateMutability": "view",
      "type": "function"
    },
    {
      "inputs": [
        {
          "internalType": "uint256",
          "name": "_agreementId",
          "type": "uint256"
        }
      ],
      "name": "retrievePricingModel",
      "outputs": [
        {
          "components": [
            {
              "internalType": "string",
              "name": "paymentType",
              "type": "string"
            },
            {
              "internalType": "uint256",
              "name": "price",
              "type": "uint256"
            },
            {
              "internalType": "string",
              "name": "currency",
              "type": "string"
            },
            {
              "internalType": "uint256",
              "name": "fee",
              "type": "uint256"
            },
            {
              "components": [
                {
                  "internalType": "string",
                  "name": "timeDuration",
                  "type": "string"
                },
                {
                  "internalType": "string",
                  "name": "repeat",
                  "type": "string"
                }
              ],
              "internalType": "struct PaymentOnSubscription",
              "name": "paymentOnSubscription",
              "type": "tuple"
            },
            {
              "internalType": "bool",
              "name": "isFree",
              "type": "bool"
            }
          ],
          "internalType": "struct PricingModel",
          "name": "",
          "type": "tuple"
        }
      ],
      "stateMutability": "view",
      "type": "function"
    },
    {
      "inputs": [
        {
          "internalType": "uint256",
          "name": "_agreementId",
          "type": "uint256"
        },
        {
          "internalType": "uint256",
          "name": "termination",
          "type": "uint256"
        }
      ],
      "name": "terminateAgreement",
      "outputs": [],
      "stateMutability": "nonpayable",
      "type": "function"
    }
  ],
  "transactionHash": "0x3deeef8f0df075de3f8600a07d6eb2103e739b9d5feb3b4fda41339fd1707b71",
  "args": [],
  "solcInputHash": "e9c5fec4a3cdca87ec853f7502d32d3d",
  "bytecode": "0x608060405234801561001057600080fd5b50614fce806100206000396000f3fe608060405234801561001057600080fd5b50600436106101005760003560e01c80634dffbf0d11610097578063b5bdf36b11610066578063b5bdf36b14610236578063bd14de9614610249578063dd4be34b14610275578063ee4b2db51461028857600080fd5b80634dffbf0d146101dd5780634f9f6fe6146101f057806365fa865f14610210578063667a8beb1461022357600080fd5b806331f85eed116100d357806331f85eed1461017557806332893afb1461018a57806344c9af28146101aa578063482e2203146101ca57600080fd5b8063063bd15a146101055780631371b64a146101235780631c510ea91461014357806330937f3a14610154575b600080fd5b61010d61029b565b60405161011a9190613800565b60405180910390f35b610136610131366004613813565b610334565b60405161011a919061382c565b60065460405190815260200161011a565b6101676101623660046139bb565b6105f2565b60405161011a9291906139f0565b610188610183366004613a12565b610690565b005b61019d6101983660046139bb565b61080f565b60405161011a9190613a34565b6101bd6101b8366004613813565b6109fc565b60405161011a9190613a96565b61010d6101d8366004613ac2565b610a2e565b61010d6101eb3660046139bb565b610acd565b6102036101fe366004613813565b610b69565b60405161011a9190613b14565b61010d61021e366004613ac2565b61163d565b610188610231366004613b27565b611680565b610188610244366004613b89565b6118e7565b61025c610257366004613813565b611b4c565b60405161011a9d9c9b9a99989796959493929190613bd0565b610188610283366004613cd4565b6124ac565b61018861029636600461423d565b6125d2565b604051632e4e974560e21b81526006600482015260006024820181905260609173d5ff31678D485441b2b035f3701a159464D49bd89063b93a5d149060440160006040518083038186803b1580156102f257600080fd5b505af4158015610306573d6000803e3d6000fd5b505050506040513d6000823e601f3d908101601f1916820160405261032e9190810190614b1d565b92915050565b61033c612eff565b6006828154811061034f5761034f614b52565b90600052602060002090601e02016011016040518060c001604052908160008201805461037b90614b68565b80601f01602080910402602001604051908101604052809291908181526020018280546103a790614b68565b80156103f45780601f106103c9576101008083540402835291602001916103f4565b820191906000526020600020905b8154815290600101906020018083116103d757829003601f168201915b505050505081526020016001820154815260200160028201805461041790614b68565b80601f016020809104026020016040519081016040528092919081815260200182805461044390614b68565b80156104905780601f1061046557610100808354040283529160200191610490565b820191906000526020600020905b81548152906001019060200180831161047357829003601f168201915b5050505050815260200160038201548152602001600482016040518060400160405290816000820180546104c390614b68565b80601f01602080910402602001604051908101604052809291908181526020018280546104ef90614b68565b801561053c5780601f106105115761010080835404028352916020019161053c565b820191906000526020600020905b81548152906001019060200180831161051f57829003601f168201915b5050505050815260200160018201805461055590614b68565b80601f016020809104026020016040519081016040528092919081815260200182805461058190614b68565b80156105ce5780601f106105a3576101008083540402835291602001916105ce565b820191906000526020600020905b8154815290600101906020018083116105b157829003601f168201915b5050509190925250505081526006919091015460ff16151560209091015292915050565b6060600073d5ff31678D485441b2b035f3701a159464D49bd8631b6bcbbf60068560006040518463ffffffff1660e01b815260040161063393929190614ba3565b60006040518083038186803b15801561064b57600080fd5b505af415801561065f573d6000803e3d6000fd5b505050506040513d6000823e601f3d908101601f191682016040526106879190810190614bcc565b91509150915091565b7314E531cD0A03c1938b5754bFf5DD931A00A5E5A363d84ea008600684815481106106bd576106bd614b52565b6000918252602082206040517fffffffff0000000000000000000000000000000000000000000000000000000060e086901b168152601e90920201600482015260248101859052604481019190915260640160006040518083038186803b15801561072757600080fd5b505af415801561073b573d6000803e3d6000fd5b5060029250610748915050565b6006838154811061075b5761075b614b52565b60009182526020909120600a601e90920201015460ff166002811115610783576107836133c6565b141561080b577f8fdec0edc19a1eb9147642be05b326b7f5d42bf96f5ba734530bfca33bc8d7e9600683815481106107bd576107bd614b52565b90600052602060002090601e0201600101600684815481106107e1576107e1614b52565b90600052602060002090601e02016002018460405161080293929190614c8a565b60405180910390a15b5050565b6060600080600501836040516108259190614cc0565b90815260200160405180910390205467ffffffffffffffff81111561084c5761084c61383f565b60405190808252806020026020018201604052801561087f57816020015b606081526020019060019003908161086a5790505b5090506000805b6006548110156109f357846040516020016108a19190614cc0565b60405160208183030381529060405280519060200120600682815481106108ca576108ca614b52565b90600052602060002090601e02016006016000016040516020016108ee9190614cdc565b6040516020818303038152906040528051906020012014156109e1576006818154811061091d5761091d614b52565b90600052602060002090601e0201600201805461093990614b68565b80601f016020809104026020016040519081016040528092919081815260200182805461096590614b68565b80156109b25780601f10610987576101008083540402835291602001916109b2565b820191906000526020600020905b81548152906001019060200180831161099557829003601f168201915b50505050508383806109c390614d64565b9450815181106109d5576109d5614b52565b60200260200101819052505b806109eb81614d64565b915050610886565b50909392505050565b600060068281548110610a1157610a11614b52565b60009182526020909120600a601e90920201015460ff1692915050565b6060600073d5ff31678D485441b2b035f3701a159464D49bd8635e5cf2c26006868660006040518563ffffffff1660e01b8152600401610a719493929190614d7f565b60006040518083038186803b158015610a8957600080fd5b505af4158015610a9d573d6000803e3d6000fd5b505050506040513d6000823e601f3d908101601f19168201604052610ac59190810190614b1d565b949350505050565b6060600073d5ff31678D485441b2b035f3701a159464D49bd863e41ecb3b60068560006040518463ffffffff1660e01b8152600401610b0e93929190614ba3565b60006040518083038186803b158015610b2657600080fd5b505af4158015610b3a573d6000803e3d6000fd5b505050506040513d6000823e601f3d908101601f19168201604052610b629190810190614b1d565b9392505050565b610b71612f50565b60068281548110610b8457610b84614b52565b90600052602060002090601e0201604051806101e001604052908160008201548152602001600182018054610bb890614b68565b80601f0160208091040260200160405190810160405280929190818152602001828054610be490614b68565b8015610c315780601f10610c0657610100808354040283529160200191610c31565b820191906000526020600020905b815481529060010190602001808311610c1457829003601f168201915b50505050508152602001600282018054610c4a90614b68565b80601f0160208091040260200160405190810160405280929190818152602001828054610c7690614b68565b8015610cc35780601f10610c9857610100808354040283529160200191610cc3565b820191906000526020600020905b815481529060010190602001808311610ca657829003601f168201915b50505050508152602001600382018054610cdc90614b68565b80601f0160208091040260200160405190810160405280929190818152602001828054610d0890614b68565b8015610d555780601f10610d2a57610100808354040283529160200191610d55565b820191906000526020600020905b815481529060010190602001808311610d3857829003601f168201915b5050509183525050604080518082019091526020909101906004830160026000835b82821015610e1a578382018054610d8d90614b68565b80601f0160208091040260200160405190810160405280929190818152602001828054610db990614b68565b8015610e065780601f10610ddb57610100808354040283529160200191610e06565b820191906000526020600020905b815481529060010190602001808311610de957829003601f168201915b505050505081526020019060010190610d77565b50505050815260200160068201604051806060016040529081600082018054610e4290614b68565b80601f0160208091040260200160405190810160405280929190818152602001828054610e6e90614b68565b8015610ebb5780601f10610e9057610100808354040283529160200191610ebb565b820191906000526020600020905b815481529060010190602001808311610e9e57829003601f168201915b5050505050815260200160018201548152602001600282018054610ede90614b68565b80601f0160208091040260200160405190810160405280929190818152602001828054610f0a90614b68565b8015610f575780601f10610f2c57610100808354040283529160200191610f57565b820191906000526020600020905b815481529060010190602001808311610f3a57829003601f168201915b5050505050815250508152602001600982018054610f7490614b68565b80601f0160208091040260200160405190810160405280929190818152602001828054610fa090614b68565b8015610fed5780601f10610fc257610100808354040283529160200191610fed565b820191906000526020600020905b815481529060010190602001808311610fd057829003601f168201915b5050509183525050600a82015460209091019060ff166002811115611014576110146133c6565b6002811115611025576110256133c6565b815260408051606081019182905260209092019190600b84019060039082845b8154815260200190600101908083116110455750505091835250506040805160608082018352600e85015460ff80821615158452610100808304821615156020868101919091526201000093849004831615158688015280880195909552855161020081018752600f89015480841615158252828104841615158288015293840483161515818801526301000000840483161515818601526401000000008404831615156080808301919091526501000000000085048416151560a0830152660100000000000085048416151560c08084019190915267010000000000000086048516151560e0840152680100000000000000008604851615158385015269010000000000000000008604851615156101208401526a0100000000000000000000860485161515610140840152600160581b860485161515610160840152600160601b860485161515610180840152600160681b8604851615156101a0840152600160701b8604851615156101c0840152600160781b909504841615156101e0830152878901919091528651808801885260108a01548085161515825292909204909216151594810194909452918501929092528251918201909252601184018054929093019290918290829061121b90614b68565b80601f016020809104026020016040519081016040528092919081815260200182805461124790614b68565b80156112945780601f1061126957610100808354040283529160200191611294565b820191906000526020600020905b81548152906001019060200180831161127757829003601f168201915b50505050508152602001600182015481526020016002820180546112b790614b68565b80601f01602080910402602001604051908101604052809291908181526020018280546112e390614b68565b80156113305780601f1061130557610100808354040283529160200191611330565b820191906000526020600020905b81548152906001019060200180831161131357829003601f168201915b50505050508152602001600382015481526020016004820160405180604001604052908160008201805461136390614b68565b80601f016020809104026020016040519081016040528092919081815260200182805461138f90614b68565b80156113dc5780601f106113b1576101008083540402835291602001916113dc565b820191906000526020600020905b8154815290600101906020018083116113bf57829003601f168201915b505050505081526020016001820180546113f590614b68565b80601f016020809104026020016040519081016040528092919081815260200182805461142190614b68565b801561146e5780601f106114435761010080835404028352916020019161146e565b820191906000526020600020905b81548152906001019060200180831161145157829003601f168201915b5050509190925250505081526006919091015460ff908116151560209283015291835260408051606081019091526018850180549490920193909283911660048111156114bd576114bd6133c6565b60048111156114ce576114ce6133c6565b81526020016001820180546114e290614b68565b80601f016020809104026020016040519081016040528092919081815260200182805461150e90614b68565b801561155b5780601f106115305761010080835404028352916020019161155b565b820191906000526020600020905b81548152906001019060200180831161153e57829003601f168201915b505050918352505060408051606081019091526020909101906002830160036000835b8282101561162157838201805461159490614b68565b80601f01602080910402602001604051908101604052809291908181526020018280546115c090614b68565b801561160d5780601f106115e25761010080835404028352916020019161160d565b820191906000526020600020905b8154815290600101906020018083116115f057829003601f168201915b50505050508152602001906001019061157e565b505050915250508152601d919091015460209091015292915050565b6060600073d5ff31678D485441b2b035f3701a159464D49bd86319e5b3b76006868660006040518563ffffffff1660e01b8152600401610a719493929190614d7f565b60016006868154811061169557611695614b52565b60009182526020909120600a601e90920201015460ff1660028111156116bd576116bd6133c6565b146117355760405162461bcd60e51b815260206004820152603660248201527f41677265656d656e74206d7573742062652076696f6c6174656420696e206f7260448201527f64657220746f20656e666f7263652070656e616c74790000000000000000000060648201526084015b60405180910390fd5b604051685465726d696e61746560b81b602082015260290160405160208183030381529060405280519060200120846040516020016117749190614cc0565b6040516020818303038152906040528051906020012014156117a05761179b856002610690565b6118e0565b73D43678Bd544339DbF711299ea20E5A06F2Deb39563cb5893c9600687815481106117cd576117cd614b52565b90600052602060002090601e02018686868660006040518763ffffffff1660e01b815260040161180296959493929190614dab565b60006040518083038186803b15801561181a57600080fd5b505af415801561182e573d6000803e3d6000fd5b505050507f6a5b41877c1e19e7405feb10468979239b83616b44fef14f87bc82641810bcde6006868154811061186657611866614b52565b90600052602060002090601e02016001016006878154811061188a5761188a614b52565b90600052602060002090601e0201600201600688815481106118ae576118ae614b52565b90600052602060002090601e020160000154878588886040516118d79796959493929190614de9565b60405180910390a15b5050505050565b806040516020016118f89190614cc0565b604051602081830303815290604052805190602001206006838154811061192157611921614b52565b90600052602060002090601e02016001016040516020016119429190614cdc565b6040516020818303038152906040528051906020012014806119d25750806040516020016119709190614cc0565b604051602081830303815290604052805190602001206006838154811061199957611999614b52565b90600052602060002090601e02016002016040516020016119ba9190614cdc565b60405160208183030381529060405280519060200120145b6119db57600080fd5b6001600683815481106119f0576119f0614b52565b90600052602060002090601e0201601d018190555080604051602001611a169190614cc0565b6040516020818303038152906040528051906020012060068381548110611a3f57611a3f614b52565b90600052602060002090601e0201600101604051602001611a609190614cdc565b604051602081830303815290604052805190602001201415611af4577f5b110f233309bfcc0428fef61705787d5e6e67380b4a0ec71654cf1de0496a6d60068381548110611ab057611ab0614b52565b90600052602060002090601e020160020160068481548110611ad457611ad4614b52565b90600052602060002090601e020160000154604051610802929190614e48565b7f5b110f233309bfcc0428fef61705787d5e6e67380b4a0ec71654cf1de0496a6d60068381548110611b2857611b28614b52565b90600052602060002090601e020160010160068481548110611ad457611ad4614b52565b60068181548110611b5c57600080fd5b60009182526020909120601e90910201805460018201805491935090611b8190614b68565b80601f0160208091040260200160405190810160405280929190818152602001828054611bad90614b68565b8015611bfa5780601f10611bcf57610100808354040283529160200191611bfa565b820191906000526020600020905b815481529060010190602001808311611bdd57829003601f168201915b505050505090806002018054611c0f90614b68565b80601f0160208091040260200160405190810160405280929190818152602001828054611c3b90614b68565b8015611c885780601f10611c5d57610100808354040283529160200191611c88565b820191906000526020600020905b815481529060010190602001808311611c6b57829003601f168201915b505050505090806003018054611c9d90614b68565b80601f0160208091040260200160405190810160405280929190818152602001828054611cc990614b68565b8015611d165780601f10611ceb57610100808354040283529160200191611d16565b820191906000526020600020905b815481529060010190602001808311611cf957829003601f168201915b50505050509080600601604051806060016040529081600082018054611d3b90614b68565b80601f0160208091040260200160405190810160405280929190818152602001828054611d6790614b68565b8015611db45780601f10611d8957610100808354040283529160200191611db4565b820191906000526020600020905b815481529060010190602001808311611d9757829003601f168201915b5050505050815260200160018201548152602001600282018054611dd790614b68565b80601f0160208091040260200160405190810160405280929190818152602001828054611e0390614b68565b8015611e505780601f10611e2557610100808354040283529160200191611e50565b820191906000526020600020905b815481529060010190602001808311611e3357829003601f168201915b50505050508152505090806009018054611e6990614b68565b80601f0160208091040260200160405190810160405280929190818152602001828054611e9590614b68565b8015611ee25780601f10611eb757610100808354040283529160200191611ee2565b820191906000526020600020905b815481529060010190602001808311611ec557829003601f168201915b505050600a8401546040805160608082018352600e88015460ff818116151584526101008083048216151560208087019190915262010000938490048316151586880152865161020081018852600f8d0154808516151582528381048516151582840152948504841615158189015263010000008504841615159581019590955264010000000084048316151560808601526501000000000084048316151560a0860152660100000000000084048316151560c08087019190915267010000000000000085048416151560e0870152680100000000000000008504841615158684015269010000000000000000008504841615156101208701526a0100000000000000000000850484161515610140870152600160581b850484161515610160870152600160601b850484161515610180870152600160681b8504841615156101a0870152600160701b8504841615156101c0870152600160781b909404831615156101e08601528651808801885260108d015480851615158252929092048316151590820152855192830190955260118a018054999a919096169893975091955092939092918290829061209690614b68565b80601f01602080910402602001604051908101604052809291908181526020018280546120c290614b68565b801561210f5780601f106120e45761010080835404028352916020019161210f565b820191906000526020600020905b8154815290600101906020018083116120f257829003601f168201915b505050505081526020016001820154815260200160028201805461213290614b68565b80601f016020809104026020016040519081016040528092919081815260200182805461215e90614b68565b80156121ab5780601f10612180576101008083540402835291602001916121ab565b820191906000526020600020905b81548152906001019060200180831161218e57829003601f168201915b5050505050815260200160038201548152602001600482016040518060400160405290816000820180546121de90614b68565b80601f016020809104026020016040519081016040528092919081815260200182805461220a90614b68565b80156122575780601f1061222c57610100808354040283529160200191612257565b820191906000526020600020905b81548152906001019060200180831161223a57829003601f168201915b5050505050815260200160018201805461227090614b68565b80601f016020809104026020016040519081016040528092919081815260200182805461229c90614b68565b80156122e95780601f106122be576101008083540402835291602001916122e9565b820191906000526020600020905b8154815290600101906020018083116122cc57829003601f168201915b5050509190925250505081526006919091015460ff90811615156020909201919091526040805160608101909152601884018054939493919290918391166004811115612338576123386133c6565b6004811115612349576123496133c6565b815260200160018201805461235d90614b68565b80601f016020809104026020016040519081016040528092919081815260200182805461238990614b68565b80156123d65780601f106123ab576101008083540402835291602001916123d6565b820191906000526020600020905b8154815290600101906020018083116123b957829003601f168201915b505050918352505060408051606081019091526020909101906002830160036000835b8282101561249c57838201805461240f90614b68565b80601f016020809104026020016040519081016040528092919081815260200182805461243b90614b68565b80156124885780601f1061245d57610100808354040283529160200191612488565b820191906000526020600020905b81548152906001019060200180831161246b57829003601f168201915b5050505050815260200190600101906123f9565b50505091525050601d909101548d565b73D43678Bd544339DbF711299ea20E5A06F2Deb3956311a55ede60068a815481106124d9576124d9614b52565b90600052602060002090601e02018989898989898960006040518a63ffffffff1660e01b815260040161251499989796959493929190614e5b565b60006040518083038186803b15801561252c57600080fd5b505af4158015612540573d6000803e3d6000fd5b505050507ff1acc7c95db58afeb3d94de0a26290e01e681eaeae56c25b1115faf2541227f26006898154811061257857612578614b52565b90600052602060002090601e02016002018960068b8154811061259d5761259d614b52565b90600052602060002090601e02016018016002016040516125c093929190614ef7565b60405180910390a15050505050505050565b60006125e98c8c8c8c8c8c8c8c8c8c8c6000612b8d565b600680548083526001810182556000919091528151601e9091027ff652222313e28459528d920b65115c16c04f3efc82aaedc97be59f3f377c0d3f810191825560208084015180519495508594612667937ff652222313e28459528d920b65115c16c04f3efc82aaedc97be59f3f377c0d40019291909101906130b5565b50604082015180516126839160028401916020909101906130b5565b506060820151805161269f9160038401916020909101906130b5565b5060808201516126b59060048301906002613139565b5060a08201518051805160068401916126d3918391602001906130b5565b506020828101516001830155604083015180516126f692600285019201906130b5565b50505060c082015180516127149160098401916020909101906130b5565b5060e0820151600a8201805460ff19166001836002811115612738576127386133c6565b021790555061010082015161275390600b8301906003613185565b5061012082015181600e0160008201518160000160006101000a81548160ff02191690831515021790555060208201518160000160016101000a81548160ff02191690831515021790555060408201518160000160026101000a81548160ff021916908315150217905550505061014082015181600f0160008201518160000160006101000a81548160ff02191690831515021790555060208201518160000160016101000a81548160ff02191690831515021790555060408201518160000160026101000a81548160ff02191690831515021790555060608201518160000160036101000a81548160ff02191690831515021790555060808201518160000160046101000a81548160ff02191690831515021790555060a08201518160000160056101000a81548160ff02191690831515021790555060c08201518160000160066101000a81548160ff02191690831515021790555060e08201518160000160076101000a81548160ff0219169083151502179055506101008201518160000160086101000a81548160ff0219169083151502179055506101208201518160000160096101000a81548160ff02191690831515021790555061014082015181600001600a6101000a81548160ff02191690831515021790555061016082015181600001600b6101000a81548160ff02191690831515021790555061018082015181600001600c6101000a81548160ff0219169083151502179055506101a082015181600001600d6101000a81548160ff0219169083151502179055506101c082015181600001600e6101000a81548160ff0219169083151502179055506101e082015181600001600f6101000a81548160ff02191690831515021790555050506101608201518160100160008201518160000160006101000a81548160ff02191690831515021790555060208201518160000160016101000a81548160ff0219169083151502179055505050610180820151816011016000820151816000019080519060200190612a469291906130b5565b50602082810151600183015560408301518051612a6992600285019201906130b5565b50606082015160038201556080820151805180516004840191612a91918391602001906130b5565b506020828101518051612aaa92600185019201906130b5565b50505060a091909101516006909101805491151560ff199283161790556101a08301518051601884018054929390928391166001836004811115612af057612af06133c6565b02179055506020828101518051612b0d92600185019201906130b5565b506040820151612b2390600283019060036131b2565b5050506101c082015181601d015550507f40f080228d46fb72660eddafe315e4a5b47df236dc33b76fcd122bcbea89b01d8c8c6001600680549050612b689190614f5c565b604051612b7793929190614f73565b60405180910390a1505050505050505050505050565b612b95612f50565b60208181018e905260408083018e9052606083018d9052608083018c90528a5160a084018051919091528b8301518151909301929092528a8101519151015260c08101889052600060e082018190528751889190612bf557612bf5614b52565b6020026020010151816101000151600060038110612c1557612c15614b52565b6020020152865187906001908110612c2f57612c2f614b52565b6020026020010151816101000151600160038110612c4f57612c4f614b52565b602002015261010081015151875188906001908110612c7057612c70614b52565b60200260200101511015612cd65760405162461bcd60e51b815260206004820152602760248201527f53746172742064617465206d757374206265206166746572206372656174696f60448201526637103230ba329760c91b606482015260840161172c565b86600181518110612ce957612ce9614b52565b602002602001015187600281518110612d0457612d04614b52565b602002602001015111612d645760405162461bcd60e51b815260206004820152602260248201527f456e642064617465206d75737420626520616674657220737461727420646174604482015261329760f11b606482015260840161172c565b86600281518110612d7757612d77614b52565b6020026020010151816101000151600260038110612d9757612d97614b52565b602090810291909101919091526101208201879052610140820186905261018082018590528351610160830180519115159091528482015190519015159101528154826000612de583614d64565b9190505550816001018d604051612dfc9190614cc0565b9081526040519081900360200190208054906000612e1983614d64565b9190505550816003018c604051612e309190614cc0565b9081526040519081900360200190208054906000612e4d83614d64565b9190505550816002018d604051612e649190614cc0565b9081526040519081900360200190208054906000612e8183614d64565b9190505550816004018c604051612e989190614cc0565b9081526040519081900360200190208054906000612eb583614d64565b909155505088516040516005840191612ecd91614cc0565b9081526040519081900360200190208054906000612eea83614d64565b91905055509c9b505050505050505050505050565b6040518060c0016040528060608152602001600081526020016060815260200160008152602001612f43604051806040016040528060608152602001606081525090565b8152600060209091015290565b604051806101e0016040528060008152602001606081526020016060815260200160608152602001612f806131f2565b8152602001612fa960405180606001604052806060815260200160008152602001606081525090565b81526060602082015260400160008152602001612fc4613219565b81526040805160608101825260008082526020828101829052928201529101908152604080516102008101825260008082526020828101829052928201819052606082018190526080820181905260a0820181905260c0820181905260e08201819052610100820181905261012082018190526101408201819052610160820181905261018082018190526101a082018190526101c082018190526101e0820152910190815260200161308e60405180604001604052806000151581526020016000151581525090565b815260200161309b612eff565b81526020016130a8613237565b8152602001600081525090565b8280546130c190614b68565b90600052602060002090601f0160209004810192826130e35760008555613129565b82601f106130fc57805160ff1916838001178555613129565b82800160010185558215613129579182015b8281111561312957825182559160200191906001019061310e565b5061313592915061325b565b5090565b8260028101928215613179579160200282015b8281111561317957825180516131699184916020909101906130b5565b509160200191906001019061314c565b50613135929150613270565b8260038101928215613129579160200282018281111561312957825182559160200191906001019061310e565b8260038101928215613179579160200282015b8281111561317957825180516131e29184916020909101906130b5565b50916020019190600101906131c5565b60405180604001604052806002905b60608152602001906001900390816132015790505090565b60405180606001604052806003906020820280368337509192915050565b604080516060808201835260008252602082015290810161325661328d565b905290565b5b80821115613135576000815560010161325c565b8082111561313557600061328482826132a7565b50600101613270565b604080516060808201909252908152600260208201613201565b5080546132b390614b68565b6000825580601f106132c3575050565b601f0160209004906000526020600020908101906132e1919061325b565b50565b60005b838110156132ff5781810151838201526020016132e7565b8381111561330e576000848401525b50505050565b6000815180845261332c8160208601602086016132e4565b601f01601f19169290920160200192915050565b600082604081018360005b600281101561337a578383038752613364838351613314565b602097880197909350919091019060010161334b565b509095945050505050565b600081516060845261339a6060850182613314565b905060208301516020850152604083015184820360408601526133bd8282613314565b95945050505050565b634e487b7160e01b600052602160045260246000fd5b600381106133ec576133ec6133c6565b9052565b8060005b600381101561330e5781518452602093840193909101906001016133f4565b805115158252602081015161342c602084018215159052565b506040810151613440604084018215159052565b506060810151613454606084018215159052565b506080810151613468608084018215159052565b5060a081015161347c60a084018215159052565b5060c081015161349060c084018215159052565b5060e08101516134a460e084018215159052565b5061010081810151151590830152610120808201511515908301526101408082015115159083015261016080820151151590830152610180808201511515908301526101a0808201511515908301526101c0808201511515908301526101e0808201518015158285015261330e565b6000815160c0845261352860c0850182613314565b9050602083015160208501526040830151848203604086015261354b8282613314565b91505060608301516060850152608083015184820360808601528051604083526135786040840182613314565b90506020820151915082810360208401526135938183613314565b9250505060a0830151151560a08501528091505092915050565b60008151600581106135c1576135c16133c6565b808452506020808301516060828601526135de6060860182613314565b905060408401518582036040870152818290506060830160005b6003811015613623578482038352613611828551613314565b938601939286019291506001016135f8565b50979650505050505050565b600061046082518452602083015181602086015261364f82860182613314565b915050604083015184820360408601526136698282613314565b915050606083015184820360608601526136838282613314565b9150506080830151848203608086015261369d8282613340565b91505060a083015184820360a08601526136b78282613385565b91505060c083015184820360c08601526136d18282613314565b91505060e08301516136e660e08601826133dc565b50610100808401516136fa828701826133f0565b505061012083015161016061372b818701838051151582526020808201511515908301526040908101511515910152565b61014085015191506101c061374281880184613413565b81860151805115156103c08901526020015115156103e088015261018086015187850361040089015292506137778484613513565b93506101a0860151925086840361042088015261379484846135ad565b950151610440969096019590955250919392505050565b600081518084526020808501808196508360051b8101915082860160005b858110156137f35782840389526137e184835161362f565b988501989350908401906001016137c9565b5091979650505050505050565b602081526000610b6260208301846137ab565b60006020828403121561382557600080fd5b5035919050565b602081526000610b626020830184613513565b634e487b7160e01b600052604160045260246000fd5b6040516060810167ffffffffffffffff811182821017156138785761387861383f565b60405290565b604051610200810167ffffffffffffffff811182821017156138785761387861383f565b6040805190810167ffffffffffffffff811182821017156138785761387861383f565b60405160c0810167ffffffffffffffff811182821017156138785761387861383f565b6040516101e0810167ffffffffffffffff811182821017156138785761387861383f565b604051601f8201601f1916810167ffffffffffffffff811182821017156139355761393561383f565b604052919050565b600067ffffffffffffffff8211156139575761395761383f565b50601f01601f191660200190565b600082601f83011261397657600080fd5b81356139896139848261393d565b61390c565b81815284602083860101111561399e57600080fd5b816020850160208301376000918101602001919091529392505050565b6000602082840312156139cd57600080fd5b813567ffffffffffffffff8111156139e457600080fd5b610ac584828501613965565b604081526000613a0360408301856137ab565b90508260208301529392505050565b60008060408385031215613a2557600080fd5b50508035926020909101359150565b6000602080830181845280855180835260408601915060408160051b870101925083870160005b82811015613a8957603f19888603018452613a77858351613314565b94509285019290850190600101613a5b565b5092979650505050505050565b6020810161032e82846133dc565b80151581146132e157600080fd5b8035613abd81613aa4565b919050565b60008060408385031215613ad557600080fd5b823567ffffffffffffffff811115613aec57600080fd5b613af885828601613965565b9250506020830135613b0981613aa4565b809150509250929050565b602081526000610b62602083018461362f565b600080600080600060a08688031215613b3f57600080fd5b85359450602086013567ffffffffffffffff811115613b5d57600080fd5b613b6988828901613965565b959895975050505060408401359360608101359360809091013592509050565b60008060408385031215613b9c57600080fd5b82359150602083013567ffffffffffffffff811115613bba57600080fd5b613bc685828601613965565b9150509250929050565b8d81526103e060208201526000613beb6103e083018f613314565b8281036040840152613bfd818f613314565b90508281036060840152613c11818e613314565b90508281036080840152613c25818d613385565b905082810360a0840152613c39818c613314565b9050613c4860c084018b6133dc565b8851151560e08401526020890151151561010084015260408901511515610120840152613c79610140840189613413565b8651151561034084015260208701511515610360840152828103610380840152613ca38187613513565b90508281036103a0840152613cb881866135ad565b915050826103c08301529e9d5050505050505050505050505050565b600080600080600080600080610100898b031215613cf157600080fd5b88359750602089013567ffffffffffffffff80821115613d1057600080fd5b613d1c8c838d01613965565b985060408b0135915080821115613d3257600080fd5b613d3e8c838d01613965565b975060608b0135915080821115613d5457600080fd5b613d608c838d01613965565b965060808b0135915080821115613d7657600080fd5b613d828c838d01613965565b955060a08b0135945060c08b0135915080821115613d9f57600080fd5b613dab8c838d01613965565b935060e08b0135915080821115613dc157600080fd5b50613dce8b828c01613965565b9150509295985092959890939650565b600082601f830112613def57600080fd5b613df76138a2565b806040840185811115613e0957600080fd5b845b8181101561337a57803567ffffffffffffffff811115613e2b5760008081fd5b613e3788828901613965565b85525060209384019301613e0b565b600060608284031215613e5857600080fd5b613e60613855565b9050813567ffffffffffffffff80821115613e7a57600080fd5b613e8685838601613965565b8352602084013560208401526040840135915080821115613ea657600080fd5b50613eb384828501613965565b60408301525092915050565b600067ffffffffffffffff821115613ed957613ed961383f565b5060051b60200190565b600082601f830112613ef457600080fd5b81356020613f0461398483613ebf565b82815260059290921b84018101918181019086841115613f2357600080fd5b8286015b84811015613f3e5780358352918301918301613f27565b509695505050505050565b600060608284031215613f5b57600080fd5b613f63613855565b90508135613f7081613aa4565b81526020820135613f8081613aa4565b60208201526040820135613f9381613aa4565b604082015292915050565b60006102008284031215613fb157600080fd5b613fb961387e565b9050613fc482613ab2565b8152613fd260208301613ab2565b6020820152613fe360408301613ab2565b6040820152613ff460608301613ab2565b606082015261400560808301613ab2565b608082015261401660a08301613ab2565b60a082015261402760c08301613ab2565b60c082015261403860e08301613ab2565b60e082015261010061404b818401613ab2565b9082015261012061405d838201613ab2565b9082015261014061406f838201613ab2565b90820152610160614081838201613ab2565b90820152610180614093838201613ab2565b908201526101a06140a5838201613ab2565b908201526101c06140b7838201613ab2565b908201526101e06140c9838201613ab2565b9082015292915050565b6000604082840312156140e557600080fd5b6140ed6138a2565b9050813567ffffffffffffffff8082111561410757600080fd5b61411385838601613965565b8352602084013591508082111561412957600080fd5b5061413684828501613965565b60208301525092915050565b600060c0828403121561415457600080fd5b61415c6138c5565b9050813567ffffffffffffffff8082111561417657600080fd5b61418285838601613965565b83526020840135602084015260408401359150808211156141a257600080fd5b6141ae85838601613965565b60408401526060840135606084015260808401359150808211156141d157600080fd5b506141de848285016140d3565b6080830152506141f060a08301613ab2565b60a082015292915050565b60006040828403121561420d57600080fd5b6142156138a2565b9050813561422281613aa4565b8152602082013561423281613aa4565b602082015292915050565b60008060008060008060008060008060006103a08c8e03121561425f57600080fd5b67ffffffffffffffff808d35111561427657600080fd5b6142838e8e358f01613965565b9b508060208e0135111561429657600080fd5b6142a68e60208f01358f01613965565b9a508060408e013511156142b957600080fd5b6142c98e60408f01358f01613965565b99508060608e013511156142dc57600080fd5b6142ec8e60608f01358f01613dde565b98508060808e013511156142ff57600080fd5b61430f8e60808f01358f01613e46565b97508060a08e0135111561432257600080fd5b6143328e60a08f01358f01613965565b96508060c08e0135111561434557600080fd5b6143558e60c08f01358f01613ee3565b95506143648e60e08f01613f49565b94506143748e6101408f01613f9e565b9350806103408e0135111561438857600080fd5b5061439a8d6103408e01358e01614142565b91506143aa8d6103608e016141fb565b90509295989b509295989b9093969950565b600082601f8301126143cd57600080fd5b81516143db6139848261393d565b8181528460208386010111156143f057600080fd5b610ac58260208301602087016132e4565b600082601f83011261441257600080fd5b61441a6138a2565b80604084018581111561442c57600080fd5b845b8181101561337a57805167ffffffffffffffff81111561444e5760008081fd5b61445a888289016143bc565b8552506020938401930161442e565b60006060828403121561447b57600080fd5b614483613855565b9050815167ffffffffffffffff8082111561449d57600080fd5b6144a9858386016143bc565b83526020840151602084015260408401519150808211156144c957600080fd5b50613eb3848285016143bc565b805160038110613abd57600080fd5b600082601f8301126144f657600080fd5b6144fe613855565b80606084018581111561451057600080fd5b845b8181101561337a578051845260209384019301614512565b8051613abd81613aa4565b60006060828403121561454757600080fd5b61454f613855565b9050815161455c81613aa4565b8152602082015161456c81613aa4565b60208201526040820151613f9381613aa4565b6000610200828403121561459257600080fd5b61459a61387e565b90506145a58261452a565b81526145b36020830161452a565b60208201526145c46040830161452a565b60408201526145d56060830161452a565b60608201526145e66080830161452a565b60808201526145f760a0830161452a565b60a082015261460860c0830161452a565b60c082015261461960e0830161452a565b60e082015261010061462c81840161452a565b9082015261012061463e83820161452a565b9082015261014061465083820161452a565b9082015261016061466283820161452a565b9082015261018061467483820161452a565b908201526101a061468683820161452a565b908201526101c061469883820161452a565b908201526101e06140c983820161452a565b6000604082840312156146bc57600080fd5b6146c46138a2565b905081516146d181613aa4565b8152602082015161423281613aa4565b6000604082840312156146f357600080fd5b6146fb6138a2565b9050815167ffffffffffffffff8082111561471557600080fd5b614721858386016143bc565b8352602084015191508082111561473757600080fd5b50614136848285016143bc565b600060c0828403121561475657600080fd5b61475e6138c5565b9050815167ffffffffffffffff8082111561477857600080fd5b614784858386016143bc565b83526020840151602084015260408401519150808211156147a457600080fd5b6147b0858386016143bc565b60408401526060840151606084015260808401519150808211156147d357600080fd5b506147e0848285016146e1565b6080830152506141f060a0830161452a565b60006060828403121561480457600080fd5b61480c613855565b905081516005811061481d57600080fd5b815260208281015167ffffffffffffffff8082111561483b57600080fd5b614847868387016143bc565b83850152604085015191508082111561485f57600080fd5b818501915085601f83011261487357600080fd5b61487b613855565b80606084018881111561488d57600080fd5b845b818110156148c1578051858111156148a75760008081fd5b6148b38b8289016143bc565b85525092860192860161488f565b50506040860152509295945050505050565b600082601f8301126148e457600080fd5b815160206148f461398483613ebf565b82815260059290921b8401810191818101908684111561491357600080fd5b8286015b84811015613f3e57805167ffffffffffffffff808211156149385760008081fd5b90880190610460828b03601f19018113156149535760008081fd5b61495b6138e8565b878401518152604080850151848111156149755760008081fd5b6149838e8b838901016143bc565b8a840152506060808601518581111561499c5760008081fd5b6149aa8f8c838a01016143bc565b83850152506080915081860151858111156149c55760008081fd5b6149d38f8c838a01016143bc565b82850152505060a080860151858111156149ed5760008081fd5b6149fb8f8c838a0101614401565b838501525060c091508186015185811115614a165760008081fd5b614a248f8c838a0101614469565b82850152505060e08086015185811115614a3e5760008081fd5b614a4c8f8c838a01016143bc565b83850152506101009150614a618287016144d6565b90830152610120614a748e8783016144e5565b828401526101809150614a898e838801614535565b90830152614a9b8d6101e0870161457f565b610140830152614aaf8d6103e087016146aa565b61016083015261042085015184811115614ac95760008081fd5b614ad78e8b83890101614744565b82840152505061044084015183811115614af15760008081fd5b614aff8d8a838801016147f2565b6101a0830152509201516101c0830152508352918301918301614917565b600060208284031215614b2f57600080fd5b815167ffffffffffffffff811115614b4657600080fd5b610ac5848285016148d3565b634e487b7160e01b600052603260045260246000fd5b600181811c90821680614b7c57607f821691505b60208210811415614b9d57634e487b7160e01b600052602260045260246000fd5b50919050565b838152606060208201526000614bbc6060830185613314565b9050826040830152949350505050565b60008060408385031215614bdf57600080fd5b825167ffffffffffffffff811115614bf657600080fd5b614c02858286016148d3565b925050602083015190509250929050565b60008154614c2081614b68565b808552602060018381168015614c3d5760018114614c5157614c7f565b60ff19851688840152604088019550614c7f565b866000528260002060005b85811015614c775781548a8201860152908301908401614c5c565b890184019650505b505050505092915050565b606081526000614c9d6060830186614c13565b8281036020840152614caf8186614c13565b915050826040830152949350505050565b60008251614cd28184602087016132e4565b9190910192915050565b6000808354614cea81614b68565b60018281168015614d025760018114614d1357614d42565b60ff19841687528287019450614d42565b8760005260208060002060005b85811015614d395781548a820152908401908201614d20565b50505082870194505b50929695505050505050565b634e487b7160e01b600052601160045260246000fd5b6000600019821415614d7857614d78614d4e565b5060010190565b848152608060208201526000614d986080830186613314565b9315156040830152506060015292915050565b86815260c060208201526000614dc460c0830188613314565b90508560408301528460608301528360808301528260a0830152979650505050505050565b60e081526000614dfc60e083018a614c13565b8281036020840152614e0e818a614c13565b90508760408401528281036060840152614e288188613314565b6080840196909652505060a081019290925260c090910152949350505050565b604081526000613a036040830185614c13565b60006101208b8352806020840152614e758184018c613314565b90508281036040840152614e89818b613314565b90508281036060840152614e9d818a613314565b90508281036080840152614eb18189613314565b90508660a084015282810360c0840152614ecb8187613314565b905082810360e0840152614edf8186613314565b915050826101008301529a9950505050505050505050565b606081526000614f0a6060830186614c13565b6020838101869052838203604085015281606081018660005b6003811015614f4d578583038452614f3b8383614c13565b93850193925060019182019101614f23565b50909998505050505050505050565b600082821015614f6e57614f6e614d4e565b500390565b606081526000614f866060830186613314565b8281036020840152614caf818661331456fea2646970667358221220488cd3fb809b28ff655e7801d0ffb4163ed9053dff23739151a7e2f6e3ea196664736f6c63430008090033",
  "deployedBytecode": "0x608060405234801561001057600080fd5b50600436106101005760003560e01c80634dffbf0d11610097578063b5bdf36b11610066578063b5bdf36b14610236578063bd14de9614610249578063dd4be34b14610275578063ee4b2db51461028857600080fd5b80634dffbf0d146101dd5780634f9f6fe6146101f057806365fa865f14610210578063667a8beb1461022357600080fd5b806331f85eed116100d357806331f85eed1461017557806332893afb1461018a57806344c9af28146101aa578063482e2203146101ca57600080fd5b8063063bd15a146101055780631371b64a146101235780631c510ea91461014357806330937f3a14610154575b600080fd5b61010d61029b565b60405161011a9190613800565b60405180910390f35b610136610131366004613813565b610334565b60405161011a919061382c565b60065460405190815260200161011a565b6101676101623660046139bb565b6105f2565b60405161011a9291906139f0565b610188610183366004613a12565b610690565b005b61019d6101983660046139bb565b61080f565b60405161011a9190613a34565b6101bd6101b8366004613813565b6109fc565b60405161011a9190613a96565b61010d6101d8366004613ac2565b610a2e565b61010d6101eb3660046139bb565b610acd565b6102036101fe366004613813565b610b69565b60405161011a9190613b14565b61010d61021e366004613ac2565b61163d565b610188610231366004613b27565b611680565b610188610244366004613b89565b6118e7565b61025c610257366004613813565b611b4c565b60405161011a9d9c9b9a99989796959493929190613bd0565b610188610283366004613cd4565b6124ac565b61018861029636600461423d565b6125d2565b604051632e4e974560e21b81526006600482015260006024820181905260609173__$75e7f22b9b402b73b18aa123ef2235f582$__9063b93a5d149060440160006040518083038186803b1580156102f257600080fd5b505af4158015610306573d6000803e3d6000fd5b505050506040513d6000823e601f3d908101601f1916820160405261032e9190810190614b1d565b92915050565b61033c612eff565b6006828154811061034f5761034f614b52565b90600052602060002090601e02016011016040518060c001604052908160008201805461037b90614b68565b80601f01602080910402602001604051908101604052809291908181526020018280546103a790614b68565b80156103f45780601f106103c9576101008083540402835291602001916103f4565b820191906000526020600020905b8154815290600101906020018083116103d757829003601f168201915b505050505081526020016001820154815260200160028201805461041790614b68565b80601f016020809104026020016040519081016040528092919081815260200182805461044390614b68565b80156104905780601f1061046557610100808354040283529160200191610490565b820191906000526020600020905b81548152906001019060200180831161047357829003601f168201915b5050505050815260200160038201548152602001600482016040518060400160405290816000820180546104c390614b68565b80601f01602080910402602001604051908101604052809291908181526020018280546104ef90614b68565b801561053c5780601f106105115761010080835404028352916020019161053c565b820191906000526020600020905b81548152906001019060200180831161051f57829003601f168201915b5050505050815260200160018201805461055590614b68565b80601f016020809104026020016040519081016040528092919081815260200182805461058190614b68565b80156105ce5780601f106105a3576101008083540402835291602001916105ce565b820191906000526020600020905b8154815290600101906020018083116105b157829003601f168201915b5050509190925250505081526006919091015460ff16151560209091015292915050565b6060600073__$75e7f22b9b402b73b18aa123ef2235f582$__631b6bcbbf60068560006040518463ffffffff1660e01b815260040161063393929190614ba3565b60006040518083038186803b15801561064b57600080fd5b505af415801561065f573d6000803e3d6000fd5b505050506040513d6000823e601f3d908101601f191682016040526106879190810190614bcc565b91509150915091565b73__$b6264364eb2f1db0035d8bfd2272b8857e$__63d84ea008600684815481106106bd576106bd614b52565b6000918252602082206040517fffffffff0000000000000000000000000000000000000000000000000000000060e086901b168152601e90920201600482015260248101859052604481019190915260640160006040518083038186803b15801561072757600080fd5b505af415801561073b573d6000803e3d6000fd5b5060029250610748915050565b6006838154811061075b5761075b614b52565b60009182526020909120600a601e90920201015460ff166002811115610783576107836133c6565b141561080b577f8fdec0edc19a1eb9147642be05b326b7f5d42bf96f5ba734530bfca33bc8d7e9600683815481106107bd576107bd614b52565b90600052602060002090601e0201600101600684815481106107e1576107e1614b52565b90600052602060002090601e02016002018460405161080293929190614c8a565b60405180910390a15b5050565b6060600080600501836040516108259190614cc0565b90815260200160405180910390205467ffffffffffffffff81111561084c5761084c61383f565b60405190808252806020026020018201604052801561087f57816020015b606081526020019060019003908161086a5790505b5090506000805b6006548110156109f357846040516020016108a19190614cc0565b60405160208183030381529060405280519060200120600682815481106108ca576108ca614b52565b90600052602060002090601e02016006016000016040516020016108ee9190614cdc565b6040516020818303038152906040528051906020012014156109e1576006818154811061091d5761091d614b52565b90600052602060002090601e0201600201805461093990614b68565b80601f016020809104026020016040519081016040528092919081815260200182805461096590614b68565b80156109b25780601f10610987576101008083540402835291602001916109b2565b820191906000526020600020905b81548152906001019060200180831161099557829003601f168201915b50505050508383806109c390614d64565b9450815181106109d5576109d5614b52565b60200260200101819052505b806109eb81614d64565b915050610886565b50909392505050565b600060068281548110610a1157610a11614b52565b60009182526020909120600a601e90920201015460ff1692915050565b6060600073__$75e7f22b9b402b73b18aa123ef2235f582$__635e5cf2c26006868660006040518563ffffffff1660e01b8152600401610a719493929190614d7f565b60006040518083038186803b158015610a8957600080fd5b505af4158015610a9d573d6000803e3d6000fd5b505050506040513d6000823e601f3d908101601f19168201604052610ac59190810190614b1d565b949350505050565b6060600073__$75e7f22b9b402b73b18aa123ef2235f582$__63e41ecb3b60068560006040518463ffffffff1660e01b8152600401610b0e93929190614ba3565b60006040518083038186803b158015610b2657600080fd5b505af4158015610b3a573d6000803e3d6000fd5b505050506040513d6000823e601f3d908101601f19168201604052610b629190810190614b1d565b9392505050565b610b71612f50565b60068281548110610b8457610b84614b52565b90600052602060002090601e0201604051806101e001604052908160008201548152602001600182018054610bb890614b68565b80601f0160208091040260200160405190810160405280929190818152602001828054610be490614b68565b8015610c315780601f10610c0657610100808354040283529160200191610c31565b820191906000526020600020905b815481529060010190602001808311610c1457829003601f168201915b50505050508152602001600282018054610c4a90614b68565b80601f0160208091040260200160405190810160405280929190818152602001828054610c7690614b68565b8015610cc35780601f10610c9857610100808354040283529160200191610cc3565b820191906000526020600020905b815481529060010190602001808311610ca657829003601f168201915b50505050508152602001600382018054610cdc90614b68565b80601f0160208091040260200160405190810160405280929190818152602001828054610d0890614b68565b8015610d555780601f10610d2a57610100808354040283529160200191610d55565b820191906000526020600020905b815481529060010190602001808311610d3857829003601f168201915b5050509183525050604080518082019091526020909101906004830160026000835b82821015610e1a578382018054610d8d90614b68565b80601f0160208091040260200160405190810160405280929190818152602001828054610db990614b68565b8015610e065780601f10610ddb57610100808354040283529160200191610e06565b820191906000526020600020905b815481529060010190602001808311610de957829003601f168201915b505050505081526020019060010190610d77565b50505050815260200160068201604051806060016040529081600082018054610e4290614b68565b80601f0160208091040260200160405190810160405280929190818152602001828054610e6e90614b68565b8015610ebb5780601f10610e9057610100808354040283529160200191610ebb565b820191906000526020600020905b815481529060010190602001808311610e9e57829003601f168201915b5050505050815260200160018201548152602001600282018054610ede90614b68565b80601f0160208091040260200160405190810160405280929190818152602001828054610f0a90614b68565b8015610f575780601f10610f2c57610100808354040283529160200191610f57565b820191906000526020600020905b815481529060010190602001808311610f3a57829003601f168201915b5050505050815250508152602001600982018054610f7490614b68565b80601f0160208091040260200160405190810160405280929190818152602001828054610fa090614b68565b8015610fed5780601f10610fc257610100808354040283529160200191610fed565b820191906000526020600020905b815481529060010190602001808311610fd057829003601f168201915b5050509183525050600a82015460209091019060ff166002811115611014576110146133c6565b6002811115611025576110256133c6565b815260408051606081019182905260209092019190600b84019060039082845b8154815260200190600101908083116110455750505091835250506040805160608082018352600e85015460ff80821615158452610100808304821615156020868101919091526201000093849004831615158688015280880195909552855161020081018752600f89015480841615158252828104841615158288015293840483161515818801526301000000840483161515818601526401000000008404831615156080808301919091526501000000000085048416151560a0830152660100000000000085048416151560c08084019190915267010000000000000086048516151560e0840152680100000000000000008604851615158385015269010000000000000000008604851615156101208401526a0100000000000000000000860485161515610140840152600160581b860485161515610160840152600160601b860485161515610180840152600160681b8604851615156101a0840152600160701b8604851615156101c0840152600160781b909504841615156101e0830152878901919091528651808801885260108a01548085161515825292909204909216151594810194909452918501929092528251918201909252601184018054929093019290918290829061121b90614b68565b80601f016020809104026020016040519081016040528092919081815260200182805461124790614b68565b80156112945780601f1061126957610100808354040283529160200191611294565b820191906000526020600020905b81548152906001019060200180831161127757829003601f168201915b50505050508152602001600182015481526020016002820180546112b790614b68565b80601f01602080910402602001604051908101604052809291908181526020018280546112e390614b68565b80156113305780601f1061130557610100808354040283529160200191611330565b820191906000526020600020905b81548152906001019060200180831161131357829003601f168201915b50505050508152602001600382015481526020016004820160405180604001604052908160008201805461136390614b68565b80601f016020809104026020016040519081016040528092919081815260200182805461138f90614b68565b80156113dc5780601f106113b1576101008083540402835291602001916113dc565b820191906000526020600020905b8154815290600101906020018083116113bf57829003601f168201915b505050505081526020016001820180546113f590614b68565b80601f016020809104026020016040519081016040528092919081815260200182805461142190614b68565b801561146e5780601f106114435761010080835404028352916020019161146e565b820191906000526020600020905b81548152906001019060200180831161145157829003601f168201915b5050509190925250505081526006919091015460ff908116151560209283015291835260408051606081019091526018850180549490920193909283911660048111156114bd576114bd6133c6565b60048111156114ce576114ce6133c6565b81526020016001820180546114e290614b68565b80601f016020809104026020016040519081016040528092919081815260200182805461150e90614b68565b801561155b5780601f106115305761010080835404028352916020019161155b565b820191906000526020600020905b81548152906001019060200180831161153e57829003601f168201915b505050918352505060408051606081019091526020909101906002830160036000835b8282101561162157838201805461159490614b68565b80601f01602080910402602001604051908101604052809291908181526020018280546115c090614b68565b801561160d5780601f106115e25761010080835404028352916020019161160d565b820191906000526020600020905b8154815290600101906020018083116115f057829003601f168201915b50505050508152602001906001019061157e565b505050915250508152601d919091015460209091015292915050565b6060600073__$75e7f22b9b402b73b18aa123ef2235f582$__6319e5b3b76006868660006040518563ffffffff1660e01b8152600401610a719493929190614d7f565b60016006868154811061169557611695614b52565b60009182526020909120600a601e90920201015460ff1660028111156116bd576116bd6133c6565b146117355760405162461bcd60e51b815260206004820152603660248201527f41677265656d656e74206d7573742062652076696f6c6174656420696e206f7260448201527f64657220746f20656e666f7263652070656e616c74790000000000000000000060648201526084015b60405180910390fd5b604051685465726d696e61746560b81b602082015260290160405160208183030381529060405280519060200120846040516020016117749190614cc0565b6040516020818303038152906040528051906020012014156117a05761179b856002610690565b6118e0565b73__$fd670a7a8cf286bc46dd07184f1e6a9adc$__63cb5893c9600687815481106117cd576117cd614b52565b90600052602060002090601e02018686868660006040518763ffffffff1660e01b815260040161180296959493929190614dab565b60006040518083038186803b15801561181a57600080fd5b505af415801561182e573d6000803e3d6000fd5b505050507f6a5b41877c1e19e7405feb10468979239b83616b44fef14f87bc82641810bcde6006868154811061186657611866614b52565b90600052602060002090601e02016001016006878154811061188a5761188a614b52565b90600052602060002090601e0201600201600688815481106118ae576118ae614b52565b90600052602060002090601e020160000154878588886040516118d79796959493929190614de9565b60405180910390a15b5050505050565b806040516020016118f89190614cc0565b604051602081830303815290604052805190602001206006838154811061192157611921614b52565b90600052602060002090601e02016001016040516020016119429190614cdc565b6040516020818303038152906040528051906020012014806119d25750806040516020016119709190614cc0565b604051602081830303815290604052805190602001206006838154811061199957611999614b52565b90600052602060002090601e02016002016040516020016119ba9190614cdc565b60405160208183030381529060405280519060200120145b6119db57600080fd5b6001600683815481106119f0576119f0614b52565b90600052602060002090601e0201601d018190555080604051602001611a169190614cc0565b6040516020818303038152906040528051906020012060068381548110611a3f57611a3f614b52565b90600052602060002090601e0201600101604051602001611a609190614cdc565b604051602081830303815290604052805190602001201415611af4577f5b110f233309bfcc0428fef61705787d5e6e67380b4a0ec71654cf1de0496a6d60068381548110611ab057611ab0614b52565b90600052602060002090601e020160020160068481548110611ad457611ad4614b52565b90600052602060002090601e020160000154604051610802929190614e48565b7f5b110f233309bfcc0428fef61705787d5e6e67380b4a0ec71654cf1de0496a6d60068381548110611b2857611b28614b52565b90600052602060002090601e020160010160068481548110611ad457611ad4614b52565b60068181548110611b5c57600080fd5b60009182526020909120601e90910201805460018201805491935090611b8190614b68565b80601f0160208091040260200160405190810160405280929190818152602001828054611bad90614b68565b8015611bfa5780601f10611bcf57610100808354040283529160200191611bfa565b820191906000526020600020905b815481529060010190602001808311611bdd57829003601f168201915b505050505090806002018054611c0f90614b68565b80601f0160208091040260200160405190810160405280929190818152602001828054611c3b90614b68565b8015611c885780601f10611c5d57610100808354040283529160200191611c88565b820191906000526020600020905b815481529060010190602001808311611c6b57829003601f168201915b505050505090806003018054611c9d90614b68565b80601f0160208091040260200160405190810160405280929190818152602001828054611cc990614b68565b8015611d165780601f10611ceb57610100808354040283529160200191611d16565b820191906000526020600020905b815481529060010190602001808311611cf957829003601f168201915b50505050509080600601604051806060016040529081600082018054611d3b90614b68565b80601f0160208091040260200160405190810160405280929190818152602001828054611d6790614b68565b8015611db45780601f10611d8957610100808354040283529160200191611db4565b820191906000526020600020905b815481529060010190602001808311611d9757829003601f168201915b5050505050815260200160018201548152602001600282018054611dd790614b68565b80601f0160208091040260200160405190810160405280929190818152602001828054611e0390614b68565b8015611e505780601f10611e2557610100808354040283529160200191611e50565b820191906000526020600020905b815481529060010190602001808311611e3357829003601f168201915b50505050508152505090806009018054611e6990614b68565b80601f0160208091040260200160405190810160405280929190818152602001828054611e9590614b68565b8015611ee25780601f10611eb757610100808354040283529160200191611ee2565b820191906000526020600020905b815481529060010190602001808311611ec557829003601f168201915b505050600a8401546040805160608082018352600e88015460ff818116151584526101008083048216151560208087019190915262010000938490048316151586880152865161020081018852600f8d0154808516151582528381048516151582840152948504841615158189015263010000008504841615159581019590955264010000000084048316151560808601526501000000000084048316151560a0860152660100000000000084048316151560c08087019190915267010000000000000085048416151560e0870152680100000000000000008504841615158684015269010000000000000000008504841615156101208701526a0100000000000000000000850484161515610140870152600160581b850484161515610160870152600160601b850484161515610180870152600160681b8504841615156101a0870152600160701b8504841615156101c0870152600160781b909404831615156101e08601528651808801885260108d015480851615158252929092048316151590820152855192830190955260118a018054999a919096169893975091955092939092918290829061209690614b68565b80601f01602080910402602001604051908101604052809291908181526020018280546120c290614b68565b801561210f5780601f106120e45761010080835404028352916020019161210f565b820191906000526020600020905b8154815290600101906020018083116120f257829003601f168201915b505050505081526020016001820154815260200160028201805461213290614b68565b80601f016020809104026020016040519081016040528092919081815260200182805461215e90614b68565b80156121ab5780601f10612180576101008083540402835291602001916121ab565b820191906000526020600020905b81548152906001019060200180831161218e57829003601f168201915b5050505050815260200160038201548152602001600482016040518060400160405290816000820180546121de90614b68565b80601f016020809104026020016040519081016040528092919081815260200182805461220a90614b68565b80156122575780601f1061222c57610100808354040283529160200191612257565b820191906000526020600020905b81548152906001019060200180831161223a57829003601f168201915b5050505050815260200160018201805461227090614b68565b80601f016020809104026020016040519081016040528092919081815260200182805461229c90614b68565b80156122e95780601f106122be576101008083540402835291602001916122e9565b820191906000526020600020905b8154815290600101906020018083116122cc57829003601f168201915b5050509190925250505081526006919091015460ff90811615156020909201919091526040805160608101909152601884018054939493919290918391166004811115612338576123386133c6565b6004811115612349576123496133c6565b815260200160018201805461235d90614b68565b80601f016020809104026020016040519081016040528092919081815260200182805461238990614b68565b80156123d65780601f106123ab576101008083540402835291602001916123d6565b820191906000526020600020905b8154815290600101906020018083116123b957829003601f168201915b505050918352505060408051606081019091526020909101906002830160036000835b8282101561249c57838201805461240f90614b68565b80601f016020809104026020016040519081016040528092919081815260200182805461243b90614b68565b80156124885780601f1061245d57610100808354040283529160200191612488565b820191906000526020600020905b81548152906001019060200180831161246b57829003601f168201915b5050505050815260200190600101906123f9565b50505091525050601d909101548d565b73__$fd670a7a8cf286bc46dd07184f1e6a9adc$__6311a55ede60068a815481106124d9576124d9614b52565b90600052602060002090601e02018989898989898960006040518a63ffffffff1660e01b815260040161251499989796959493929190614e5b565b60006040518083038186803b15801561252c57600080fd5b505af4158015612540573d6000803e3d6000fd5b505050507ff1acc7c95db58afeb3d94de0a26290e01e681eaeae56c25b1115faf2541227f26006898154811061257857612578614b52565b90600052602060002090601e02016002018960068b8154811061259d5761259d614b52565b90600052602060002090601e02016018016002016040516125c093929190614ef7565b60405180910390a15050505050505050565b60006125e98c8c8c8c8c8c8c8c8c8c8c6000612b8d565b600680548083526001810182556000919091528151601e9091027ff652222313e28459528d920b65115c16c04f3efc82aaedc97be59f3f377c0d3f810191825560208084015180519495508594612667937ff652222313e28459528d920b65115c16c04f3efc82aaedc97be59f3f377c0d40019291909101906130b5565b50604082015180516126839160028401916020909101906130b5565b506060820151805161269f9160038401916020909101906130b5565b5060808201516126b59060048301906002613139565b5060a08201518051805160068401916126d3918391602001906130b5565b506020828101516001830155604083015180516126f692600285019201906130b5565b50505060c082015180516127149160098401916020909101906130b5565b5060e0820151600a8201805460ff19166001836002811115612738576127386133c6565b021790555061010082015161275390600b8301906003613185565b5061012082015181600e0160008201518160000160006101000a81548160ff02191690831515021790555060208201518160000160016101000a81548160ff02191690831515021790555060408201518160000160026101000a81548160ff021916908315150217905550505061014082015181600f0160008201518160000160006101000a81548160ff02191690831515021790555060208201518160000160016101000a81548160ff02191690831515021790555060408201518160000160026101000a81548160ff02191690831515021790555060608201518160000160036101000a81548160ff02191690831515021790555060808201518160000160046101000a81548160ff02191690831515021790555060a08201518160000160056101000a81548160ff02191690831515021790555060c08201518160000160066101000a81548160ff02191690831515021790555060e08201518160000160076101000a81548160ff0219169083151502179055506101008201518160000160086101000a81548160ff0219169083151502179055506101208201518160000160096101000a81548160ff02191690831515021790555061014082015181600001600a6101000a81548160ff02191690831515021790555061016082015181600001600b6101000a81548160ff02191690831515021790555061018082015181600001600c6101000a81548160ff0219169083151502179055506101a082015181600001600d6101000a81548160ff0219169083151502179055506101c082015181600001600e6101000a81548160ff0219169083151502179055506101e082015181600001600f6101000a81548160ff02191690831515021790555050506101608201518160100160008201518160000160006101000a81548160ff02191690831515021790555060208201518160000160016101000a81548160ff0219169083151502179055505050610180820151816011016000820151816000019080519060200190612a469291906130b5565b50602082810151600183015560408301518051612a6992600285019201906130b5565b50606082015160038201556080820151805180516004840191612a91918391602001906130b5565b506020828101518051612aaa92600185019201906130b5565b50505060a091909101516006909101805491151560ff199283161790556101a08301518051601884018054929390928391166001836004811115612af057612af06133c6565b02179055506020828101518051612b0d92600185019201906130b5565b506040820151612b2390600283019060036131b2565b5050506101c082015181601d015550507f40f080228d46fb72660eddafe315e4a5b47df236dc33b76fcd122bcbea89b01d8c8c6001600680549050612b689190614f5c565b604051612b7793929190614f73565b60405180910390a1505050505050505050505050565b612b95612f50565b60208181018e905260408083018e9052606083018d9052608083018c90528a5160a084018051919091528b8301518151909301929092528a8101519151015260c08101889052600060e082018190528751889190612bf557612bf5614b52565b6020026020010151816101000151600060038110612c1557612c15614b52565b6020020152865187906001908110612c2f57612c2f614b52565b6020026020010151816101000151600160038110612c4f57612c4f614b52565b602002015261010081015151875188906001908110612c7057612c70614b52565b60200260200101511015612cd65760405162461bcd60e51b815260206004820152602760248201527f53746172742064617465206d757374206265206166746572206372656174696f60448201526637103230ba329760c91b606482015260840161172c565b86600181518110612ce957612ce9614b52565b602002602001015187600281518110612d0457612d04614b52565b602002602001015111612d645760405162461bcd60e51b815260206004820152602260248201527f456e642064617465206d75737420626520616674657220737461727420646174604482015261329760f11b606482015260840161172c565b86600281518110612d7757612d77614b52565b6020026020010151816101000151600260038110612d9757612d97614b52565b602090810291909101919091526101208201879052610140820186905261018082018590528351610160830180519115159091528482015190519015159101528154826000612de583614d64565b9190505550816001018d604051612dfc9190614cc0565b9081526040519081900360200190208054906000612e1983614d64565b9190505550816003018c604051612e309190614cc0565b9081526040519081900360200190208054906000612e4d83614d64565b9190505550816002018d604051612e649190614cc0565b9081526040519081900360200190208054906000612e8183614d64565b9190505550816004018c604051612e989190614cc0565b9081526040519081900360200190208054906000612eb583614d64565b909155505088516040516005840191612ecd91614cc0565b9081526040519081900360200190208054906000612eea83614d64565b91905055509c9b505050505050505050505050565b6040518060c0016040528060608152602001600081526020016060815260200160008152602001612f43604051806040016040528060608152602001606081525090565b8152600060209091015290565b604051806101e0016040528060008152602001606081526020016060815260200160608152602001612f806131f2565b8152602001612fa960405180606001604052806060815260200160008152602001606081525090565b81526060602082015260400160008152602001612fc4613219565b81526040805160608101825260008082526020828101829052928201529101908152604080516102008101825260008082526020828101829052928201819052606082018190526080820181905260a0820181905260c0820181905260e08201819052610100820181905261012082018190526101408201819052610160820181905261018082018190526101a082018190526101c082018190526101e0820152910190815260200161308e60405180604001604052806000151581526020016000151581525090565b815260200161309b612eff565b81526020016130a8613237565b8152602001600081525090565b8280546130c190614b68565b90600052602060002090601f0160209004810192826130e35760008555613129565b82601f106130fc57805160ff1916838001178555613129565b82800160010185558215613129579182015b8281111561312957825182559160200191906001019061310e565b5061313592915061325b565b5090565b8260028101928215613179579160200282015b8281111561317957825180516131699184916020909101906130b5565b509160200191906001019061314c565b50613135929150613270565b8260038101928215613129579160200282018281111561312957825182559160200191906001019061310e565b8260038101928215613179579160200282015b8281111561317957825180516131e29184916020909101906130b5565b50916020019190600101906131c5565b60405180604001604052806002905b60608152602001906001900390816132015790505090565b60405180606001604052806003906020820280368337509192915050565b604080516060808201835260008252602082015290810161325661328d565b905290565b5b80821115613135576000815560010161325c565b8082111561313557600061328482826132a7565b50600101613270565b604080516060808201909252908152600260208201613201565b5080546132b390614b68565b6000825580601f106132c3575050565b601f0160209004906000526020600020908101906132e1919061325b565b50565b60005b838110156132ff5781810151838201526020016132e7565b8381111561330e576000848401525b50505050565b6000815180845261332c8160208601602086016132e4565b601f01601f19169290920160200192915050565b600082604081018360005b600281101561337a578383038752613364838351613314565b602097880197909350919091019060010161334b565b509095945050505050565b600081516060845261339a6060850182613314565b905060208301516020850152604083015184820360408601526133bd8282613314565b95945050505050565b634e487b7160e01b600052602160045260246000fd5b600381106133ec576133ec6133c6565b9052565b8060005b600381101561330e5781518452602093840193909101906001016133f4565b805115158252602081015161342c602084018215159052565b506040810151613440604084018215159052565b506060810151613454606084018215159052565b506080810151613468608084018215159052565b5060a081015161347c60a084018215159052565b5060c081015161349060c084018215159052565b5060e08101516134a460e084018215159052565b5061010081810151151590830152610120808201511515908301526101408082015115159083015261016080820151151590830152610180808201511515908301526101a0808201511515908301526101c0808201511515908301526101e0808201518015158285015261330e565b6000815160c0845261352860c0850182613314565b9050602083015160208501526040830151848203604086015261354b8282613314565b91505060608301516060850152608083015184820360808601528051604083526135786040840182613314565b90506020820151915082810360208401526135938183613314565b9250505060a0830151151560a08501528091505092915050565b60008151600581106135c1576135c16133c6565b808452506020808301516060828601526135de6060860182613314565b905060408401518582036040870152818290506060830160005b6003811015613623578482038352613611828551613314565b938601939286019291506001016135f8565b50979650505050505050565b600061046082518452602083015181602086015261364f82860182613314565b915050604083015184820360408601526136698282613314565b915050606083015184820360608601526136838282613314565b9150506080830151848203608086015261369d8282613340565b91505060a083015184820360a08601526136b78282613385565b91505060c083015184820360c08601526136d18282613314565b91505060e08301516136e660e08601826133dc565b50610100808401516136fa828701826133f0565b505061012083015161016061372b818701838051151582526020808201511515908301526040908101511515910152565b61014085015191506101c061374281880184613413565b81860151805115156103c08901526020015115156103e088015261018086015187850361040089015292506137778484613513565b93506101a0860151925086840361042088015261379484846135ad565b950151610440969096019590955250919392505050565b600081518084526020808501808196508360051b8101915082860160005b858110156137f35782840389526137e184835161362f565b988501989350908401906001016137c9565b5091979650505050505050565b602081526000610b6260208301846137ab565b60006020828403121561382557600080fd5b5035919050565b602081526000610b626020830184613513565b634e487b7160e01b600052604160045260246000fd5b6040516060810167ffffffffffffffff811182821017156138785761387861383f565b60405290565b604051610200810167ffffffffffffffff811182821017156138785761387861383f565b6040805190810167ffffffffffffffff811182821017156138785761387861383f565b60405160c0810167ffffffffffffffff811182821017156138785761387861383f565b6040516101e0810167ffffffffffffffff811182821017156138785761387861383f565b604051601f8201601f1916810167ffffffffffffffff811182821017156139355761393561383f565b604052919050565b600067ffffffffffffffff8211156139575761395761383f565b50601f01601f191660200190565b600082601f83011261397657600080fd5b81356139896139848261393d565b61390c565b81815284602083860101111561399e57600080fd5b816020850160208301376000918101602001919091529392505050565b6000602082840312156139cd57600080fd5b813567ffffffffffffffff8111156139e457600080fd5b610ac584828501613965565b604081526000613a0360408301856137ab565b90508260208301529392505050565b60008060408385031215613a2557600080fd5b50508035926020909101359150565b6000602080830181845280855180835260408601915060408160051b870101925083870160005b82811015613a8957603f19888603018452613a77858351613314565b94509285019290850190600101613a5b565b5092979650505050505050565b6020810161032e82846133dc565b80151581146132e157600080fd5b8035613abd81613aa4565b919050565b60008060408385031215613ad557600080fd5b823567ffffffffffffffff811115613aec57600080fd5b613af885828601613965565b9250506020830135613b0981613aa4565b809150509250929050565b602081526000610b62602083018461362f565b600080600080600060a08688031215613b3f57600080fd5b85359450602086013567ffffffffffffffff811115613b5d57600080fd5b613b6988828901613965565b959895975050505060408401359360608101359360809091013592509050565b60008060408385031215613b9c57600080fd5b82359150602083013567ffffffffffffffff811115613bba57600080fd5b613bc685828601613965565b9150509250929050565b8d81526103e060208201526000613beb6103e083018f613314565b8281036040840152613bfd818f613314565b90508281036060840152613c11818e613314565b90508281036080840152613c25818d613385565b905082810360a0840152613c39818c613314565b9050613c4860c084018b6133dc565b8851151560e08401526020890151151561010084015260408901511515610120840152613c79610140840189613413565b8651151561034084015260208701511515610360840152828103610380840152613ca38187613513565b90508281036103a0840152613cb881866135ad565b915050826103c08301529e9d5050505050505050505050505050565b600080600080600080600080610100898b031215613cf157600080fd5b88359750602089013567ffffffffffffffff80821115613d1057600080fd5b613d1c8c838d01613965565b985060408b0135915080821115613d3257600080fd5b613d3e8c838d01613965565b975060608b0135915080821115613d5457600080fd5b613d608c838d01613965565b965060808b0135915080821115613d7657600080fd5b613d828c838d01613965565b955060a08b0135945060c08b0135915080821115613d9f57600080fd5b613dab8c838d01613965565b935060e08b0135915080821115613dc157600080fd5b50613dce8b828c01613965565b9150509295985092959890939650565b600082601f830112613def57600080fd5b613df76138a2565b806040840185811115613e0957600080fd5b845b8181101561337a57803567ffffffffffffffff811115613e2b5760008081fd5b613e3788828901613965565b85525060209384019301613e0b565b600060608284031215613e5857600080fd5b613e60613855565b9050813567ffffffffffffffff80821115613e7a57600080fd5b613e8685838601613965565b8352602084013560208401526040840135915080821115613ea657600080fd5b50613eb384828501613965565b60408301525092915050565b600067ffffffffffffffff821115613ed957613ed961383f565b5060051b60200190565b600082601f830112613ef457600080fd5b81356020613f0461398483613ebf565b82815260059290921b84018101918181019086841115613f2357600080fd5b8286015b84811015613f3e5780358352918301918301613f27565b509695505050505050565b600060608284031215613f5b57600080fd5b613f63613855565b90508135613f7081613aa4565b81526020820135613f8081613aa4565b60208201526040820135613f9381613aa4565b604082015292915050565b60006102008284031215613fb157600080fd5b613fb961387e565b9050613fc482613ab2565b8152613fd260208301613ab2565b6020820152613fe360408301613ab2565b6040820152613ff460608301613ab2565b606082015261400560808301613ab2565b608082015261401660a08301613ab2565b60a082015261402760c08301613ab2565b60c082015261403860e08301613ab2565b60e082015261010061404b818401613ab2565b9082015261012061405d838201613ab2565b9082015261014061406f838201613ab2565b90820152610160614081838201613ab2565b90820152610180614093838201613ab2565b908201526101a06140a5838201613ab2565b908201526101c06140b7838201613ab2565b908201526101e06140c9838201613ab2565b9082015292915050565b6000604082840312156140e557600080fd5b6140ed6138a2565b9050813567ffffffffffffffff8082111561410757600080fd5b61411385838601613965565b8352602084013591508082111561412957600080fd5b5061413684828501613965565b60208301525092915050565b600060c0828403121561415457600080fd5b61415c6138c5565b9050813567ffffffffffffffff8082111561417657600080fd5b61418285838601613965565b83526020840135602084015260408401359150808211156141a257600080fd5b6141ae85838601613965565b60408401526060840135606084015260808401359150808211156141d157600080fd5b506141de848285016140d3565b6080830152506141f060a08301613ab2565b60a082015292915050565b60006040828403121561420d57600080fd5b6142156138a2565b9050813561422281613aa4565b8152602082013561423281613aa4565b602082015292915050565b60008060008060008060008060008060006103a08c8e03121561425f57600080fd5b67ffffffffffffffff808d35111561427657600080fd5b6142838e8e358f01613965565b9b508060208e0135111561429657600080fd5b6142a68e60208f01358f01613965565b9a508060408e013511156142b957600080fd5b6142c98e60408f01358f01613965565b99508060608e013511156142dc57600080fd5b6142ec8e60608f01358f01613dde565b98508060808e013511156142ff57600080fd5b61430f8e60808f01358f01613e46565b97508060a08e0135111561432257600080fd5b6143328e60a08f01358f01613965565b96508060c08e0135111561434557600080fd5b6143558e60c08f01358f01613ee3565b95506143648e60e08f01613f49565b94506143748e6101408f01613f9e565b9350806103408e0135111561438857600080fd5b5061439a8d6103408e01358e01614142565b91506143aa8d6103608e016141fb565b90509295989b509295989b9093969950565b600082601f8301126143cd57600080fd5b81516143db6139848261393d565b8181528460208386010111156143f057600080fd5b610ac58260208301602087016132e4565b600082601f83011261441257600080fd5b61441a6138a2565b80604084018581111561442c57600080fd5b845b8181101561337a57805167ffffffffffffffff81111561444e5760008081fd5b61445a888289016143bc565b8552506020938401930161442e565b60006060828403121561447b57600080fd5b614483613855565b9050815167ffffffffffffffff8082111561449d57600080fd5b6144a9858386016143bc565b83526020840151602084015260408401519150808211156144c957600080fd5b50613eb3848285016143bc565b805160038110613abd57600080fd5b600082601f8301126144f657600080fd5b6144fe613855565b80606084018581111561451057600080fd5b845b8181101561337a578051845260209384019301614512565b8051613abd81613aa4565b60006060828403121561454757600080fd5b61454f613855565b9050815161455c81613aa4565b8152602082015161456c81613aa4565b60208201526040820151613f9381613aa4565b6000610200828403121561459257600080fd5b61459a61387e565b90506145a58261452a565b81526145b36020830161452a565b60208201526145c46040830161452a565b60408201526145d56060830161452a565b60608201526145e66080830161452a565b60808201526145f760a0830161452a565b60a082015261460860c0830161452a565b60c082015261461960e0830161452a565b60e082015261010061462c81840161452a565b9082015261012061463e83820161452a565b9082015261014061465083820161452a565b9082015261016061466283820161452a565b9082015261018061467483820161452a565b908201526101a061468683820161452a565b908201526101c061469883820161452a565b908201526101e06140c983820161452a565b6000604082840312156146bc57600080fd5b6146c46138a2565b905081516146d181613aa4565b8152602082015161423281613aa4565b6000604082840312156146f357600080fd5b6146fb6138a2565b9050815167ffffffffffffffff8082111561471557600080fd5b614721858386016143bc565b8352602084015191508082111561473757600080fd5b50614136848285016143bc565b600060c0828403121561475657600080fd5b61475e6138c5565b9050815167ffffffffffffffff8082111561477857600080fd5b614784858386016143bc565b83526020840151602084015260408401519150808211156147a457600080fd5b6147b0858386016143bc565b60408401526060840151606084015260808401519150808211156147d357600080fd5b506147e0848285016146e1565b6080830152506141f060a0830161452a565b60006060828403121561480457600080fd5b61480c613855565b905081516005811061481d57600080fd5b815260208281015167ffffffffffffffff8082111561483b57600080fd5b614847868387016143bc565b83850152604085015191508082111561485f57600080fd5b818501915085601f83011261487357600080fd5b61487b613855565b80606084018881111561488d57600080fd5b845b818110156148c1578051858111156148a75760008081fd5b6148b38b8289016143bc565b85525092860192860161488f565b50506040860152509295945050505050565b600082601f8301126148e457600080fd5b815160206148f461398483613ebf565b82815260059290921b8401810191818101908684111561491357600080fd5b8286015b84811015613f3e57805167ffffffffffffffff808211156149385760008081fd5b90880190610460828b03601f19018113156149535760008081fd5b61495b6138e8565b878401518152604080850151848111156149755760008081fd5b6149838e8b838901016143bc565b8a840152506060808601518581111561499c5760008081fd5b6149aa8f8c838a01016143bc565b83850152506080915081860151858111156149c55760008081fd5b6149d38f8c838a01016143bc565b82850152505060a080860151858111156149ed5760008081fd5b6149fb8f8c838a0101614401565b838501525060c091508186015185811115614a165760008081fd5b614a248f8c838a0101614469565b82850152505060e08086015185811115614a3e5760008081fd5b614a4c8f8c838a01016143bc565b83850152506101009150614a618287016144d6565b90830152610120614a748e8783016144e5565b828401526101809150614a898e838801614535565b90830152614a9b8d6101e0870161457f565b610140830152614aaf8d6103e087016146aa565b61016083015261042085015184811115614ac95760008081fd5b614ad78e8b83890101614744565b82840152505061044084015183811115614af15760008081fd5b614aff8d8a838801016147f2565b6101a0830152509201516101c0830152508352918301918301614917565b600060208284031215614b2f57600080fd5b815167ffffffffffffffff811115614b4657600080fd5b610ac5848285016148d3565b634e487b7160e01b600052603260045260246000fd5b600181811c90821680614b7c57607f821691505b60208210811415614b9d57634e487b7160e01b600052602260045260246000fd5b50919050565b838152606060208201526000614bbc6060830185613314565b9050826040830152949350505050565b60008060408385031215614bdf57600080fd5b825167ffffffffffffffff811115614bf657600080fd5b614c02858286016148d3565b925050602083015190509250929050565b60008154614c2081614b68565b808552602060018381168015614c3d5760018114614c5157614c7f565b60ff19851688840152604088019550614c7f565b866000528260002060005b85811015614c775781548a8201860152908301908401614c5c565b890184019650505b505050505092915050565b606081526000614c9d6060830186614c13565b8281036020840152614caf8186614c13565b915050826040830152949350505050565b60008251614cd28184602087016132e4565b9190910192915050565b6000808354614cea81614b68565b60018281168015614d025760018114614d1357614d42565b60ff19841687528287019450614d42565b8760005260208060002060005b85811015614d395781548a820152908401908201614d20565b50505082870194505b50929695505050505050565b634e487b7160e01b600052601160045260246000fd5b6000600019821415614d7857614d78614d4e565b5060010190565b848152608060208201526000614d986080830186613314565b9315156040830152506060015292915050565b86815260c060208201526000614dc460c0830188613314565b90508560408301528460608301528360808301528260a0830152979650505050505050565b60e081526000614dfc60e083018a614c13565b8281036020840152614e0e818a614c13565b90508760408401528281036060840152614e288188613314565b6080840196909652505060a081019290925260c090910152949350505050565b604081526000613a036040830185614c13565b60006101208b8352806020840152614e758184018c613314565b90508281036040840152614e89818b613314565b90508281036060840152614e9d818a613314565b90508281036080840152614eb18189613314565b90508660a084015282810360c0840152614ecb8187613314565b905082810360e0840152614edf8186613314565b915050826101008301529a9950505050505050505050565b606081526000614f0a6060830186614c13565b6020838101869052838203604085015281606081018660005b6003811015614f4d578583038452614f3b8383614c13565b93850193925060019182019101614f23565b50909998505050505050505050565b600082821015614f6e57614f6e614d4e565b500390565b606081526000614f866060830186613314565b8281036020840152614caf818661331456fea2646970667358221220488cd3fb809b28ff655e7801d0ffb4163ed9053dff23739151a7e2f6e3ea196664736f6c63430008090033",
  "libraries": {
    "AgreementLib": "0x14E531cD0A03c1938b5754bFf5DD931A00A5E5A3",
    "AgreementViolationLibrary": "0xD43678Bd544339DbF711299ea20E5A06F2Deb395",
    "RetrieveAgreementsLibrary": "0xd5ff31678D485441b2b035f3701a159464D49bd8"
  },
  "devdoc": {
    "kind": "dev",
    "methods": {},
    "version": 1
  },
  "userdoc": {
    "kind": "user",
    "methods": {},
    "version": 1
  },
  "storageLayout": {
    "storage": [
      {
        "astId": 1396,
        "contract": "contracts/Agreement.sol:DataSharingAgreement",
        "label": "counter",
        "offset": 0,
        "slot": "0",
        "type": "t_struct(Counter)158_storage"
      },
      {
        "astId": 1400,
        "contract": "contracts/Agreement.sol:DataSharingAgreement",
        "label": "agreements",
        "offset": 0,
        "slot": "6",
        "type": "t_array(t_struct(Agreement)48_storage)dyn_storage"
      },
      {
        "astId": 1405,
        "contract": "contracts/Agreement.sol:DataSharingAgreement",
        "label": "agreementIdToPenalties",
        "offset": 0,
        "slot": "7",
        "type": "t_mapping(t_uint256,t_array(t_string_storage)dyn_storage)"
      }
    ],
    "types": {
      "t_array(t_string_storage)2_storage": {
        "base": "t_string_storage",
        "encoding": "inplace",
        "label": "string[2]",
        "numberOfBytes": "64"
      },
      "t_array(t_string_storage)3_storage": {
        "base": "t_string_storage",
        "encoding": "inplace",
        "label": "string[3]",
        "numberOfBytes": "96"
      },
      "t_array(t_string_storage)dyn_storage": {
        "base": "t_string_storage",
        "encoding": "dynamic_array",
        "label": "string[]",
        "numberOfBytes": "32"
      },
      "t_array(t_struct(Agreement)48_storage)dyn_storage": {
        "base": "t_struct(Agreement)48_storage",
        "encoding": "dynamic_array",
        "label": "struct Agreement[]",
        "numberOfBytes": "32"
      },
      "t_array(t_uint256)3_storage": {
        "base": "t_uint256",
        "encoding": "inplace",
        "label": "uint256[3]",
        "numberOfBytes": "96"
      },
      "t_bool": {
        "encoding": "inplace",
        "label": "bool",
        "numberOfBytes": "1"
      },
      "t_enum(State)6": {
        "encoding": "inplace",
        "label": "enum State",
        "numberOfBytes": "1"
      },
      "t_enum(ViolationType)125": {
        "encoding": "inplace",
        "label": "enum ViolationType",
        "numberOfBytes": "1"
      },
      "t_mapping(t_string_memory_ptr,t_uint256)": {
        "encoding": "mapping",
        "key": "t_string_memory_ptr",
        "label": "mapping(string => uint256)",
        "numberOfBytes": "32",
        "value": "t_uint256"
      },
      "t_mapping(t_uint256,t_array(t_string_storage)dyn_storage)": {
        "encoding": "mapping",
        "key": "t_uint256",
        "label": "mapping(uint256 => string[])",
        "numberOfBytes": "32",
        "value": "t_array(t_string_storage)dyn_storage"
      },
      "t_string_memory_ptr": {
        "encoding": "bytes",
        "label": "string",
        "numberOfBytes": "32"
      },
      "t_string_storage": {
        "encoding": "bytes",
        "label": "string",
        "numberOfBytes": "32"
      },
      "t_struct(Agreement)48_storage": {
        "encoding": "inplace",
        "label": "struct Agreement",
        "members": [
          {
            "astId": 8,
            "contract": "contracts/Agreement.sol:DataSharingAgreement",
            "label": "agreementId",
            "offset": 0,
            "slot": "0",
            "type": "t_uint256"
          },
          {
            "astId": 10,
            "contract": "contracts/Agreement.sol:DataSharingAgreement",
            "label": "providerPublicKey",
            "offset": 0,
            "slot": "1",
            "type": "t_string_storage"
          },
          {
            "astId": 12,
            "contract": "contracts/Agreement.sol:DataSharingAgreement",
            "label": "consumerPublicKey",
            "offset": 0,
            "slot": "2",
            "type": "t_string_storage"
          },
          {
            "astId": 14,
            "contract": "contracts/Agreement.sol:DataSharingAgreement",
            "label": "dataExchangeAgreementHash",
            "offset": 0,
            "slot": "3",
            "type": "t_string_storage"
          },
          {
            "astId": 18,
            "contract": "contracts/Agreement.sol:DataSharingAgreement",
            "label": "signatures",
            "offset": 0,
            "slot": "4",
            "type": "t_array(t_string_storage)2_storage"
          },
          {
            "astId": 21,
            "contract": "contracts/Agreement.sol:DataSharingAgreement",
            "label": "dataOffering",
            "offset": 0,
            "slot": "6",
            "type": "t_struct(DataOffering)60_storage"
          },
          {
            "astId": 23,
            "contract": "contracts/Agreement.sol:DataSharingAgreement",
            "label": "purpose",
            "offset": 0,
            "slot": "9",
            "type": "t_string_storage"
          },
          {
            "astId": 26,
            "contract": "contracts/Agreement.sol:DataSharingAgreement",
            "label": "state",
            "offset": 0,
            "slot": "10",
            "type": "t_enum(State)6"
          },
          {
            "astId": 30,
            "contract": "contracts/Agreement.sol:DataSharingAgreement",
            "label": "agreementDates",
            "offset": 0,
            "slot": "11",
            "type": "t_array(t_uint256)3_storage"
          },
          {
            "astId": 33,
            "contract": "contracts/Agreement.sol:DataSharingAgreement",
            "label": "intendedUse",
            "offset": 0,
            "slot": "14",
            "type": "t_struct(IntendedUse)67_storage"
          },
          {
            "astId": 36,
            "contract": "contracts/Agreement.sol:DataSharingAgreement",
            "label": "licenseGrant",
            "offset": 0,
            "slot": "15",
            "type": "t_struct(LicenseGrant)100_storage"
          },
          {
            "astId": 39,
            "contract": "contracts/Agreement.sol:DataSharingAgreement",
            "label": "typeOfData",
            "offset": 0,
            "slot": "16",
            "type": "t_struct(TypeOfData)53_storage"
          },
          {
            "astId": 42,
            "contract": "contracts/Agreement.sol:DataSharingAgreement",
            "label": "pricingModel",
            "offset": 0,
            "slot": "17",
            "type": "t_struct(PricingModel)114_storage"
          },
          {
            "astId": 45,
            "contract": "contracts/Agreement.sol:DataSharingAgreement",
            "label": "violation",
            "offset": 0,
            "slot": "24",
            "type": "t_struct(Violation)135_storage"
          },
          {
            "astId": 47,
            "contract": "contracts/Agreement.sol:DataSharingAgreement",
            "label": "termination",
            "offset": 0,
            "slot": "29",
            "type": "t_uint256"
          }
        ],
        "numberOfBytes": "960"
      },
      "t_struct(Counter)158_storage": {
        "encoding": "inplace",
        "label": "struct Counter",
        "members": [
          {
            "astId": 137,
            "contract": "contracts/Agreement.sol:DataSharingAgreement",
            "label": "activeAgreementCount",
            "offset": 0,
            "slot": "0",
            "type": "t_uint256"
          },
          {
            "astId": 141,
            "contract": "contracts/Agreement.sol:DataSharingAgreement",
            "label": "providerCount",
            "offset": 0,
            "slot": "1",
            "type": "t_mapping(t_string_memory_ptr,t_uint256)"
          },
          {
            "astId": 145,
            "contract": "contracts/Agreement.sol:DataSharingAgreement",
            "label": "providerActiveCount",
            "offset": 0,
            "slot": "2",
            "type": "t_mapping(t_string_memory_ptr,t_uint256)"
          },
          {
            "astId": 149,
            "contract": "contracts/Agreement.sol:DataSharingAgreement",
            "label": "consumerCount",
            "offset": 0,
            "slot": "3",
            "type": "t_mapping(t_string_memory_ptr,t_uint256)"
          },
          {
            "astId": 153,
            "contract": "contracts/Agreement.sol:DataSharingAgreement",
            "label": "consumerActiveCount",
            "offset": 0,
            "slot": "4",
            "type": "t_mapping(t_string_memory_ptr,t_uint256)"
          },
          {
            "astId": 157,
            "contract": "contracts/Agreement.sol:DataSharingAgreement",
            "label": "dataOfferingCount",
            "offset": 0,
            "slot": "5",
            "type": "t_mapping(t_string_memory_ptr,t_uint256)"
          }
        ],
        "numberOfBytes": "192"
      },
      "t_struct(DataOffering)60_storage": {
        "encoding": "inplace",
        "label": "struct DataOffering",
        "members": [
          {
            "astId": 55,
            "contract": "contracts/Agreement.sol:DataSharingAgreement",
            "label": "dataOfferingId",
            "offset": 0,
            "slot": "0",
            "type": "t_string_storage"
          },
          {
            "astId": 57,
            "contract": "contracts/Agreement.sol:DataSharingAgreement",
            "label": "dataOfferingVersion",
            "offset": 0,
            "slot": "1",
            "type": "t_uint256"
          },
          {
            "astId": 59,
            "contract": "contracts/Agreement.sol:DataSharingAgreement",
            "label": "title",
            "offset": 0,
            "slot": "2",
            "type": "t_string_storage"
          }
        ],
        "numberOfBytes": "96"
      },
      "t_struct(IntendedUse)67_storage": {
        "encoding": "inplace",
        "label": "struct IntendedUse",
        "members": [
          {
            "astId": 62,
            "contract": "contracts/Agreement.sol:DataSharingAgreement",
            "label": "processData",
            "offset": 0,
            "slot": "0",
            "type": "t_bool"
          },
          {
            "astId": 64,
            "contract": "contracts/Agreement.sol:DataSharingAgreement",
            "label": "shareDataWithThirdParty",
            "offset": 1,
            "slot": "0",
            "type": "t_bool"
          },
          {
            "astId": 66,
            "contract": "contracts/Agreement.sol:DataSharingAgreement",
            "label": "editData",
            "offset": 2,
            "slot": "0",
            "type": "t_bool"
          }
        ],
        "numberOfBytes": "32"
      },
      "t_struct(LicenseGrant)100_storage": {
        "encoding": "inplace",
        "label": "struct LicenseGrant",
        "members": [
          {
            "astId": 69,
            "contract": "contracts/Agreement.sol:DataSharingAgreement",
            "label": "transferable",
            "offset": 0,
            "slot": "0",
            "type": "t_bool"
          },
          {
            "astId": 71,
            "contract": "contracts/Agreement.sol:DataSharingAgreement",
            "label": "exclusiveness",
            "offset": 1,
            "slot": "0",
            "type": "t_bool"
          },
          {
            "astId": 73,
            "contract": "contracts/Agreement.sol:DataSharingAgreement",
            "label": "paidUp",
            "offset": 2,
            "slot": "0",
            "type": "t_bool"
          },
          {
            "astId": 75,
            "contract": "contracts/Agreement.sol:DataSharingAgreement",
            "label": "revocable",
            "offset": 3,
            "slot": "0",
            "type": "t_bool"
          },
          {
            "astId": 77,
            "contract": "contracts/Agreement.sol:DataSharingAgreement",
            "label": "processing",
            "offset": 4,
            "slot": "0",
            "type": "t_bool"
          },
          {
            "astId": 79,
            "contract": "contracts/Agreement.sol:DataSharingAgreement",
            "label": "modifying",
            "offset": 5,
            "slot": "0",
            "type": "t_bool"
          },
          {
            "astId": 81,
            "contract": "contracts/Agreement.sol:DataSharingAgreement",
            "label": "analyzing",
            "offset": 6,
            "slot": "0",
            "type": "t_bool"
          },
          {
            "astId": 83,
            "contract": "contracts/Agreement.sol:DataSharingAgreement",
            "label": "storingData",
            "offset": 7,
            "slot": "0",
            "type": "t_bool"
          },
          {
            "astId": 85,
            "contract": "contracts/Agreement.sol:DataSharingAgreement",
            "label": "storingCopy",
            "offset": 8,
            "slot": "0",
            "type": "t_bool"
          },
          {
            "astId": 87,
            "contract": "contracts/Agreement.sol:DataSharingAgreement",
            "label": "reproducing",
            "offset": 9,
            "slot": "0",
            "type": "t_bool"
          },
          {
            "astId": 89,
            "contract": "contracts/Agreement.sol:DataSharingAgreement",
            "label": "distributing",
            "offset": 10,
            "slot": "0",
            "type": "t_bool"
          },
          {
            "astId": 91,
            "contract": "contracts/Agreement.sol:DataSharingAgreement",
            "label": "loaning",
            "offset": 11,
            "slot": "0",
            "type": "t_bool"
          },
          {
            "astId": 93,
            "contract": "contracts/Agreement.sol:DataSharingAgreement",
            "label": "selling",
            "offset": 12,
            "slot": "0",
            "type": "t_bool"
          },
          {
            "astId": 95,
            "contract": "contracts/Agreement.sol:DataSharingAgreement",
            "label": "renting",
            "offset": 13,
            "slot": "0",
            "type": "t_bool"
          },
          {
            "astId": 97,
            "contract": "contracts/Agreement.sol:DataSharingAgreement",
            "label": "furtherLicensing",
            "offset": 14,
            "slot": "0",
            "type": "t_bool"
          },
          {
            "astId": 99,
            "contract": "contracts/Agreement.sol:DataSharingAgreement",
            "label": "leasing",
            "offset": 15,
            "slot": "0",
            "type": "t_bool"
          }
        ],
        "numberOfBytes": "32"
      },
      "t_struct(PaymentOnSubscription)119_storage": {
        "encoding": "inplace",
        "label": "struct PaymentOnSubscription",
        "members": [
          {
            "astId": 116,
            "contract": "contracts/Agreement.sol:DataSharingAgreement",
            "label": "timeDuration",
            "offset": 0,
            "slot": "0",
            "type": "t_string_storage"
          },
          {
            "astId": 118,
            "contract": "contracts/Agreement.sol:DataSharingAgreement",
            "label": "repeat",
            "offset": 0,
            "slot": "1",
            "type": "t_string_storage"
          }
        ],
        "numberOfBytes": "64"
      },
      "t_struct(PricingModel)114_storage": {
        "encoding": "inplace",
        "label": "struct PricingModel",
        "members": [
          {
            "astId": 102,
            "contract": "contracts/Agreement.sol:DataSharingAgreement",
            "label": "paymentType",
            "offset": 0,
            "slot": "0",
            "type": "t_string_storage"
          },
          {
            "astId": 104,
            "contract": "contracts/Agreement.sol:DataSharingAgreement",
            "label": "price",
            "offset": 0,
            "slot": "1",
            "type": "t_uint256"
          },
          {
            "astId": 106,
            "contract": "contracts/Agreement.sol:DataSharingAgreement",
            "label": "currency",
            "offset": 0,
            "slot": "2",
            "type": "t_string_storage"
          },
          {
            "astId": 108,
            "contract": "contracts/Agreement.sol:DataSharingAgreement",
            "label": "fee",
            "offset": 0,
            "slot": "3",
            "type": "t_uint256"
          },
          {
            "astId": 111,
            "contract": "contracts/Agreement.sol:DataSharingAgreement",
            "label": "paymentOnSubscription",
            "offset": 0,
            "slot": "4",
            "type": "t_struct(PaymentOnSubscription)119_storage"
          },
          {
            "astId": 113,
            "contract": "contracts/Agreement.sol:DataSharingAgreement",
            "label": "isFree",
            "offset": 0,
            "slot": "6",
            "type": "t_bool"
          }
        ],
        "numberOfBytes": "224"
      },
      "t_struct(TypeOfData)53_storage": {
        "encoding": "inplace",
        "label": "struct TypeOfData",
        "members": [
          {
            "astId": 50,
            "contract": "contracts/Agreement.sol:DataSharingAgreement",
            "label": "dataStream",
            "offset": 0,
            "slot": "0",
            "type": "t_bool"
          },
          {
            "astId": 52,
            "contract": "contracts/Agreement.sol:DataSharingAgreement",
            "label": "personalData",
            "offset": 1,
            "slot": "0",
            "type": "t_bool"
          }
        ],
        "numberOfBytes": "32"
      },
      "t_struct(Violation)135_storage": {
        "encoding": "inplace",
        "label": "struct Violation",
        "members": [
          {
            "astId": 128,
            "contract": "contracts/Agreement.sol:DataSharingAgreement",
            "label": "violationType",
            "offset": 0,
            "slot": "0",
            "type": "t_enum(ViolationType)125"
          },
          {
            "astId": 130,
            "contract": "contracts/Agreement.sol:DataSharingAgreement",
            "label": "issuerId",
            "offset": 0,
            "slot": "1",
            "type": "t_string_storage"
          },
          {
            "astId": 134,
            "contract": "contracts/Agreement.sol:DataSharingAgreement",
            "label": "penaltyChoices",
            "offset": 0,
            "slot": "2",
            "type": "t_array(t_string_storage)3_storage"
          }
        ],
        "numberOfBytes": "160"
      },
      "t_uint256": {
        "encoding": "inplace",
        "label": "uint256",
        "numberOfBytes": "32"
      }
    }
  }
}