{
  "address": "0xCEDECE163a225C6E57Aa39Eb55EBEA82d7ffE6f4",
  "abi": [
    {
      "anonymous": false,
      "inputs": [
        {
          "indexed": false,
          "internalType": "string",
          "name": "providerId",
          "type": "string"
        },
        {
          "indexed": false,
          "internalType": "string",
          "name": "consumerId",
          "type": "string"
        },
        {
          "indexed": false,
          "internalType": "uint256",
          "name": "id",
          "type": "uint256"
        }
      ],
      "name": "AgreementCreated",
      "type": "event"
    },
    {
      "anonymous": false,
      "inputs": [
        {
          "indexed": false,
          "internalType": "string",
          "name": "providerId",
          "type": "string"
        },
        {
          "indexed": false,
          "internalType": "string",
          "name": "consumerId",
          "type": "string"
        },
        {
          "indexed": false,
          "internalType": "uint256",
          "name": "id",
          "type": "uint256"
        }
      ],
      "name": "AgreementSigned",
      "type": "event"
    },
    {
      "anonymous": false,
      "inputs": [
        {
          "indexed": false,
          "internalType": "string",
          "name": "providerId",
          "type": "string"
        },
        {
          "indexed": false,
          "internalType": "string",
          "name": "consumerId",
          "type": "string"
        },
        {
          "indexed": false,
          "internalType": "uint256",
          "name": "id",
          "type": "uint256"
        }
      ],
      "name": "AgreementTerminated",
      "type": "event"
    },
    {
      "anonymous": false,
      "inputs": [
        {
          "indexed": false,
          "internalType": "string",
          "name": "providerId",
          "type": "string"
        },
        {
          "indexed": false,
          "internalType": "string",
          "name": "consumerId",
          "type": "string"
        },
        {
          "indexed": false,
          "internalType": "uint256",
          "name": "id",
          "type": "uint256"
        }
      ],
      "name": "AgreementUpdated",
      "type": "event"
    },
    {
      "inputs": [
        {
          "internalType": "uint256",
          "name": "",
          "type": "uint256"
        }
      ],
      "name": "agreements",
      "outputs": [
        {
          "internalType": "string",
          "name": "dataOfferingId",
          "type": "string"
        },
        {
          "internalType": "string",
          "name": "purpose",
          "type": "string"
        },
        {
          "internalType": "enum DataSharingAgreement.State",
          "name": "state",
          "type": "uint8"
        },
        {
          "internalType": "string",
          "name": "providerId",
          "type": "string"
        },
        {
          "internalType": "string",
          "name": "consumerId",
          "type": "string"
        },
        {
          "components": [
            {
              "internalType": "string",
              "name": "dataType",
              "type": "string"
            },
            {
              "internalType": "string",
              "name": "dataFormat",
              "type": "string"
            },
            {
              "internalType": "string",
              "name": "dataSource",
              "type": "string"
            }
          ],
          "internalType": "struct DataSharingAgreement.DescriptionOfData",
          "name": "descriptionOfData",
          "type": "tuple"
        },
        {
          "components": [
            {
              "internalType": "bool",
              "name": "processData",
              "type": "bool"
            },
            {
              "internalType": "bool",
              "name": "shareDataWithThirdParty",
              "type": "bool"
            },
            {
              "internalType": "bool",
              "name": "editData",
              "type": "bool"
            }
          ],
          "internalType": "struct DataSharingAgreement.IntendedUse",
          "name": "intendedUse",
          "type": "tuple"
        },
        {
          "components": [
            {
              "internalType": "bool",
              "name": "copyData",
              "type": "bool"
            },
            {
              "internalType": "bool",
              "name": "transferable",
              "type": "bool"
            },
            {
              "internalType": "bool",
              "name": "exclusiveness",
              "type": "bool"
            },
            {
              "internalType": "bool",
              "name": "revocable",
              "type": "bool"
            }
          ],
          "internalType": "struct DataSharingAgreement.LicenseGrant",
          "name": "licenseGrant",
          "type": "tuple"
        },
        {
          "internalType": "bool",
          "name": "dataStream",
          "type": "bool"
        },
        {
          "internalType": "bool",
          "name": "signed",
          "type": "bool"
        },
        {
          "components": [
            {
              "internalType": "enum DataSharingAgreement.ViolationType",
              "name": "violationType",
              "type": "uint8"
            },
            {
              "internalType": "string",
              "name": "issuerId",
              "type": "string"
            }
          ],
          "internalType": "struct DataSharingAgreement.Violation",
          "name": "violation",
          "type": "tuple"
        }
      ],
      "stateMutability": "view",
      "type": "function"
    },
    {
      "inputs": [],
      "name": "checkActiveAgreements",
      "outputs": [
        {
          "components": [
            {
              "internalType": "string",
              "name": "dataOfferingId",
              "type": "string"
            },
            {
              "internalType": "string",
              "name": "purpose",
              "type": "string"
            },
            {
              "internalType": "enum DataSharingAgreement.State",
              "name": "state",
              "type": "uint8"
            },
            {
              "internalType": "string",
              "name": "providerId",
              "type": "string"
            },
            {
              "internalType": "string",
              "name": "consumerId",
              "type": "string"
            },
            {
              "internalType": "uint256[3]",
              "name": "agreementDates",
              "type": "uint256[3]"
            },
            {
              "components": [
                {
                  "internalType": "string",
                  "name": "dataType",
                  "type": "string"
                },
                {
                  "internalType": "string",
                  "name": "dataFormat",
                  "type": "string"
                },
                {
                  "internalType": "string",
                  "name": "dataSource",
                  "type": "string"
                }
              ],
              "internalType": "struct DataSharingAgreement.DescriptionOfData",
              "name": "descriptionOfData",
              "type": "tuple"
            },
            {
              "components": [
                {
                  "internalType": "bool",
                  "name": "processData",
                  "type": "bool"
                },
                {
                  "internalType": "bool",
                  "name": "shareDataWithThirdParty",
                  "type": "bool"
                },
                {
                  "internalType": "bool",
                  "name": "editData",
                  "type": "bool"
                }
              ],
              "internalType": "struct DataSharingAgreement.IntendedUse",
              "name": "intendedUse",
              "type": "tuple"
            },
            {
              "components": [
                {
                  "internalType": "bool",
                  "name": "copyData",
                  "type": "bool"
                },
                {
                  "internalType": "bool",
                  "name": "transferable",
                  "type": "bool"
                },
                {
                  "internalType": "bool",
                  "name": "exclusiveness",
                  "type": "bool"
                },
                {
                  "internalType": "bool",
                  "name": "revocable",
                  "type": "bool"
                }
              ],
              "internalType": "struct DataSharingAgreement.LicenseGrant",
              "name": "licenseGrant",
              "type": "tuple"
            },
            {
              "internalType": "bool",
              "name": "dataStream",
              "type": "bool"
            },
            {
              "internalType": "bool",
              "name": "signed",
              "type": "bool"
            },
            {
              "components": [
                {
                  "internalType": "enum DataSharingAgreement.ViolationType",
                  "name": "violationType",
                  "type": "uint8"
                },
                {
                  "internalType": "string",
                  "name": "issuerId",
                  "type": "string"
                }
              ],
              "internalType": "struct DataSharingAgreement.Violation",
              "name": "violation",
              "type": "tuple"
            }
          ],
          "internalType": "struct DataSharingAgreement.Agreement[]",
          "name": "",
          "type": "tuple[]"
        }
      ],
      "stateMutability": "view",
      "type": "function"
    },
    {
      "inputs": [
        {
          "internalType": "string",
          "name": "_consumerId",
          "type": "string"
        }
      ],
      "name": "checkAgreementsByConsumer",
      "outputs": [
        {
          "components": [
            {
              "internalType": "string",
              "name": "dataOfferingId",
              "type": "string"
            },
            {
              "internalType": "string",
              "name": "purpose",
              "type": "string"
            },
            {
              "internalType": "enum DataSharingAgreement.State",
              "name": "state",
              "type": "uint8"
            },
            {
              "internalType": "string",
              "name": "providerId",
              "type": "string"
            },
            {
              "internalType": "string",
              "name": "consumerId",
              "type": "string"
            },
            {
              "internalType": "uint256[3]",
              "name": "agreementDates",
              "type": "uint256[3]"
            },
            {
              "components": [
                {
                  "internalType": "string",
                  "name": "dataType",
                  "type": "string"
                },
                {
                  "internalType": "string",
                  "name": "dataFormat",
                  "type": "string"
                },
                {
                  "internalType": "string",
                  "name": "dataSource",
                  "type": "string"
                }
              ],
              "internalType": "struct DataSharingAgreement.DescriptionOfData",
              "name": "descriptionOfData",
              "type": "tuple"
            },
            {
              "components": [
                {
                  "internalType": "bool",
                  "name": "processData",
                  "type": "bool"
                },
                {
                  "internalType": "bool",
                  "name": "shareDataWithThirdParty",
                  "type": "bool"
                },
                {
                  "internalType": "bool",
                  "name": "editData",
                  "type": "bool"
                }
              ],
              "internalType": "struct DataSharingAgreement.IntendedUse",
              "name": "intendedUse",
              "type": "tuple"
            },
            {
              "components": [
                {
                  "internalType": "bool",
                  "name": "copyData",
                  "type": "bool"
                },
                {
                  "internalType": "bool",
                  "name": "transferable",
                  "type": "bool"
                },
                {
                  "internalType": "bool",
                  "name": "exclusiveness",
                  "type": "bool"
                },
                {
                  "internalType": "bool",
                  "name": "revocable",
                  "type": "bool"
                }
              ],
              "internalType": "struct DataSharingAgreement.LicenseGrant",
              "name": "licenseGrant",
              "type": "tuple"
            },
            {
              "internalType": "bool",
              "name": "dataStream",
              "type": "bool"
            },
            {
              "internalType": "bool",
              "name": "signed",
              "type": "bool"
            },
            {
              "components": [
                {
                  "internalType": "enum DataSharingAgreement.ViolationType",
                  "name": "violationType",
                  "type": "uint8"
                },
                {
                  "internalType": "string",
                  "name": "issuerId",
                  "type": "string"
                }
              ],
              "internalType": "struct DataSharingAgreement.Violation",
              "name": "violation",
              "type": "tuple"
            }
          ],
          "internalType": "struct DataSharingAgreement.Agreement[]",
          "name": "",
          "type": "tuple[]"
        }
      ],
      "stateMutability": "view",
      "type": "function"
    },
    {
      "inputs": [
        {
          "internalType": "string",
          "name": "_providerId",
          "type": "string"
        }
      ],
      "name": "checkAgreementsByProvider",
      "outputs": [
        {
          "components": [
            {
              "internalType": "string",
              "name": "dataOfferingId",
              "type": "string"
            },
            {
              "internalType": "string",
              "name": "purpose",
              "type": "string"
            },
            {
              "internalType": "enum DataSharingAgreement.State",
              "name": "state",
              "type": "uint8"
            },
            {
              "internalType": "string",
              "name": "providerId",
              "type": "string"
            },
            {
              "internalType": "string",
              "name": "consumerId",
              "type": "string"
            },
            {
              "internalType": "uint256[3]",
              "name": "agreementDates",
              "type": "uint256[3]"
            },
            {
              "components": [
                {
                  "internalType": "string",
                  "name": "dataType",
                  "type": "string"
                },
                {
                  "internalType": "string",
                  "name": "dataFormat",
                  "type": "string"
                },
                {
                  "internalType": "string",
                  "name": "dataSource",
                  "type": "string"
                }
              ],
              "internalType": "struct DataSharingAgreement.DescriptionOfData",
              "name": "descriptionOfData",
              "type": "tuple"
            },
            {
              "components": [
                {
                  "internalType": "bool",
                  "name": "processData",
                  "type": "bool"
                },
                {
                  "internalType": "bool",
                  "name": "shareDataWithThirdParty",
                  "type": "bool"
                },
                {
                  "internalType": "bool",
                  "name": "editData",
                  "type": "bool"
                }
              ],
              "internalType": "struct DataSharingAgreement.IntendedUse",
              "name": "intendedUse",
              "type": "tuple"
            },
            {
              "components": [
                {
                  "internalType": "bool",
                  "name": "copyData",
                  "type": "bool"
                },
                {
                  "internalType": "bool",
                  "name": "transferable",
                  "type": "bool"
                },
                {
                  "internalType": "bool",
                  "name": "exclusiveness",
                  "type": "bool"
                },
                {
                  "internalType": "bool",
                  "name": "revocable",
                  "type": "bool"
                }
              ],
              "internalType": "struct DataSharingAgreement.LicenseGrant",
              "name": "licenseGrant",
              "type": "tuple"
            },
            {
              "internalType": "bool",
              "name": "dataStream",
              "type": "bool"
            },
            {
              "internalType": "bool",
              "name": "signed",
              "type": "bool"
            },
            {
              "components": [
                {
                  "internalType": "enum DataSharingAgreement.ViolationType",
                  "name": "violationType",
                  "type": "uint8"
                },
                {
                  "internalType": "string",
                  "name": "issuerId",
                  "type": "string"
                }
              ],
              "internalType": "struct DataSharingAgreement.Violation",
              "name": "violation",
              "type": "tuple"
            }
          ],
          "internalType": "struct DataSharingAgreement.Agreement[]",
          "name": "",
          "type": "tuple[]"
        }
      ],
      "stateMutability": "view",
      "type": "function"
    },
    {
      "inputs": [
        {
          "internalType": "string",
          "name": "_dataOfferingId",
          "type": "string"
        },
        {
          "internalType": "string",
          "name": "_purpose",
          "type": "string"
        },
        {
          "internalType": "string",
          "name": "_providerId",
          "type": "string"
        },
        {
          "internalType": "string",
          "name": "_consumerId",
          "type": "string"
        },
        {
          "internalType": "uint256[]",
          "name": "dates",
          "type": "uint256[]"
        },
        {
          "components": [
            {
              "internalType": "string",
              "name": "dataType",
              "type": "string"
            },
            {
              "internalType": "string",
              "name": "dataFormat",
              "type": "string"
            },
            {
              "internalType": "string",
              "name": "dataSource",
              "type": "string"
            }
          ],
          "internalType": "struct DataSharingAgreement.DescriptionOfData",
          "name": "descriptionOfData",
          "type": "tuple"
        },
        {
          "components": [
            {
              "internalType": "bool",
              "name": "processData",
              "type": "bool"
            },
            {
              "internalType": "bool",
              "name": "shareDataWithThirdParty",
              "type": "bool"
            },
            {
              "internalType": "bool",
              "name": "editData",
              "type": "bool"
            }
          ],
          "internalType": "struct DataSharingAgreement.IntendedUse",
          "name": "intendedUse",
          "type": "tuple"
        },
        {
          "components": [
            {
              "internalType": "bool",
              "name": "copyData",
              "type": "bool"
            },
            {
              "internalType": "bool",
              "name": "transferable",
              "type": "bool"
            },
            {
              "internalType": "bool",
              "name": "exclusiveness",
              "type": "bool"
            },
            {
              "internalType": "bool",
              "name": "revocable",
              "type": "bool"
            }
          ],
          "internalType": "struct DataSharingAgreement.LicenseGrant",
          "name": "licenseGrant",
          "type": "tuple"
        },
        {
          "internalType": "bool",
          "name": "_dataStream",
          "type": "bool"
        }
      ],
      "name": "createAgreement",
      "outputs": [],
      "stateMutability": "nonpayable",
      "type": "function"
    },
    {
      "inputs": [
        {
          "internalType": "uint256",
          "name": "id",
          "type": "uint256"
        }
      ],
      "name": "getAgreement",
      "outputs": [
        {
          "components": [
            {
              "internalType": "string",
              "name": "dataOfferingId",
              "type": "string"
            },
            {
              "internalType": "string",
              "name": "purpose",
              "type": "string"
            },
            {
              "internalType": "enum DataSharingAgreement.State",
              "name": "state",
              "type": "uint8"
            },
            {
              "internalType": "string",
              "name": "providerId",
              "type": "string"
            },
            {
              "internalType": "string",
              "name": "consumerId",
              "type": "string"
            },
            {
              "internalType": "uint256[3]",
              "name": "agreementDates",
              "type": "uint256[3]"
            },
            {
              "components": [
                {
                  "internalType": "string",
                  "name": "dataType",
                  "type": "string"
                },
                {
                  "internalType": "string",
                  "name": "dataFormat",
                  "type": "string"
                },
                {
                  "internalType": "string",
                  "name": "dataSource",
                  "type": "string"
                }
              ],
              "internalType": "struct DataSharingAgreement.DescriptionOfData",
              "name": "descriptionOfData",
              "type": "tuple"
            },
            {
              "components": [
                {
                  "internalType": "bool",
                  "name": "processData",
                  "type": "bool"
                },
                {
                  "internalType": "bool",
                  "name": "shareDataWithThirdParty",
                  "type": "bool"
                },
                {
                  "internalType": "bool",
                  "name": "editData",
                  "type": "bool"
                }
              ],
              "internalType": "struct DataSharingAgreement.IntendedUse",
              "name": "intendedUse",
              "type": "tuple"
            },
            {
              "components": [
                {
                  "internalType": "bool",
                  "name": "copyData",
                  "type": "bool"
                },
                {
                  "internalType": "bool",
                  "name": "transferable",
                  "type": "bool"
                },
                {
                  "internalType": "bool",
                  "name": "exclusiveness",
                  "type": "bool"
                },
                {
                  "internalType": "bool",
                  "name": "revocable",
                  "type": "bool"
                }
              ],
              "internalType": "struct DataSharingAgreement.LicenseGrant",
              "name": "licenseGrant",
              "type": "tuple"
            },
            {
              "internalType": "bool",
              "name": "dataStream",
              "type": "bool"
            },
            {
              "internalType": "bool",
              "name": "signed",
              "type": "bool"
            },
            {
              "components": [
                {
                  "internalType": "enum DataSharingAgreement.ViolationType",
                  "name": "violationType",
                  "type": "uint8"
                },
                {
                  "internalType": "string",
                  "name": "issuerId",
                  "type": "string"
                }
              ],
              "internalType": "struct DataSharingAgreement.Violation",
              "name": "violation",
              "type": "tuple"
            }
          ],
          "internalType": "struct DataSharingAgreement.Agreement",
          "name": "",
          "type": "tuple"
        }
      ],
      "stateMutability": "view",
      "type": "function"
    },
    {
      "inputs": [],
      "name": "getAgreements",
      "outputs": [
        {
          "components": [
            {
              "internalType": "string",
              "name": "dataOfferingId",
              "type": "string"
            },
            {
              "internalType": "string",
              "name": "purpose",
              "type": "string"
            },
            {
              "internalType": "enum DataSharingAgreement.State",
              "name": "state",
              "type": "uint8"
            },
            {
              "internalType": "string",
              "name": "providerId",
              "type": "string"
            },
            {
              "internalType": "string",
              "name": "consumerId",
              "type": "string"
            },
            {
              "internalType": "uint256[3]",
              "name": "agreementDates",
              "type": "uint256[3]"
            },
            {
              "components": [
                {
                  "internalType": "string",
                  "name": "dataType",
                  "type": "string"
                },
                {
                  "internalType": "string",
                  "name": "dataFormat",
                  "type": "string"
                },
                {
                  "internalType": "string",
                  "name": "dataSource",
                  "type": "string"
                }
              ],
              "internalType": "struct DataSharingAgreement.DescriptionOfData",
              "name": "descriptionOfData",
              "type": "tuple"
            },
            {
              "components": [
                {
                  "internalType": "bool",
                  "name": "processData",
                  "type": "bool"
                },
                {
                  "internalType": "bool",
                  "name": "shareDataWithThirdParty",
                  "type": "bool"
                },
                {
                  "internalType": "bool",
                  "name": "editData",
                  "type": "bool"
                }
              ],
              "internalType": "struct DataSharingAgreement.IntendedUse",
              "name": "intendedUse",
              "type": "tuple"
            },
            {
              "components": [
                {
                  "internalType": "bool",
                  "name": "copyData",
                  "type": "bool"
                },
                {
                  "internalType": "bool",
                  "name": "transferable",
                  "type": "bool"
                },
                {
                  "internalType": "bool",
                  "name": "exclusiveness",
                  "type": "bool"
                },
                {
                  "internalType": "bool",
                  "name": "revocable",
                  "type": "bool"
                }
              ],
              "internalType": "struct DataSharingAgreement.LicenseGrant",
              "name": "licenseGrant",
              "type": "tuple"
            },
            {
              "internalType": "bool",
              "name": "dataStream",
              "type": "bool"
            },
            {
              "internalType": "bool",
              "name": "signed",
              "type": "bool"
            },
            {
              "components": [
                {
                  "internalType": "enum DataSharingAgreement.ViolationType",
                  "name": "violationType",
                  "type": "uint8"
                },
                {
                  "internalType": "string",
                  "name": "issuerId",
                  "type": "string"
                }
              ],
              "internalType": "struct DataSharingAgreement.Violation",
              "name": "violation",
              "type": "tuple"
            }
          ],
          "internalType": "struct DataSharingAgreement.Agreement[]",
          "name": "",
          "type": "tuple[]"
        }
      ],
      "stateMutability": "view",
      "type": "function"
    },
    {
      "inputs": [],
      "name": "getAgreementsLength",
      "outputs": [
        {
          "internalType": "uint256",
          "name": "",
          "type": "uint256"
        }
      ],
      "stateMutability": "view",
      "type": "function"
    },
    {
      "inputs": [
        {
          "internalType": "uint256",
          "name": "id",
          "type": "uint256"
        }
      ],
      "name": "getState",
      "outputs": [
        {
          "internalType": "enum DataSharingAgreement.State",
          "name": "",
          "type": "uint8"
        }
      ],
      "stateMutability": "view",
      "type": "function"
    },
    {
      "inputs": [
        {
          "internalType": "uint256",
          "name": "id",
          "type": "uint256"
        },
        {
          "internalType": "string",
          "name": "_consumerId",
          "type": "string"
        }
      ],
      "name": "signAgreement",
      "outputs": [],
      "stateMutability": "nonpayable",
      "type": "function"
    },
    {
      "inputs": [
        {
          "internalType": "uint256",
          "name": "_id",
          "type": "uint256"
        },
        {
          "internalType": "string",
          "name": "_dataOfferingId",
          "type": "string"
        },
        {
          "internalType": "string",
          "name": "_purpose",
          "type": "string"
        },
        {
          "internalType": "string",
          "name": "_providerId",
          "type": "string"
        },
        {
          "internalType": "string",
          "name": "_consumerId",
          "type": "string"
        },
        {
          "internalType": "uint256[]",
          "name": "dates",
          "type": "uint256[]"
        },
        {
          "components": [
            {
              "internalType": "string",
              "name": "dataType",
              "type": "string"
            },
            {
              "internalType": "string",
              "name": "dataFormat",
              "type": "string"
            },
            {
              "internalType": "string",
              "name": "dataSource",
              "type": "string"
            }
          ],
          "internalType": "struct DataSharingAgreement.DescriptionOfData",
          "name": "descriptionOfData",
          "type": "tuple"
        },
        {
          "components": [
            {
              "internalType": "bool",
              "name": "processData",
              "type": "bool"
            },
            {
              "internalType": "bool",
              "name": "shareDataWithThirdParty",
              "type": "bool"
            },
            {
              "internalType": "bool",
              "name": "editData",
              "type": "bool"
            }
          ],
          "internalType": "struct DataSharingAgreement.IntendedUse",
          "name": "intendedUse",
          "type": "tuple"
        },
        {
          "components": [
            {
              "internalType": "bool",
              "name": "copyData",
              "type": "bool"
            },
            {
              "internalType": "bool",
              "name": "transferable",
              "type": "bool"
            },
            {
              "internalType": "bool",
              "name": "exclusiveness",
              "type": "bool"
            },
            {
              "internalType": "bool",
              "name": "revocable",
              "type": "bool"
            }
          ],
          "internalType": "struct DataSharingAgreement.LicenseGrant",
          "name": "licenseGrant",
          "type": "tuple"
        },
        {
          "internalType": "bool",
          "name": "_dataStream",
          "type": "bool"
        }
      ],
      "name": "updateAgreement",
      "outputs": [],
      "stateMutability": "nonpayable",
      "type": "function"
    }
  ],
  "transactionHash": "0xcc1354764b78d5f4d64994ee6a2745e3dd9be69549ebcab55a2e4a3cc51476e6",
  "args": [],
  "solcInputHash": "9cc3859fc83c1aa66f203965538c3872",
  "bytecode": "0x608060405234801561001057600080fd5b506154c9806100206000396000f3fe608060405234801561001057600080fd5b50600436106100a95760003560e01c80634f9f6fe6116100715780634f9f6fe61461016657806389a8348c14610196578063a6305189146101b2578063bd14de96146101ce578063cf7e924214610208578063d526c03014610226576100a9565b8063063bd15a146100ae5780631c510ea9146100cc5780633ea00230146100ea57806344c9af28146101065780634d9af52814610136575b600080fd5b6100b6610256565b6040516100c3919061437a565b60405180910390f35b6100d4610a27565b6040516100e191906143ab565b60405180910390f35b61010460048036038101906100ff91906147cd565b610a33565b005b610120600480360381019061011b9190614954565b610e3e565b60405161012d9190614990565b60405180910390f35b610150600480360381019061014b91906149ab565b610e79565b60405161015d919061437a565b60405180910390f35b610180600480360381019061017b9190614954565b611681565b60405161018d9190614b1d565b60405180910390f35b6101b060048036038101906101ab9190614b3f565b611d4c565b005b6101cc60048036038101906101c79190614cb2565b6123c4565b005b6101e860048036038101906101e39190614954565b6126e8565b6040516101ff9b9a99989796959493929190614e99565b60405180910390f35b610210612d01565b60405161021d919061437a565b60405180910390f35b610240600480360381019061023b91906149ab565b6133ef565b60405161024d919061437a565b60405180910390f35b6060600060015467ffffffffffffffff81111561027657610275614410565b5b6040519080825280602002602001820160405280156102af57816020015b61029c613bf7565b8152602001906001900390816102945790505b5090506000805b600080549050811015610a1e57600160048111156102d7576102d6613efa565b5b600082815481106102eb576102ea614f6f565b5b906000526020600020906010020160020160009054906101000a900460ff16600481111561031c5761031b613efa565b5b1415610a0b576000818154811061033657610335614f6f565b5b90600052602060002090601002016040518061018001604052908160008201805461036090614fcd565b80601f016020809104026020016040519081016040528092919081815260200182805461038c90614fcd565b80156103d95780601f106103ae576101008083540402835291602001916103d9565b820191906000526020600020905b8154815290600101906020018083116103bc57829003601f168201915b505050505081526020016001820180546103f290614fcd565b80601f016020809104026020016040519081016040528092919081815260200182805461041e90614fcd565b801561046b5780601f106104405761010080835404028352916020019161046b565b820191906000526020600020905b81548152906001019060200180831161044e57829003601f168201915b505050505081526020016002820160009054906101000a900460ff16600481111561049957610498613efa565b5b60048111156104ab576104aa613efa565b5b81526020016003820180546104bf90614fcd565b80601f01602080910402602001604051908101604052809291908181526020018280546104eb90614fcd565b80156105385780601f1061050d57610100808354040283529160200191610538565b820191906000526020600020905b81548152906001019060200180831161051b57829003601f168201915b5050505050815260200160048201805461055190614fcd565b80601f016020809104026020016040519081016040528092919081815260200182805461057d90614fcd565b80156105ca5780601f1061059f576101008083540402835291602001916105ca565b820191906000526020600020905b8154815290600101906020018083116105ad57829003601f168201915b505050505081526020016005820160038060200260405190810160405280929190826003801561060f576020028201915b8154815260200190600101908083116105fb575b505050505081526020016008820160405180606001604052908160008201805461063890614fcd565b80601f016020809104026020016040519081016040528092919081815260200182805461066490614fcd565b80156106b15780601f10610686576101008083540402835291602001916106b1565b820191906000526020600020905b81548152906001019060200180831161069457829003601f168201915b505050505081526020016001820180546106ca90614fcd565b80601f01602080910402602001604051908101604052809291908181526020018280546106f690614fcd565b80156107435780601f1061071857610100808354040283529160200191610743565b820191906000526020600020905b81548152906001019060200180831161072657829003601f168201915b5050505050815260200160028201805461075c90614fcd565b80601f016020809104026020016040519081016040528092919081815260200182805461078890614fcd565b80156107d55780601f106107aa576101008083540402835291602001916107d5565b820191906000526020600020905b8154815290600101906020018083116107b857829003601f168201915b5050505050815250508152602001600b82016040518060600160405290816000820160009054906101000a900460ff161515151581526020016000820160019054906101000a900460ff161515151581526020016000820160029054906101000a900460ff1615151515815250508152602001600c82016040518060800160405290816000820160009054906101000a900460ff161515151581526020016000820160019054906101000a900460ff161515151581526020016000820160029054906101000a900460ff161515151581526020016000820160039054906101000a900460ff1615151515815250508152602001600d820160009054906101000a900460ff16151515158152602001600d820160019054906101000a900460ff16151515158152602001600e82016040518060400160405290816000820160009054906101000a900460ff16600581111561093257610931613efa565b5b600581111561094457610943613efa565b5b815260200160018201805461095890614fcd565b80601f016020809104026020016040519081016040528092919081815260200182805461098490614fcd565b80156109d15780601f106109a6576101008083540402835291602001916109d1565b820191906000526020600020905b8154815290600101906020018083116109b457829003601f168201915b505050505081525050815250508383815181106109f1576109f0614f6f565b5b60200260200101819052508180610a079061502e565b9250505b8080610a169061502e565b9150506102b6565b50819250505090565b60008080549050905090565b6000808b81548110610a4857610a47614f6f565b5b9060005260206000209060100201905060016004811115610a6c57610a6b613efa565b5b8160020160009054906101000a900460ff166004811115610a9057610a8f613efa565b5b1415610e315789816000019080519060200190610aae929190613c8c565b5088816001019080519060200190610ac7929190613c8c565b5087816003019080519060200190610ae0929190613c8c565b5086816004019080519060200190610af9929190613c8c565b5085600081518110610b0e57610b0d614f6f565b5b602002602001015181600501600160038110610b2d57610b2c614f6f565b5b018190555080600501600060038110610b4957610b48614f6f565b5b015486600181518110610b5f57610b5e614f6f565b5b602002602001015111610ba7576040517f08c379a0000000000000000000000000000000000000000000000000000000008152600401610b9e906150e9565b60405180910390fd5b85600081518110610bbb57610bba614f6f565b5b602002602001015186600181518110610bd757610bd6614f6f565b5b602002602001015111610c1f576040517f08c379a0000000000000000000000000000000000000000000000000000000008152600401610c169061517b565b60405180910390fd5b85600181518110610c3357610c32614f6f565b5b602002602001015181600501600260038110610c5257610c51614f6f565b5b01819055508460000151816008016000019080519060200190610c76929190613c8c565b508460200151816008016001019080519060200190610c96929190613c8c565b508460400151816008016002019080519060200190610cb6929190613c8c565b50836000015181600b0160000160006101000a81548160ff021916908315150217905550836020015181600b0160000160016101000a81548160ff021916908315150217905550836040015181600b0160000160026101000a81548160ff021916908315150217905550826000015181600c0160000160006101000a81548160ff021916908315150217905550826020015181600c0160000160016101000a81548160ff021916908315150217905550826040015181600c0160000160026101000a81548160ff021916908315150217905550826060015181600c0160000160036101000a81548160ff0219169083151502179055508181600d0160006101000a81548160ff02191690831515021790555060028160020160006101000a81548160ff02191690836004811115610df057610def613efa565b5b02179055507fe45a4efc7be91ee38226641b8dfb0a53e062696831d4052b7b79903b7d39301188888d604051610e289392919061519b565b60405180910390a15b5050505050505050505050565b6000808281548110610e5357610e52614f6f565b5b906000526020600020906010020160020160009054906101000a900460ff169050919050565b60606000600283604051610e8d919061521c565b90815260200160405180910390205467ffffffffffffffff811115610eb557610eb4614410565b5b604051908082528060200260200182016040528015610eee57816020015b610edb613bf7565b815260200190600190039081610ed35790505b5090506000805b6000805490508110156116765784604051602001610f13919061521c565b6040516020818303038152906040528051906020012060008281548110610f3d57610f3c614f6f565b5b9060005260206000209060100201600301604051602001610f5e91906152c7565b6040516020818303038152906040528051906020012014156116635760008181548110610f8e57610f8d614f6f565b5b906000526020600020906010020160405180610180016040529081600082018054610fb890614fcd565b80601f0160208091040260200160405190810160405280929190818152602001828054610fe490614fcd565b80156110315780601f1061100657610100808354040283529160200191611031565b820191906000526020600020905b81548152906001019060200180831161101457829003601f168201915b5050505050815260200160018201805461104a90614fcd565b80601f016020809104026020016040519081016040528092919081815260200182805461107690614fcd565b80156110c35780601f10611098576101008083540402835291602001916110c3565b820191906000526020600020905b8154815290600101906020018083116110a657829003601f168201915b505050505081526020016002820160009054906101000a900460ff1660048111156110f1576110f0613efa565b5b600481111561110357611102613efa565b5b815260200160038201805461111790614fcd565b80601f016020809104026020016040519081016040528092919081815260200182805461114390614fcd565b80156111905780601f1061116557610100808354040283529160200191611190565b820191906000526020600020905b81548152906001019060200180831161117357829003601f168201915b505050505081526020016004820180546111a990614fcd565b80601f01602080910402602001604051908101604052809291908181526020018280546111d590614fcd565b80156112225780601f106111f757610100808354040283529160200191611222565b820191906000526020600020905b81548152906001019060200180831161120557829003601f168201915b5050505050815260200160058201600380602002604051908101604052809291908260038015611267576020028201915b815481526020019060010190808311611253575b505050505081526020016008820160405180606001604052908160008201805461129090614fcd565b80601f01602080910402602001604051908101604052809291908181526020018280546112bc90614fcd565b80156113095780601f106112de57610100808354040283529160200191611309565b820191906000526020600020905b8154815290600101906020018083116112ec57829003601f168201915b5050505050815260200160018201805461132290614fcd565b80601f016020809104026020016040519081016040528092919081815260200182805461134e90614fcd565b801561139b5780601f106113705761010080835404028352916020019161139b565b820191906000526020600020905b81548152906001019060200180831161137e57829003601f168201915b505050505081526020016002820180546113b490614fcd565b80601f01602080910402602001604051908101604052809291908181526020018280546113e090614fcd565b801561142d5780601f106114025761010080835404028352916020019161142d565b820191906000526020600020905b81548152906001019060200180831161141057829003601f168201915b5050505050815250508152602001600b82016040518060600160405290816000820160009054906101000a900460ff161515151581526020016000820160019054906101000a900460ff161515151581526020016000820160029054906101000a900460ff1615151515815250508152602001600c82016040518060800160405290816000820160009054906101000a900460ff161515151581526020016000820160019054906101000a900460ff161515151581526020016000820160029054906101000a900460ff161515151581526020016000820160039054906101000a900460ff1615151515815250508152602001600d820160009054906101000a900460ff16151515158152602001600d820160019054906101000a900460ff16151515158152602001600e82016040518060400160405290816000820160009054906101000a900460ff16600581111561158a57611589613efa565b5b600581111561159c5761159b613efa565b5b81526020016001820180546115b090614fcd565b80601f01602080910402602001604051908101604052809291908181526020018280546115dc90614fcd565b80156116295780601f106115fe57610100808354040283529160200191611629565b820191906000526020600020905b81548152906001019060200180831161160c57829003601f168201915b5050505050815250508152505083838151811061164957611648614f6f565b5b6020026020010181905250818061165f9061502e565b9250505b808061166e9061502e565b915050610ef5565b508192505050919050565b611689613bf7565b6000828154811061169d5761169c614f6f565b5b9060005260206000209060100201604051806101800160405290816000820180546116c790614fcd565b80601f01602080910402602001604051908101604052809291908181526020018280546116f390614fcd565b80156117405780601f1061171557610100808354040283529160200191611740565b820191906000526020600020905b81548152906001019060200180831161172357829003601f168201915b5050505050815260200160018201805461175990614fcd565b80601f016020809104026020016040519081016040528092919081815260200182805461178590614fcd565b80156117d25780601f106117a7576101008083540402835291602001916117d2565b820191906000526020600020905b8154815290600101906020018083116117b557829003601f168201915b505050505081526020016002820160009054906101000a900460ff166004811115611800576117ff613efa565b5b600481111561181257611811613efa565b5b815260200160038201805461182690614fcd565b80601f016020809104026020016040519081016040528092919081815260200182805461185290614fcd565b801561189f5780601f106118745761010080835404028352916020019161189f565b820191906000526020600020905b81548152906001019060200180831161188257829003601f168201915b505050505081526020016004820180546118b890614fcd565b80601f01602080910402602001604051908101604052809291908181526020018280546118e490614fcd565b80156119315780601f1061190657610100808354040283529160200191611931565b820191906000526020600020905b81548152906001019060200180831161191457829003601f168201915b5050505050815260200160058201600380602002604051908101604052809291908260038015611976576020028201915b815481526020019060010190808311611962575b505050505081526020016008820160405180606001604052908160008201805461199f90614fcd565b80601f01602080910402602001604051908101604052809291908181526020018280546119cb90614fcd565b8015611a185780601f106119ed57610100808354040283529160200191611a18565b820191906000526020600020905b8154815290600101906020018083116119fb57829003601f168201915b50505050508152602001600182018054611a3190614fcd565b80601f0160208091040260200160405190810160405280929190818152602001828054611a5d90614fcd565b8015611aaa5780601f10611a7f57610100808354040283529160200191611aaa565b820191906000526020600020905b815481529060010190602001808311611a8d57829003601f168201915b50505050508152602001600282018054611ac390614fcd565b80601f0160208091040260200160405190810160405280929190818152602001828054611aef90614fcd565b8015611b3c5780601f10611b1157610100808354040283529160200191611b3c565b820191906000526020600020905b815481529060010190602001808311611b1f57829003601f168201915b5050505050815250508152602001600b82016040518060600160405290816000820160009054906101000a900460ff161515151581526020016000820160019054906101000a900460ff161515151581526020016000820160029054906101000a900460ff1615151515815250508152602001600c82016040518060800160405290816000820160009054906101000a900460ff161515151581526020016000820160019054906101000a900460ff161515151581526020016000820160029054906101000a900460ff161515151581526020016000820160039054906101000a900460ff1615151515815250508152602001600d820160009054906101000a900460ff16151515158152602001600d820160019054906101000a900460ff16151515158152602001600e82016040518060400160405290816000820160009054906101000a900460ff166005811115611c9957611c98613efa565b5b6005811115611cab57611caa613efa565b5b8152602001600182018054611cbf90614fcd565b80601f0160208091040260200160405190810160405280929190818152602001828054611ceb90614fcd565b8015611d385780601f10611d0d57610100808354040283529160200191611d38565b820191906000526020600020905b815481529060010190602001808311611d1b57829003601f168201915b505050505081525050815250509050919050565b611d54613bf7565b898160000181905250888160200181905250878160600181905250868160800181905250600081604001906004811115611d9157611d90613efa565b5b90816004811115611da557611da4613efa565b5b81525050428160a00151600060038110611dc257611dc1614f6f565b5b60200201818152505085600081518110611ddf57611dde614f6f565b5b60200260200101518160a00151600160038110611dff57611dfe614f6f565b5b6020020181815250508060a00151600060038110611e2057611e1f614f6f565b5b602002015186600181518110611e3957611e38614f6f565b5b602002602001015111611e81576040517f08c379a0000000000000000000000000000000000000000000000000000000008152600401611e78906150e9565b60405180910390fd5b85600081518110611e9557611e94614f6f565b5b602002602001015186600181518110611eb157611eb0614f6f565b5b602002602001015111611ef9576040517f08c379a0000000000000000000000000000000000000000000000000000000008152600401611ef09061517b565b60405180910390fd5b85600181518110611f0d57611f0c614f6f565b5b60200260200101518160a00151600260038110611f2d57611f2c614f6f565b5b60200201818152505084600001518160c001516000018190525084602001518160c001516020018190525084604001518160c001516040018190525083600001518160e00151600001901515908115158152505083602001518160e00151602001901515908115158152505083604001518160e0015160400190151590811515815250508260000151816101000151600001901515908115158152505082602001518161010001516020019015159081151581525050826040015181610100015160400190151590811515815250508260600151816101000151606001901515908115158152505081816101200190151590811515815250506000819080600181540180825580915050600190039060005260206000209060100201600090919091909150600082015181600001908051906020019061206e929190613c8c565b50602082015181600101908051906020019061208b929190613c8c565b5060408201518160020160006101000a81548160ff021916908360048111156120b7576120b6613efa565b5b021790555060608201518160030190805190602001906120d8929190613c8c565b5060808201518160040190805190602001906120f5929190613c8c565b5060a08201518160050190600361210d929190613d12565b5060c0820151816008016000820151816000019080519060200190612133929190613c8c565b506020820151816001019080519060200190612150929190613c8c565b50604082015181600201908051906020019061216d929190613c8c565b50505060e082015181600b0160008201518160000160006101000a81548160ff02191690831515021790555060208201518160000160016101000a81548160ff02191690831515021790555060408201518160000160026101000a81548160ff021916908315150217905550505061010082015181600c0160008201518160000160006101000a81548160ff02191690831515021790555060208201518160000160016101000a81548160ff02191690831515021790555060408201518160000160026101000a81548160ff02191690831515021790555060608201518160000160036101000a81548160ff021916908315150217905550505061012082015181600d0160006101000a81548160ff02191690831515021790555061014082015181600d0160016101000a81548160ff02191690831515021790555061016082015181600e0160008201518160000160006101000a81548160ff021916908360058111156122de576122dd613efa565b5b021790555060208201518160010190805190602001906122ff929190613c8c565b5050505050600288604051612314919061521c565b908152602001604051809103902060008154809291906123339061502e565b9190505550600387604051612348919061521c565b908152602001604051809103902060008154809291906123679061502e565b91905055507f6435418332f1be3deea10416eedb87e64daa2a2b4a284b051f39244cc3a0dfa6888860016000805490506123a191906152de565b6040516123b09392919061519b565b60405180910390a150505050505050505050565b806040516020016123d5919061521c565b60405160208183030381529060405280519060200120600083815481106123ff576123fe614f6f565b5b906000526020600020906010020160040160405160200161242091906152c7565b6040516020818303038152906040528051906020012014612476576040517f08c379a000000000000000000000000000000000000000000000000000000000815260040161246d90615384565b60405180910390fd5b60016000838154811061248c5761248b614f6f565b5b9060005260206000209060100201600d0160016101000a81548160ff02191690831515021790555042600083815481106124c9576124c8614f6f565b5b90600052602060002090601002016005016002600381106124ed576124ec614f6f565b5b01541061261e576000600481111561250857612507613efa565b5b6000838154811061251c5761251b614f6f565b5b906000526020600020906010020160020160009054906101000a900460ff16600481111561254d5761254c613efa565b5b141561256c57600160008154809291906125669061502e565b91905055505b60016000838154811061258257612581614f6f565b5b906000526020600020906010020160020160006101000a81548160ff021916908360048111156125b5576125b4613efa565b5b02179055507faf3cbb721f27933bb22b42ea3324fba0c7cf12a6fc685cbf705ba7674aaad1b2600083815481106125ef576125ee614f6f565b5b9060005260206000209060100201600301828460405161261193929190615424565b60405180910390a16126e4565b60046000838154811061263457612633614f6f565b5b906000526020600020906010020160020160006101000a81548160ff0219169083600481111561266757612666613efa565b5b02179055506001600081548092919061267f90615469565b91905055507f8fdec0edc19a1eb9147642be05b326b7f5d42bf96f5ba734530bfca33bc8d7e9600083815481106126b9576126b8614f6f565b5b906000526020600020906010020160030182846040516126db93929190615424565b60405180910390a15b5050565b600081815481106126f857600080fd5b906000526020600020906010020160009150905080600001805461271b90614fcd565b80601f016020809104026020016040519081016040528092919081815260200182805461274790614fcd565b80156127945780601f1061276957610100808354040283529160200191612794565b820191906000526020600020905b81548152906001019060200180831161277757829003601f168201915b5050505050908060010180546127a990614fcd565b80601f01602080910402602001604051908101604052809291908181526020018280546127d590614fcd565b80156128225780601f106127f757610100808354040283529160200191612822565b820191906000526020600020905b81548152906001019060200180831161280557829003601f168201915b5050505050908060020160009054906101000a900460ff169080600301805461284a90614fcd565b80601f016020809104026020016040519081016040528092919081815260200182805461287690614fcd565b80156128c35780601f10612898576101008083540402835291602001916128c3565b820191906000526020600020905b8154815290600101906020018083116128a657829003601f168201915b5050505050908060040180546128d890614fcd565b80601f016020809104026020016040519081016040528092919081815260200182805461290490614fcd565b80156129515780601f1061292657610100808354040283529160200191612951565b820191906000526020600020905b81548152906001019060200180831161293457829003601f168201915b5050505050908060080160405180606001604052908160008201805461297690614fcd565b80601f01602080910402602001604051908101604052809291908181526020018280546129a290614fcd565b80156129ef5780601f106129c4576101008083540402835291602001916129ef565b820191906000526020600020905b8154815290600101906020018083116129d257829003601f168201915b50505050508152602001600182018054612a0890614fcd565b80601f0160208091040260200160405190810160405280929190818152602001828054612a3490614fcd565b8015612a815780601f10612a5657610100808354040283529160200191612a81565b820191906000526020600020905b815481529060010190602001808311612a6457829003601f168201915b50505050508152602001600282018054612a9a90614fcd565b80601f0160208091040260200160405190810160405280929190818152602001828054612ac690614fcd565b8015612b135780601f10612ae857610100808354040283529160200191612b13565b820191906000526020600020905b815481529060010190602001808311612af657829003601f168201915b5050505050815250509080600b016040518060600160405290816000820160009054906101000a900460ff161515151581526020016000820160019054906101000a900460ff161515151581526020016000820160029054906101000a900460ff1615151515815250509080600c016040518060800160405290816000820160009054906101000a900460ff161515151581526020016000820160019054906101000a900460ff161515151581526020016000820160029054906101000a900460ff161515151581526020016000820160039054906101000a900460ff1615151515815250509080600d0160009054906101000a900460ff169080600d0160019054906101000a900460ff169080600e016040518060400160405290816000820160009054906101000a900460ff166005811115612c5457612c53613efa565b5b6005811115612c6657612c65613efa565b5b8152602001600182018054612c7a90614fcd565b80601f0160208091040260200160405190810160405280929190818152602001828054612ca690614fcd565b8015612cf35780601f10612cc857610100808354040283529160200191612cf3565b820191906000526020600020905b815481529060010190602001808311612cd657829003601f168201915b50505050508152505090508b565b60606000805480602002602001604051908101604052809291908181526020016000905b828210156133e6578382906000526020600020906010020160405180610180016040529081600082018054612d5990614fcd565b80601f0160208091040260200160405190810160405280929190818152602001828054612d8590614fcd565b8015612dd25780601f10612da757610100808354040283529160200191612dd2565b820191906000526020600020905b815481529060010190602001808311612db557829003601f168201915b50505050508152602001600182018054612deb90614fcd565b80601f0160208091040260200160405190810160405280929190818152602001828054612e1790614fcd565b8015612e645780601f10612e3957610100808354040283529160200191612e64565b820191906000526020600020905b815481529060010190602001808311612e4757829003601f168201915b505050505081526020016002820160009054906101000a900460ff166004811115612e9257612e91613efa565b5b6004811115612ea457612ea3613efa565b5b8152602001600382018054612eb890614fcd565b80601f0160208091040260200160405190810160405280929190818152602001828054612ee490614fcd565b8015612f315780601f10612f0657610100808354040283529160200191612f31565b820191906000526020600020905b815481529060010190602001808311612f1457829003601f168201915b50505050508152602001600482018054612f4a90614fcd565b80601f0160208091040260200160405190810160405280929190818152602001828054612f7690614fcd565b8015612fc35780601f10612f9857610100808354040283529160200191612fc3565b820191906000526020600020905b815481529060010190602001808311612fa657829003601f168201915b5050505050815260200160058201600380602002604051908101604052809291908260038015613008576020028201915b815481526020019060010190808311612ff4575b505050505081526020016008820160405180606001604052908160008201805461303190614fcd565b80601f016020809104026020016040519081016040528092919081815260200182805461305d90614fcd565b80156130aa5780601f1061307f576101008083540402835291602001916130aa565b820191906000526020600020905b81548152906001019060200180831161308d57829003601f168201915b505050505081526020016001820180546130c390614fcd565b80601f01602080910402602001604051908101604052809291908181526020018280546130ef90614fcd565b801561313c5780601f106131115761010080835404028352916020019161313c565b820191906000526020600020905b81548152906001019060200180831161311f57829003601f168201915b5050505050815260200160028201805461315590614fcd565b80601f016020809104026020016040519081016040528092919081815260200182805461318190614fcd565b80156131ce5780601f106131a3576101008083540402835291602001916131ce565b820191906000526020600020905b8154815290600101906020018083116131b157829003601f168201915b5050505050815250508152602001600b82016040518060600160405290816000820160009054906101000a900460ff161515151581526020016000820160019054906101000a900460ff161515151581526020016000820160029054906101000a900460ff1615151515815250508152602001600c82016040518060800160405290816000820160009054906101000a900460ff161515151581526020016000820160019054906101000a900460ff161515151581526020016000820160029054906101000a900460ff161515151581526020016000820160039054906101000a900460ff1615151515815250508152602001600d820160009054906101000a900460ff16151515158152602001600d820160019054906101000a900460ff16151515158152602001600e82016040518060400160405290816000820160009054906101000a900460ff16600581111561332b5761332a613efa565b5b600581111561333d5761333c613efa565b5b815260200160018201805461335190614fcd565b80601f016020809104026020016040519081016040528092919081815260200182805461337d90614fcd565b80156133ca5780601f1061339f576101008083540402835291602001916133ca565b820191906000526020600020905b8154815290600101906020018083116133ad57829003601f168201915b5050505050815250508152505081526020019060010190612d25565b50505050905090565b60606000600383604051613403919061521c565b90815260200160405180910390205467ffffffffffffffff81111561342b5761342a614410565b5b60405190808252806020026020018201604052801561346457816020015b613451613bf7565b8152602001906001900390816134495790505b5090506000805b600080549050811015613bec5784604051602001613489919061521c565b60405160208183030381529060405280519060200120600082815481106134b3576134b2614f6f565b5b90600052602060002090601002016004016040516020016134d491906152c7565b604051602081830303815290604052805190602001201415613bd9576000818154811061350457613503614f6f565b5b90600052602060002090601002016040518061018001604052908160008201805461352e90614fcd565b80601f016020809104026020016040519081016040528092919081815260200182805461355a90614fcd565b80156135a75780601f1061357c576101008083540402835291602001916135a7565b820191906000526020600020905b81548152906001019060200180831161358a57829003601f168201915b505050505081526020016001820180546135c090614fcd565b80601f01602080910402602001604051908101604052809291908181526020018280546135ec90614fcd565b80156136395780601f1061360e57610100808354040283529160200191613639565b820191906000526020600020905b81548152906001019060200180831161361c57829003601f168201915b505050505081526020016002820160009054906101000a900460ff16600481111561366757613666613efa565b5b600481111561367957613678613efa565b5b815260200160038201805461368d90614fcd565b80601f01602080910402602001604051908101604052809291908181526020018280546136b990614fcd565b80156137065780601f106136db57610100808354040283529160200191613706565b820191906000526020600020905b8154815290600101906020018083116136e957829003601f168201915b5050505050815260200160048201805461371f90614fcd565b80601f016020809104026020016040519081016040528092919081815260200182805461374b90614fcd565b80156137985780601f1061376d57610100808354040283529160200191613798565b820191906000526020600020905b81548152906001019060200180831161377b57829003601f168201915b50505050508152602001600582016003806020026040519081016040528092919082600380156137dd576020028201915b8154815260200190600101908083116137c9575b505050505081526020016008820160405180606001604052908160008201805461380690614fcd565b80601f016020809104026020016040519081016040528092919081815260200182805461383290614fcd565b801561387f5780601f106138545761010080835404028352916020019161387f565b820191906000526020600020905b81548152906001019060200180831161386257829003601f168201915b5050505050815260200160018201805461389890614fcd565b80601f01602080910402602001604051908101604052809291908181526020018280546138c490614fcd565b80156139115780601f106138e657610100808354040283529160200191613911565b820191906000526020600020905b8154815290600101906020018083116138f457829003601f168201915b5050505050815260200160028201805461392a90614fcd565b80601f016020809104026020016040519081016040528092919081815260200182805461395690614fcd565b80156139a35780601f10613978576101008083540402835291602001916139a3565b820191906000526020600020905b81548152906001019060200180831161398657829003601f168201915b5050505050815250508152602001600b82016040518060600160405290816000820160009054906101000a900460ff161515151581526020016000820160019054906101000a900460ff161515151581526020016000820160029054906101000a900460ff1615151515815250508152602001600c82016040518060800160405290816000820160009054906101000a900460ff161515151581526020016000820160019054906101000a900460ff161515151581526020016000820160029054906101000a900460ff161515151581526020016000820160039054906101000a900460ff1615151515815250508152602001600d820160009054906101000a900460ff16151515158152602001600d820160019054906101000a900460ff16151515158152602001600e82016040518060400160405290816000820160009054906101000a900460ff166005811115613b0057613aff613efa565b5b6005811115613b1257613b11613efa565b5b8152602001600182018054613b2690614fcd565b80601f0160208091040260200160405190810160405280929190818152602001828054613b5290614fcd565b8015613b9f5780601f10613b7457610100808354040283529160200191613b9f565b820191906000526020600020905b815481529060010190602001808311613b8257829003601f168201915b50505050508152505081525050838381518110613bbf57613bbe614f6f565b5b60200260200101819052508180613bd59061502e565b9250505b8080613be49061502e565b91505061346b565b508192505050919050565b604051806101800160405280606081526020016060815260200160006004811115613c2557613c24613efa565b5b81526020016060815260200160608152602001613c40613d52565b8152602001613c4d613d74565b8152602001613c5a613d95565b8152602001613c67613dbc565b8152602001600015158152602001600015158152602001613c86613dec565b81525090565b828054613c9890614fcd565b90600052602060002090601f016020900481019282613cba5760008555613d01565b82601f10613cd357805160ff1916838001178555613d01565b82800160010185558215613d01579182015b82811115613d00578251825591602001919060010190613ce5565b5b509050613d0e9190613e18565b5090565b8260038101928215613d41579160200282015b82811115613d40578251825591602001919060010190613d25565b5b509050613d4e9190613e18565b5090565b6040518060600160405280600390602082028036833780820191505090505090565b60405180606001604052806060815260200160608152602001606081525090565b60405180606001604052806000151581526020016000151581526020016000151581525090565b60405180608001604052806000151581526020016000151581526020016000151581526020016000151581525090565b604051806040016040528060006005811115613e0b57613e0a613efa565b5b8152602001606081525090565b5b80821115613e31576000816000905550600101613e19565b5090565b600081519050919050565b600082825260208201905092915050565b6000819050602082019050919050565b600081519050919050565b600082825260208201905092915050565b60005b83811015613e9b578082015181840152602081019050613e80565b83811115613eaa576000848401525b50505050565b6000601f19601f8301169050919050565b6000613ecc82613e61565b613ed68185613e6c565b9350613ee6818560208601613e7d565b613eef81613eb0565b840191505092915050565b7f4e487b7100000000000000000000000000000000000000000000000000000000600052602160045260246000fd5b60058110613f3a57613f39613efa565b5b50565b6000819050613f4b82613f29565b919050565b6000613f5b82613f3d565b9050919050565b613f6b81613f50565b82525050565b600060039050919050565b600081905092915050565b6000819050919050565b6000819050919050565b613fa481613f91565b82525050565b6000613fb68383613f9b565b60208301905092915050565b6000602082019050919050565b613fd881613f71565b613fe28184613f7c565b9250613fed82613f87565b8060005b8381101561401e5781516140058782613faa565b965061401083613fc2565b925050600181019050613ff1565b505050505050565b600060608301600083015184820360008601526140438282613ec1565b9150506020830151848203602086015261405d8282613ec1565b915050604083015184820360408601526140778282613ec1565b9150508091505092915050565b60008115159050919050565b61409981614084565b82525050565b6060820160008201516140b56000850182614090565b5060208201516140c86020850182614090565b5060408201516140db6040850182614090565b50505050565b6080820160008201516140f76000850182614090565b50602082015161410a6020850182614090565b50604082015161411d6040850182614090565b5060608201516141306060850182614090565b50505050565b6006811061414757614146613efa565b5b50565b600081905061415882614136565b919050565b60006141688261414a565b9050919050565b6141788161415d565b82525050565b6000604083016000830151614196600086018261416f565b50602083015184820360208601526141ae8282613ec1565b9150508091505092915050565b60006102608301600083015184820360008601526141d98282613ec1565b915050602083015184820360208601526141f38282613ec1565b91505060408301516142086040860182613f62565b50606083015184820360608601526142208282613ec1565b9150506080830151848203608086015261423a8282613ec1565b91505060a083015161424f60a0860182613fcf565b5060c08301518482036101008601526142688282614026565b91505060e083015161427e61012086018261409f565b506101008301516142936101808601826140e1565b506101208301516142a8610200860182614090565b506101408301516142bd610220860182614090565b506101608301518482036102408601526142d7828261417e565b9150508091505092915050565b60006142f083836141bb565b905092915050565b6000602082019050919050565b600061431082613e35565b61431a8185613e40565b93508360208202850161432c85613e51565b8060005b85811015614368578484038952815161434985826142e4565b9450614354836142f8565b925060208a01995050600181019050614330565b50829750879550505050505092915050565b600060208201905081810360008301526143948184614305565b905092915050565b6143a581613f91565b82525050565b60006020820190506143c0600083018461439c565b92915050565b6000604051905090565b600080fd5b600080fd5b6143e381613f91565b81146143ee57600080fd5b50565b600081359050614400816143da565b92915050565b600080fd5b600080fd5b7f4e487b7100000000000000000000000000000000000000000000000000000000600052604160045260246000fd5b61444882613eb0565b810181811067ffffffffffffffff8211171561446757614466614410565b5b80604052505050565b600061447a6143c6565b9050614486828261443f565b919050565b600067ffffffffffffffff8211156144a6576144a5614410565b5b6144af82613eb0565b9050602081019050919050565b82818337600083830152505050565b60006144de6144d98461448b565b614470565b9050828152602081018484840111156144fa576144f961440b565b5b6145058482856144bc565b509392505050565b600082601f83011261452257614521614406565b5b81356145328482602086016144cb565b91505092915050565b600067ffffffffffffffff82111561455657614555614410565b5b602082029050602081019050919050565b600080fd5b600061457f61457a8461453b565b614470565b905080838252602082019050602084028301858111156145a2576145a1614567565b5b835b818110156145cb57806145b788826143f1565b8452602084019350506020810190506145a4565b5050509392505050565b600082601f8301126145ea576145e9614406565b5b81356145fa84826020860161456c565b91505092915050565b600080fd5b600080fd5b60006060828403121561462357614622614603565b5b61462d6060614470565b9050600082013567ffffffffffffffff81111561464d5761464c614608565b5b6146598482850161450d565b600083015250602082013567ffffffffffffffff81111561467d5761467c614608565b5b6146898482850161450d565b602083015250604082013567ffffffffffffffff8111156146ad576146ac614608565b5b6146b98482850161450d565b60408301525092915050565b6146ce81614084565b81146146d957600080fd5b50565b6000813590506146eb816146c5565b92915050565b60006060828403121561470757614706614603565b5b6147116060614470565b90506000614721848285016146dc565b6000830152506020614735848285016146dc565b6020830152506040614749848285016146dc565b60408301525092915050565b60006080828403121561476b5761476a614603565b5b6147756080614470565b90506000614785848285016146dc565b6000830152506020614799848285016146dc565b60208301525060406147ad848285016146dc565b60408301525060606147c1848285016146dc565b60608301525092915050565b6000806000806000806000806000806101e08b8d0312156147f1576147f06143d0565b5b60006147ff8d828e016143f1565b9a505060208b013567ffffffffffffffff8111156148205761481f6143d5565b5b61482c8d828e0161450d565b99505060408b013567ffffffffffffffff81111561484d5761484c6143d5565b5b6148598d828e0161450d565b98505060608b013567ffffffffffffffff81111561487a576148796143d5565b5b6148868d828e0161450d565b97505060808b013567ffffffffffffffff8111156148a7576148a66143d5565b5b6148b38d828e0161450d565b96505060a08b013567ffffffffffffffff8111156148d4576148d36143d5565b5b6148e08d828e016145d5565b95505060c08b013567ffffffffffffffff811115614901576149006143d5565b5b61490d8d828e0161460d565b94505060e061491e8d828e016146f1565b9350506101406149308d828e01614755565b9250506101c06149428d828e016146dc565b9150509295989b9194979a5092959850565b60006020828403121561496a576149696143d0565b5b6000614978848285016143f1565b91505092915050565b61498a81613f50565b82525050565b60006020820190506149a56000830184614981565b92915050565b6000602082840312156149c1576149c06143d0565b5b600082013567ffffffffffffffff8111156149df576149de6143d5565b5b6149eb8482850161450d565b91505092915050565b6000610260830160008301518482036000860152614a128282613ec1565b91505060208301518482036020860152614a2c8282613ec1565b9150506040830151614a416040860182613f62565b5060608301518482036060860152614a598282613ec1565b91505060808301518482036080860152614a738282613ec1565b91505060a0830151614a8860a0860182613fcf565b5060c0830151848203610100860152614aa18282614026565b91505060e0830151614ab761012086018261409f565b50610100830151614acc6101808601826140e1565b50610120830151614ae1610200860182614090565b50610140830151614af6610220860182614090565b50610160830151848203610240860152614b10828261417e565b9150508091505092915050565b60006020820190508181036000830152614b3781846149f4565b905092915050565b60008060008060008060008060006101c08a8c031215614b6257614b616143d0565b5b60008a013567ffffffffffffffff811115614b8057614b7f6143d5565b5b614b8c8c828d0161450d565b99505060208a013567ffffffffffffffff811115614bad57614bac6143d5565b5b614bb98c828d0161450d565b98505060408a013567ffffffffffffffff811115614bda57614bd96143d5565b5b614be68c828d0161450d565b97505060608a013567ffffffffffffffff811115614c0757614c066143d5565b5b614c138c828d0161450d565b96505060808a013567ffffffffffffffff811115614c3457614c336143d5565b5b614c408c828d016145d5565b95505060a08a013567ffffffffffffffff811115614c6157614c606143d5565b5b614c6d8c828d0161460d565b94505060c0614c7e8c828d016146f1565b935050610120614c908c828d01614755565b9250506101a0614ca28c828d016146dc565b9150509295985092959850929598565b60008060408385031215614cc957614cc86143d0565b5b6000614cd7858286016143f1565b925050602083013567ffffffffffffffff811115614cf857614cf76143d5565b5b614d048582860161450d565b9150509250929050565b600082825260208201905092915050565b6000614d2a82613e61565b614d348185614d0e565b9350614d44818560208601613e7d565b614d4d81613eb0565b840191505092915050565b60006060830160008301518482036000860152614d758282613ec1565b91505060208301518482036020860152614d8f8282613ec1565b91505060408301518482036040860152614da98282613ec1565b9150508091505092915050565b606082016000820151614dcc6000850182614090565b506020820151614ddf6020850182614090565b506040820151614df26040850182614090565b50505050565b608082016000820151614e0e6000850182614090565b506020820151614e216020850182614090565b506040820151614e346040850182614090565b506060820151614e476060850182614090565b50505050565b614e5681614084565b82525050565b6000604083016000830151614e74600086018261416f565b5060208301518482036020860152614e8c8282613ec1565b9150508091505092915050565b6000610200820190508181036000830152614eb4818e614d1f565b90508181036020830152614ec8818d614d1f565b9050614ed7604083018c614981565b8181036060830152614ee9818b614d1f565b90508181036080830152614efd818a614d1f565b905081810360a0830152614f118189614d58565b9050614f2060c0830188614db6565b614f2e610120830187614df8565b614f3c6101a0830186614e4d565b614f4a6101c0830185614e4d565b8181036101e0830152614f5d8184614e5c565b90509c9b505050505050505050505050565b7f4e487b7100000000000000000000000000000000000000000000000000000000600052603260045260246000fd5b7f4e487b7100000000000000000000000000000000000000000000000000000000600052602260045260246000fd5b60006002820490506001821680614fe557607f821691505b60208210811415614ff957614ff8614f9e565b5b50919050565b7f4e487b7100000000000000000000000000000000000000000000000000000000600052601160045260246000fd5b600061503982613f91565b91507fffffffffffffffffffffffffffffffffffffffffffffffffffffffffffffffff82141561506c5761506b614fff565b5b600182019050919050565b7f456e642064617465206d757374206265206166746572206372656174696f6e2060008201527f646174652e000000000000000000000000000000000000000000000000000000602082015250565b60006150d3602583614d0e565b91506150de82615077565b604082019050919050565b60006020820190508181036000830152615102816150c6565b9050919050565b7f456e642064617465206d7573742062652061667465722073746172742064617460008201527f652e000000000000000000000000000000000000000000000000000000000000602082015250565b6000615165602283614d0e565b915061517082615109565b604082019050919050565b6000602082019050818103600083015261519481615158565b9050919050565b600060608201905081810360008301526151b58186614d1f565b905081810360208301526151c98185614d1f565b90506151d8604083018461439c565b949350505050565b600081905092915050565b60006151f682613e61565b61520081856151e0565b9350615210818560208601613e7d565b80840191505092915050565b600061522882846151eb565b915081905092915050565b60008190508160005260206000209050919050565b6000815461525581614fcd565b61525f81866151e0565b9450600182166000811461527a576001811461528b576152be565b60ff198316865281860193506152be565b61529485615233565b60005b838110156152b657815481890152600182019150602081019050615297565b838801955050505b50505092915050565b60006152d38284615248565b915081905092915050565b60006152e982613f91565b91506152f483613f91565b92508282101561530757615306614fff565b5b828203905092915050565b7f4f6e6c792074686520636f6e73756d6572206f6620746869732061677265656d60008201527f656e742063616e207369676e2e00000000000000000000000000000000000000602082015250565b600061536e602d83614d0e565b915061537982615312565b604082019050919050565b6000602082019050818103600083015261539d81615361565b9050919050565b600081546153b181614fcd565b6153bb8186614d0e565b945060018216600081146153d657600181146153e85761541b565b60ff198316865260208601935061541b565b6153f185615233565b60005b83811015615413578154818901526001820191506020810190506153f4565b808801955050505b50505092915050565b6000606082019050818103600083015261543e81866153a4565b905081810360208301526154528185614d1f565b9050615461604083018461439c565b949350505050565b600061547482613f91565b9150600082141561548857615487614fff565b5b60018203905091905056fea26469706673582212208abc9ee6f013f88e0fc7c0b2f87982d82bf775da0671d30e0f14b81240a36de464736f6c63430008090033",
  "devdoc": {
    "kind": "dev",
    "methods": {},
    "version": 1
  },
  "userdoc": {
    "kind": "user",
    "methods": {},
    "version": 1
  },
  "storageLayout": {
    "storage": [
      {
        "astId": 79,
        "contract": "contracts/agreement-14-12-21.sol:DataSharingAgreement",
        "label": "agreements",
        "offset": 0,
        "slot": "0",
        "type": "t_array(t_struct(Agreement)46_storage)dyn_storage"
      },
      {
        "astId": 81,
        "contract": "contracts/agreement-14-12-21.sol:DataSharingAgreement",
        "label": "activeAgreementCount",
        "offset": 0,
        "slot": "1",
        "type": "t_uint256"
      },
      {
        "astId": 85,
        "contract": "contracts/agreement-14-12-21.sol:DataSharingAgreement",
        "label": "providerCount",
        "offset": 0,
        "slot": "2",
        "type": "t_mapping(t_string_memory_ptr,t_uint256)"
      },
      {
        "astId": 89,
        "contract": "contracts/agreement-14-12-21.sol:DataSharingAgreement",
        "label": "consumerCount",
        "offset": 0,
        "slot": "3",
        "type": "t_mapping(t_string_memory_ptr,t_uint256)"
      }
    ],
    "types": {
      "t_array(t_struct(Agreement)46_storage)dyn_storage": {
        "base": "t_struct(Agreement)46_storage",
        "encoding": "dynamic_array",
        "label": "struct DataSharingAgreement.Agreement[]",
        "numberOfBytes": "32"
      },
      "t_array(t_uint256)3_storage": {
        "base": "t_uint256",
        "encoding": "inplace",
        "label": "uint256[3]",
        "numberOfBytes": "96"
      },
      "t_bool": {
        "encoding": "inplace",
        "label": "bool",
        "numberOfBytes": "1"
      },
      "t_enum(State)7": {
        "encoding": "inplace",
        "label": "enum DataSharingAgreement.State",
        "numberOfBytes": "1"
      },
      "t_enum(ViolationType)14": {
        "encoding": "inplace",
        "label": "enum DataSharingAgreement.ViolationType",
        "numberOfBytes": "1"
      },
      "t_mapping(t_string_memory_ptr,t_uint256)": {
        "encoding": "mapping",
        "key": "t_string_memory_ptr",
        "label": "mapping(string => uint256)",
        "numberOfBytes": "32",
        "value": "t_uint256"
      },
      "t_string_memory_ptr": {
        "encoding": "bytes",
        "label": "string",
        "numberOfBytes": "32"
      },
      "t_string_storage": {
        "encoding": "bytes",
        "label": "string",
        "numberOfBytes": "32"
      },
      "t_struct(Agreement)46_storage": {
        "encoding": "inplace",
        "label": "struct DataSharingAgreement.Agreement",
        "members": [
          {
            "astId": 16,
            "contract": "contracts/agreement-14-12-21.sol:DataSharingAgreement",
            "label": "dataOfferingId",
            "offset": 0,
            "slot": "0",
            "type": "t_string_storage"
          },
          {
            "astId": 18,
            "contract": "contracts/agreement-14-12-21.sol:DataSharingAgreement",
            "label": "purpose",
            "offset": 0,
            "slot": "1",
            "type": "t_string_storage"
          },
          {
            "astId": 21,
            "contract": "contracts/agreement-14-12-21.sol:DataSharingAgreement",
            "label": "state",
            "offset": 0,
            "slot": "2",
            "type": "t_enum(State)7"
          },
          {
            "astId": 23,
            "contract": "contracts/agreement-14-12-21.sol:DataSharingAgreement",
            "label": "providerId",
            "offset": 0,
            "slot": "3",
            "type": "t_string_storage"
          },
          {
            "astId": 25,
            "contract": "contracts/agreement-14-12-21.sol:DataSharingAgreement",
            "label": "consumerId",
            "offset": 0,
            "slot": "4",
            "type": "t_string_storage"
          },
          {
            "astId": 29,
            "contract": "contracts/agreement-14-12-21.sol:DataSharingAgreement",
            "label": "agreementDates",
            "offset": 0,
            "slot": "5",
            "type": "t_array(t_uint256)3_storage"
          },
          {
            "astId": 32,
            "contract": "contracts/agreement-14-12-21.sol:DataSharingAgreement",
            "label": "descriptionOfData",
            "offset": 0,
            "slot": "8",
            "type": "t_struct(DescriptionOfData)53_storage"
          },
          {
            "astId": 35,
            "contract": "contracts/agreement-14-12-21.sol:DataSharingAgreement",
            "label": "intendedUse",
            "offset": 0,
            "slot": "11",
            "type": "t_struct(IntendedUse)60_storage"
          },
          {
            "astId": 38,
            "contract": "contracts/agreement-14-12-21.sol:DataSharingAgreement",
            "label": "licenseGrant",
            "offset": 0,
            "slot": "12",
            "type": "t_struct(LicenseGrant)69_storage"
          },
          {
            "astId": 40,
            "contract": "contracts/agreement-14-12-21.sol:DataSharingAgreement",
            "label": "dataStream",
            "offset": 0,
            "slot": "13",
            "type": "t_bool"
          },
          {
            "astId": 42,
            "contract": "contracts/agreement-14-12-21.sol:DataSharingAgreement",
            "label": "signed",
            "offset": 1,
            "slot": "13",
            "type": "t_bool"
          },
          {
            "astId": 45,
            "contract": "contracts/agreement-14-12-21.sol:DataSharingAgreement",
            "label": "violation",
            "offset": 0,
            "slot": "14",
            "type": "t_struct(Violation)75_storage"
          }
        ],
        "numberOfBytes": "512"
      },
      "t_struct(DescriptionOfData)53_storage": {
        "encoding": "inplace",
        "label": "struct DataSharingAgreement.DescriptionOfData",
        "members": [
          {
            "astId": 48,
            "contract": "contracts/agreement-14-12-21.sol:DataSharingAgreement",
            "label": "dataType",
            "offset": 0,
            "slot": "0",
            "type": "t_string_storage"
          },
          {
            "astId": 50,
            "contract": "contracts/agreement-14-12-21.sol:DataSharingAgreement",
            "label": "dataFormat",
            "offset": 0,
            "slot": "1",
            "type": "t_string_storage"
          },
          {
            "astId": 52,
            "contract": "contracts/agreement-14-12-21.sol:DataSharingAgreement",
            "label": "dataSource",
            "offset": 0,
            "slot": "2",
            "type": "t_string_storage"
          }
        ],
        "numberOfBytes": "96"
      },
      "t_struct(IntendedUse)60_storage": {
        "encoding": "inplace",
        "label": "struct DataSharingAgreement.IntendedUse",
        "members": [
          {
            "astId": 55,
            "contract": "contracts/agreement-14-12-21.sol:DataSharingAgreement",
            "label": "processData",
            "offset": 0,
            "slot": "0",
            "type": "t_bool"
          },
          {
            "astId": 57,
            "contract": "contracts/agreement-14-12-21.sol:DataSharingAgreement",
            "label": "shareDataWithThirdParty",
            "offset": 1,
            "slot": "0",
            "type": "t_bool"
          },
          {
            "astId": 59,
            "contract": "contracts/agreement-14-12-21.sol:DataSharingAgreement",
            "label": "editData",
            "offset": 2,
            "slot": "0",
            "type": "t_bool"
          }
        ],
        "numberOfBytes": "32"
      },
      "t_struct(LicenseGrant)69_storage": {
        "encoding": "inplace",
        "label": "struct DataSharingAgreement.LicenseGrant",
        "members": [
          {
            "astId": 62,
            "contract": "contracts/agreement-14-12-21.sol:DataSharingAgreement",
            "label": "copyData",
            "offset": 0,
            "slot": "0",
            "type": "t_bool"
          },
          {
            "astId": 64,
            "contract": "contracts/agreement-14-12-21.sol:DataSharingAgreement",
            "label": "transferable",
            "offset": 1,
            "slot": "0",
            "type": "t_bool"
          },
          {
            "astId": 66,
            "contract": "contracts/agreement-14-12-21.sol:DataSharingAgreement",
            "label": "exclusiveness",
            "offset": 2,
            "slot": "0",
            "type": "t_bool"
          },
          {
            "astId": 68,
            "contract": "contracts/agreement-14-12-21.sol:DataSharingAgreement",
            "label": "revocable",
            "offset": 3,
            "slot": "0",
            "type": "t_bool"
          }
        ],
        "numberOfBytes": "32"
      },
      "t_struct(Violation)75_storage": {
        "encoding": "inplace",
        "label": "struct DataSharingAgreement.Violation",
        "members": [
          {
            "astId": 72,
            "contract": "contracts/agreement-14-12-21.sol:DataSharingAgreement",
            "label": "violationType",
            "offset": 0,
            "slot": "0",
            "type": "t_enum(ViolationType)14"
          },
          {
            "astId": 74,
            "contract": "contracts/agreement-14-12-21.sol:DataSharingAgreement",
            "label": "issuerId",
            "offset": 0,
            "slot": "1",
            "type": "t_string_storage"
          }
        ],
        "numberOfBytes": "64"
      },
      "t_uint256": {
        "encoding": "inplace",
        "label": "uint256",
        "numberOfBytes": "32"
      }
    }
  }
}