{
  "address": "0x6e9568939F87b62FCA0FDFcB5888138eF87778FD",
  "abi": [
    {
      "anonymous": false,
      "inputs": [
        {
          "indexed": false,
          "internalType": "string",
          "name": "providerId",
          "type": "string"
        },
        {
          "indexed": false,
          "internalType": "string",
          "name": "consumerId",
          "type": "string"
        },
        {
          "indexed": false,
          "internalType": "uint256",
          "name": "id",
          "type": "uint256"
        }
      ],
      "name": "AgreementCreated",
      "type": "event"
    },
    {
      "anonymous": false,
      "inputs": [
        {
          "indexed": false,
          "internalType": "string",
          "name": "providerId",
          "type": "string"
        },
        {
          "indexed": false,
          "internalType": "string",
          "name": "consumerId",
          "type": "string"
        },
        {
          "indexed": false,
          "internalType": "uint256",
          "name": "id",
          "type": "uint256"
        }
      ],
      "name": "AgreementSigned",
      "type": "event"
    },
    {
      "anonymous": false,
      "inputs": [
        {
          "indexed": false,
          "internalType": "string",
          "name": "providerId",
          "type": "string"
        },
        {
          "indexed": false,
          "internalType": "string",
          "name": "consumerId",
          "type": "string"
        },
        {
          "indexed": false,
          "internalType": "uint256",
          "name": "id",
          "type": "uint256"
        }
      ],
      "name": "AgreementTerminated",
      "type": "event"
    },
    {
      "anonymous": false,
      "inputs": [
        {
          "indexed": false,
          "internalType": "string",
          "name": "providerId",
          "type": "string"
        },
        {
          "indexed": false,
          "internalType": "string",
          "name": "consumerId",
          "type": "string"
        },
        {
          "indexed": false,
          "internalType": "uint256",
          "name": "id",
          "type": "uint256"
        }
      ],
      "name": "AgreementUpdated",
      "type": "event"
    },
    {
      "inputs": [],
      "name": "agreementViolation",
      "outputs": [
        {
          "internalType": "contract AgreementViolation",
          "name": "",
          "type": "address"
        }
      ],
      "stateMutability": "view",
      "type": "function"
    },
    {
      "inputs": [
        {
          "internalType": "uint256",
          "name": "",
          "type": "uint256"
        }
      ],
      "name": "agreements",
      "outputs": [
        {
          "internalType": "uint256",
          "name": "agreementId",
          "type": "uint256"
        },
        {
          "internalType": "string",
          "name": "providerPublicKey",
          "type": "string"
        },
        {
          "internalType": "string",
          "name": "consumerPublicKey",
          "type": "string"
        },
        {
          "internalType": "string",
          "name": "dataExchangeAgreementHash",
          "type": "string"
        },
        {
          "components": [
            {
              "internalType": "string",
              "name": "dataOfferingId",
              "type": "string"
            },
            {
              "internalType": "string",
              "name": "dataOfferingVersion",
              "type": "string"
            }
          ],
          "internalType": "struct DataSharingAgreement.DataOffering",
          "name": "dataOffering",
          "type": "tuple"
        },
        {
          "internalType": "string",
          "name": "purpose",
          "type": "string"
        },
        {
          "internalType": "enum DataSharingAgreement.State",
          "name": "state",
          "type": "uint8"
        },
        {
          "internalType": "string",
          "name": "providerId",
          "type": "string"
        },
        {
          "internalType": "string",
          "name": "consumerId",
          "type": "string"
        },
        {
          "components": [
            {
              "internalType": "bool",
              "name": "processData",
              "type": "bool"
            },
            {
              "internalType": "bool",
              "name": "shareDataWithThirdParty",
              "type": "bool"
            },
            {
              "internalType": "bool",
              "name": "editData",
              "type": "bool"
            }
          ],
          "internalType": "struct DataSharingAgreement.IntendedUse",
          "name": "intendedUse",
          "type": "tuple"
        },
        {
          "components": [
            {
              "internalType": "bool",
              "name": "copyData",
              "type": "bool"
            },
            {
              "internalType": "bool",
              "name": "transferable",
              "type": "bool"
            },
            {
              "internalType": "bool",
              "name": "exclusiveness",
              "type": "bool"
            },
            {
              "internalType": "bool",
              "name": "revocable",
              "type": "bool"
            }
          ],
          "internalType": "struct DataSharingAgreement.LicenseGrant",
          "name": "licenseGrant",
          "type": "tuple"
        },
        {
          "internalType": "bool",
          "name": "dataStream",
          "type": "bool"
        }
      ],
      "stateMutability": "view",
      "type": "function"
    },
    {
      "inputs": [],
      "name": "checkActiveAgreements",
      "outputs": [
        {
          "components": [
            {
              "internalType": "uint256",
              "name": "agreementId",
              "type": "uint256"
            },
            {
              "internalType": "string",
              "name": "providerPublicKey",
              "type": "string"
            },
            {
              "internalType": "string",
              "name": "consumerPublicKey",
              "type": "string"
            },
            {
              "internalType": "string",
              "name": "dataExchangeAgreementHash",
              "type": "string"
            },
            {
              "components": [
                {
                  "internalType": "string",
                  "name": "dataOfferingId",
                  "type": "string"
                },
                {
                  "internalType": "string",
                  "name": "dataOfferingVersion",
                  "type": "string"
                }
              ],
              "internalType": "struct DataSharingAgreement.DataOffering",
              "name": "dataOffering",
              "type": "tuple"
            },
            {
              "internalType": "string",
              "name": "purpose",
              "type": "string"
            },
            {
              "internalType": "enum DataSharingAgreement.State",
              "name": "state",
              "type": "uint8"
            },
            {
              "internalType": "string",
              "name": "providerId",
              "type": "string"
            },
            {
              "internalType": "string",
              "name": "consumerId",
              "type": "string"
            },
            {
              "internalType": "uint256[3]",
              "name": "agreementDates",
              "type": "uint256[3]"
            },
            {
              "components": [
                {
                  "internalType": "bool",
                  "name": "processData",
                  "type": "bool"
                },
                {
                  "internalType": "bool",
                  "name": "shareDataWithThirdParty",
                  "type": "bool"
                },
                {
                  "internalType": "bool",
                  "name": "editData",
                  "type": "bool"
                }
              ],
              "internalType": "struct DataSharingAgreement.IntendedUse",
              "name": "intendedUse",
              "type": "tuple"
            },
            {
              "components": [
                {
                  "internalType": "bool",
                  "name": "copyData",
                  "type": "bool"
                },
                {
                  "internalType": "bool",
                  "name": "transferable",
                  "type": "bool"
                },
                {
                  "internalType": "bool",
                  "name": "exclusiveness",
                  "type": "bool"
                },
                {
                  "internalType": "bool",
                  "name": "revocable",
                  "type": "bool"
                }
              ],
              "internalType": "struct DataSharingAgreement.LicenseGrant",
              "name": "licenseGrant",
              "type": "tuple"
            },
            {
              "internalType": "bool",
              "name": "dataStream",
              "type": "bool"
            }
          ],
          "internalType": "struct DataSharingAgreement.Agreement[]",
          "name": "",
          "type": "tuple[]"
        }
      ],
      "stateMutability": "view",
      "type": "function"
    },
    {
      "inputs": [
        {
          "internalType": "string",
          "name": "_consumerId",
          "type": "string"
        }
      ],
      "name": "checkAgreementsByConsumer",
      "outputs": [
        {
          "components": [
            {
              "internalType": "uint256",
              "name": "agreementId",
              "type": "uint256"
            },
            {
              "internalType": "string",
              "name": "providerPublicKey",
              "type": "string"
            },
            {
              "internalType": "string",
              "name": "consumerPublicKey",
              "type": "string"
            },
            {
              "internalType": "string",
              "name": "dataExchangeAgreementHash",
              "type": "string"
            },
            {
              "components": [
                {
                  "internalType": "string",
                  "name": "dataOfferingId",
                  "type": "string"
                },
                {
                  "internalType": "string",
                  "name": "dataOfferingVersion",
                  "type": "string"
                }
              ],
              "internalType": "struct DataSharingAgreement.DataOffering",
              "name": "dataOffering",
              "type": "tuple"
            },
            {
              "internalType": "string",
              "name": "purpose",
              "type": "string"
            },
            {
              "internalType": "enum DataSharingAgreement.State",
              "name": "state",
              "type": "uint8"
            },
            {
              "internalType": "string",
              "name": "providerId",
              "type": "string"
            },
            {
              "internalType": "string",
              "name": "consumerId",
              "type": "string"
            },
            {
              "internalType": "uint256[3]",
              "name": "agreementDates",
              "type": "uint256[3]"
            },
            {
              "components": [
                {
                  "internalType": "bool",
                  "name": "processData",
                  "type": "bool"
                },
                {
                  "internalType": "bool",
                  "name": "shareDataWithThirdParty",
                  "type": "bool"
                },
                {
                  "internalType": "bool",
                  "name": "editData",
                  "type": "bool"
                }
              ],
              "internalType": "struct DataSharingAgreement.IntendedUse",
              "name": "intendedUse",
              "type": "tuple"
            },
            {
              "components": [
                {
                  "internalType": "bool",
                  "name": "copyData",
                  "type": "bool"
                },
                {
                  "internalType": "bool",
                  "name": "transferable",
                  "type": "bool"
                },
                {
                  "internalType": "bool",
                  "name": "exclusiveness",
                  "type": "bool"
                },
                {
                  "internalType": "bool",
                  "name": "revocable",
                  "type": "bool"
                }
              ],
              "internalType": "struct DataSharingAgreement.LicenseGrant",
              "name": "licenseGrant",
              "type": "tuple"
            },
            {
              "internalType": "bool",
              "name": "dataStream",
              "type": "bool"
            }
          ],
          "internalType": "struct DataSharingAgreement.Agreement[]",
          "name": "",
          "type": "tuple[]"
        }
      ],
      "stateMutability": "view",
      "type": "function"
    },
    {
      "inputs": [
        {
          "internalType": "string",
          "name": "_providerId",
          "type": "string"
        }
      ],
      "name": "checkAgreementsByProvider",
      "outputs": [
        {
          "components": [
            {
              "internalType": "uint256",
              "name": "agreementId",
              "type": "uint256"
            },
            {
              "internalType": "string",
              "name": "providerPublicKey",
              "type": "string"
            },
            {
              "internalType": "string",
              "name": "consumerPublicKey",
              "type": "string"
            },
            {
              "internalType": "string",
              "name": "dataExchangeAgreementHash",
              "type": "string"
            },
            {
              "components": [
                {
                  "internalType": "string",
                  "name": "dataOfferingId",
                  "type": "string"
                },
                {
                  "internalType": "string",
                  "name": "dataOfferingVersion",
                  "type": "string"
                }
              ],
              "internalType": "struct DataSharingAgreement.DataOffering",
              "name": "dataOffering",
              "type": "tuple"
            },
            {
              "internalType": "string",
              "name": "purpose",
              "type": "string"
            },
            {
              "internalType": "enum DataSharingAgreement.State",
              "name": "state",
              "type": "uint8"
            },
            {
              "internalType": "string",
              "name": "providerId",
              "type": "string"
            },
            {
              "internalType": "string",
              "name": "consumerId",
              "type": "string"
            },
            {
              "internalType": "uint256[3]",
              "name": "agreementDates",
              "type": "uint256[3]"
            },
            {
              "components": [
                {
                  "internalType": "bool",
                  "name": "processData",
                  "type": "bool"
                },
                {
                  "internalType": "bool",
                  "name": "shareDataWithThirdParty",
                  "type": "bool"
                },
                {
                  "internalType": "bool",
                  "name": "editData",
                  "type": "bool"
                }
              ],
              "internalType": "struct DataSharingAgreement.IntendedUse",
              "name": "intendedUse",
              "type": "tuple"
            },
            {
              "components": [
                {
                  "internalType": "bool",
                  "name": "copyData",
                  "type": "bool"
                },
                {
                  "internalType": "bool",
                  "name": "transferable",
                  "type": "bool"
                },
                {
                  "internalType": "bool",
                  "name": "exclusiveness",
                  "type": "bool"
                },
                {
                  "internalType": "bool",
                  "name": "revocable",
                  "type": "bool"
                }
              ],
              "internalType": "struct DataSharingAgreement.LicenseGrant",
              "name": "licenseGrant",
              "type": "tuple"
            },
            {
              "internalType": "bool",
              "name": "dataStream",
              "type": "bool"
            }
          ],
          "internalType": "struct DataSharingAgreement.Agreement[]",
          "name": "",
          "type": "tuple[]"
        }
      ],
      "stateMutability": "view",
      "type": "function"
    },
    {
      "inputs": [
        {
          "internalType": "string",
          "name": "_providerPublicKey",
          "type": "string"
        },
        {
          "internalType": "string",
          "name": "_consumerPublicKey",
          "type": "string"
        },
        {
          "internalType": "string",
          "name": "_dataExchangeAgreementHash",
          "type": "string"
        },
        {
          "components": [
            {
              "internalType": "string",
              "name": "dataOfferingId",
              "type": "string"
            },
            {
              "internalType": "string",
              "name": "dataOfferingVersion",
              "type": "string"
            }
          ],
          "internalType": "struct DataSharingAgreement.DataOffering",
          "name": "dataOffering",
          "type": "tuple"
        },
        {
          "internalType": "string",
          "name": "_purpose",
          "type": "string"
        },
        {
          "internalType": "string",
          "name": "_providerId",
          "type": "string"
        },
        {
          "internalType": "string",
          "name": "_consumerId",
          "type": "string"
        },
        {
          "internalType": "uint256[]",
          "name": "dates",
          "type": "uint256[]"
        },
        {
          "components": [
            {
              "internalType": "bool",
              "name": "processData",
              "type": "bool"
            },
            {
              "internalType": "bool",
              "name": "shareDataWithThirdParty",
              "type": "bool"
            },
            {
              "internalType": "bool",
              "name": "editData",
              "type": "bool"
            }
          ],
          "internalType": "struct DataSharingAgreement.IntendedUse",
          "name": "intendedUse",
          "type": "tuple"
        },
        {
          "components": [
            {
              "internalType": "bool",
              "name": "copyData",
              "type": "bool"
            },
            {
              "internalType": "bool",
              "name": "transferable",
              "type": "bool"
            },
            {
              "internalType": "bool",
              "name": "exclusiveness",
              "type": "bool"
            },
            {
              "internalType": "bool",
              "name": "revocable",
              "type": "bool"
            }
          ],
          "internalType": "struct DataSharingAgreement.LicenseGrant",
          "name": "licenseGrant",
          "type": "tuple"
        },
        {
          "internalType": "bool",
          "name": "_dataStream",
          "type": "bool"
        }
      ],
      "name": "createAgreement",
      "outputs": [],
      "stateMutability": "nonpayable",
      "type": "function"
    },
    {
      "inputs": [
        {
          "internalType": "uint256",
          "name": "id",
          "type": "uint256"
        }
      ],
      "name": "getAgreement",
      "outputs": [
        {
          "components": [
            {
              "internalType": "uint256",
              "name": "agreementId",
              "type": "uint256"
            },
            {
              "internalType": "string",
              "name": "providerPublicKey",
              "type": "string"
            },
            {
              "internalType": "string",
              "name": "consumerPublicKey",
              "type": "string"
            },
            {
              "internalType": "string",
              "name": "dataExchangeAgreementHash",
              "type": "string"
            },
            {
              "components": [
                {
                  "internalType": "string",
                  "name": "dataOfferingId",
                  "type": "string"
                },
                {
                  "internalType": "string",
                  "name": "dataOfferingVersion",
                  "type": "string"
                }
              ],
              "internalType": "struct DataSharingAgreement.DataOffering",
              "name": "dataOffering",
              "type": "tuple"
            },
            {
              "internalType": "string",
              "name": "purpose",
              "type": "string"
            },
            {
              "internalType": "enum DataSharingAgreement.State",
              "name": "state",
              "type": "uint8"
            },
            {
              "internalType": "string",
              "name": "providerId",
              "type": "string"
            },
            {
              "internalType": "string",
              "name": "consumerId",
              "type": "string"
            },
            {
              "internalType": "uint256[3]",
              "name": "agreementDates",
              "type": "uint256[3]"
            },
            {
              "components": [
                {
                  "internalType": "bool",
                  "name": "processData",
                  "type": "bool"
                },
                {
                  "internalType": "bool",
                  "name": "shareDataWithThirdParty",
                  "type": "bool"
                },
                {
                  "internalType": "bool",
                  "name": "editData",
                  "type": "bool"
                }
              ],
              "internalType": "struct DataSharingAgreement.IntendedUse",
              "name": "intendedUse",
              "type": "tuple"
            },
            {
              "components": [
                {
                  "internalType": "bool",
                  "name": "copyData",
                  "type": "bool"
                },
                {
                  "internalType": "bool",
                  "name": "transferable",
                  "type": "bool"
                },
                {
                  "internalType": "bool",
                  "name": "exclusiveness",
                  "type": "bool"
                },
                {
                  "internalType": "bool",
                  "name": "revocable",
                  "type": "bool"
                }
              ],
              "internalType": "struct DataSharingAgreement.LicenseGrant",
              "name": "licenseGrant",
              "type": "tuple"
            },
            {
              "internalType": "bool",
              "name": "dataStream",
              "type": "bool"
            }
          ],
          "internalType": "struct DataSharingAgreement.Agreement",
          "name": "",
          "type": "tuple"
        }
      ],
      "stateMutability": "view",
      "type": "function"
    },
    {
      "inputs": [],
      "name": "getAgreements",
      "outputs": [
        {
          "components": [
            {
              "internalType": "uint256",
              "name": "agreementId",
              "type": "uint256"
            },
            {
              "internalType": "string",
              "name": "providerPublicKey",
              "type": "string"
            },
            {
              "internalType": "string",
              "name": "consumerPublicKey",
              "type": "string"
            },
            {
              "internalType": "string",
              "name": "dataExchangeAgreementHash",
              "type": "string"
            },
            {
              "components": [
                {
                  "internalType": "string",
                  "name": "dataOfferingId",
                  "type": "string"
                },
                {
                  "internalType": "string",
                  "name": "dataOfferingVersion",
                  "type": "string"
                }
              ],
              "internalType": "struct DataSharingAgreement.DataOffering",
              "name": "dataOffering",
              "type": "tuple"
            },
            {
              "internalType": "string",
              "name": "purpose",
              "type": "string"
            },
            {
              "internalType": "enum DataSharingAgreement.State",
              "name": "state",
              "type": "uint8"
            },
            {
              "internalType": "string",
              "name": "providerId",
              "type": "string"
            },
            {
              "internalType": "string",
              "name": "consumerId",
              "type": "string"
            },
            {
              "internalType": "uint256[3]",
              "name": "agreementDates",
              "type": "uint256[3]"
            },
            {
              "components": [
                {
                  "internalType": "bool",
                  "name": "processData",
                  "type": "bool"
                },
                {
                  "internalType": "bool",
                  "name": "shareDataWithThirdParty",
                  "type": "bool"
                },
                {
                  "internalType": "bool",
                  "name": "editData",
                  "type": "bool"
                }
              ],
              "internalType": "struct DataSharingAgreement.IntendedUse",
              "name": "intendedUse",
              "type": "tuple"
            },
            {
              "components": [
                {
                  "internalType": "bool",
                  "name": "copyData",
                  "type": "bool"
                },
                {
                  "internalType": "bool",
                  "name": "transferable",
                  "type": "bool"
                },
                {
                  "internalType": "bool",
                  "name": "exclusiveness",
                  "type": "bool"
                },
                {
                  "internalType": "bool",
                  "name": "revocable",
                  "type": "bool"
                }
              ],
              "internalType": "struct DataSharingAgreement.LicenseGrant",
              "name": "licenseGrant",
              "type": "tuple"
            },
            {
              "internalType": "bool",
              "name": "dataStream",
              "type": "bool"
            }
          ],
          "internalType": "struct DataSharingAgreement.Agreement[]",
          "name": "",
          "type": "tuple[]"
        }
      ],
      "stateMutability": "view",
      "type": "function"
    },
    {
      "inputs": [],
      "name": "getAgreementsLength",
      "outputs": [
        {
          "internalType": "uint256",
          "name": "",
          "type": "uint256"
        }
      ],
      "stateMutability": "view",
      "type": "function"
    },
    {
      "inputs": [
        {
          "internalType": "uint256",
          "name": "id",
          "type": "uint256"
        }
      ],
      "name": "getState",
      "outputs": [
        {
          "internalType": "enum DataSharingAgreement.State",
          "name": "",
          "type": "uint8"
        }
      ],
      "stateMutability": "view",
      "type": "function"
    },
    {
      "inputs": [
        {
          "internalType": "string",
          "name": "_dataExchangeId",
          "type": "string"
        },
        {
          "internalType": "uint256",
          "name": "_agreementId",
          "type": "uint256"
        }
      ],
      "name": "mapAgreementIdByExchangeId",
      "outputs": [],
      "stateMutability": "nonpayable",
      "type": "function"
    },
    {
      "inputs": [
        {
          "internalType": "string",
          "name": "_consumerPublicKey",
          "type": "string"
        }
      ],
      "name": "retrieveAgreements",
      "outputs": [
        {
          "components": [
            {
              "internalType": "uint256",
              "name": "agreementId",
              "type": "uint256"
            },
            {
              "internalType": "string",
              "name": "providerPublicKey",
              "type": "string"
            },
            {
              "internalType": "string",
              "name": "consumerPublicKey",
              "type": "string"
            },
            {
              "internalType": "string",
              "name": "dataExchangeAgreementHash",
              "type": "string"
            },
            {
              "components": [
                {
                  "internalType": "string",
                  "name": "dataOfferingId",
                  "type": "string"
                },
                {
                  "internalType": "string",
                  "name": "dataOfferingVersion",
                  "type": "string"
                }
              ],
              "internalType": "struct DataSharingAgreement.DataOffering",
              "name": "dataOffering",
              "type": "tuple"
            },
            {
              "internalType": "string",
              "name": "purpose",
              "type": "string"
            },
            {
              "internalType": "enum DataSharingAgreement.State",
              "name": "state",
              "type": "uint8"
            },
            {
              "internalType": "string",
              "name": "providerId",
              "type": "string"
            },
            {
              "internalType": "string",
              "name": "consumerId",
              "type": "string"
            },
            {
              "internalType": "uint256[3]",
              "name": "agreementDates",
              "type": "uint256[3]"
            },
            {
              "components": [
                {
                  "internalType": "bool",
                  "name": "processData",
                  "type": "bool"
                },
                {
                  "internalType": "bool",
                  "name": "shareDataWithThirdParty",
                  "type": "bool"
                },
                {
                  "internalType": "bool",
                  "name": "editData",
                  "type": "bool"
                }
              ],
              "internalType": "struct DataSharingAgreement.IntendedUse",
              "name": "intendedUse",
              "type": "tuple"
            },
            {
              "components": [
                {
                  "internalType": "bool",
                  "name": "copyData",
                  "type": "bool"
                },
                {
                  "internalType": "bool",
                  "name": "transferable",
                  "type": "bool"
                },
                {
                  "internalType": "bool",
                  "name": "exclusiveness",
                  "type": "bool"
                },
                {
                  "internalType": "bool",
                  "name": "revocable",
                  "type": "bool"
                }
              ],
              "internalType": "struct DataSharingAgreement.LicenseGrant",
              "name": "licenseGrant",
              "type": "tuple"
            },
            {
              "internalType": "bool",
              "name": "dataStream",
              "type": "bool"
            }
          ],
          "internalType": "struct DataSharingAgreement.Agreement[]",
          "name": "",
          "type": "tuple[]"
        }
      ],
      "stateMutability": "view",
      "type": "function"
    },
    {
      "inputs": [
        {
          "internalType": "uint256",
          "name": "_id",
          "type": "uint256"
        },
        {
          "internalType": "string",
          "name": "_consumerId",
          "type": "string"
        },
        {
          "internalType": "string",
          "name": "_consumerPublicKey",
          "type": "string"
        }
      ],
      "name": "signAgreement",
      "outputs": [],
      "stateMutability": "nonpayable",
      "type": "function"
    },
    {
      "inputs": [
        {
          "internalType": "uint256",
          "name": "_id",
          "type": "uint256"
        },
        {
          "internalType": "string",
          "name": "_providerPublicKey",
          "type": "string"
        },
        {
          "internalType": "string",
          "name": "_consumerPublicKey",
          "type": "string"
        },
        {
          "internalType": "string",
          "name": "_dataOfferingId",
          "type": "string"
        },
        {
          "internalType": "string",
          "name": "_purpose",
          "type": "string"
        },
        {
          "internalType": "string",
          "name": "_providerId",
          "type": "string"
        },
        {
          "internalType": "string",
          "name": "_consumerId",
          "type": "string"
        },
        {
          "internalType": "uint256[]",
          "name": "dates",
          "type": "uint256[]"
        },
        {
          "components": [
            {
              "internalType": "bool",
              "name": "processData",
              "type": "bool"
            },
            {
              "internalType": "bool",
              "name": "shareDataWithThirdParty",
              "type": "bool"
            },
            {
              "internalType": "bool",
              "name": "editData",
              "type": "bool"
            }
          ],
          "internalType": "struct DataSharingAgreement.IntendedUse",
          "name": "intendedUse",
          "type": "tuple"
        },
        {
          "components": [
            {
              "internalType": "bool",
              "name": "copyData",
              "type": "bool"
            },
            {
              "internalType": "bool",
              "name": "transferable",
              "type": "bool"
            },
            {
              "internalType": "bool",
              "name": "exclusiveness",
              "type": "bool"
            },
            {
              "internalType": "bool",
              "name": "revocable",
              "type": "bool"
            }
          ],
          "internalType": "struct DataSharingAgreement.LicenseGrant",
          "name": "licenseGrant",
          "type": "tuple"
        },
        {
          "internalType": "bool",
          "name": "_dataStream",
          "type": "bool"
        }
      ],
      "name": "updateAgreement",
      "outputs": [],
      "stateMutability": "nonpayable",
      "type": "function"
    }
  ],
  "transactionHash": "0x0d0fe03d4bfa863e302736b96b167b678883b934d5da19a9b4c86ea3007e9828",
  "args": [],
  "solcInputHash": "019393cdd4da7d5bf9aaa38bc95b0ced",
  "bytecode": "0x6080604052604051620000129062000083565b604051809103906000f0801580156200002f573d6000803e3d6000fd5b506000806101000a81548173ffffffffffffffffffffffffffffffffffffffff021916908373ffffffffffffffffffffffffffffffffffffffff1602179055503480156200007c57600080fd5b5062000091565b6117458062005f5583390190565b615eb480620000a16000396000f3fe608060405234801561001057600080fd5b50600436106100ea5760003560e01c80634f9f6fe61161008c578063cf7e924211610066578063cf7e92421461027c578063d526c0301461029a578063d9421d11146102ca578063e11bf0b6146102e6576100ea565b80634f9f6fe6146101f5578063a473ecb314610225578063bd14de9614610241576100ea565b806344c9af28116100c857806344c9af281461015b578063462464661461018b578063464da40d146101a75780634d9af528146101c5576100ea565b8063063bd15a146100ef5780631c510ea91461010d57806330937f3a1461012b575b600080fd5b6100f7610302565b6040516101049190614c09565b60405180910390f35b610115610a73565b6040516101229190614c3a565b60405180910390f35b61014560048036038101906101409190614d9e565b610a80565b6040516101529190614c09565b60405180910390f35b61017560048036038101906101709190614e13565b61128a565b6040516101829190614e4f565b60405180910390f35b6101a560048036038101906101a09190614e6a565b6112c6565b005b6101af6116ef565b6040516101bc9190614f74565b60405180910390f35b6101df60048036038101906101da9190614d9e565b611713565b6040516101ec9190614c09565b60405180910390f35b61020f600480360381019061020a9190614e13565b611f1d565b60405161021c91906150d2565b60405180910390f35b61023f600480360381019061023a91906152ce565b612588565b005b61025b60048036038101906102569190614e13565b612a83565b6040516102739c9b9a999897969594939291906155ba565b60405180910390f35b61028461303c565b6040516102919190614c09565b60405180910390f35b6102b460048036038101906102af9190614d9e565b6136ca565b6040516102c19190614c09565b60405180910390f35b6102e460048036038101906102df91906156a5565b613ed4565b005b61030060048036038101906102fb9190615789565b613f65565b005b6060600060025467ffffffffffffffff81111561032257610321614c73565b5b60405190808252806020026020018201604052801561035b57816020015b61034861453f565b8152602001906001900390816103405790505b5090506000805b600180549050811015610a6a57600160048111156103835761038261486b565b5b600182815481106103975761039661595d565b5b906000526020600020906010020160070160009054906101000a900460ff1660048111156103c8576103c761486b565b5b1415610a5757600181815481106103e2576103e161595d565b5b9060005260206000209060100201604051806101a001604052908160008201548152602001600182018054610416906159bb565b80601f0160208091040260200160405190810160405280929190818152602001828054610442906159bb565b801561048f5780601f106104645761010080835404028352916020019161048f565b820191906000526020600020905b81548152906001019060200180831161047257829003601f168201915b505050505081526020016002820180546104a8906159bb565b80601f01602080910402602001604051908101604052809291908181526020018280546104d4906159bb565b80156105215780601f106104f657610100808354040283529160200191610521565b820191906000526020600020905b81548152906001019060200180831161050457829003601f168201915b5050505050815260200160038201805461053a906159bb565b80601f0160208091040260200160405190810160405280929190818152602001828054610566906159bb565b80156105b35780601f10610588576101008083540402835291602001916105b3565b820191906000526020600020905b81548152906001019060200180831161059657829003601f168201915b50505050508152602001600482016040518060400160405290816000820180546105dc906159bb565b80601f0160208091040260200160405190810160405280929190818152602001828054610608906159bb565b80156106555780601f1061062a57610100808354040283529160200191610655565b820191906000526020600020905b81548152906001019060200180831161063857829003601f168201915b5050505050815260200160018201805461066e906159bb565b80601f016020809104026020016040519081016040528092919081815260200182805461069a906159bb565b80156106e75780601f106106bc576101008083540402835291602001916106e7565b820191906000526020600020905b8154815290600101906020018083116106ca57829003601f168201915b5050505050815250508152602001600682018054610704906159bb565b80601f0160208091040260200160405190810160405280929190818152602001828054610730906159bb565b801561077d5780601f106107525761010080835404028352916020019161077d565b820191906000526020600020905b81548152906001019060200180831161076057829003601f168201915b505050505081526020016007820160009054906101000a900460ff1660048111156107ab576107aa61486b565b5b60048111156107bd576107bc61486b565b5b81526020016008820180546107d1906159bb565b80601f01602080910402602001604051908101604052809291908181526020018280546107fd906159bb565b801561084a5780601f1061081f5761010080835404028352916020019161084a565b820191906000526020600020905b81548152906001019060200180831161082d57829003601f168201915b50505050508152602001600982018054610863906159bb565b80601f016020809104026020016040519081016040528092919081815260200182805461088f906159bb565b80156108dc5780601f106108b1576101008083540402835291602001916108dc565b820191906000526020600020905b8154815290600101906020018083116108bf57829003601f168201915b50505050508152602001600a8201600380602002604051908101604052809291908260038015610921576020028201915b81548152602001906001019080831161090d575b50505050508152602001600d82016040518060600160405290816000820160009054906101000a900460ff161515151581526020016000820160019054906101000a900460ff161515151581526020016000820160029054906101000a900460ff1615151515815250508152602001600e82016040518060800160405290816000820160009054906101000a900460ff161515151581526020016000820160019054906101000a900460ff161515151581526020016000820160029054906101000a900460ff161515151581526020016000820160039054906101000a900460ff1615151515815250508152602001600f820160009054906101000a900460ff161515151581525050838381518110610a3d57610a3c61595d565b5b60200260200101819052508180610a5390615a1c565b9250505b8080610a6290615a1c565b915050610362565b50819250505090565b6000600180549050905090565b60606000600583604051610a949190615aa1565b90815260200160405180910390205467ffffffffffffffff811115610abc57610abb614c73565b5b604051908082528060200260200182016040528015610af557816020015b610ae261453f565b815260200190600190039081610ada5790505b5090506000805b60018054905081101561127f5760016004811115610b1d57610b1c61486b565b5b60018281548110610b3157610b3061595d565b5b906000526020600020906010020160070160009054906101000a900460ff166004811115610b6257610b6161486b565b5b148015610bde575084604051602001610b7b9190615aa1565b6040516020818303038152906040528051906020012060018281548110610ba557610ba461595d565b5b9060005260206000209060100201600201604051602001610bc69190615b4c565b60405160208183030381529060405280519060200120145b1561126c5760018181548110610bf757610bf661595d565b5b9060005260206000209060100201604051806101a001604052908160008201548152602001600182018054610c2b906159bb565b80601f0160208091040260200160405190810160405280929190818152602001828054610c57906159bb565b8015610ca45780601f10610c7957610100808354040283529160200191610ca4565b820191906000526020600020905b815481529060010190602001808311610c8757829003601f168201915b50505050508152602001600282018054610cbd906159bb565b80601f0160208091040260200160405190810160405280929190818152602001828054610ce9906159bb565b8015610d365780601f10610d0b57610100808354040283529160200191610d36565b820191906000526020600020905b815481529060010190602001808311610d1957829003601f168201915b50505050508152602001600382018054610d4f906159bb565b80601f0160208091040260200160405190810160405280929190818152602001828054610d7b906159bb565b8015610dc85780601f10610d9d57610100808354040283529160200191610dc8565b820191906000526020600020905b815481529060010190602001808311610dab57829003601f168201915b5050505050815260200160048201604051806040016040529081600082018054610df1906159bb565b80601f0160208091040260200160405190810160405280929190818152602001828054610e1d906159bb565b8015610e6a5780601f10610e3f57610100808354040283529160200191610e6a565b820191906000526020600020905b815481529060010190602001808311610e4d57829003601f168201915b50505050508152602001600182018054610e83906159bb565b80601f0160208091040260200160405190810160405280929190818152602001828054610eaf906159bb565b8015610efc5780601f10610ed157610100808354040283529160200191610efc565b820191906000526020600020905b815481529060010190602001808311610edf57829003601f168201915b5050505050815250508152602001600682018054610f19906159bb565b80601f0160208091040260200160405190810160405280929190818152602001828054610f45906159bb565b8015610f925780601f10610f6757610100808354040283529160200191610f92565b820191906000526020600020905b815481529060010190602001808311610f7557829003601f168201915b505050505081526020016007820160009054906101000a900460ff166004811115610fc057610fbf61486b565b5b6004811115610fd257610fd161486b565b5b8152602001600882018054610fe6906159bb565b80601f0160208091040260200160405190810160405280929190818152602001828054611012906159bb565b801561105f5780601f106110345761010080835404028352916020019161105f565b820191906000526020600020905b81548152906001019060200180831161104257829003601f168201915b50505050508152602001600982018054611078906159bb565b80601f01602080910402602001604051908101604052809291908181526020018280546110a4906159bb565b80156110f15780601f106110c6576101008083540402835291602001916110f1565b820191906000526020600020905b8154815290600101906020018083116110d457829003601f168201915b50505050508152602001600a8201600380602002604051908101604052809291908260038015611136576020028201915b815481526020019060010190808311611122575b50505050508152602001600d82016040518060600160405290816000820160009054906101000a900460ff161515151581526020016000820160019054906101000a900460ff161515151581526020016000820160029054906101000a900460ff1615151515815250508152602001600e82016040518060800160405290816000820160009054906101000a900460ff161515151581526020016000820160019054906101000a900460ff161515151581526020016000820160029054906101000a900460ff161515151581526020016000820160039054906101000a900460ff1615151515815250508152602001600f820160009054906101000a900460ff1615151515815250508383815181106112525761125161595d565b5b6020026020010181905250818061126890615a1c565b9250505b808061127790615a1c565b915050610afc565b508192505050919050565b6000600182815481106112a05761129f61595d565b5b906000526020600020906010020160070160009054906101000a900460ff169050919050565b816040516020016112d79190615aa1565b60405160208183030381529060405280519060200120600184815481106113015761130061595d565b5b90600052602060002090601002016009016040516020016113229190615b4c565b6040516020818303038152906040528051906020012014611378576040517f08c379a000000000000000000000000000000000000000000000000000000000815260040161136f90615bd5565b60405180910390fd5b60006001848154811061138e5761138d61595d565b5b906000526020600020906010020160080180546113aa906159bb565b80601f01602080910402602001604051908101604052809291908181526020018280546113d6906159bb565b80156114235780601f106113f857610100808354040283529160200191611423565b820191906000526020600020905b81548152906001019060200180831161140657829003601f168201915b50505050509050426001858154811061143f5761143e61595d565b5b9060005260206000209060100201600a016002600381106114635761146261595d565b5b0154106115ab57600180858154811061147f5761147e61595d565b5b906000526020600020906010020160070160006101000a81548160ff021916908360048111156114b2576114b161486b565b5b0217905550600260008154809291906114ca90615a1c565b91905055506003816040516114df9190615aa1565b908152602001604051809103902060008154809291906114fe90615a1c565b91905055506004836040516115139190615aa1565b9081526020016040518091039020600081548092919061153290615a1c565b91905055506005826040516115479190615aa1565b9081526020016040518091039020600081548092919061156690615a1c565b91905055507faf3cbb721f27933bb22b42ea3324fba0c7cf12a6fc685cbf705ba7674aaad1b281848660405161159e93929190615bf5565b60405180910390a16116e9565b6004600185815481106115c1576115c061595d565b5b906000526020600020906010020160070160006101000a81548160ff021916908360048111156115f4576115f361486b565b5b02179055506002600081548092919061160c90615c3a565b91905055506003816040516116219190615aa1565b9081526020016040518091039020600081548092919061164090615c3a565b91905055506004836040516116559190615aa1565b9081526020016040518091039020600081548092919061167490615c3a565b91905055506005826040516116899190615aa1565b908152602001604051809103902060008154809291906116a890615c3a565b91905055507f8fdec0edc19a1eb9147642be05b326b7f5d42bf96f5ba734530bfca33bc8d7e98184866040516116e093929190615bf5565b60405180910390a15b50505050565b60008054906101000a900473ffffffffffffffffffffffffffffffffffffffff1681565b606060006003836040516117279190615aa1565b90815260200160405180910390205467ffffffffffffffff81111561174f5761174e614c73565b5b60405190808252806020026020018201604052801561178857816020015b61177561453f565b81526020019060019003908161176d5790505b5090506000805b600180549050811015611f1257600160048111156117b0576117af61486b565b5b600182815481106117c4576117c361595d565b5b906000526020600020906010020160070160009054906101000a900460ff1660048111156117f5576117f461486b565b5b14801561187157508460405160200161180e9190615aa1565b60405160208183030381529060405280519060200120600182815481106118385761183761595d565b5b90600052602060002090601002016008016040516020016118599190615b4c565b60405160208183030381529060405280519060200120145b15611eff576001818154811061188a5761188961595d565b5b9060005260206000209060100201604051806101a0016040529081600082015481526020016001820180546118be906159bb565b80601f01602080910402602001604051908101604052809291908181526020018280546118ea906159bb565b80156119375780601f1061190c57610100808354040283529160200191611937565b820191906000526020600020905b81548152906001019060200180831161191a57829003601f168201915b50505050508152602001600282018054611950906159bb565b80601f016020809104026020016040519081016040528092919081815260200182805461197c906159bb565b80156119c95780601f1061199e576101008083540402835291602001916119c9565b820191906000526020600020905b8154815290600101906020018083116119ac57829003601f168201915b505050505081526020016003820180546119e2906159bb565b80601f0160208091040260200160405190810160405280929190818152602001828054611a0e906159bb565b8015611a5b5780601f10611a3057610100808354040283529160200191611a5b565b820191906000526020600020905b815481529060010190602001808311611a3e57829003601f168201915b5050505050815260200160048201604051806040016040529081600082018054611a84906159bb565b80601f0160208091040260200160405190810160405280929190818152602001828054611ab0906159bb565b8015611afd5780601f10611ad257610100808354040283529160200191611afd565b820191906000526020600020905b815481529060010190602001808311611ae057829003601f168201915b50505050508152602001600182018054611b16906159bb565b80601f0160208091040260200160405190810160405280929190818152602001828054611b42906159bb565b8015611b8f5780601f10611b6457610100808354040283529160200191611b8f565b820191906000526020600020905b815481529060010190602001808311611b7257829003601f168201915b5050505050815250508152602001600682018054611bac906159bb565b80601f0160208091040260200160405190810160405280929190818152602001828054611bd8906159bb565b8015611c255780601f10611bfa57610100808354040283529160200191611c25565b820191906000526020600020905b815481529060010190602001808311611c0857829003601f168201915b505050505081526020016007820160009054906101000a900460ff166004811115611c5357611c5261486b565b5b6004811115611c6557611c6461486b565b5b8152602001600882018054611c79906159bb565b80601f0160208091040260200160405190810160405280929190818152602001828054611ca5906159bb565b8015611cf25780601f10611cc757610100808354040283529160200191611cf2565b820191906000526020600020905b815481529060010190602001808311611cd557829003601f168201915b50505050508152602001600982018054611d0b906159bb565b80601f0160208091040260200160405190810160405280929190818152602001828054611d37906159bb565b8015611d845780601f10611d5957610100808354040283529160200191611d84565b820191906000526020600020905b815481529060010190602001808311611d6757829003601f168201915b50505050508152602001600a8201600380602002604051908101604052809291908260038015611dc9576020028201915b815481526020019060010190808311611db5575b50505050508152602001600d82016040518060600160405290816000820160009054906101000a900460ff161515151581526020016000820160019054906101000a900460ff161515151581526020016000820160029054906101000a900460ff1615151515815250508152602001600e82016040518060800160405290816000820160009054906101000a900460ff161515151581526020016000820160019054906101000a900460ff161515151581526020016000820160029054906101000a900460ff161515151581526020016000820160039054906101000a900460ff1615151515815250508152602001600f820160009054906101000a900460ff161515151581525050838381518110611ee557611ee461595d565b5b60200260200101819052508180611efb90615a1c565b9250505b8080611f0a90615a1c565b91505061178f565b508192505050919050565b611f2561453f565b60018281548110611f3957611f3861595d565b5b9060005260206000209060100201604051806101a001604052908160008201548152602001600182018054611f6d906159bb565b80601f0160208091040260200160405190810160405280929190818152602001828054611f99906159bb565b8015611fe65780601f10611fbb57610100808354040283529160200191611fe6565b820191906000526020600020905b815481529060010190602001808311611fc957829003601f168201915b50505050508152602001600282018054611fff906159bb565b80601f016020809104026020016040519081016040528092919081815260200182805461202b906159bb565b80156120785780601f1061204d57610100808354040283529160200191612078565b820191906000526020600020905b81548152906001019060200180831161205b57829003601f168201915b50505050508152602001600382018054612091906159bb565b80601f01602080910402602001604051908101604052809291908181526020018280546120bd906159bb565b801561210a5780601f106120df5761010080835404028352916020019161210a565b820191906000526020600020905b8154815290600101906020018083116120ed57829003601f168201915b5050505050815260200160048201604051806040016040529081600082018054612133906159bb565b80601f016020809104026020016040519081016040528092919081815260200182805461215f906159bb565b80156121ac5780601f10612181576101008083540402835291602001916121ac565b820191906000526020600020905b81548152906001019060200180831161218f57829003601f168201915b505050505081526020016001820180546121c5906159bb565b80601f01602080910402602001604051908101604052809291908181526020018280546121f1906159bb565b801561223e5780601f106122135761010080835404028352916020019161223e565b820191906000526020600020905b81548152906001019060200180831161222157829003601f168201915b505050505081525050815260200160068201805461225b906159bb565b80601f0160208091040260200160405190810160405280929190818152602001828054612287906159bb565b80156122d45780601f106122a9576101008083540402835291602001916122d4565b820191906000526020600020905b8154815290600101906020018083116122b757829003601f168201915b505050505081526020016007820160009054906101000a900460ff1660048111156123025761230161486b565b5b60048111156123145761231361486b565b5b8152602001600882018054612328906159bb565b80601f0160208091040260200160405190810160405280929190818152602001828054612354906159bb565b80156123a15780601f10612376576101008083540402835291602001916123a1565b820191906000526020600020905b81548152906001019060200180831161238457829003601f168201915b505050505081526020016009820180546123ba906159bb565b80601f01602080910402602001604051908101604052809291908181526020018280546123e6906159bb565b80156124335780601f1061240857610100808354040283529160200191612433565b820191906000526020600020905b81548152906001019060200180831161241657829003601f168201915b50505050508152602001600a8201600380602002604051908101604052809291908260038015612478576020028201915b815481526020019060010190808311612464575b50505050508152602001600d82016040518060600160405290816000820160009054906101000a900460ff161515151581526020016000820160019054906101000a900460ff161515151581526020016000820160029054906101000a900460ff1615151515815250508152602001600e82016040518060800160405290816000820160009054906101000a900460ff161515151581526020016000820160019054906101000a900460ff161515151581526020016000820160029054906101000a900460ff161515151581526020016000820160039054906101000a900460ff1615151515815250508152602001600f820160009054906101000a900460ff1615151515815250509050919050565b600060018c8154811061259e5761259d61595d565b5b90600052602060002090601002019050866040516020016125bf9190615aa1565b6040516020818303038152906040528051906020012060018d815481106125e9576125e861595d565b5b906000526020600020906010020160080160405160200161260a9190615b4c565b6040516020818303038152906040528051906020012014612660576040517f08c379a000000000000000000000000000000000000000000000000000000000815260040161265790615cd6565b60405180910390fd5b600160048111156126745761267361486b565b5b8160070160009054906101000a900460ff1660048111156126985761269761486b565b5b1415612a7557878160060190805190602001906126b69291906145d3565b50868160080190805190602001906126cf9291906145d3565b50858160090190805190602001906126e89291906145d3565b50846000815181106126fd576126fc61595d565b5b602002602001015181600a0160016003811061271c5761271b61595d565b5b018190555080600a016000600381106127385761273761595d565b5b01548560008151811061274e5761274d61595d565b5b60200260200101511015612797576040517f08c379a000000000000000000000000000000000000000000000000000000000815260040161278e90615d68565b60405180910390fd5b846000815181106127ab576127aa61595d565b5b6020026020010151856001815181106127c7576127c661595d565b5b60200260200101511161280f576040517f08c379a000000000000000000000000000000000000000000000000000000000815260040161280690615dfa565b60405180910390fd5b846001815181106128235761282261595d565b5b602002602001015181600a016002600381106128425761284161595d565b5b0181905550836000015181600d0160000160006101000a81548160ff021916908315150217905550836020015181600d0160000160016101000a81548160ff021916908315150217905550836040015181600d0160000160026101000a81548160ff021916908315150217905550826000015181600e0160000160006101000a81548160ff021916908315150217905550826020015181600e0160000160016101000a81548160ff021916908315150217905550826040015181600e0160000160026101000a81548160ff021916908315150217905550826060015181600e0160000160036101000a81548160ff0219169083151502179055508181600f0160006101000a81548160ff02191690831515021790555060028160070160006101000a81548160ff021916908360048111156129805761297f61486b565b5b02179055506002600081548092919061299890615c3a565b91905055506003876040516129ad9190615aa1565b908152602001604051809103902060008154809291906129cc90615c3a565b91905055506004866040516129e19190615aa1565b90815260200160405180910390206000815480929190612a0090615c3a565b919050555060058a604051612a159190615aa1565b90815260200160405180910390206000815480929190612a3490615c3a565b91905055507fe45a4efc7be91ee38226641b8dfb0a53e062696831d4052b7b79903b7d39301187878e604051612a6c93929190615bf5565b60405180910390a15b505050505050505050505050565b60018181548110612a9357600080fd5b9060005260206000209060100201600091509050806000015490806001018054612abc906159bb565b80601f0160208091040260200160405190810160405280929190818152602001828054612ae8906159bb565b8015612b355780601f10612b0a57610100808354040283529160200191612b35565b820191906000526020600020905b815481529060010190602001808311612b1857829003601f168201915b505050505090806002018054612b4a906159bb565b80601f0160208091040260200160405190810160405280929190818152602001828054612b76906159bb565b8015612bc35780601f10612b9857610100808354040283529160200191612bc3565b820191906000526020600020905b815481529060010190602001808311612ba657829003601f168201915b505050505090806003018054612bd8906159bb565b80601f0160208091040260200160405190810160405280929190818152602001828054612c04906159bb565b8015612c515780601f10612c2657610100808354040283529160200191612c51565b820191906000526020600020905b815481529060010190602001808311612c3457829003601f168201915b50505050509080600401604051806040016040529081600082018054612c76906159bb565b80601f0160208091040260200160405190810160405280929190818152602001828054612ca2906159bb565b8015612cef5780601f10612cc457610100808354040283529160200191612cef565b820191906000526020600020905b815481529060010190602001808311612cd257829003601f168201915b50505050508152602001600182018054612d08906159bb565b80601f0160208091040260200160405190810160405280929190818152602001828054612d34906159bb565b8015612d815780601f10612d5657610100808354040283529160200191612d81565b820191906000526020600020905b815481529060010190602001808311612d6457829003601f168201915b50505050508152505090806006018054612d9a906159bb565b80601f0160208091040260200160405190810160405280929190818152602001828054612dc6906159bb565b8015612e135780601f10612de857610100808354040283529160200191612e13565b820191906000526020600020905b815481529060010190602001808311612df657829003601f168201915b5050505050908060070160009054906101000a900460ff1690806008018054612e3b906159bb565b80601f0160208091040260200160405190810160405280929190818152602001828054612e67906159bb565b8015612eb45780601f10612e8957610100808354040283529160200191612eb4565b820191906000526020600020905b815481529060010190602001808311612e9757829003601f168201915b505050505090806009018054612ec9906159bb565b80601f0160208091040260200160405190810160405280929190818152602001828054612ef5906159bb565b8015612f425780601f10612f1757610100808354040283529160200191612f42565b820191906000526020600020905b815481529060010190602001808311612f2557829003601f168201915b50505050509080600d016040518060600160405290816000820160009054906101000a900460ff161515151581526020016000820160019054906101000a900460ff161515151581526020016000820160029054906101000a900460ff1615151515815250509080600e016040518060800160405290816000820160009054906101000a900460ff161515151581526020016000820160019054906101000a900460ff161515151581526020016000820160029054906101000a900460ff161515151581526020016000820160039054906101000a900460ff1615151515815250509080600f0160009054906101000a900460ff1690508c565b60606001805480602002602001604051908101604052809291908181526020016000905b828210156136c15783829060005260206000209060100201604051806101a00160405290816000820154815260200160018201805461309e906159bb565b80601f01602080910402602001604051908101604052809291908181526020018280546130ca906159bb565b80156131175780601f106130ec57610100808354040283529160200191613117565b820191906000526020600020905b8154815290600101906020018083116130fa57829003601f168201915b50505050508152602001600282018054613130906159bb565b80601f016020809104026020016040519081016040528092919081815260200182805461315c906159bb565b80156131a95780601f1061317e576101008083540402835291602001916131a9565b820191906000526020600020905b81548152906001019060200180831161318c57829003601f168201915b505050505081526020016003820180546131c2906159bb565b80601f01602080910402602001604051908101604052809291908181526020018280546131ee906159bb565b801561323b5780601f106132105761010080835404028352916020019161323b565b820191906000526020600020905b81548152906001019060200180831161321e57829003601f168201915b5050505050815260200160048201604051806040016040529081600082018054613264906159bb565b80601f0160208091040260200160405190810160405280929190818152602001828054613290906159bb565b80156132dd5780601f106132b2576101008083540402835291602001916132dd565b820191906000526020600020905b8154815290600101906020018083116132c057829003601f168201915b505050505081526020016001820180546132f6906159bb565b80601f0160208091040260200160405190810160405280929190818152602001828054613322906159bb565b801561336f5780601f106133445761010080835404028352916020019161336f565b820191906000526020600020905b81548152906001019060200180831161335257829003601f168201915b505050505081525050815260200160068201805461338c906159bb565b80601f01602080910402602001604051908101604052809291908181526020018280546133b8906159bb565b80156134055780601f106133da57610100808354040283529160200191613405565b820191906000526020600020905b8154815290600101906020018083116133e857829003601f168201915b505050505081526020016007820160009054906101000a900460ff1660048111156134335761343261486b565b5b60048111156134455761344461486b565b5b8152602001600882018054613459906159bb565b80601f0160208091040260200160405190810160405280929190818152602001828054613485906159bb565b80156134d25780601f106134a7576101008083540402835291602001916134d2565b820191906000526020600020905b8154815290600101906020018083116134b557829003601f168201915b505050505081526020016009820180546134eb906159bb565b80601f0160208091040260200160405190810160405280929190818152602001828054613517906159bb565b80156135645780601f1061353957610100808354040283529160200191613564565b820191906000526020600020905b81548152906001019060200180831161354757829003601f168201915b50505050508152602001600a82016003806020026040519081016040528092919082600380156135a9576020028201915b815481526020019060010190808311613595575b50505050508152602001600d82016040518060600160405290816000820160009054906101000a900460ff161515151581526020016000820160019054906101000a900460ff161515151581526020016000820160029054906101000a900460ff1615151515815250508152602001600e82016040518060800160405290816000820160009054906101000a900460ff161515151581526020016000820160019054906101000a900460ff161515151581526020016000820160029054906101000a900460ff161515151581526020016000820160039054906101000a900460ff1615151515815250508152602001600f820160009054906101000a900460ff16151515158152505081526020019060010190613060565b50505050905090565b606060006004836040516136de9190615aa1565b90815260200160405180910390205467ffffffffffffffff81111561370657613705614c73565b5b60405190808252806020026020018201604052801561373f57816020015b61372c61453f565b8152602001906001900390816137245790505b5090506000805b600180549050811015613ec957600160048111156137675761376661486b565b5b6001828154811061377b5761377a61595d565b5b906000526020600020906010020160070160009054906101000a900460ff1660048111156137ac576137ab61486b565b5b1480156138285750846040516020016137c59190615aa1565b60405160208183030381529060405280519060200120600182815481106137ef576137ee61595d565b5b90600052602060002090601002016009016040516020016138109190615b4c565b60405160208183030381529060405280519060200120145b15613eb657600181815481106138415761384061595d565b5b9060005260206000209060100201604051806101a001604052908160008201548152602001600182018054613875906159bb565b80601f01602080910402602001604051908101604052809291908181526020018280546138a1906159bb565b80156138ee5780601f106138c3576101008083540402835291602001916138ee565b820191906000526020600020905b8154815290600101906020018083116138d157829003601f168201915b50505050508152602001600282018054613907906159bb565b80601f0160208091040260200160405190810160405280929190818152602001828054613933906159bb565b80156139805780601f1061395557610100808354040283529160200191613980565b820191906000526020600020905b81548152906001019060200180831161396357829003601f168201915b50505050508152602001600382018054613999906159bb565b80601f01602080910402602001604051908101604052809291908181526020018280546139c5906159bb565b8015613a125780601f106139e757610100808354040283529160200191613a12565b820191906000526020600020905b8154815290600101906020018083116139f557829003601f168201915b5050505050815260200160048201604051806040016040529081600082018054613a3b906159bb565b80601f0160208091040260200160405190810160405280929190818152602001828054613a67906159bb565b8015613ab45780601f10613a8957610100808354040283529160200191613ab4565b820191906000526020600020905b815481529060010190602001808311613a9757829003601f168201915b50505050508152602001600182018054613acd906159bb565b80601f0160208091040260200160405190810160405280929190818152602001828054613af9906159bb565b8015613b465780601f10613b1b57610100808354040283529160200191613b46565b820191906000526020600020905b815481529060010190602001808311613b2957829003601f168201915b5050505050815250508152602001600682018054613b63906159bb565b80601f0160208091040260200160405190810160405280929190818152602001828054613b8f906159bb565b8015613bdc5780601f10613bb157610100808354040283529160200191613bdc565b820191906000526020600020905b815481529060010190602001808311613bbf57829003601f168201915b505050505081526020016007820160009054906101000a900460ff166004811115613c0a57613c0961486b565b5b6004811115613c1c57613c1b61486b565b5b8152602001600882018054613c30906159bb565b80601f0160208091040260200160405190810160405280929190818152602001828054613c5c906159bb565b8015613ca95780601f10613c7e57610100808354040283529160200191613ca9565b820191906000526020600020905b815481529060010190602001808311613c8c57829003601f168201915b50505050508152602001600982018054613cc2906159bb565b80601f0160208091040260200160405190810160405280929190818152602001828054613cee906159bb565b8015613d3b5780601f10613d1057610100808354040283529160200191613d3b565b820191906000526020600020905b815481529060010190602001808311613d1e57829003601f168201915b50505050508152602001600a8201600380602002604051908101604052809291908260038015613d80576020028201915b815481526020019060010190808311613d6c575b50505050508152602001600d82016040518060600160405290816000820160009054906101000a900460ff161515151581526020016000820160019054906101000a900460ff161515151581526020016000820160029054906101000a900460ff1615151515815250508152602001600e82016040518060800160405290816000820160009054906101000a900460ff161515151581526020016000820160019054906101000a900460ff161515151581526020016000820160029054906101000a900460ff161515151581526020016000820160039054906101000a900460ff1615151515815250508152602001600f820160009054906101000a900460ff161515151581525050838381518110613e9c57613e9b61595d565b5b60200260200101819052508180613eb290615a1c565b9250505b8080613ec190615a1c565b915050613746565b508192505050919050565b60008054906101000a900473ffffffffffffffffffffffffffffffffffffffff1673ffffffffffffffffffffffffffffffffffffffff1663d9421d1183836040518363ffffffff1660e01b8152600401613f2f929190615e1a565b600060405180830381600087803b158015613f4957600080fd5b505af1158015613f5d573d6000803e3d6000fd5b505050505050565b613f6d61453f565b8b81602001819052508a816040018190525089816060018190525088600001518160800151600001819052508860200151816080015160200181905250878160a00181905250868160e001819052508581610100018190525060008160c001906004811115613fdf57613fde61486b565b5b90816004811115613ff357613ff261486b565b5b81525050428161012001516000600381106140115761401061595d565b5b6020020181815250508460008151811061402e5761402d61595d565b5b602002602001015181610120015160016003811061404f5761404e61595d565b5b6020020181815250508061012001516000600381106140715761407061595d565b5b60200201518560008151811061408a5761408961595d565b5b602002602001015110156140d3576040517f08c379a00000000000000000000000000000000000000000000000000000000081526004016140ca90615d68565b60405180910390fd5b846000815181106140e7576140e661595d565b5b6020026020010151856001815181106141035761410261595d565b5b60200260200101511161414b576040517f08c379a000000000000000000000000000000000000000000000000000000000815260040161414290615dfa565b60405180910390fd5b8460018151811061415f5761415e61595d565b5b60200260200101518161012001516002600381106141805761417f61595d565b5b60200201818152505083600001518161014001516000019015159081151581525050836020015181610140015160200190151590811515815250508360400151816101400151604001901515908115158152505082600001518161016001516000019015159081151581525050826020015181610160015160200190151590811515815250508260400151816101600151604001901515908115158152505082606001518161016001516060019015159081151581525050818161018001901515908115158152505060018054905081600001818152505060018190806001815401808255809150506001900390600052602060002090601002016000909190919091506000820151816000015560208201518160010190805190602001906142aa9291906145d3565b5060408201518160020190805190602001906142c79291906145d3565b5060608201518160030190805190602001906142e49291906145d3565b50608082015181600401600082015181600001908051906020019061430a9291906145d3565b5060208201518160010190805190602001906143279291906145d3565b50505060a08201518160060190805190602001906143469291906145d3565b5060c08201518160070160006101000a81548160ff021916908360048111156143725761437161486b565b5b021790555060e08201518160080190805190602001906143939291906145d3565b506101008201518160090190805190602001906143b19291906145d3565b5061012082015181600a019060036143ca929190614659565b5061014082015181600d0160008201518160000160006101000a81548160ff02191690831515021790555060208201518160000160016101000a81548160ff02191690831515021790555060408201518160000160026101000a81548160ff021916908315150217905550505061016082015181600e0160008201518160000160006101000a81548160ff02191690831515021790555060208201518160000160016101000a81548160ff02191690831515021790555060408201518160000160026101000a81548160ff02191690831515021790555060608201518160000160036101000a81548160ff021916908315150217905550505061018082015181600f0160006101000a81548160ff02191690831515021790555050507f6435418332f1be3deea10416eedb87e64daa2a2b4a284b051f39244cc3a0dfa687876001808054905061451a9190615e4a565b60405161452993929190615bf5565b60405180910390a1505050505050505050505050565b604051806101a001604052806000815260200160608152602001606081526020016060815260200161456f614699565b8152602001606081526020016000600481111561458f5761458e61486b565b5b815260200160608152602001606081526020016145aa6146b3565b81526020016145b76146d5565b81526020016145c46146fc565b81526020016000151581525090565b8280546145df906159bb565b90600052602060002090601f0160209004810192826146015760008555614648565b82601f1061461a57805160ff1916838001178555614648565b82800160010185558215614648579182015b8281111561464757825182559160200191906001019061462c565b5b509050614655919061472c565b5090565b8260038101928215614688579160200282015b8281111561468757825182559160200191906001019061466c565b5b509050614695919061472c565b5090565b604051806040016040528060608152602001606081525090565b6040518060600160405280600390602082028036833780820191505090505090565b60405180606001604052806000151581526020016000151581526020016000151581525090565b60405180608001604052806000151581526020016000151581526020016000151581526020016000151581525090565b5b8082111561474557600081600090555060010161472d565b5090565b600081519050919050565b600082825260208201905092915050565b6000819050602082019050919050565b6000819050919050565b61478881614775565b82525050565b600081519050919050565b600082825260208201905092915050565b60005b838110156147c85780820151818401526020810190506147ad565b838111156147d7576000848401525b50505050565b6000601f19601f8301169050919050565b60006147f98261478e565b6148038185614799565b93506148138185602086016147aa565b61481c816147dd565b840191505092915050565b6000604083016000830151848203600086015261484482826147ee565b9150506020830151848203602086015261485e82826147ee565b9150508091505092915050565b7f4e487b7100000000000000000000000000000000000000000000000000000000600052602160045260246000fd5b600581106148ab576148aa61486b565b5b50565b60008190506148bc8261489a565b919050565b60006148cc826148ae565b9050919050565b6148dc816148c1565b82525050565b600060039050919050565b600081905092915050565b6000819050919050565b600061490e838361477f565b60208301905092915050565b6000602082019050919050565b614930816148e2565b61493a81846148ed565b9250614945826148f8565b8060005b8381101561497657815161495d8782614902565b96506149688361491a565b925050600181019050614949565b505050505050565b60008115159050919050565b6149938161497e565b82525050565b6060820160008201516149af600085018261498a565b5060208201516149c2602085018261498a565b5060408201516149d5604085018261498a565b50505050565b6080820160008201516149f1600085018261498a565b506020820151614a04602085018261498a565b506040820151614a17604085018261498a565b506060820151614a2a606085018261498a565b50505050565b600061028083016000830151614a49600086018261477f565b5060208301518482036020860152614a6182826147ee565b91505060408301518482036040860152614a7b82826147ee565b91505060608301518482036060860152614a9582826147ee565b91505060808301518482036080860152614aaf8282614827565b91505060a083015184820360a0860152614ac982826147ee565b91505060c0830151614ade60c08601826148d3565b5060e083015184820360e0860152614af682826147ee565b915050610100830151848203610100860152614b1282826147ee565b915050610120830151614b29610120860182614927565b50610140830151614b3e610180860182614999565b50610160830151614b536101e08601826149db565b50610180830151614b6861026086018261498a565b508091505092915050565b6000614b7f8383614a30565b905092915050565b6000602082019050919050565b6000614b9f82614749565b614ba98185614754565b935083602082028501614bbb85614765565b8060005b85811015614bf75784840389528151614bd88582614b73565b9450614be383614b87565b925060208a01995050600181019050614bbf565b50829750879550505050505092915050565b60006020820190508181036000830152614c238184614b94565b905092915050565b614c3481614775565b82525050565b6000602082019050614c4f6000830184614c2b565b92915050565b6000604051905090565b600080fd5b600080fd5b600080fd5b600080fd5b7f4e487b7100000000000000000000000000000000000000000000000000000000600052604160045260246000fd5b614cab826147dd565b810181811067ffffffffffffffff82111715614cca57614cc9614c73565b5b80604052505050565b6000614cdd614c55565b9050614ce98282614ca2565b919050565b600067ffffffffffffffff821115614d0957614d08614c73565b5b614d12826147dd565b9050602081019050919050565b82818337600083830152505050565b6000614d41614d3c84614cee565b614cd3565b905082815260208101848484011115614d5d57614d5c614c6e565b5b614d68848285614d1f565b509392505050565b600082601f830112614d8557614d84614c69565b5b8135614d95848260208601614d2e565b91505092915050565b600060208284031215614db457614db3614c5f565b5b600082013567ffffffffffffffff811115614dd257614dd1614c64565b5b614dde84828501614d70565b91505092915050565b614df081614775565b8114614dfb57600080fd5b50565b600081359050614e0d81614de7565b92915050565b600060208284031215614e2957614e28614c5f565b5b6000614e3784828501614dfe565b91505092915050565b614e49816148c1565b82525050565b6000602082019050614e646000830184614e40565b92915050565b600080600060608486031215614e8357614e82614c5f565b5b6000614e9186828701614dfe565b935050602084013567ffffffffffffffff811115614eb257614eb1614c64565b5b614ebe86828701614d70565b925050604084013567ffffffffffffffff811115614edf57614ede614c64565b5b614eeb86828701614d70565b9150509250925092565b600073ffffffffffffffffffffffffffffffffffffffff82169050919050565b6000819050919050565b6000614f3a614f35614f3084614ef5565b614f15565b614ef5565b9050919050565b6000614f4c82614f1f565b9050919050565b6000614f5e82614f41565b9050919050565b614f6e81614f53565b82525050565b6000602082019050614f896000830184614f65565b92915050565b600061028083016000830151614fa8600086018261477f565b5060208301518482036020860152614fc082826147ee565b91505060408301518482036040860152614fda82826147ee565b91505060608301518482036060860152614ff482826147ee565b9150506080830151848203608086015261500e8282614827565b91505060a083015184820360a086015261502882826147ee565b91505060c083015161503d60c08601826148d3565b5060e083015184820360e086015261505582826147ee565b91505061010083015184820361010086015261507182826147ee565b915050610120830151615088610120860182614927565b5061014083015161509d610180860182614999565b506101608301516150b26101e08601826149db565b506101808301516150c761026086018261498a565b508091505092915050565b600060208201905081810360008301526150ec8184614f8f565b905092915050565b600067ffffffffffffffff82111561510f5761510e614c73565b5b602082029050602081019050919050565b600080fd5b6000615138615133846150f4565b614cd3565b9050808382526020820190506020840283018581111561515b5761515a615120565b5b835b8181101561518457806151708882614dfe565b84526020840193505060208101905061515d565b5050509392505050565b600082601f8301126151a3576151a2614c69565b5b81356151b3848260208601615125565b91505092915050565b600080fd5b600080fd5b6151cf8161497e565b81146151da57600080fd5b50565b6000813590506151ec816151c6565b92915050565b600060608284031215615208576152076151bc565b5b6152126060614cd3565b90506000615222848285016151dd565b6000830152506020615236848285016151dd565b602083015250604061524a848285016151dd565b60408301525092915050565b60006080828403121561526c5761526b6151bc565b5b6152766080614cd3565b90506000615286848285016151dd565b600083015250602061529a848285016151dd565b60208301525060406152ae848285016151dd565b60408301525060606152c2848285016151dd565b60608301525092915050565b60008060008060008060008060008060006102008c8e0312156152f4576152f3614c5f565b5b60006153028e828f01614dfe565b9b505060208c013567ffffffffffffffff81111561532357615322614c64565b5b61532f8e828f01614d70565b9a505060408c013567ffffffffffffffff8111156153505761534f614c64565b5b61535c8e828f01614d70565b99505060608c013567ffffffffffffffff81111561537d5761537c614c64565b5b6153898e828f01614d70565b98505060808c013567ffffffffffffffff8111156153aa576153a9614c64565b5b6153b68e828f01614d70565b97505060a08c013567ffffffffffffffff8111156153d7576153d6614c64565b5b6153e38e828f01614d70565b96505060c08c013567ffffffffffffffff81111561540457615403614c64565b5b6154108e828f01614d70565b95505060e08c013567ffffffffffffffff81111561543157615430614c64565b5b61543d8e828f0161518e565b94505061010061544f8e828f016151f2565b9350506101606154618e828f01615256565b9250506101e06154738e828f016151dd565b9150509295989b509295989b9093969950565b600082825260208201905092915050565b60006154a28261478e565b6154ac8185615486565b93506154bc8185602086016147aa565b6154c5816147dd565b840191505092915050565b600060408301600083015184820360008601526154ed82826147ee565b9150506020830151848203602086015261550782826147ee565b9150508091505092915050565b60608201600082015161552a600085018261498a565b50602082015161553d602085018261498a565b506040820151615550604085018261498a565b50505050565b60808201600082015161556c600085018261498a565b50602082015161557f602085018261498a565b506040820151615592604085018261498a565b5060608201516155a5606085018261498a565b50505050565b6155b48161497e565b82525050565b6000610220820190506155d0600083018f614c2b565b81810360208301526155e2818e615497565b905081810360408301526155f6818d615497565b9050818103606083015261560a818c615497565b9050818103608083015261561e818b6154d0565b905081810360a0830152615632818a615497565b905061564160c0830189614e40565b81810360e08301526156538188615497565b90508181036101008301526156688187615497565b9050615678610120830186615514565b615686610180830185615556565b6156946102008301846155ab565b9d9c50505050505050505050505050565b600080604083850312156156bc576156bb614c5f565b5b600083013567ffffffffffffffff8111156156da576156d9614c64565b5b6156e685828601614d70565b92505060206156f785828601614dfe565b9150509250929050565b600060408284031215615717576157166151bc565b5b6157216040614cd3565b9050600082013567ffffffffffffffff811115615741576157406151c1565b5b61574d84828501614d70565b600083015250602082013567ffffffffffffffff811115615771576157706151c1565b5b61577d84828501614d70565b60208301525092915050565b60008060008060008060008060008060006102008c8e0312156157af576157ae614c5f565b5b60008c013567ffffffffffffffff8111156157cd576157cc614c64565b5b6157d98e828f01614d70565b9b505060208c013567ffffffffffffffff8111156157fa576157f9614c64565b5b6158068e828f01614d70565b9a505060408c013567ffffffffffffffff81111561582757615826614c64565b5b6158338e828f01614d70565b99505060608c013567ffffffffffffffff81111561585457615853614c64565b5b6158608e828f01615701565b98505060808c013567ffffffffffffffff81111561588157615880614c64565b5b61588d8e828f01614d70565b97505060a08c013567ffffffffffffffff8111156158ae576158ad614c64565b5b6158ba8e828f01614d70565b96505060c08c013567ffffffffffffffff8111156158db576158da614c64565b5b6158e78e828f01614d70565b95505060e08c013567ffffffffffffffff81111561590857615907614c64565b5b6159148e828f0161518e565b9450506101006159268e828f016151f2565b9350506101606159388e828f01615256565b9250506101e061594a8e828f016151dd565b9150509295989b509295989b9093969950565b7f4e487b7100000000000000000000000000000000000000000000000000000000600052603260045260246000fd5b7f4e487b7100000000000000000000000000000000000000000000000000000000600052602260045260246000fd5b600060028204905060018216806159d357607f821691505b602082108114156159e7576159e661598c565b5b50919050565b7f4e487b7100000000000000000000000000000000000000000000000000000000600052601160045260246000fd5b6000615a2782614775565b91507fffffffffffffffffffffffffffffffffffffffffffffffffffffffffffffffff821415615a5a57615a596159ed565b5b600182019050919050565b600081905092915050565b6000615a7b8261478e565b615a858185615a65565b9350615a958185602086016147aa565b80840191505092915050565b6000615aad8284615a70565b915081905092915050565b60008190508160005260206000209050919050565b60008154615ada816159bb565b615ae48186615a65565b94506001821660008114615aff5760018114615b1057615b43565b60ff19831686528186019350615b43565b615b1985615ab8565b60005b83811015615b3b57815481890152600182019150602081019050615b1c565b838801955050505b50505092915050565b6000615b588284615acd565b915081905092915050565b7f4f6e6c792074686520636f6e73756d6572206f6620746869732061677265656d60008201527f656e742063616e207369676e2e00000000000000000000000000000000000000602082015250565b6000615bbf602d83615486565b9150615bca82615b63565b604082019050919050565b60006020820190508181036000830152615bee81615bb2565b9050919050565b60006060820190508181036000830152615c0f8186615497565b90508181036020830152615c238185615497565b9050615c326040830184614c2b565b949350505050565b6000615c4582614775565b91506000821415615c5957615c586159ed565b5b600182039050919050565b7f4f6e6c79207468652070726f7669646572206f6620746869732061677265656d60008201527f656e742063616e207570646174652e0000000000000000000000000000000000602082015250565b6000615cc0602f83615486565b9150615ccb82615c64565b604082019050919050565b60006020820190508181036000830152615cef81615cb3565b9050919050565b7f53746172742064617465206d757374206265206166746572206372656174696f60008201527f6e20646174652e00000000000000000000000000000000000000000000000000602082015250565b6000615d52602783615486565b9150615d5d82615cf6565b604082019050919050565b60006020820190508181036000830152615d8181615d45565b9050919050565b7f456e642064617465206d7573742062652061667465722073746172742064617460008201527f652e000000000000000000000000000000000000000000000000000000000000602082015250565b6000615de4602283615486565b9150615def82615d88565b604082019050919050565b60006020820190508181036000830152615e1381615dd7565b9050919050565b60006040820190508181036000830152615e348185615497565b9050615e436020830184614c2b565b9392505050565b6000615e5582614775565b9150615e6083614775565b925082821015615e7357615e726159ed565b5b82820390509291505056fea2646970667358221220f7f4f3dab4d3de0cb9d03955a9e373b756c5bdd9dd7053bc453739fcf36791bd64736f6c63430008090033608060405234801561001057600080fd5b50611725806100206000396000f3fe608060405234801561001057600080fd5b506004361061007d5760003560e01c8063b995bb951161005b578063b995bb95146100ff578063cf5c72be14610130578063d9421d111461014c578063f39e0e53146101685761007d565b806343963f4f146100825780637f7434da1461009e578063b77de728146100ce575b600080fd5b61009c60048036038101906100979190610e49565b610198565b005b6100b860048036038101906100b39190610f93565b6107e2565b6040516100c59190611077565b60405180910390f35b6100e860048036038101906100e39190611099565b6108b1565b6040516100f69291906111fd565b60405180910390f35b6101196004803603810190610114919061122d565b6109be565b6040516101279291906112d1565b60405180910390f35b61014a60048036038101906101459190611326565b610a77565b005b61016660048036038101906101619190610f93565b610b05565b005b610182600480360381019061017d9190611099565b610b2c565b60405161018f9190611395565b60405180910390f35b6101a0610b54565b87816000018190525086816020018190525085816040018190525084816060018190525083816080018181525050828160a00181905250818160c0018190525060006101eb86610b2c565b90506040516020016101fc90611407565b604051602081830303815290604052805190602001208260400151604051602001610227919061144d565b60405160208183030381529060405280519060200120141561027257600286604051610253919061144d565b9081526020016040518091039020600061026d9190610b91565b6107d7565b604051602001610281906114b0565b6040516020818303038152906040528051906020012082604001516040516020016102ac919061144d565b6040516020818303038152906040528051906020012014156104dc576040518060400160405280600160038111156102e7576102e661125a565b5b81526020018360c0015181525060008083815260200190815260200160002060008201518160000160006101000a81548160ff021916908360038111156103315761033061125a565b5b02179055506020820151816001019080519060200190610352929190610bb2565b50905050600286604051610366919061144d565b908152602001604051809103902080600181540180825580915050600190039060005260206000200160006040518060400160405280600981526020017f5465726d696e6174650000000000000000000000000000000000000000000000815250909190915090805190602001906103df929190610bb2565b506002866040516103f0919061144d565b908152602001604051809103902080600181540180825580915050600190039060005260206000200160006040518060400160405280601981526020017f4e65775472616e66657244617465466f7250726f76696465720000000000000081525090919091509080519060200190610469929190610bb2565b5060028660405161047a919061144d565b908152602001604051809103902080600181540180825580915050600190039060005260206000200160006040518060600160405280602e81526020016116c2602e9139909190915090805190602001906104d6929190610bb2565b506107d6565b6040516020016104eb90611511565b604051602081830303815290604052805190602001208260400151604051602001610516919061144d565b604051602081830303815290604052805190602001201415610746576040518060400160405280600160038111156105515761055061125a565b5b81526020018360c0015181525060008083815260200190815260200160002060008201518160000160006101000a81548160ff0219169083600381111561059b5761059a61125a565b5b021790555060208201518160010190805190602001906105bc929190610bb2565b509050506002866040516105d0919061144d565b908152602001604051809103902080600181540180825580915050600190039060005260206000200160006040518060400160405280600981526020017f5465726d696e617465000000000000000000000000000000000000000000000081525090919091509080519060200190610649929190610bb2565b5060028660405161065a919061144d565b908152602001604051809103902080600181540180825580915050600190039060005260206000200160006040518060400160405280601981526020017f4e65775472616e66657244617465466f7250726f766964657200000000000000815250909190915090805190602001906106d3929190610bb2565b506002866040516106e4919061144d565b908152602001604051809103902080600181540180825580915050600190039060005260206000200160006040518060600160405280602e81526020016116c2602e913990919091509080519060200190610740929190610bb2565b506107d5565b60405160200161075590611572565b604051602081830303815290604052805190602001208260400151604051602001610780919061144d565b6040516020818303038152906040528051906020012014156107d4577fa9981ee0b11647bf7c28529f378cc9421d635a80cbe2f6587f7f69a0764ebedd816040516107cb919061161f565b60405180910390a15b5b5b5b505050505050505050565b600282805160208101820180518482526020830160208501208183528095505050505050818154811061081457600080fd5b906000526020600020016000915091505080546108309061168f565b80601f016020809104026020016040519081016040528092919081815260200182805461085c9061168f565b80156108a95780601f1061087e576101008083540402835291602001916108a9565b820191906000526020600020905b81548152906001019060200180831161088c57829003601f168201915b505050505081565b6000606060006108c084610b2c565b9050806002856040516108d3919061144d565b908152602001604051809103902080805480602002602001604051908101604052809291908181526020016000905b828210156109ae5783829060005260206000200180546109219061168f565b80601f016020809104026020016040519081016040528092919081815260200182805461094d9061168f565b801561099a5780601f1061096f5761010080835404028352916020019161099a565b820191906000526020600020905b81548152906001019060200180831161097d57829003601f168201915b505050505081526020019060010190610902565b5050505090509250925050915091565b60006020528060005260406000206000915090508060000160009054906101000a900460ff16908060010180546109f49061168f565b80601f0160208091040260200160405190810160405280929190818152602001828054610a209061168f565b8015610a6d5780601f10610a4257610100808354040283529160200191610a6d565b820191906000526020600020905b815481529060010190602001808311610a5057829003601f168201915b5050505050905082565b6040518060400160405280836003811115610a9557610a9461125a565b5b81526020018281525060008085815260200190815260200160002060008201518160000160006101000a81548160ff02191690836003811115610adb57610ada61125a565b5b02179055506020820151816001019080519060200190610afc929190610bb2565b50905050505050565b80600183604051610b16919061144d565b9081526020016040518091039020819055505050565b6000600182604051610b3e919061144d565b9081526020016040518091039020549050919050565b6040518060e00160405280606081526020016060815260200160608152602001606081526020016000815260200160608152602001606081525090565b5080546000825590600052602060002090810190610baf9190610c38565b50565b828054610bbe9061168f565b90600052602060002090601f016020900481019282610be05760008555610c27565b82601f10610bf957805160ff1916838001178555610c27565b82800160010185558215610c27579182015b82811115610c26578251825591602001919060010190610c0b565b5b509050610c349190610c5c565b5090565b5b80821115610c585760008181610c4f9190610c79565b50600101610c39565b5090565b5b80821115610c75576000816000905550600101610c5d565b5090565b508054610c859061168f565b6000825580601f10610c975750610cb6565b601f016020900490600052602060002090810190610cb59190610c5c565b5b50565b6000604051905090565b600080fd5b600080fd5b600080fd5b600080fd5b6000601f19601f8301169050919050565b7f4e487b7100000000000000000000000000000000000000000000000000000000600052604160045260246000fd5b610d2082610cd7565b810181811067ffffffffffffffff82111715610d3f57610d3e610ce8565b5b80604052505050565b6000610d52610cb9565b9050610d5e8282610d17565b919050565b600067ffffffffffffffff821115610d7e57610d7d610ce8565b5b610d8782610cd7565b9050602081019050919050565b82818337600083830152505050565b6000610db6610db184610d63565b610d48565b905082815260208101848484011115610dd257610dd1610cd2565b5b610ddd848285610d94565b509392505050565b600082601f830112610dfa57610df9610ccd565b5b8135610e0a848260208601610da3565b91505092915050565b6000819050919050565b610e2681610e13565b8114610e3157600080fd5b50565b600081359050610e4381610e1d565b92915050565b600080600080600080600060e0888a031215610e6857610e67610cc3565b5b600088013567ffffffffffffffff811115610e8657610e85610cc8565b5b610e928a828b01610de5565b975050602088013567ffffffffffffffff811115610eb357610eb2610cc8565b5b610ebf8a828b01610de5565b965050604088013567ffffffffffffffff811115610ee057610edf610cc8565b5b610eec8a828b01610de5565b955050606088013567ffffffffffffffff811115610f0d57610f0c610cc8565b5b610f198a828b01610de5565b9450506080610f2a8a828b01610e34565b93505060a088013567ffffffffffffffff811115610f4b57610f4a610cc8565b5b610f578a828b01610de5565b92505060c088013567ffffffffffffffff811115610f7857610f77610cc8565b5b610f848a828b01610de5565b91505092959891949750929550565b60008060408385031215610faa57610fa9610cc3565b5b600083013567ffffffffffffffff811115610fc857610fc7610cc8565b5b610fd485828601610de5565b9250506020610fe585828601610e34565b9150509250929050565b600081519050919050565b600082825260208201905092915050565b60005b8381101561102957808201518184015260208101905061100e565b83811115611038576000848401525b50505050565b600061104982610fef565b6110538185610ffa565b935061106381856020860161100b565b61106c81610cd7565b840191505092915050565b60006020820190508181036000830152611091818461103e565b905092915050565b6000602082840312156110af576110ae610cc3565b5b600082013567ffffffffffffffff8111156110cd576110cc610cc8565b5b6110d984828501610de5565b91505092915050565b6110eb81610e13565b82525050565b600081519050919050565b600082825260208201905092915050565b6000819050602082019050919050565b600082825260208201905092915050565b600061113982610fef565b611143818561111d565b935061115381856020860161100b565b61115c81610cd7565b840191505092915050565b6000611173838361112e565b905092915050565b6000602082019050919050565b6000611193826110f1565b61119d81856110fc565b9350836020820285016111af8561110d565b8060005b858110156111eb57848403895281516111cc8582611167565b94506111d78361117b565b925060208a019950506001810190506111b3565b50829750879550505050505092915050565b600060408201905061121260008301856110e2565b81810360208301526112248184611188565b90509392505050565b60006020828403121561124357611242610cc3565b5b600061125184828501610e34565b91505092915050565b7f4e487b7100000000000000000000000000000000000000000000000000000000600052602160045260246000fd5b6004811061129a5761129961125a565b5b50565b60008190506112ab82611289565b919050565b60006112bb8261129d565b9050919050565b6112cb816112b0565b82525050565b60006040820190506112e660008301856112c2565b81810360208301526112f8818461103e565b90509392505050565b6004811061130e57600080fd5b50565b60008135905061132081611301565b92915050565b60008060006060848603121561133f5761133e610cc3565b5b600061134d86828701610e34565b935050602061135e86828701611311565b925050604084013567ffffffffffffffff81111561137f5761137e610cc8565b5b61138b86828701610de5565b9150509250925092565b60006020820190506113aa60008301846110e2565b92915050565b600081905092915050565b7f636f6d706c657465640000000000000000000000000000000000000000000000600082015250565b60006113f16009836113b0565b91506113fc826113bb565b600982019050919050565b6000611412826113e4565b9150819050919050565b600061142782610fef565b61143181856113b0565b935061144181856020860161100b565b80840191505092915050565b6000611459828461141c565b915081905092915050565b7f6e6f74436f6d706c657465640000000000000000000000000000000000000000600082015250565b600061149a600c836113b0565b91506114a582611464565b600c82019050919050565b60006114bb8261148d565b9150819050919050565b7f6163636570746564000000000000000000000000000000000000000000000000600082015250565b60006114fb6008836113b0565b9150611506826114c5565b600882019050919050565b600061151c826114ee565b9150819050919050565b7f64656e6965640000000000000000000000000000000000000000000000000000600082015250565b600061155c6006836113b0565b915061156782611526565b600682019050919050565b600061157d8261154f565b9150819050919050565b7f70726f7669646572000000000000000000000000000000000000000000000000600082015250565b60006115bd600883610ffa565b91506115c882611587565b602082019050919050565b7f636f6e73756d6572000000000000000000000000000000000000000000000000600082015250565b6000611609600883610ffa565b9150611614826115d3565b602082019050919050565b60006060820190508181036000830152611638816115b0565b9050818103602083015261164b816115fc565b905061165a60408301846110e2565b92915050565b7f4e487b7100000000000000000000000000000000000000000000000000000000600052602260045260246000fd5b600060028204905060018216806116a757607f821691505b602082108114156116bb576116ba611660565b5b5091905056fe4e65775472616e66657244617465466f7250726f7669646572416e64526564756374696f6e4f665061796d656e74a2646970667358221220a06e226828fbda6717db5eb46c41fd4650684a54d74296b90c4c408ecd8fd80264736f6c63430008090033",
  "devdoc": {
    "kind": "dev",
    "methods": {},
    "version": 1
  },
  "userdoc": {
    "kind": "user",
    "methods": {},
    "version": 1
  },
  "storageLayout": {
    "storage": [
      {
        "astId": 10,
        "contract": "contracts/Agreement.sol:DataSharingAgreement",
        "label": "agreementViolation",
        "offset": 0,
        "slot": "0",
        "type": "t_contract(AgreementViolation)1399"
      },
      {
        "astId": 74,
        "contract": "contracts/Agreement.sol:DataSharingAgreement",
        "label": "agreements",
        "offset": 0,
        "slot": "1",
        "type": "t_array(t_struct(Agreement)49_storage)dyn_storage"
      },
      {
        "astId": 76,
        "contract": "contracts/Agreement.sol:DataSharingAgreement",
        "label": "activeAgreementCount",
        "offset": 0,
        "slot": "2",
        "type": "t_uint256"
      },
      {
        "astId": 80,
        "contract": "contracts/Agreement.sol:DataSharingAgreement",
        "label": "providerCount",
        "offset": 0,
        "slot": "3",
        "type": "t_mapping(t_string_memory_ptr,t_uint256)"
      },
      {
        "astId": 84,
        "contract": "contracts/Agreement.sol:DataSharingAgreement",
        "label": "consumerCount",
        "offset": 0,
        "slot": "4",
        "type": "t_mapping(t_string_memory_ptr,t_uint256)"
      },
      {
        "astId": 88,
        "contract": "contracts/Agreement.sol:DataSharingAgreement",
        "label": "consumerPublicKeyCount",
        "offset": 0,
        "slot": "5",
        "type": "t_mapping(t_string_memory_ptr,t_uint256)"
      }
    ],
    "types": {
      "t_array(t_struct(Agreement)49_storage)dyn_storage": {
        "base": "t_struct(Agreement)49_storage",
        "encoding": "dynamic_array",
        "label": "struct DataSharingAgreement.Agreement[]",
        "numberOfBytes": "32"
      },
      "t_array(t_uint256)3_storage": {
        "base": "t_uint256",
        "encoding": "inplace",
        "label": "uint256[3]",
        "numberOfBytes": "96"
      },
      "t_bool": {
        "encoding": "inplace",
        "label": "bool",
        "numberOfBytes": "1"
      },
      "t_contract(AgreementViolation)1399": {
        "encoding": "inplace",
        "label": "contract AgreementViolation",
        "numberOfBytes": "20"
      },
      "t_enum(State)16": {
        "encoding": "inplace",
        "label": "enum DataSharingAgreement.State",
        "numberOfBytes": "1"
      },
      "t_mapping(t_string_memory_ptr,t_uint256)": {
        "encoding": "mapping",
        "key": "t_string_memory_ptr",
        "label": "mapping(string => uint256)",
        "numberOfBytes": "32",
        "value": "t_uint256"
      },
      "t_string_memory_ptr": {
        "encoding": "bytes",
        "label": "string",
        "numberOfBytes": "32"
      },
      "t_string_storage": {
        "encoding": "bytes",
        "label": "string",
        "numberOfBytes": "32"
      },
      "t_struct(Agreement)49_storage": {
        "encoding": "inplace",
        "label": "struct DataSharingAgreement.Agreement",
        "members": [
          {
            "astId": 18,
            "contract": "contracts/Agreement.sol:DataSharingAgreement",
            "label": "agreementId",
            "offset": 0,
            "slot": "0",
            "type": "t_uint256"
          },
          {
            "astId": 20,
            "contract": "contracts/Agreement.sol:DataSharingAgreement",
            "label": "providerPublicKey",
            "offset": 0,
            "slot": "1",
            "type": "t_string_storage"
          },
          {
            "astId": 22,
            "contract": "contracts/Agreement.sol:DataSharingAgreement",
            "label": "consumerPublicKey",
            "offset": 0,
            "slot": "2",
            "type": "t_string_storage"
          },
          {
            "astId": 24,
            "contract": "contracts/Agreement.sol:DataSharingAgreement",
            "label": "dataExchangeAgreementHash",
            "offset": 0,
            "slot": "3",
            "type": "t_string_storage"
          },
          {
            "astId": 27,
            "contract": "contracts/Agreement.sol:DataSharingAgreement",
            "label": "dataOffering",
            "offset": 0,
            "slot": "4",
            "type": "t_struct(DataOffering)54_storage"
          },
          {
            "astId": 29,
            "contract": "contracts/Agreement.sol:DataSharingAgreement",
            "label": "purpose",
            "offset": 0,
            "slot": "6",
            "type": "t_string_storage"
          },
          {
            "astId": 32,
            "contract": "contracts/Agreement.sol:DataSharingAgreement",
            "label": "state",
            "offset": 0,
            "slot": "7",
            "type": "t_enum(State)16"
          },
          {
            "astId": 34,
            "contract": "contracts/Agreement.sol:DataSharingAgreement",
            "label": "providerId",
            "offset": 0,
            "slot": "8",
            "type": "t_string_storage"
          },
          {
            "astId": 36,
            "contract": "contracts/Agreement.sol:DataSharingAgreement",
            "label": "consumerId",
            "offset": 0,
            "slot": "9",
            "type": "t_string_storage"
          },
          {
            "astId": 40,
            "contract": "contracts/Agreement.sol:DataSharingAgreement",
            "label": "agreementDates",
            "offset": 0,
            "slot": "10",
            "type": "t_array(t_uint256)3_storage"
          },
          {
            "astId": 43,
            "contract": "contracts/Agreement.sol:DataSharingAgreement",
            "label": "intendedUse",
            "offset": 0,
            "slot": "13",
            "type": "t_struct(IntendedUse)61_storage"
          },
          {
            "astId": 46,
            "contract": "contracts/Agreement.sol:DataSharingAgreement",
            "label": "licenseGrant",
            "offset": 0,
            "slot": "14",
            "type": "t_struct(LicenseGrant)70_storage"
          },
          {
            "astId": 48,
            "contract": "contracts/Agreement.sol:DataSharingAgreement",
            "label": "dataStream",
            "offset": 0,
            "slot": "15",
            "type": "t_bool"
          }
        ],
        "numberOfBytes": "512"
      },
      "t_struct(DataOffering)54_storage": {
        "encoding": "inplace",
        "label": "struct DataSharingAgreement.DataOffering",
        "members": [
          {
            "astId": 51,
            "contract": "contracts/Agreement.sol:DataSharingAgreement",
            "label": "dataOfferingId",
            "offset": 0,
            "slot": "0",
            "type": "t_string_storage"
          },
          {
            "astId": 53,
            "contract": "contracts/Agreement.sol:DataSharingAgreement",
            "label": "dataOfferingVersion",
            "offset": 0,
            "slot": "1",
            "type": "t_string_storage"
          }
        ],
        "numberOfBytes": "64"
      },
      "t_struct(IntendedUse)61_storage": {
        "encoding": "inplace",
        "label": "struct DataSharingAgreement.IntendedUse",
        "members": [
          {
            "astId": 56,
            "contract": "contracts/Agreement.sol:DataSharingAgreement",
            "label": "processData",
            "offset": 0,
            "slot": "0",
            "type": "t_bool"
          },
          {
            "astId": 58,
            "contract": "contracts/Agreement.sol:DataSharingAgreement",
            "label": "shareDataWithThirdParty",
            "offset": 1,
            "slot": "0",
            "type": "t_bool"
          },
          {
            "astId": 60,
            "contract": "contracts/Agreement.sol:DataSharingAgreement",
            "label": "editData",
            "offset": 2,
            "slot": "0",
            "type": "t_bool"
          }
        ],
        "numberOfBytes": "32"
      },
      "t_struct(LicenseGrant)70_storage": {
        "encoding": "inplace",
        "label": "struct DataSharingAgreement.LicenseGrant",
        "members": [
          {
            "astId": 63,
            "contract": "contracts/Agreement.sol:DataSharingAgreement",
            "label": "copyData",
            "offset": 0,
            "slot": "0",
            "type": "t_bool"
          },
          {
            "astId": 65,
            "contract": "contracts/Agreement.sol:DataSharingAgreement",
            "label": "transferable",
            "offset": 1,
            "slot": "0",
            "type": "t_bool"
          },
          {
            "astId": 67,
            "contract": "contracts/Agreement.sol:DataSharingAgreement",
            "label": "exclusiveness",
            "offset": 2,
            "slot": "0",
            "type": "t_bool"
          },
          {
            "astId": 69,
            "contract": "contracts/Agreement.sol:DataSharingAgreement",
            "label": "revocable",
            "offset": 3,
            "slot": "0",
            "type": "t_bool"
          }
        ],
        "numberOfBytes": "32"
      },
      "t_uint256": {
        "encoding": "inplace",
        "label": "uint256",
        "numberOfBytes": "32"
      }
    }
  }
}