{
  "address": "0xFECAFe1058938EC0F528B46B5381406Bf3Cf25AA",
  "abi": [
    {
      "anonymous": false,
      "inputs": [
        {
          "indexed": false,
          "internalType": "string",
          "name": "providerId",
          "type": "string"
        },
        {
          "indexed": false,
          "internalType": "string",
          "name": "consumerId",
          "type": "string"
        },
        {
          "indexed": false,
          "internalType": "uint256",
          "name": "id",
          "type": "uint256"
        }
      ],
      "name": "AgreementCreated",
      "type": "event"
    },
    {
      "anonymous": false,
      "inputs": [
        {
          "indexed": false,
          "internalType": "string",
          "name": "providerId",
          "type": "string"
        },
        {
          "indexed": false,
          "internalType": "string",
          "name": "consumerId",
          "type": "string"
        },
        {
          "indexed": false,
          "internalType": "uint256",
          "name": "id",
          "type": "uint256"
        }
      ],
      "name": "AgreementSigned",
      "type": "event"
    },
    {
      "anonymous": false,
      "inputs": [
        {
          "indexed": false,
          "internalType": "string",
          "name": "providerId",
          "type": "string"
        },
        {
          "indexed": false,
          "internalType": "string",
          "name": "consumerId",
          "type": "string"
        },
        {
          "indexed": false,
          "internalType": "uint256",
          "name": "id",
          "type": "uint256"
        }
      ],
      "name": "AgreementTerminated",
      "type": "event"
    },
    {
      "anonymous": false,
      "inputs": [
        {
          "indexed": false,
          "internalType": "string",
          "name": "providerId",
          "type": "string"
        },
        {
          "indexed": false,
          "internalType": "string",
          "name": "consumerId",
          "type": "string"
        },
        {
          "indexed": false,
          "internalType": "uint256",
          "name": "id",
          "type": "uint256"
        }
      ],
      "name": "AgreementUpdated",
      "type": "event"
    },
    {
      "inputs": [
        {
          "internalType": "uint256",
          "name": "",
          "type": "uint256"
        }
      ],
      "name": "agreements",
      "outputs": [
        {
          "internalType": "string",
          "name": "dataOfferingId",
          "type": "string"
        },
        {
          "internalType": "string",
          "name": "purpose",
          "type": "string"
        },
        {
          "internalType": "enum DataSharingAgreement.State",
          "name": "state",
          "type": "uint8"
        },
        {
          "internalType": "string",
          "name": "providerId",
          "type": "string"
        },
        {
          "internalType": "string",
          "name": "consumerId",
          "type": "string"
        },
        {
          "components": [
            {
              "internalType": "string",
              "name": "dataType",
              "type": "string"
            },
            {
              "internalType": "string",
              "name": "dataFormat",
              "type": "string"
            },
            {
              "internalType": "string",
              "name": "dataSource",
              "type": "string"
            }
          ],
          "internalType": "struct DataSharingAgreement.DescriptionOfData",
          "name": "descriptionOfData",
          "type": "tuple"
        },
        {
          "components": [
            {
              "internalType": "bool",
              "name": "processData",
              "type": "bool"
            },
            {
              "internalType": "bool",
              "name": "shareDataWithThirdParty",
              "type": "bool"
            },
            {
              "internalType": "bool",
              "name": "editData",
              "type": "bool"
            }
          ],
          "internalType": "struct DataSharingAgreement.IntendedUse",
          "name": "intendedUse",
          "type": "tuple"
        },
        {
          "components": [
            {
              "internalType": "bool",
              "name": "copyData",
              "type": "bool"
            },
            {
              "internalType": "bool",
              "name": "transferable",
              "type": "bool"
            },
            {
              "internalType": "bool",
              "name": "exclusiveness",
              "type": "bool"
            },
            {
              "internalType": "bool",
              "name": "revocable",
              "type": "bool"
            }
          ],
          "internalType": "struct DataSharingAgreement.LicenseGrant",
          "name": "licenseGrant",
          "type": "tuple"
        },
        {
          "internalType": "bool",
          "name": "dataStream",
          "type": "bool"
        },
        {
          "internalType": "bool",
          "name": "signed",
          "type": "bool"
        },
        {
          "components": [
            {
              "internalType": "enum DataSharingAgreement.ViolationType",
              "name": "violationType",
              "type": "uint8"
            },
            {
              "internalType": "string",
              "name": "issuerId",
              "type": "string"
            }
          ],
          "internalType": "struct DataSharingAgreement.Violation",
          "name": "violation",
          "type": "tuple"
        }
      ],
      "stateMutability": "view",
      "type": "function"
    },
    {
      "inputs": [],
      "name": "checkActiveAgreements",
      "outputs": [
        {
          "components": [
            {
              "internalType": "string",
              "name": "dataOfferingId",
              "type": "string"
            },
            {
              "internalType": "string",
              "name": "purpose",
              "type": "string"
            },
            {
              "internalType": "enum DataSharingAgreement.State",
              "name": "state",
              "type": "uint8"
            },
            {
              "internalType": "string",
              "name": "providerId",
              "type": "string"
            },
            {
              "internalType": "string",
              "name": "consumerId",
              "type": "string"
            },
            {
              "internalType": "uint256[3]",
              "name": "agreementDates",
              "type": "uint256[3]"
            },
            {
              "components": [
                {
                  "internalType": "string",
                  "name": "dataType",
                  "type": "string"
                },
                {
                  "internalType": "string",
                  "name": "dataFormat",
                  "type": "string"
                },
                {
                  "internalType": "string",
                  "name": "dataSource",
                  "type": "string"
                }
              ],
              "internalType": "struct DataSharingAgreement.DescriptionOfData",
              "name": "descriptionOfData",
              "type": "tuple"
            },
            {
              "components": [
                {
                  "internalType": "bool",
                  "name": "processData",
                  "type": "bool"
                },
                {
                  "internalType": "bool",
                  "name": "shareDataWithThirdParty",
                  "type": "bool"
                },
                {
                  "internalType": "bool",
                  "name": "editData",
                  "type": "bool"
                }
              ],
              "internalType": "struct DataSharingAgreement.IntendedUse",
              "name": "intendedUse",
              "type": "tuple"
            },
            {
              "components": [
                {
                  "internalType": "bool",
                  "name": "copyData",
                  "type": "bool"
                },
                {
                  "internalType": "bool",
                  "name": "transferable",
                  "type": "bool"
                },
                {
                  "internalType": "bool",
                  "name": "exclusiveness",
                  "type": "bool"
                },
                {
                  "internalType": "bool",
                  "name": "revocable",
                  "type": "bool"
                }
              ],
              "internalType": "struct DataSharingAgreement.LicenseGrant",
              "name": "licenseGrant",
              "type": "tuple"
            },
            {
              "internalType": "bool",
              "name": "dataStream",
              "type": "bool"
            },
            {
              "internalType": "bool",
              "name": "signed",
              "type": "bool"
            },
            {
              "components": [
                {
                  "internalType": "enum DataSharingAgreement.ViolationType",
                  "name": "violationType",
                  "type": "uint8"
                },
                {
                  "internalType": "string",
                  "name": "issuerId",
                  "type": "string"
                }
              ],
              "internalType": "struct DataSharingAgreement.Violation",
              "name": "violation",
              "type": "tuple"
            }
          ],
          "internalType": "struct DataSharingAgreement.Agreement[]",
          "name": "",
          "type": "tuple[]"
        }
      ],
      "stateMutability": "view",
      "type": "function"
    },
    {
      "inputs": [
        {
          "internalType": "string",
          "name": "_consumerId",
          "type": "string"
        }
      ],
      "name": "checkAgreementsByConsumer",
      "outputs": [
        {
          "components": [
            {
              "internalType": "string",
              "name": "dataOfferingId",
              "type": "string"
            },
            {
              "internalType": "string",
              "name": "purpose",
              "type": "string"
            },
            {
              "internalType": "enum DataSharingAgreement.State",
              "name": "state",
              "type": "uint8"
            },
            {
              "internalType": "string",
              "name": "providerId",
              "type": "string"
            },
            {
              "internalType": "string",
              "name": "consumerId",
              "type": "string"
            },
            {
              "internalType": "uint256[3]",
              "name": "agreementDates",
              "type": "uint256[3]"
            },
            {
              "components": [
                {
                  "internalType": "string",
                  "name": "dataType",
                  "type": "string"
                },
                {
                  "internalType": "string",
                  "name": "dataFormat",
                  "type": "string"
                },
                {
                  "internalType": "string",
                  "name": "dataSource",
                  "type": "string"
                }
              ],
              "internalType": "struct DataSharingAgreement.DescriptionOfData",
              "name": "descriptionOfData",
              "type": "tuple"
            },
            {
              "components": [
                {
                  "internalType": "bool",
                  "name": "processData",
                  "type": "bool"
                },
                {
                  "internalType": "bool",
                  "name": "shareDataWithThirdParty",
                  "type": "bool"
                },
                {
                  "internalType": "bool",
                  "name": "editData",
                  "type": "bool"
                }
              ],
              "internalType": "struct DataSharingAgreement.IntendedUse",
              "name": "intendedUse",
              "type": "tuple"
            },
            {
              "components": [
                {
                  "internalType": "bool",
                  "name": "copyData",
                  "type": "bool"
                },
                {
                  "internalType": "bool",
                  "name": "transferable",
                  "type": "bool"
                },
                {
                  "internalType": "bool",
                  "name": "exclusiveness",
                  "type": "bool"
                },
                {
                  "internalType": "bool",
                  "name": "revocable",
                  "type": "bool"
                }
              ],
              "internalType": "struct DataSharingAgreement.LicenseGrant",
              "name": "licenseGrant",
              "type": "tuple"
            },
            {
              "internalType": "bool",
              "name": "dataStream",
              "type": "bool"
            },
            {
              "internalType": "bool",
              "name": "signed",
              "type": "bool"
            },
            {
              "components": [
                {
                  "internalType": "enum DataSharingAgreement.ViolationType",
                  "name": "violationType",
                  "type": "uint8"
                },
                {
                  "internalType": "string",
                  "name": "issuerId",
                  "type": "string"
                }
              ],
              "internalType": "struct DataSharingAgreement.Violation",
              "name": "violation",
              "type": "tuple"
            }
          ],
          "internalType": "struct DataSharingAgreement.Agreement[]",
          "name": "",
          "type": "tuple[]"
        }
      ],
      "stateMutability": "view",
      "type": "function"
    },
    {
      "inputs": [
        {
          "internalType": "string",
          "name": "_providerId",
          "type": "string"
        }
      ],
      "name": "checkAgreementsByProvider",
      "outputs": [
        {
          "components": [
            {
              "internalType": "string",
              "name": "dataOfferingId",
              "type": "string"
            },
            {
              "internalType": "string",
              "name": "purpose",
              "type": "string"
            },
            {
              "internalType": "enum DataSharingAgreement.State",
              "name": "state",
              "type": "uint8"
            },
            {
              "internalType": "string",
              "name": "providerId",
              "type": "string"
            },
            {
              "internalType": "string",
              "name": "consumerId",
              "type": "string"
            },
            {
              "internalType": "uint256[3]",
              "name": "agreementDates",
              "type": "uint256[3]"
            },
            {
              "components": [
                {
                  "internalType": "string",
                  "name": "dataType",
                  "type": "string"
                },
                {
                  "internalType": "string",
                  "name": "dataFormat",
                  "type": "string"
                },
                {
                  "internalType": "string",
                  "name": "dataSource",
                  "type": "string"
                }
              ],
              "internalType": "struct DataSharingAgreement.DescriptionOfData",
              "name": "descriptionOfData",
              "type": "tuple"
            },
            {
              "components": [
                {
                  "internalType": "bool",
                  "name": "processData",
                  "type": "bool"
                },
                {
                  "internalType": "bool",
                  "name": "shareDataWithThirdParty",
                  "type": "bool"
                },
                {
                  "internalType": "bool",
                  "name": "editData",
                  "type": "bool"
                }
              ],
              "internalType": "struct DataSharingAgreement.IntendedUse",
              "name": "intendedUse",
              "type": "tuple"
            },
            {
              "components": [
                {
                  "internalType": "bool",
                  "name": "copyData",
                  "type": "bool"
                },
                {
                  "internalType": "bool",
                  "name": "transferable",
                  "type": "bool"
                },
                {
                  "internalType": "bool",
                  "name": "exclusiveness",
                  "type": "bool"
                },
                {
                  "internalType": "bool",
                  "name": "revocable",
                  "type": "bool"
                }
              ],
              "internalType": "struct DataSharingAgreement.LicenseGrant",
              "name": "licenseGrant",
              "type": "tuple"
            },
            {
              "internalType": "bool",
              "name": "dataStream",
              "type": "bool"
            },
            {
              "internalType": "bool",
              "name": "signed",
              "type": "bool"
            },
            {
              "components": [
                {
                  "internalType": "enum DataSharingAgreement.ViolationType",
                  "name": "violationType",
                  "type": "uint8"
                },
                {
                  "internalType": "string",
                  "name": "issuerId",
                  "type": "string"
                }
              ],
              "internalType": "struct DataSharingAgreement.Violation",
              "name": "violation",
              "type": "tuple"
            }
          ],
          "internalType": "struct DataSharingAgreement.Agreement[]",
          "name": "",
          "type": "tuple[]"
        }
      ],
      "stateMutability": "view",
      "type": "function"
    },
    {
      "inputs": [
        {
          "internalType": "string",
          "name": "_dataOfferingId",
          "type": "string"
        },
        {
          "internalType": "string",
          "name": "_purpose",
          "type": "string"
        },
        {
          "internalType": "string",
          "name": "_providerId",
          "type": "string"
        },
        {
          "internalType": "string",
          "name": "_consumerId",
          "type": "string"
        },
        {
          "internalType": "uint256[]",
          "name": "dates",
          "type": "uint256[]"
        },
        {
          "components": [
            {
              "internalType": "string",
              "name": "dataType",
              "type": "string"
            },
            {
              "internalType": "string",
              "name": "dataFormat",
              "type": "string"
            },
            {
              "internalType": "string",
              "name": "dataSource",
              "type": "string"
            }
          ],
          "internalType": "struct DataSharingAgreement.DescriptionOfData",
          "name": "descriptionOfData",
          "type": "tuple"
        },
        {
          "components": [
            {
              "internalType": "bool",
              "name": "processData",
              "type": "bool"
            },
            {
              "internalType": "bool",
              "name": "shareDataWithThirdParty",
              "type": "bool"
            },
            {
              "internalType": "bool",
              "name": "editData",
              "type": "bool"
            }
          ],
          "internalType": "struct DataSharingAgreement.IntendedUse",
          "name": "intendedUse",
          "type": "tuple"
        },
        {
          "components": [
            {
              "internalType": "bool",
              "name": "copyData",
              "type": "bool"
            },
            {
              "internalType": "bool",
              "name": "transferable",
              "type": "bool"
            },
            {
              "internalType": "bool",
              "name": "exclusiveness",
              "type": "bool"
            },
            {
              "internalType": "bool",
              "name": "revocable",
              "type": "bool"
            }
          ],
          "internalType": "struct DataSharingAgreement.LicenseGrant",
          "name": "licenseGrant",
          "type": "tuple"
        },
        {
          "internalType": "bool",
          "name": "_dataStream",
          "type": "bool"
        }
      ],
      "name": "createAgreement",
      "outputs": [],
      "stateMutability": "nonpayable",
      "type": "function"
    },
    {
      "inputs": [
        {
          "internalType": "uint256",
          "name": "id",
          "type": "uint256"
        }
      ],
      "name": "getAgreement",
      "outputs": [
        {
          "components": [
            {
              "internalType": "string",
              "name": "dataOfferingId",
              "type": "string"
            },
            {
              "internalType": "string",
              "name": "purpose",
              "type": "string"
            },
            {
              "internalType": "enum DataSharingAgreement.State",
              "name": "state",
              "type": "uint8"
            },
            {
              "internalType": "string",
              "name": "providerId",
              "type": "string"
            },
            {
              "internalType": "string",
              "name": "consumerId",
              "type": "string"
            },
            {
              "internalType": "uint256[3]",
              "name": "agreementDates",
              "type": "uint256[3]"
            },
            {
              "components": [
                {
                  "internalType": "string",
                  "name": "dataType",
                  "type": "string"
                },
                {
                  "internalType": "string",
                  "name": "dataFormat",
                  "type": "string"
                },
                {
                  "internalType": "string",
                  "name": "dataSource",
                  "type": "string"
                }
              ],
              "internalType": "struct DataSharingAgreement.DescriptionOfData",
              "name": "descriptionOfData",
              "type": "tuple"
            },
            {
              "components": [
                {
                  "internalType": "bool",
                  "name": "processData",
                  "type": "bool"
                },
                {
                  "internalType": "bool",
                  "name": "shareDataWithThirdParty",
                  "type": "bool"
                },
                {
                  "internalType": "bool",
                  "name": "editData",
                  "type": "bool"
                }
              ],
              "internalType": "struct DataSharingAgreement.IntendedUse",
              "name": "intendedUse",
              "type": "tuple"
            },
            {
              "components": [
                {
                  "internalType": "bool",
                  "name": "copyData",
                  "type": "bool"
                },
                {
                  "internalType": "bool",
                  "name": "transferable",
                  "type": "bool"
                },
                {
                  "internalType": "bool",
                  "name": "exclusiveness",
                  "type": "bool"
                },
                {
                  "internalType": "bool",
                  "name": "revocable",
                  "type": "bool"
                }
              ],
              "internalType": "struct DataSharingAgreement.LicenseGrant",
              "name": "licenseGrant",
              "type": "tuple"
            },
            {
              "internalType": "bool",
              "name": "dataStream",
              "type": "bool"
            },
            {
              "internalType": "bool",
              "name": "signed",
              "type": "bool"
            },
            {
              "components": [
                {
                  "internalType": "enum DataSharingAgreement.ViolationType",
                  "name": "violationType",
                  "type": "uint8"
                },
                {
                  "internalType": "string",
                  "name": "issuerId",
                  "type": "string"
                }
              ],
              "internalType": "struct DataSharingAgreement.Violation",
              "name": "violation",
              "type": "tuple"
            }
          ],
          "internalType": "struct DataSharingAgreement.Agreement",
          "name": "",
          "type": "tuple"
        }
      ],
      "stateMutability": "view",
      "type": "function"
    },
    {
      "inputs": [],
      "name": "getAgreements",
      "outputs": [
        {
          "components": [
            {
              "internalType": "string",
              "name": "dataOfferingId",
              "type": "string"
            },
            {
              "internalType": "string",
              "name": "purpose",
              "type": "string"
            },
            {
              "internalType": "enum DataSharingAgreement.State",
              "name": "state",
              "type": "uint8"
            },
            {
              "internalType": "string",
              "name": "providerId",
              "type": "string"
            },
            {
              "internalType": "string",
              "name": "consumerId",
              "type": "string"
            },
            {
              "internalType": "uint256[3]",
              "name": "agreementDates",
              "type": "uint256[3]"
            },
            {
              "components": [
                {
                  "internalType": "string",
                  "name": "dataType",
                  "type": "string"
                },
                {
                  "internalType": "string",
                  "name": "dataFormat",
                  "type": "string"
                },
                {
                  "internalType": "string",
                  "name": "dataSource",
                  "type": "string"
                }
              ],
              "internalType": "struct DataSharingAgreement.DescriptionOfData",
              "name": "descriptionOfData",
              "type": "tuple"
            },
            {
              "components": [
                {
                  "internalType": "bool",
                  "name": "processData",
                  "type": "bool"
                },
                {
                  "internalType": "bool",
                  "name": "shareDataWithThirdParty",
                  "type": "bool"
                },
                {
                  "internalType": "bool",
                  "name": "editData",
                  "type": "bool"
                }
              ],
              "internalType": "struct DataSharingAgreement.IntendedUse",
              "name": "intendedUse",
              "type": "tuple"
            },
            {
              "components": [
                {
                  "internalType": "bool",
                  "name": "copyData",
                  "type": "bool"
                },
                {
                  "internalType": "bool",
                  "name": "transferable",
                  "type": "bool"
                },
                {
                  "internalType": "bool",
                  "name": "exclusiveness",
                  "type": "bool"
                },
                {
                  "internalType": "bool",
                  "name": "revocable",
                  "type": "bool"
                }
              ],
              "internalType": "struct DataSharingAgreement.LicenseGrant",
              "name": "licenseGrant",
              "type": "tuple"
            },
            {
              "internalType": "bool",
              "name": "dataStream",
              "type": "bool"
            },
            {
              "internalType": "bool",
              "name": "signed",
              "type": "bool"
            },
            {
              "components": [
                {
                  "internalType": "enum DataSharingAgreement.ViolationType",
                  "name": "violationType",
                  "type": "uint8"
                },
                {
                  "internalType": "string",
                  "name": "issuerId",
                  "type": "string"
                }
              ],
              "internalType": "struct DataSharingAgreement.Violation",
              "name": "violation",
              "type": "tuple"
            }
          ],
          "internalType": "struct DataSharingAgreement.Agreement[]",
          "name": "",
          "type": "tuple[]"
        }
      ],
      "stateMutability": "view",
      "type": "function"
    },
    {
      "inputs": [],
      "name": "getAgreementsLength",
      "outputs": [
        {
          "internalType": "uint256",
          "name": "",
          "type": "uint256"
        }
      ],
      "stateMutability": "view",
      "type": "function"
    },
    {
      "inputs": [
        {
          "internalType": "uint256",
          "name": "id",
          "type": "uint256"
        }
      ],
      "name": "getState",
      "outputs": [
        {
          "internalType": "enum DataSharingAgreement.State",
          "name": "",
          "type": "uint8"
        }
      ],
      "stateMutability": "view",
      "type": "function"
    },
    {
      "inputs": [
        {
          "internalType": "uint256",
          "name": "_id",
          "type": "uint256"
        },
        {
          "internalType": "string",
          "name": "_consumerId",
          "type": "string"
        }
      ],
      "name": "signAgreement",
      "outputs": [],
      "stateMutability": "nonpayable",
      "type": "function"
    },
    {
      "inputs": [
        {
          "internalType": "uint256",
          "name": "_id",
          "type": "uint256"
        },
        {
          "internalType": "string",
          "name": "_dataOfferingId",
          "type": "string"
        },
        {
          "internalType": "string",
          "name": "_purpose",
          "type": "string"
        },
        {
          "internalType": "string",
          "name": "_providerId",
          "type": "string"
        },
        {
          "internalType": "string",
          "name": "_consumerId",
          "type": "string"
        },
        {
          "internalType": "uint256[]",
          "name": "dates",
          "type": "uint256[]"
        },
        {
          "components": [
            {
              "internalType": "string",
              "name": "dataType",
              "type": "string"
            },
            {
              "internalType": "string",
              "name": "dataFormat",
              "type": "string"
            },
            {
              "internalType": "string",
              "name": "dataSource",
              "type": "string"
            }
          ],
          "internalType": "struct DataSharingAgreement.DescriptionOfData",
          "name": "descriptionOfData",
          "type": "tuple"
        },
        {
          "components": [
            {
              "internalType": "bool",
              "name": "processData",
              "type": "bool"
            },
            {
              "internalType": "bool",
              "name": "shareDataWithThirdParty",
              "type": "bool"
            },
            {
              "internalType": "bool",
              "name": "editData",
              "type": "bool"
            }
          ],
          "internalType": "struct DataSharingAgreement.IntendedUse",
          "name": "intendedUse",
          "type": "tuple"
        },
        {
          "components": [
            {
              "internalType": "bool",
              "name": "copyData",
              "type": "bool"
            },
            {
              "internalType": "bool",
              "name": "transferable",
              "type": "bool"
            },
            {
              "internalType": "bool",
              "name": "exclusiveness",
              "type": "bool"
            },
            {
              "internalType": "bool",
              "name": "revocable",
              "type": "bool"
            }
          ],
          "internalType": "struct DataSharingAgreement.LicenseGrant",
          "name": "licenseGrant",
          "type": "tuple"
        },
        {
          "internalType": "bool",
          "name": "_dataStream",
          "type": "bool"
        }
      ],
      "name": "updateAgreement",
      "outputs": [],
      "stateMutability": "nonpayable",
      "type": "function"
    }
  ],
  "transactionHash": "0x34be4c8307469f6e95e94e7d5910c0cb9a512452ad260f6639eceaa4f68992a5",
  "args": [],
  "solcInputHash": "65eec85ae2307736f87300eb4c9b0cf9",
  "bytecode": "0x608060405234801561001057600080fd5b506155c780620000216000396000f3fe608060405234801561001057600080fd5b50600436106100a95760003560e01c80634f9f6fe6116100715780634f9f6fe61461016657806389a8348c14610196578063a6305189146101b2578063bd14de96146101ce578063cf7e924214610208578063d526c03014610226576100a9565b8063063bd15a146100ae5780631c510ea9146100cc5780633ea00230146100ea57806344c9af28146101065780634d9af52814610136575b600080fd5b6100b6610256565b6040516100c391906143e6565b60405180910390f35b6100d4610a27565b6040516100e19190614417565b60405180910390f35b61010460048036038101906100ff9190614839565b610a33565b005b610120600480360381019061011b91906149c0565b610f09565b60405161012d91906149fc565b60405180910390f35b610150600480360381019061014b9190614a17565b610f44565b60405161015d91906143e6565b60405180910390f35b610180600480360381019061017b91906149c0565b61174c565b60405161018d9190614b89565b60405180910390f35b6101b060048036038101906101ab9190614bab565b611e17565b005b6101cc60048036038101906101c79190614d1e565b612490565b005b6101e860048036038101906101e391906149c0565b612754565b6040516101ff9b9a99989796959493929190614f05565b60405180910390f35b610210612d6d565b60405161021d91906143e6565b60405180910390f35b610240600480360381019061023b9190614a17565b61345b565b60405161024d91906143e6565b60405180910390f35b6060600060015467ffffffffffffffff8111156102765761027561447c565b5b6040519080825280602002602001820160405280156102af57816020015b61029c613c63565b8152602001906001900390816102945790505b5090506000805b600080549050811015610a1e57600160048111156102d7576102d6613f66565b5b600082815481106102eb576102ea614fdb565b5b906000526020600020906010020160020160009054906101000a900460ff16600481111561031c5761031b613f66565b5b1415610a0b576000818154811061033657610335614fdb565b5b90600052602060002090601002016040518061018001604052908160008201805461036090615039565b80601f016020809104026020016040519081016040528092919081815260200182805461038c90615039565b80156103d95780601f106103ae576101008083540402835291602001916103d9565b820191906000526020600020905b8154815290600101906020018083116103bc57829003601f168201915b505050505081526020016001820180546103f290615039565b80601f016020809104026020016040519081016040528092919081815260200182805461041e90615039565b801561046b5780601f106104405761010080835404028352916020019161046b565b820191906000526020600020905b81548152906001019060200180831161044e57829003601f168201915b505050505081526020016002820160009054906101000a900460ff16600481111561049957610498613f66565b5b60048111156104ab576104aa613f66565b5b81526020016003820180546104bf90615039565b80601f01602080910402602001604051908101604052809291908181526020018280546104eb90615039565b80156105385780601f1061050d57610100808354040283529160200191610538565b820191906000526020600020905b81548152906001019060200180831161051b57829003601f168201915b5050505050815260200160048201805461055190615039565b80601f016020809104026020016040519081016040528092919081815260200182805461057d90615039565b80156105ca5780601f1061059f576101008083540402835291602001916105ca565b820191906000526020600020905b8154815290600101906020018083116105ad57829003601f168201915b505050505081526020016005820160038060200260405190810160405280929190826003801561060f576020028201915b8154815260200190600101908083116105fb575b505050505081526020016008820160405180606001604052908160008201805461063890615039565b80601f016020809104026020016040519081016040528092919081815260200182805461066490615039565b80156106b15780601f10610686576101008083540402835291602001916106b1565b820191906000526020600020905b81548152906001019060200180831161069457829003601f168201915b505050505081526020016001820180546106ca90615039565b80601f01602080910402602001604051908101604052809291908181526020018280546106f690615039565b80156107435780601f1061071857610100808354040283529160200191610743565b820191906000526020600020905b81548152906001019060200180831161072657829003601f168201915b5050505050815260200160028201805461075c90615039565b80601f016020809104026020016040519081016040528092919081815260200182805461078890615039565b80156107d55780601f106107aa576101008083540402835291602001916107d5565b820191906000526020600020905b8154815290600101906020018083116107b857829003601f168201915b5050505050815250508152602001600b82016040518060600160405290816000820160009054906101000a900460ff161515151581526020016000820160019054906101000a900460ff161515151581526020016000820160029054906101000a900460ff1615151515815250508152602001600c82016040518060800160405290816000820160009054906101000a900460ff161515151581526020016000820160019054906101000a900460ff161515151581526020016000820160029054906101000a900460ff161515151581526020016000820160039054906101000a900460ff1615151515815250508152602001600d820160009054906101000a900460ff16151515158152602001600d820160019054906101000a900460ff16151515158152602001600e82016040518060400160405290816000820160009054906101000a900460ff16600581111561093257610931613f66565b5b600581111561094457610943613f66565b5b815260200160018201805461095890615039565b80601f016020809104026020016040519081016040528092919081815260200182805461098490615039565b80156109d15780601f106109a6576101008083540402835291602001916109d1565b820191906000526020600020905b8154815290600101906020018083116109b457829003601f168201915b505050505081525050815250508383815181106109f1576109f0614fdb565b5b60200260200101819052508180610a079061509a565b9250505b8080610a169061509a565b9150506102b6565b50819250505090565b60008080549050905090565b6000808b81548110610a4857610a47614fdb565b5b9060005260206000209060100201905087604051602001610a69919061511f565b6040516020818303038152906040528051906020012060008c81548110610a9357610a92614fdb565b5b9060005260206000209060100201600301604051602001610ab491906151ca565b6040516020818303038152906040528051906020012014610b0a576040517f08c379a0000000000000000000000000000000000000000000000000000000008152600401610b0190615253565b60405180910390fd5b60016004811115610b1e57610b1d613f66565b5b8160020160009054906101000a900460ff166004811115610b4257610b41613f66565b5b1415610efc5789816000019080519060200190610b60929190613cf8565b5088816001019080519060200190610b79929190613cf8565b5087816003019080519060200190610b92929190613cf8565b5086816004019080519060200190610bab929190613cf8565b5085600081518110610bc057610bbf614fdb565b5b602002602001015181600501600160038110610bdf57610bde614fdb565b5b018190555080600501600060038110610bfb57610bfa614fdb565b5b015486600081518110610c1157610c10614fdb565b5b60200260200101511015610c5a576040517f08c379a0000000000000000000000000000000000000000000000000000000008152600401610c51906152e5565b60405180910390fd5b85600081518110610c6e57610c6d614fdb565b5b602002602001015186600181518110610c8a57610c89614fdb565b5b602002602001015111610cd2576040517f08c379a0000000000000000000000000000000000000000000000000000000008152600401610cc990615377565b60405180910390fd5b85600181518110610ce657610ce5614fdb565b5b602002602001015181600501600260038110610d0557610d04614fdb565b5b01819055508460000151816008016000019080519060200190610d29929190613cf8565b508460200151816008016001019080519060200190610d49929190613cf8565b508460400151816008016002019080519060200190610d69929190613cf8565b50836000015181600b0160000160006101000a81548160ff021916908315150217905550836020015181600b0160000160016101000a81548160ff021916908315150217905550836040015181600b0160000160026101000a81548160ff021916908315150217905550826000015181600c0160000160006101000a81548160ff021916908315150217905550826020015181600c0160000160016101000a81548160ff021916908315150217905550826040015181600c0160000160026101000a81548160ff021916908315150217905550826060015181600c0160000160036101000a81548160ff0219169083151502179055508181600d0160006101000a81548160ff02191690831515021790555060028160020160006101000a81548160ff02191690836004811115610ea357610ea2613f66565b5b021790555060016000815480929190610ebb90615397565b91905055507fe45a4efc7be91ee38226641b8dfb0a53e062696831d4052b7b79903b7d39301188888d604051610ef3939291906153c1565b60405180910390a15b5050505050505050505050565b6000808281548110610f1e57610f1d614fdb565b5b906000526020600020906010020160020160009054906101000a900460ff169050919050565b60606000600283604051610f58919061511f565b90815260200160405180910390205467ffffffffffffffff811115610f8057610f7f61447c565b5b604051908082528060200260200182016040528015610fb957816020015b610fa6613c63565b815260200190600190039081610f9e5790505b5090506000805b6000805490508110156117415784604051602001610fde919061511f565b604051602081830303815290604052805190602001206000828154811061100857611007614fdb565b5b906000526020600020906010020160030160405160200161102991906151ca565b60405160208183030381529060405280519060200120141561172e576000818154811061105957611058614fdb565b5b90600052602060002090601002016040518061018001604052908160008201805461108390615039565b80601f01602080910402602001604051908101604052809291908181526020018280546110af90615039565b80156110fc5780601f106110d1576101008083540402835291602001916110fc565b820191906000526020600020905b8154815290600101906020018083116110df57829003601f168201915b5050505050815260200160018201805461111590615039565b80601f016020809104026020016040519081016040528092919081815260200182805461114190615039565b801561118e5780601f106111635761010080835404028352916020019161118e565b820191906000526020600020905b81548152906001019060200180831161117157829003601f168201915b505050505081526020016002820160009054906101000a900460ff1660048111156111bc576111bb613f66565b5b60048111156111ce576111cd613f66565b5b81526020016003820180546111e290615039565b80601f016020809104026020016040519081016040528092919081815260200182805461120e90615039565b801561125b5780601f106112305761010080835404028352916020019161125b565b820191906000526020600020905b81548152906001019060200180831161123e57829003601f168201915b5050505050815260200160048201805461127490615039565b80601f01602080910402602001604051908101604052809291908181526020018280546112a090615039565b80156112ed5780601f106112c2576101008083540402835291602001916112ed565b820191906000526020600020905b8154815290600101906020018083116112d057829003601f168201915b5050505050815260200160058201600380602002604051908101604052809291908260038015611332576020028201915b81548152602001906001019080831161131e575b505050505081526020016008820160405180606001604052908160008201805461135b90615039565b80601f016020809104026020016040519081016040528092919081815260200182805461138790615039565b80156113d45780601f106113a9576101008083540402835291602001916113d4565b820191906000526020600020905b8154815290600101906020018083116113b757829003601f168201915b505050505081526020016001820180546113ed90615039565b80601f016020809104026020016040519081016040528092919081815260200182805461141990615039565b80156114665780601f1061143b57610100808354040283529160200191611466565b820191906000526020600020905b81548152906001019060200180831161144957829003601f168201915b5050505050815260200160028201805461147f90615039565b80601f01602080910402602001604051908101604052809291908181526020018280546114ab90615039565b80156114f85780601f106114cd576101008083540402835291602001916114f8565b820191906000526020600020905b8154815290600101906020018083116114db57829003601f168201915b5050505050815250508152602001600b82016040518060600160405290816000820160009054906101000a900460ff161515151581526020016000820160019054906101000a900460ff161515151581526020016000820160029054906101000a900460ff1615151515815250508152602001600c82016040518060800160405290816000820160009054906101000a900460ff161515151581526020016000820160019054906101000a900460ff161515151581526020016000820160029054906101000a900460ff161515151581526020016000820160039054906101000a900460ff1615151515815250508152602001600d820160009054906101000a900460ff16151515158152602001600d820160019054906101000a900460ff16151515158152602001600e82016040518060400160405290816000820160009054906101000a900460ff16600581111561165557611654613f66565b5b600581111561166757611666613f66565b5b815260200160018201805461167b90615039565b80601f01602080910402602001604051908101604052809291908181526020018280546116a790615039565b80156116f45780601f106116c9576101008083540402835291602001916116f4565b820191906000526020600020905b8154815290600101906020018083116116d757829003601f168201915b5050505050815250508152505083838151811061171457611713614fdb565b5b6020026020010181905250818061172a9061509a565b9250505b80806117399061509a565b915050610fc0565b508192505050919050565b611754613c63565b6000828154811061176857611767614fdb565b5b90600052602060002090601002016040518061018001604052908160008201805461179290615039565b80601f01602080910402602001604051908101604052809291908181526020018280546117be90615039565b801561180b5780601f106117e05761010080835404028352916020019161180b565b820191906000526020600020905b8154815290600101906020018083116117ee57829003601f168201915b5050505050815260200160018201805461182490615039565b80601f016020809104026020016040519081016040528092919081815260200182805461185090615039565b801561189d5780601f106118725761010080835404028352916020019161189d565b820191906000526020600020905b81548152906001019060200180831161188057829003601f168201915b505050505081526020016002820160009054906101000a900460ff1660048111156118cb576118ca613f66565b5b60048111156118dd576118dc613f66565b5b81526020016003820180546118f190615039565b80601f016020809104026020016040519081016040528092919081815260200182805461191d90615039565b801561196a5780601f1061193f5761010080835404028352916020019161196a565b820191906000526020600020905b81548152906001019060200180831161194d57829003601f168201915b5050505050815260200160048201805461198390615039565b80601f01602080910402602001604051908101604052809291908181526020018280546119af90615039565b80156119fc5780601f106119d1576101008083540402835291602001916119fc565b820191906000526020600020905b8154815290600101906020018083116119df57829003601f168201915b5050505050815260200160058201600380602002604051908101604052809291908260038015611a41576020028201915b815481526020019060010190808311611a2d575b5050505050815260200160088201604051806060016040529081600082018054611a6a90615039565b80601f0160208091040260200160405190810160405280929190818152602001828054611a9690615039565b8015611ae35780601f10611ab857610100808354040283529160200191611ae3565b820191906000526020600020905b815481529060010190602001808311611ac657829003601f168201915b50505050508152602001600182018054611afc90615039565b80601f0160208091040260200160405190810160405280929190818152602001828054611b2890615039565b8015611b755780601f10611b4a57610100808354040283529160200191611b75565b820191906000526020600020905b815481529060010190602001808311611b5857829003601f168201915b50505050508152602001600282018054611b8e90615039565b80601f0160208091040260200160405190810160405280929190818152602001828054611bba90615039565b8015611c075780601f10611bdc57610100808354040283529160200191611c07565b820191906000526020600020905b815481529060010190602001808311611bea57829003601f168201915b5050505050815250508152602001600b82016040518060600160405290816000820160009054906101000a900460ff161515151581526020016000820160019054906101000a900460ff161515151581526020016000820160029054906101000a900460ff1615151515815250508152602001600c82016040518060800160405290816000820160009054906101000a900460ff161515151581526020016000820160019054906101000a900460ff161515151581526020016000820160029054906101000a900460ff161515151581526020016000820160039054906101000a900460ff1615151515815250508152602001600d820160009054906101000a900460ff16151515158152602001600d820160019054906101000a900460ff16151515158152602001600e82016040518060400160405290816000820160009054906101000a900460ff166005811115611d6457611d63613f66565b5b6005811115611d7657611d75613f66565b5b8152602001600182018054611d8a90615039565b80601f0160208091040260200160405190810160405280929190818152602001828054611db690615039565b8015611e035780601f10611dd857610100808354040283529160200191611e03565b820191906000526020600020905b815481529060010190602001808311611de657829003601f168201915b505050505081525050815250509050919050565b611e1f613c63565b898160000181905250888160200181905250878160600181905250868160800181905250600081604001906004811115611e5c57611e5b613f66565b5b90816004811115611e7057611e6f613f66565b5b81525050428160a00151600060038110611e8d57611e8c614fdb565b5b60200201818152505085600081518110611eaa57611ea9614fdb565b5b60200260200101518160a00151600160038110611eca57611ec9614fdb565b5b6020020181815250508060a00151600060038110611eeb57611eea614fdb565b5b602002015186600081518110611f0457611f03614fdb565b5b60200260200101511015611f4d576040517f08c379a0000000000000000000000000000000000000000000000000000000008152600401611f44906152e5565b60405180910390fd5b85600081518110611f6157611f60614fdb565b5b602002602001015186600181518110611f7d57611f7c614fdb565b5b602002602001015111611fc5576040517f08c379a0000000000000000000000000000000000000000000000000000000008152600401611fbc90615377565b60405180910390fd5b85600181518110611fd957611fd8614fdb565b5b60200260200101518160a00151600260038110611ff957611ff8614fdb565b5b60200201818152505084600001518160c001516000018190525084602001518160c001516020018190525084604001518160c001516040018190525083600001518160e00151600001901515908115158152505083602001518160e00151602001901515908115158152505083604001518160e0015160400190151590811515815250508260000151816101000151600001901515908115158152505082602001518161010001516020019015159081151581525050826040015181610100015160400190151590811515815250508260600151816101000151606001901515908115158152505081816101200190151590811515815250506000819080600181540180825580915050600190039060005260206000209060100201600090919091909150600082015181600001908051906020019061213a929190613cf8565b506020820151816001019080519060200190612157929190613cf8565b5060408201518160020160006101000a81548160ff0219169083600481111561218357612182613f66565b5b021790555060608201518160030190805190602001906121a4929190613cf8565b5060808201518160040190805190602001906121c1929190613cf8565b5060a0820151816005019060036121d9929190613d7e565b5060c08201518160080160008201518160000190805190602001906121ff929190613cf8565b50602082015181600101908051906020019061221c929190613cf8565b506040820151816002019080519060200190612239929190613cf8565b50505060e082015181600b0160008201518160000160006101000a81548160ff02191690831515021790555060208201518160000160016101000a81548160ff02191690831515021790555060408201518160000160026101000a81548160ff021916908315150217905550505061010082015181600c0160008201518160000160006101000a81548160ff02191690831515021790555060208201518160000160016101000a81548160ff02191690831515021790555060408201518160000160026101000a81548160ff02191690831515021790555060608201518160000160036101000a81548160ff021916908315150217905550505061012082015181600d0160006101000a81548160ff02191690831515021790555061014082015181600d0160016101000a81548160ff02191690831515021790555061016082015181600e0160008201518160000160006101000a81548160ff021916908360058111156123aa576123a9613f66565b5b021790555060208201518160010190805190602001906123cb929190613cf8565b50505050506002886040516123e0919061511f565b908152602001604051809103902060008154809291906123ff9061509a565b9190505550600387604051612414919061511f565b908152602001604051809103902060008154809291906124339061509a565b91905055507f6435418332f1be3deea10416eedb87e64daa2a2b4a284b051f39244cc3a0dfa68888600160008054905061246d9190615406565b60405161247c939291906153c1565b60405180910390a150505050505050505050565b806040516020016124a1919061511f565b60405160208183030381529060405280519060200120600083815481106124cb576124ca614fdb565b5b90600052602060002090601002016004016040516020016124ec91906151ca565b6040516020818303038152906040528051906020012014612542576040517f08c379a0000000000000000000000000000000000000000000000000000000008152600401612539906154ac565b60405180910390fd5b60016000838154811061255857612557614fdb565b5b9060005260206000209060100201600d0160016101000a81548160ff021916908315150217905550426000838154811061259557612594614fdb565b5b90600052602060002090601002016005016002600381106125b9576125b8614fdb565b5b01541061268a576001600083815481106125d6576125d5614fdb565b5b906000526020600020906010020160020160006101000a81548160ff0219169083600481111561260957612608613f66565b5b0217905550600160008154809291906126219061509a565b91905055507faf3cbb721f27933bb22b42ea3324fba0c7cf12a6fc685cbf705ba7674aaad1b26000838154811061265b5761265a614fdb565b5b9060005260206000209060100201600301828460405161267d9392919061554c565b60405180910390a1612750565b6004600083815481106126a05761269f614fdb565b5b906000526020600020906010020160020160006101000a81548160ff021916908360048111156126d3576126d2613f66565b5b0217905550600160008154809291906126eb90615397565b91905055507f8fdec0edc19a1eb9147642be05b326b7f5d42bf96f5ba734530bfca33bc8d7e96000838154811061272557612724614fdb565b5b906000526020600020906010020160030182846040516127479392919061554c565b60405180910390a15b5050565b6000818154811061276457600080fd5b906000526020600020906010020160009150905080600001805461278790615039565b80601f01602080910402602001604051908101604052809291908181526020018280546127b390615039565b80156128005780601f106127d557610100808354040283529160200191612800565b820191906000526020600020905b8154815290600101906020018083116127e357829003601f168201915b50505050509080600101805461281590615039565b80601f016020809104026020016040519081016040528092919081815260200182805461284190615039565b801561288e5780601f106128635761010080835404028352916020019161288e565b820191906000526020600020905b81548152906001019060200180831161287157829003601f168201915b5050505050908060020160009054906101000a900460ff16908060030180546128b690615039565b80601f01602080910402602001604051908101604052809291908181526020018280546128e290615039565b801561292f5780601f106129045761010080835404028352916020019161292f565b820191906000526020600020905b81548152906001019060200180831161291257829003601f168201915b50505050509080600401805461294490615039565b80601f016020809104026020016040519081016040528092919081815260200182805461297090615039565b80156129bd5780601f10612992576101008083540402835291602001916129bd565b820191906000526020600020905b8154815290600101906020018083116129a057829003601f168201915b505050505090806008016040518060600160405290816000820180546129e290615039565b80601f0160208091040260200160405190810160405280929190818152602001828054612a0e90615039565b8015612a5b5780601f10612a3057610100808354040283529160200191612a5b565b820191906000526020600020905b815481529060010190602001808311612a3e57829003601f168201915b50505050508152602001600182018054612a7490615039565b80601f0160208091040260200160405190810160405280929190818152602001828054612aa090615039565b8015612aed5780601f10612ac257610100808354040283529160200191612aed565b820191906000526020600020905b815481529060010190602001808311612ad057829003601f168201915b50505050508152602001600282018054612b0690615039565b80601f0160208091040260200160405190810160405280929190818152602001828054612b3290615039565b8015612b7f5780601f10612b5457610100808354040283529160200191612b7f565b820191906000526020600020905b815481529060010190602001808311612b6257829003601f168201915b5050505050815250509080600b016040518060600160405290816000820160009054906101000a900460ff161515151581526020016000820160019054906101000a900460ff161515151581526020016000820160029054906101000a900460ff1615151515815250509080600c016040518060800160405290816000820160009054906101000a900460ff161515151581526020016000820160019054906101000a900460ff161515151581526020016000820160029054906101000a900460ff161515151581526020016000820160039054906101000a900460ff1615151515815250509080600d0160009054906101000a900460ff169080600d0160019054906101000a900460ff169080600e016040518060400160405290816000820160009054906101000a900460ff166005811115612cc057612cbf613f66565b5b6005811115612cd257612cd1613f66565b5b8152602001600182018054612ce690615039565b80601f0160208091040260200160405190810160405280929190818152602001828054612d1290615039565b8015612d5f5780601f10612d3457610100808354040283529160200191612d5f565b820191906000526020600020905b815481529060010190602001808311612d4257829003601f168201915b50505050508152505090508b565b60606000805480602002602001604051908101604052809291908181526020016000905b82821015613452578382906000526020600020906010020160405180610180016040529081600082018054612dc590615039565b80601f0160208091040260200160405190810160405280929190818152602001828054612df190615039565b8015612e3e5780601f10612e1357610100808354040283529160200191612e3e565b820191906000526020600020905b815481529060010190602001808311612e2157829003601f168201915b50505050508152602001600182018054612e5790615039565b80601f0160208091040260200160405190810160405280929190818152602001828054612e8390615039565b8015612ed05780601f10612ea557610100808354040283529160200191612ed0565b820191906000526020600020905b815481529060010190602001808311612eb357829003601f168201915b505050505081526020016002820160009054906101000a900460ff166004811115612efe57612efd613f66565b5b6004811115612f1057612f0f613f66565b5b8152602001600382018054612f2490615039565b80601f0160208091040260200160405190810160405280929190818152602001828054612f5090615039565b8015612f9d5780601f10612f7257610100808354040283529160200191612f9d565b820191906000526020600020905b815481529060010190602001808311612f8057829003601f168201915b50505050508152602001600482018054612fb690615039565b80601f0160208091040260200160405190810160405280929190818152602001828054612fe290615039565b801561302f5780601f106130045761010080835404028352916020019161302f565b820191906000526020600020905b81548152906001019060200180831161301257829003601f168201915b5050505050815260200160058201600380602002604051908101604052809291908260038015613074576020028201915b815481526020019060010190808311613060575b505050505081526020016008820160405180606001604052908160008201805461309d90615039565b80601f01602080910402602001604051908101604052809291908181526020018280546130c990615039565b80156131165780601f106130eb57610100808354040283529160200191613116565b820191906000526020600020905b8154815290600101906020018083116130f957829003601f168201915b5050505050815260200160018201805461312f90615039565b80601f016020809104026020016040519081016040528092919081815260200182805461315b90615039565b80156131a85780601f1061317d576101008083540402835291602001916131a8565b820191906000526020600020905b81548152906001019060200180831161318b57829003601f168201915b505050505081526020016002820180546131c190615039565b80601f01602080910402602001604051908101604052809291908181526020018280546131ed90615039565b801561323a5780601f1061320f5761010080835404028352916020019161323a565b820191906000526020600020905b81548152906001019060200180831161321d57829003601f168201915b5050505050815250508152602001600b82016040518060600160405290816000820160009054906101000a900460ff161515151581526020016000820160019054906101000a900460ff161515151581526020016000820160029054906101000a900460ff1615151515815250508152602001600c82016040518060800160405290816000820160009054906101000a900460ff161515151581526020016000820160019054906101000a900460ff161515151581526020016000820160029054906101000a900460ff161515151581526020016000820160039054906101000a900460ff1615151515815250508152602001600d820160009054906101000a900460ff16151515158152602001600d820160019054906101000a900460ff16151515158152602001600e82016040518060400160405290816000820160009054906101000a900460ff16600581111561339757613396613f66565b5b60058111156133a9576133a8613f66565b5b81526020016001820180546133bd90615039565b80601f01602080910402602001604051908101604052809291908181526020018280546133e990615039565b80156134365780601f1061340b57610100808354040283529160200191613436565b820191906000526020600020905b81548152906001019060200180831161341957829003601f168201915b5050505050815250508152505081526020019060010190612d91565b50505050905090565b6060600060038360405161346f919061511f565b90815260200160405180910390205467ffffffffffffffff8111156134975761349661447c565b5b6040519080825280602002602001820160405280156134d057816020015b6134bd613c63565b8152602001906001900390816134b55790505b5090506000805b600080549050811015613c5857846040516020016134f5919061511f565b604051602081830303815290604052805190602001206000828154811061351f5761351e614fdb565b5b906000526020600020906010020160040160405160200161354091906151ca565b604051602081830303815290604052805190602001201415613c4557600081815481106135705761356f614fdb565b5b90600052602060002090601002016040518061018001604052908160008201805461359a90615039565b80601f01602080910402602001604051908101604052809291908181526020018280546135c690615039565b80156136135780601f106135e857610100808354040283529160200191613613565b820191906000526020600020905b8154815290600101906020018083116135f657829003601f168201915b5050505050815260200160018201805461362c90615039565b80601f016020809104026020016040519081016040528092919081815260200182805461365890615039565b80156136a55780601f1061367a576101008083540402835291602001916136a5565b820191906000526020600020905b81548152906001019060200180831161368857829003601f168201915b505050505081526020016002820160009054906101000a900460ff1660048111156136d3576136d2613f66565b5b60048111156136e5576136e4613f66565b5b81526020016003820180546136f990615039565b80601f016020809104026020016040519081016040528092919081815260200182805461372590615039565b80156137725780601f1061374757610100808354040283529160200191613772565b820191906000526020600020905b81548152906001019060200180831161375557829003601f168201915b5050505050815260200160048201805461378b90615039565b80601f01602080910402602001604051908101604052809291908181526020018280546137b790615039565b80156138045780601f106137d957610100808354040283529160200191613804565b820191906000526020600020905b8154815290600101906020018083116137e757829003601f168201915b5050505050815260200160058201600380602002604051908101604052809291908260038015613849576020028201915b815481526020019060010190808311613835575b505050505081526020016008820160405180606001604052908160008201805461387290615039565b80601f016020809104026020016040519081016040528092919081815260200182805461389e90615039565b80156138eb5780601f106138c0576101008083540402835291602001916138eb565b820191906000526020600020905b8154815290600101906020018083116138ce57829003601f168201915b5050505050815260200160018201805461390490615039565b80601f016020809104026020016040519081016040528092919081815260200182805461393090615039565b801561397d5780601f106139525761010080835404028352916020019161397d565b820191906000526020600020905b81548152906001019060200180831161396057829003601f168201915b5050505050815260200160028201805461399690615039565b80601f01602080910402602001604051908101604052809291908181526020018280546139c290615039565b8015613a0f5780601f106139e457610100808354040283529160200191613a0f565b820191906000526020600020905b8154815290600101906020018083116139f257829003601f168201915b5050505050815250508152602001600b82016040518060600160405290816000820160009054906101000a900460ff161515151581526020016000820160019054906101000a900460ff161515151581526020016000820160029054906101000a900460ff1615151515815250508152602001600c82016040518060800160405290816000820160009054906101000a900460ff161515151581526020016000820160019054906101000a900460ff161515151581526020016000820160029054906101000a900460ff161515151581526020016000820160039054906101000a900460ff1615151515815250508152602001600d820160009054906101000a900460ff16151515158152602001600d820160019054906101000a900460ff16151515158152602001600e82016040518060400160405290816000820160009054906101000a900460ff166005811115613b6c57613b6b613f66565b5b6005811115613b7e57613b7d613f66565b5b8152602001600182018054613b9290615039565b80601f0160208091040260200160405190810160405280929190818152602001828054613bbe90615039565b8015613c0b5780601f10613be057610100808354040283529160200191613c0b565b820191906000526020600020905b815481529060010190602001808311613bee57829003601f168201915b50505050508152505081525050838381518110613c2b57613c2a614fdb565b5b60200260200101819052508180613c419061509a565b9250505b8080613c509061509a565b9150506134d7565b508192505050919050565b604051806101800160405280606081526020016060815260200160006004811115613c9157613c90613f66565b5b81526020016060815260200160608152602001613cac613dbe565b8152602001613cb9613de0565b8152602001613cc6613e01565b8152602001613cd3613e28565b8152602001600015158152602001600015158152602001613cf2613e58565b81525090565b828054613d0490615039565b90600052602060002090601f016020900481019282613d265760008555613d6d565b82601f10613d3f57805160ff1916838001178555613d6d565b82800160010185558215613d6d579182015b82811115613d6c578251825591602001919060010190613d51565b5b509050613d7a9190613e84565b5090565b8260038101928215613dad579160200282015b82811115613dac578251825591602001919060010190613d91565b5b509050613dba9190613e84565b5090565b6040518060600160405280600390602082028036833780820191505090505090565b60405180606001604052806060815260200160608152602001606081525090565b60405180606001604052806000151581526020016000151581526020016000151581525090565b60405180608001604052806000151581526020016000151581526020016000151581526020016000151581525090565b604051806040016040528060006005811115613e7757613e76613f66565b5b8152602001606081525090565b5b80821115613e9d576000816000905550600101613e85565b5090565b600081519050919050565b600082825260208201905092915050565b6000819050602082019050919050565b600081519050919050565b600082825260208201905092915050565b60005b83811015613f07578082015181840152602081019050613eec565b83811115613f16576000848401525b50505050565b6000601f19601f8301169050919050565b6000613f3882613ecd565b613f428185613ed8565b9350613f52818560208601613ee9565b613f5b81613f1c565b840191505092915050565b7f4e487b7100000000000000000000000000000000000000000000000000000000600052602160045260246000fd5b60058110613fa657613fa5613f66565b5b50565b6000819050613fb782613f95565b919050565b6000613fc782613fa9565b9050919050565b613fd781613fbc565b82525050565b600060039050919050565b600081905092915050565b6000819050919050565b6000819050919050565b61401081613ffd565b82525050565b60006140228383614007565b60208301905092915050565b6000602082019050919050565b61404481613fdd565b61404e8184613fe8565b925061405982613ff3565b8060005b8381101561408a5781516140718782614016565b965061407c8361402e565b92505060018101905061405d565b505050505050565b600060608301600083015184820360008601526140af8282613f2d565b915050602083015184820360208601526140c98282613f2d565b915050604083015184820360408601526140e38282613f2d565b9150508091505092915050565b60008115159050919050565b614105816140f0565b82525050565b60608201600082015161412160008501826140fc565b50602082015161413460208501826140fc565b50604082015161414760408501826140fc565b50505050565b60808201600082015161416360008501826140fc565b50602082015161417660208501826140fc565b50604082015161418960408501826140fc565b50606082015161419c60608501826140fc565b50505050565b600681106141b3576141b2613f66565b5b50565b60008190506141c4826141a2565b919050565b60006141d4826141b6565b9050919050565b6141e4816141c9565b82525050565b600060408301600083015161420260008601826141db565b506020830151848203602086015261421a8282613f2d565b9150508091505092915050565b60006102608301600083015184820360008601526142458282613f2d565b9150506020830151848203602086015261425f8282613f2d565b91505060408301516142746040860182613fce565b506060830151848203606086015261428c8282613f2d565b915050608083015184820360808601526142a68282613f2d565b91505060a08301516142bb60a086018261403b565b5060c08301518482036101008601526142d48282614092565b91505060e08301516142ea61012086018261410b565b506101008301516142ff61018086018261414d565b506101208301516143146102008601826140fc565b506101408301516143296102208601826140fc565b5061016083015184820361024086015261434382826141ea565b9150508091505092915050565b600061435c8383614227565b905092915050565b6000602082019050919050565b600061437c82613ea1565b6143868185613eac565b93508360208202850161439885613ebd565b8060005b858110156143d457848403895281516143b58582614350565b94506143c083614364565b925060208a0199505060018101905061439c565b50829750879550505050505092915050565b600060208201905081810360008301526144008184614371565b905092915050565b61441181613ffd565b82525050565b600060208201905061442c6000830184614408565b92915050565b6000604051905090565b600080fd5b600080fd5b61444f81613ffd565b811461445a57600080fd5b50565b60008135905061446c81614446565b92915050565b600080fd5b600080fd5b7f4e487b7100000000000000000000000000000000000000000000000000000000600052604160045260246000fd5b6144b482613f1c565b810181811067ffffffffffffffff821117156144d3576144d261447c565b5b80604052505050565b60006144e6614432565b90506144f282826144ab565b919050565b600067ffffffffffffffff8211156145125761451161447c565b5b61451b82613f1c565b9050602081019050919050565b82818337600083830152505050565b600061454a614545846144f7565b6144dc565b90508281526020810184848401111561456657614565614477565b5b614571848285614528565b509392505050565b600082601f83011261458e5761458d614472565b5b813561459e848260208601614537565b91505092915050565b600067ffffffffffffffff8211156145c2576145c161447c565b5b602082029050602081019050919050565b600080fd5b60006145eb6145e6846145a7565b6144dc565b9050808382526020820190506020840283018581111561460e5761460d6145d3565b5b835b818110156146375780614623888261445d565b845260208401935050602081019050614610565b5050509392505050565b600082601f83011261465657614655614472565b5b81356146668482602086016145d8565b91505092915050565b600080fd5b600080fd5b60006060828403121561468f5761468e61466f565b5b61469960606144dc565b9050600082013567ffffffffffffffff8111156146b9576146b8614674565b5b6146c584828501614579565b600083015250602082013567ffffffffffffffff8111156146e9576146e8614674565b5b6146f584828501614579565b602083015250604082013567ffffffffffffffff81111561471957614718614674565b5b61472584828501614579565b60408301525092915050565b61473a816140f0565b811461474557600080fd5b50565b60008135905061475781614731565b92915050565b6000606082840312156147735761477261466f565b5b61477d60606144dc565b9050600061478d84828501614748565b60008301525060206147a184828501614748565b60208301525060406147b584828501614748565b60408301525092915050565b6000608082840312156147d7576147d661466f565b5b6147e160806144dc565b905060006147f184828501614748565b600083015250602061480584828501614748565b602083015250604061481984828501614748565b604083015250606061482d84828501614748565b60608301525092915050565b6000806000806000806000806000806101e08b8d03121561485d5761485c61443c565b5b600061486b8d828e0161445d565b9a505060208b013567ffffffffffffffff81111561488c5761488b614441565b5b6148988d828e01614579565b99505060408b013567ffffffffffffffff8111156148b9576148b8614441565b5b6148c58d828e01614579565b98505060608b013567ffffffffffffffff8111156148e6576148e5614441565b5b6148f28d828e01614579565b97505060808b013567ffffffffffffffff81111561491357614912614441565b5b61491f8d828e01614579565b96505060a08b013567ffffffffffffffff8111156149405761493f614441565b5b61494c8d828e01614641565b95505060c08b013567ffffffffffffffff81111561496d5761496c614441565b5b6149798d828e01614679565b94505060e061498a8d828e0161475d565b93505061014061499c8d828e016147c1565b9250506101c06149ae8d828e01614748565b9150509295989b9194979a5092959850565b6000602082840312156149d6576149d561443c565b5b60006149e48482850161445d565b91505092915050565b6149f681613fbc565b82525050565b6000602082019050614a1160008301846149ed565b92915050565b600060208284031215614a2d57614a2c61443c565b5b600082013567ffffffffffffffff811115614a4b57614a4a614441565b5b614a5784828501614579565b91505092915050565b6000610260830160008301518482036000860152614a7e8282613f2d565b91505060208301518482036020860152614a988282613f2d565b9150506040830151614aad6040860182613fce565b5060608301518482036060860152614ac58282613f2d565b91505060808301518482036080860152614adf8282613f2d565b91505060a0830151614af460a086018261403b565b5060c0830151848203610100860152614b0d8282614092565b91505060e0830151614b2361012086018261410b565b50610100830151614b3861018086018261414d565b50610120830151614b4d6102008601826140fc565b50610140830151614b626102208601826140fc565b50610160830151848203610240860152614b7c82826141ea565b9150508091505092915050565b60006020820190508181036000830152614ba38184614a60565b905092915050565b60008060008060008060008060006101c08a8c031215614bce57614bcd61443c565b5b60008a013567ffffffffffffffff811115614bec57614beb614441565b5b614bf88c828d01614579565b99505060208a013567ffffffffffffffff811115614c1957614c18614441565b5b614c258c828d01614579565b98505060408a013567ffffffffffffffff811115614c4657614c45614441565b5b614c528c828d01614579565b97505060608a013567ffffffffffffffff811115614c7357614c72614441565b5b614c7f8c828d01614579565b96505060808a013567ffffffffffffffff811115614ca057614c9f614441565b5b614cac8c828d01614641565b95505060a08a013567ffffffffffffffff811115614ccd57614ccc614441565b5b614cd98c828d01614679565b94505060c0614cea8c828d0161475d565b935050610120614cfc8c828d016147c1565b9250506101a0614d0e8c828d01614748565b9150509295985092959850929598565b60008060408385031215614d3557614d3461443c565b5b6000614d438582860161445d565b925050602083013567ffffffffffffffff811115614d6457614d63614441565b5b614d7085828601614579565b9150509250929050565b600082825260208201905092915050565b6000614d9682613ecd565b614da08185614d7a565b9350614db0818560208601613ee9565b614db981613f1c565b840191505092915050565b60006060830160008301518482036000860152614de18282613f2d565b91505060208301518482036020860152614dfb8282613f2d565b91505060408301518482036040860152614e158282613f2d565b9150508091505092915050565b606082016000820151614e3860008501826140fc565b506020820151614e4b60208501826140fc565b506040820151614e5e60408501826140fc565b50505050565b608082016000820151614e7a60008501826140fc565b506020820151614e8d60208501826140fc565b506040820151614ea060408501826140fc565b506060820151614eb360608501826140fc565b50505050565b614ec2816140f0565b82525050565b6000604083016000830151614ee060008601826141db565b5060208301518482036020860152614ef88282613f2d565b9150508091505092915050565b6000610200820190508181036000830152614f20818e614d8b565b90508181036020830152614f34818d614d8b565b9050614f43604083018c6149ed565b8181036060830152614f55818b614d8b565b90508181036080830152614f69818a614d8b565b905081810360a0830152614f7d8189614dc4565b9050614f8c60c0830188614e22565b614f9a610120830187614e64565b614fa86101a0830186614eb9565b614fb66101c0830185614eb9565b8181036101e0830152614fc98184614ec8565b90509c9b505050505050505050505050565b7f4e487b7100000000000000000000000000000000000000000000000000000000600052603260045260246000fd5b7f4e487b7100000000000000000000000000000000000000000000000000000000600052602260045260246000fd5b6000600282049050600182168061505157607f821691505b602082108114156150655761506461500a565b5b50919050565b7f4e487b7100000000000000000000000000000000000000000000000000000000600052601160045260246000fd5b60006150a582613ffd565b91507fffffffffffffffffffffffffffffffffffffffffffffffffffffffffffffffff8214156150d8576150d761506b565b5b600182019050919050565b600081905092915050565b60006150f982613ecd565b61510381856150e3565b9350615113818560208601613ee9565b80840191505092915050565b600061512b82846150ee565b915081905092915050565b60008190508160005260206000209050919050565b6000815461515881615039565b61516281866150e3565b9450600182166000811461517d576001811461518e576151c1565b60ff198316865281860193506151c1565b61519785615136565b60005b838110156151b95781548189015260018201915060208101905061519a565b838801955050505b50505092915050565b60006151d6828461514b565b915081905092915050565b7f4f6e6c79207468652070726f7669646572206f6620746869732061677265656d60008201527f656e742063616e207570646174652e0000000000000000000000000000000000602082015250565b600061523d602f83614d7a565b9150615248826151e1565b604082019050919050565b6000602082019050818103600083015261526c81615230565b9050919050565b7f53746172742064617465206d757374206265206166746572206372656174696f60008201527f6e20646174652e00000000000000000000000000000000000000000000000000602082015250565b60006152cf602783614d7a565b91506152da82615273565b604082019050919050565b600060208201905081810360008301526152fe816152c2565b9050919050565b7f456e642064617465206d7573742062652061667465722073746172742064617460008201527f652e000000000000000000000000000000000000000000000000000000000000602082015250565b6000615361602283614d7a565b915061536c82615305565b604082019050919050565b6000602082019050818103600083015261539081615354565b9050919050565b60006153a282613ffd565b915060008214156153b6576153b561506b565b5b600182039050919050565b600060608201905081810360008301526153db8186614d8b565b905081810360208301526153ef8185614d8b565b90506153fe6040830184614408565b949350505050565b600061541182613ffd565b915061541c83613ffd565b92508282101561542f5761542e61506b565b5b828203905092915050565b7f4f6e6c792074686520636f6e73756d6572206f6620746869732061677265656d60008201527f656e742063616e207369676e2e00000000000000000000000000000000000000602082015250565b6000615496602d83614d7a565b91506154a18261543a565b604082019050919050565b600060208201905081810360008301526154c581615489565b9050919050565b600081546154d981615039565b6154e38186614d7a565b945060018216600081146154fe576001811461551057615543565b60ff1983168652602086019350615543565b61551985615136565b60005b8381101561553b5781548189015260018201915060208101905061551c565b808801955050505b50505092915050565b6000606082019050818103600083015261556681866154cc565b9050818103602083015261557a8185614d8b565b90506155896040830184614408565b94935050505056fea2646970667358221220a3d7dfcd81c98a0020fc6fcee7d6fe9db8b834a9d4a34352a22c129af2bb561f64736f6c63430008090033",
  "devdoc": {
    "kind": "dev",
    "methods": {},
    "version": 1
  },
  "userdoc": {
    "kind": "user",
    "methods": {},
    "version": 1
  },
  "storageLayout": {
    "storage": [
      {
        "astId": 79,
        "contract": "contracts/agreement-14-12-21.sol:DataSharingAgreement",
        "label": "agreements",
        "offset": 0,
        "slot": "0",
        "type": "t_array(t_struct(Agreement)46_storage)dyn_storage"
      },
      {
        "astId": 81,
        "contract": "contracts/agreement-14-12-21.sol:DataSharingAgreement",
        "label": "activeAgreementCount",
        "offset": 0,
        "slot": "1",
        "type": "t_uint256"
      },
      {
        "astId": 85,
        "contract": "contracts/agreement-14-12-21.sol:DataSharingAgreement",
        "label": "providerCount",
        "offset": 0,
        "slot": "2",
        "type": "t_mapping(t_string_memory_ptr,t_uint256)"
      },
      {
        "astId": 89,
        "contract": "contracts/agreement-14-12-21.sol:DataSharingAgreement",
        "label": "consumerCount",
        "offset": 0,
        "slot": "3",
        "type": "t_mapping(t_string_memory_ptr,t_uint256)"
      }
    ],
    "types": {
      "t_array(t_struct(Agreement)46_storage)dyn_storage": {
        "base": "t_struct(Agreement)46_storage",
        "encoding": "dynamic_array",
        "label": "struct DataSharingAgreement.Agreement[]",
        "numberOfBytes": "32"
      },
      "t_array(t_uint256)3_storage": {
        "base": "t_uint256",
        "encoding": "inplace",
        "label": "uint256[3]",
        "numberOfBytes": "96"
      },
      "t_bool": {
        "encoding": "inplace",
        "label": "bool",
        "numberOfBytes": "1"
      },
      "t_enum(State)7": {
        "encoding": "inplace",
        "label": "enum DataSharingAgreement.State",
        "numberOfBytes": "1"
      },
      "t_enum(ViolationType)14": {
        "encoding": "inplace",
        "label": "enum DataSharingAgreement.ViolationType",
        "numberOfBytes": "1"
      },
      "t_mapping(t_string_memory_ptr,t_uint256)": {
        "encoding": "mapping",
        "key": "t_string_memory_ptr",
        "label": "mapping(string => uint256)",
        "numberOfBytes": "32",
        "value": "t_uint256"
      },
      "t_string_memory_ptr": {
        "encoding": "bytes",
        "label": "string",
        "numberOfBytes": "32"
      },
      "t_string_storage": {
        "encoding": "bytes",
        "label": "string",
        "numberOfBytes": "32"
      },
      "t_struct(Agreement)46_storage": {
        "encoding": "inplace",
        "label": "struct DataSharingAgreement.Agreement",
        "members": [
          {
            "astId": 16,
            "contract": "contracts/agreement-14-12-21.sol:DataSharingAgreement",
            "label": "dataOfferingId",
            "offset": 0,
            "slot": "0",
            "type": "t_string_storage"
          },
          {
            "astId": 18,
            "contract": "contracts/agreement-14-12-21.sol:DataSharingAgreement",
            "label": "purpose",
            "offset": 0,
            "slot": "1",
            "type": "t_string_storage"
          },
          {
            "astId": 21,
            "contract": "contracts/agreement-14-12-21.sol:DataSharingAgreement",
            "label": "state",
            "offset": 0,
            "slot": "2",
            "type": "t_enum(State)7"
          },
          {
            "astId": 23,
            "contract": "contracts/agreement-14-12-21.sol:DataSharingAgreement",
            "label": "providerId",
            "offset": 0,
            "slot": "3",
            "type": "t_string_storage"
          },
          {
            "astId": 25,
            "contract": "contracts/agreement-14-12-21.sol:DataSharingAgreement",
            "label": "consumerId",
            "offset": 0,
            "slot": "4",
            "type": "t_string_storage"
          },
          {
            "astId": 29,
            "contract": "contracts/agreement-14-12-21.sol:DataSharingAgreement",
            "label": "agreementDates",
            "offset": 0,
            "slot": "5",
            "type": "t_array(t_uint256)3_storage"
          },
          {
            "astId": 32,
            "contract": "contracts/agreement-14-12-21.sol:DataSharingAgreement",
            "label": "descriptionOfData",
            "offset": 0,
            "slot": "8",
            "type": "t_struct(DescriptionOfData)53_storage"
          },
          {
            "astId": 35,
            "contract": "contracts/agreement-14-12-21.sol:DataSharingAgreement",
            "label": "intendedUse",
            "offset": 0,
            "slot": "11",
            "type": "t_struct(IntendedUse)60_storage"
          },
          {
            "astId": 38,
            "contract": "contracts/agreement-14-12-21.sol:DataSharingAgreement",
            "label": "licenseGrant",
            "offset": 0,
            "slot": "12",
            "type": "t_struct(LicenseGrant)69_storage"
          },
          {
            "astId": 40,
            "contract": "contracts/agreement-14-12-21.sol:DataSharingAgreement",
            "label": "dataStream",
            "offset": 0,
            "slot": "13",
            "type": "t_bool"
          },
          {
            "astId": 42,
            "contract": "contracts/agreement-14-12-21.sol:DataSharingAgreement",
            "label": "signed",
            "offset": 1,
            "slot": "13",
            "type": "t_bool"
          },
          {
            "astId": 45,
            "contract": "contracts/agreement-14-12-21.sol:DataSharingAgreement",
            "label": "violation",
            "offset": 0,
            "slot": "14",
            "type": "t_struct(Violation)75_storage"
          }
        ],
        "numberOfBytes": "512"
      },
      "t_struct(DescriptionOfData)53_storage": {
        "encoding": "inplace",
        "label": "struct DataSharingAgreement.DescriptionOfData",
        "members": [
          {
            "astId": 48,
            "contract": "contracts/agreement-14-12-21.sol:DataSharingAgreement",
            "label": "dataType",
            "offset": 0,
            "slot": "0",
            "type": "t_string_storage"
          },
          {
            "astId": 50,
            "contract": "contracts/agreement-14-12-21.sol:DataSharingAgreement",
            "label": "dataFormat",
            "offset": 0,
            "slot": "1",
            "type": "t_string_storage"
          },
          {
            "astId": 52,
            "contract": "contracts/agreement-14-12-21.sol:DataSharingAgreement",
            "label": "dataSource",
            "offset": 0,
            "slot": "2",
            "type": "t_string_storage"
          }
        ],
        "numberOfBytes": "96"
      },
      "t_struct(IntendedUse)60_storage": {
        "encoding": "inplace",
        "label": "struct DataSharingAgreement.IntendedUse",
        "members": [
          {
            "astId": 55,
            "contract": "contracts/agreement-14-12-21.sol:DataSharingAgreement",
            "label": "processData",
            "offset": 0,
            "slot": "0",
            "type": "t_bool"
          },
          {
            "astId": 57,
            "contract": "contracts/agreement-14-12-21.sol:DataSharingAgreement",
            "label": "shareDataWithThirdParty",
            "offset": 1,
            "slot": "0",
            "type": "t_bool"
          },
          {
            "astId": 59,
            "contract": "contracts/agreement-14-12-21.sol:DataSharingAgreement",
            "label": "editData",
            "offset": 2,
            "slot": "0",
            "type": "t_bool"
          }
        ],
        "numberOfBytes": "32"
      },
      "t_struct(LicenseGrant)69_storage": {
        "encoding": "inplace",
        "label": "struct DataSharingAgreement.LicenseGrant",
        "members": [
          {
            "astId": 62,
            "contract": "contracts/agreement-14-12-21.sol:DataSharingAgreement",
            "label": "copyData",
            "offset": 0,
            "slot": "0",
            "type": "t_bool"
          },
          {
            "astId": 64,
            "contract": "contracts/agreement-14-12-21.sol:DataSharingAgreement",
            "label": "transferable",
            "offset": 1,
            "slot": "0",
            "type": "t_bool"
          },
          {
            "astId": 66,
            "contract": "contracts/agreement-14-12-21.sol:DataSharingAgreement",
            "label": "exclusiveness",
            "offset": 2,
            "slot": "0",
            "type": "t_bool"
          },
          {
            "astId": 68,
            "contract": "contracts/agreement-14-12-21.sol:DataSharingAgreement",
            "label": "revocable",
            "offset": 3,
            "slot": "0",
            "type": "t_bool"
          }
        ],
        "numberOfBytes": "32"
      },
      "t_struct(Violation)75_storage": {
        "encoding": "inplace",
        "label": "struct DataSharingAgreement.Violation",
        "members": [
          {
            "astId": 72,
            "contract": "contracts/agreement-14-12-21.sol:DataSharingAgreement",
            "label": "violationType",
            "offset": 0,
            "slot": "0",
            "type": "t_enum(ViolationType)14"
          },
          {
            "astId": 74,
            "contract": "contracts/agreement-14-12-21.sol:DataSharingAgreement",
            "label": "issuerId",
            "offset": 0,
            "slot": "1",
            "type": "t_string_storage"
          }
        ],
        "numberOfBytes": "64"
      },
      "t_uint256": {
        "encoding": "inplace",
        "label": "uint256",
        "numberOfBytes": "32"
      }
    }
  }
}