{
    "address": "0x4d425037d38c2b5bA9DBdBb44DBA1C3a3eaDc830",
    "abi": [
        {
            "anonymous": false,
            "inputs": [
                {
                    "indexed": false,
                    "internalType": "string[]",
                    "name": "",
                    "type": "string[]"
                },
                {
                    "indexed": false,
                    "internalType": "string",
                    "name": "",
                    "type": "string"
                }
            ],
            "name": "RevokeConsent",
            "type": "event"
        },
        {
            "inputs": [
                {
                    "internalType": "string",
                    "name": "_dataOfferingId",
                    "type": "string"
                },
                {
                    "internalType": "string",
                    "name": "_consentSubject",
                    "type": "string"
                }
            ],
            "name": "checkConsentStatus",
            "outputs": [
                {
                    "internalType": "enum ExplicitUserConsent.ConsentStatus[]",
                    "name": "",
                    "type": "uint8[]"
                }
            ],
            "stateMutability": "view",
            "type": "function"
        },
        {
            "inputs": [
                {
                    "internalType": "string",
                    "name": "_dataOfferingId",
                    "type": "string"
                },
                {
                    "internalType": "string",
                    "name": "_consentSubject",
                    "type": "string"
                },
                {
                    "internalType": "string",
                    "name": "_consentFormHash",
                    "type": "string"
                },
                {
                    "internalType": "uint256",
                    "name": "startDate",
                    "type": "uint256"
                },
                {
                    "internalType": "uint256",
                    "name": "endDate",
                    "type": "uint256"
                }
            ],
            "name": "giveConsent",
            "outputs": [],
            "stateMutability": "nonpayable",
            "type": "function"
        },
        {
            "inputs": [
                {
                    "internalType": "address",
                    "name": "_addr",
                    "type": "address"
                },
                {
                    "internalType": "string",
                    "name": "_dataOfferingId",
                    "type": "string"
                },
                {
                    "internalType": "string[]",
                    "name": "_consentSubjects",
                    "type": "string[]"
                }
            ],
            "name": "revokeConsent",
            "outputs": [],
            "stateMutability": "nonpayable",
            "type": "function"
        }
    ],
    "transactionHash": "0xa9caa377ad61b4f7de7fe51c7195b60a630daf79e5223ae0037e8c88ab99bf38",
    "args": [],
    "solcInputHash": "ac8a70119374750f553150b734cd4d20",
    "bytecode": "0x608060405234801561001057600080fd5b50611401806100206000396000f3fe608060405234801561001057600080fd5b50600436106100415760003560e01c8063ae55e4a214610046578063c923dc661461006f578063ed59bbb514610084575b600080fd5b610059610054366004610ecc565b610097565b6040516100669190610f46565b60405180910390f35b61008261007d366004610fa8565b61060f565b005b610082610092366004611066565b610744565b6060600080846040516100aa919061118c565b9081526020016040518091039020805480602002602001604051908101604052809291908181526020016000905b8282101561031e57838290600052602060002090600702016040518060e001604052908160008201805461010b906111a8565b80601f0160208091040260200160405190810160405280929190818152602001828054610137906111a8565b80156101845780601f1061015957610100808354040283529160200191610184565b820191906000526020600020905b81548152906001019060200180831161016757829003601f168201915b5050505050815260200160018201805461019d906111a8565b80601f01602080910402602001604051908101604052809291908181526020018280546101c9906111a8565b80156102165780601f106101eb57610100808354040283529160200191610216565b820191906000526020600020905b8154815290600101906020018083116101f957829003601f168201915b505050918352505060028201546001600160a01b03166020820152600382018054604090920191610246906111a8565b80601f0160208091040260200160405190810160405280929190818152602001828054610272906111a8565b80156102bf5780601f10610294576101008083540402835291602001916102bf565b820191906000526020600020905b8154815290600101906020018083116102a257829003601f168201915b50505091835250506004820154602082015260058201546040820152600682015460609091019060ff1660018111156102fa576102fa610f30565b600181111561030b5761030b610f30565b81525050815260200190600101906100d8565b5050825186519394509260609250600091508690610476578367ffffffffffffffff81111561034f5761034f610e07565b604051908082528060200260200182016040528015610378578160200160208202803683370190505b50925060005b8481101561047057858181518110610398576103986111e3565b602002602001015160a001514211156103f35760018682815181106103bf576103bf6111e3565b602002602001015160c0019060018111156103dc576103dc610f30565b908160018111156103ef576103ef610f30565b9052505b858181518110610405576104056111e3565b602002602001015160c0015184848061041d906111f9565b95508151811061042f5761042f6111e3565b6020026020010190600181111561044857610448610f30565b9081600181111561045b5761045b610f30565b90525080610468816111f9565b91505061037e565b50610603565b604080516001808252818301909252906020808301908036833701905050925060005b84811015610601578581815181106104b3576104b36111e3565b602002602001015160a0015142111561050e5760018682815181106104da576104da6111e3565b602002602001015160c0019060018111156104f7576104f7610f30565b9081600181111561050a5761050a610f30565b9052505b8760405160200161051f919061118c565b60405160208183030381529060405280519060200120868281518110610547576105476111e3565b602002602001015160200151604051602001610563919061118c565b6040516020818303038152906040528051906020012014156105ef57858181518110610591576105916111e3565b602002602001015160c001518484806105a9906111f9565b9550815181106105bb576105bb6111e3565b602002602001019060018111156105d4576105d4610f30565b908160018111156105e7576105e7610f30565b905250610601565b806105f9816111f9565b915050610499565b505b50909695505050505050565b610617610d18565b85815260208101859052336040820152606081018490526080810183905260a08101829052600060c082018181525050600086604051610657919061118c565b90815260405160209181900382019020805460018101825560009182529082902083518051859460079094029092019261069692849290910190610d6e565b5060208281015180516106af9260018501920190610d6e565b50604082015160028201805473ffffffffffffffffffffffffffffffffffffffff19166001600160a01b03909216919091179055606082015180516106fe916003840191602090910190610d6e565b506080820151600482015560a0820151600582015560c082015160068201805460ff19166001838181111561073557610735610f30565b02179055505050505050505050565b60008083604051610755919061118c565b9081526020016040518091039020805480602002602001604051908101604052809291908181526020016000905b828210156109c957838290600052602060002090600702016040518060e00160405290816000820180546107b6906111a8565b80601f01602080910402602001604051908101604052809291908181526020018280546107e2906111a8565b801561082f5780601f106108045761010080835404028352916020019161082f565b820191906000526020600020905b81548152906001019060200180831161081257829003601f168201915b50505050508152602001600182018054610848906111a8565b80601f0160208091040260200160405190810160405280929190818152602001828054610874906111a8565b80156108c15780601f10610896576101008083540402835291602001916108c1565b820191906000526020600020905b8154815290600101906020018083116108a457829003601f168201915b505050918352505060028201546001600160a01b031660208201526003820180546040909201916108f1906111a8565b80601f016020809104026020016040519081016040528092919081815260200182805461091d906111a8565b801561096a5780601f1061093f5761010080835404028352916020019161096a565b820191906000526020600020905b81548152906001019060200180831161094d57829003601f168201915b50505091835250506004820154602082015260058201546040820152600682015460609091019060ff1660018111156109a5576109a5610f30565b60018111156109b6576109b6610f30565b8152505081526020019060010190610783565b505050509050600081519050825160001415610ac45760005b81811015610abe57336001600160a01b0316600086604051610a04919061118c565b90815260200160405180910390208281548110610a2357610a236111e3565b60009182526020909120600260079092020101546001600160a01b031614610a4a57600080fd5b6001600086604051610a5c919061118c565b90815260200160405180910390208281548110610a7b57610a7b6111e3565b60009182526020909120600660079092020101805460ff191660018381811115610aa757610aa7610f30565b021790555080610ab6816111f9565b9150506109e2565b50610c4f565b60005b81811015610c4d57336001600160a01b0316600086604051610ae9919061118c565b90815260200160405180910390208281548110610b0857610b086111e3565b60009182526020909120600260079092020101546001600160a01b031614610b2f57600080fd5b60005b8451811015610c3a57848181518110610b4d57610b4d6111e3565b6020026020010151604051602001610b65919061118c565b60405160208183030381529060405280519060200120848381518110610b8d57610b8d6111e3565b602002602001015160200151604051602001610ba9919061118c565b604051602081830303815290604052805190602001201415610c28576001600087604051610bd7919061118c565b90815260200160405180910390208381548110610bf657610bf66111e3565b60009182526020909120600660079092020101805460ff191660018381811115610c2257610c22610f30565b02179055505b80610c32816111f9565b915050610b32565b5080610c45816111f9565b915050610ac7565b505b6040516332893afb60e01b815285906000906001600160a01b038316906332893afb90610c8090899060040161124e565b60006040518083038186803b158015610c9857600080fd5b505afa158015610cac573d6000803e3d6000fd5b505050506040513d6000823e601f3d908101601f19168201604052610cd49190810190611268565b90507f8fddb5758c3f30838b518ac1876d174d0ecfad52e412e82e8e27461f8172f6b58187604051610d07929190611355565b60405180910390a150505050505050565b6040518060e00160405280606081526020016060815260200160006001600160a01b0316815260200160608152602001600081526020016000815260200160006001811115610d6957610d69610f30565b905290565b828054610d7a906111a8565b90600052602060002090601f016020900481019282610d9c5760008555610de2565b82601f10610db557805160ff1916838001178555610de2565b82800160010185558215610de2579182015b82811115610de2578251825591602001919060010190610dc7565b50610dee929150610df2565b5090565b5b80821115610dee5760008155600101610df3565b634e487b7160e01b600052604160045260246000fd5b604051601f8201601f1916810167ffffffffffffffff81118282101715610e4657610e46610e07565b604052919050565b600067ffffffffffffffff821115610e6857610e68610e07565b50601f01601f191660200190565b600082601f830112610e8757600080fd5b8135610e9a610e9582610e4e565b610e1d565b818152846020838601011115610eaf57600080fd5b816020850160208301376000918101602001919091529392505050565b60008060408385031215610edf57600080fd5b823567ffffffffffffffff80821115610ef757600080fd5b610f0386838701610e76565b93506020850135915080821115610f1957600080fd5b50610f2685828601610e76565b9150509250929050565b634e487b7160e01b600052602160045260246000fd5b602080825282518282018190526000919084820190604085019084805b82811015610f9b57845160028110610f8957634e487b7160e01b83526021600452602483fd5b84529385019392850192600101610f63565b5091979650505050505050565b600080600080600060a08688031215610fc057600080fd5b853567ffffffffffffffff80821115610fd857600080fd5b610fe489838a01610e76565b96506020880135915080821115610ffa57600080fd5b61100689838a01610e76565b9550604088013591508082111561101c57600080fd5b5061102988828901610e76565b9598949750949560608101359550608001359392505050565b600067ffffffffffffffff82111561105c5761105c610e07565b5060051b60200190565b60008060006060848603121561107b57600080fd5b83356001600160a01b038116811461109257600080fd5b925060208481013567ffffffffffffffff808211156110b057600080fd5b6110bc88838901610e76565b945060408701359150808211156110d257600080fd5b818701915087601f8301126110e657600080fd5b81356110f4610e9582611042565b81815260059190911b8301840190848101908a83111561111357600080fd5b8585015b8381101561114b5780358581111561112f5760008081fd5b61113d8d89838a0101610e76565b845250918601918601611117565b508096505050505050509250925092565b60005b8381101561117757818101518382015260200161115f565b83811115611186576000848401525b50505050565b6000825161119e81846020870161115c565b9190910192915050565b600181811c908216806111bc57607f821691505b602082108114156111dd57634e487b7160e01b600052602260045260246000fd5b50919050565b634e487b7160e01b600052603260045260246000fd5b600060001982141561121b57634e487b7160e01b600052601160045260246000fd5b5060010190565b6000815180845261123a81602086016020860161115c565b601f01601f19169290920160200192915050565b6020815260006112616020830184611222565b9392505050565b6000602080838503121561127b57600080fd5b825167ffffffffffffffff8082111561129357600080fd5b818501915085601f8301126112a757600080fd5b81516112b5610e9582611042565b81815260059190911b830184019084810190888311156112d457600080fd5b8585015b83811015611348578051858111156112f05760008081fd5b8601603f81018b136113025760008081fd5b878101516040611314610e9583610e4e565b8281528d828486010111156113295760008081fd5b611338838c830184870161115c565b86525050509186019186016112d8565b5098975050505050505050565b6000604082016040835280855180835260608501915060608160051b8601019250602080880160005b838110156113ac57605f1988870301855261139a868351611222565b9550938201939082019060010161137e565b5050858403818701525050506113c28185611222565b9594505050505056fea26469706673582212206d886a527e6ded418894ba482050e177a9039dba4f9bffcf1189a84dbf4b765864736f6c63430008090033",
    "devdoc": {
        "kind": "dev",
        "methods": {},
        "version": 1
    },
    "userdoc": {
        "kind": "user",
        "methods": {},
        "version": 1
    },
    "storageLayout": {
        "storage": [
            {
                "astId": 2210,
                "contract": "contracts/ExplicitUserConsent.sol:ExplicitUserConsent",
                "label": "consents",
                "offset": 0,
                "slot": "0",
                "type": "t_mapping(t_string_memory_ptr,t_array(t_struct(Consent)2201_storage)dyn_storage)"
            }
        ],
        "types": {
            "t_address": {
                "encoding": "inplace",
                "label": "address",
                "numberOfBytes": "20"
            },
            "t_array(t_struct(Consent)2201_storage)dyn_storage": {
                "base": "t_struct(Consent)2201_storage",
                "encoding": "dynamic_array",
                "label": "struct ExplicitUserConsent.Consent[]",
                "numberOfBytes": "32"
            },
            "t_enum(ConsentStatus)2204": {
                "encoding": "inplace",
                "label": "enum ExplicitUserConsent.ConsentStatus",
                "numberOfBytes": "1"
            },
            "t_mapping(t_string_memory_ptr,t_array(t_struct(Consent)2201_storage)dyn_storage)": {
                "encoding": "mapping",
                "key": "t_string_memory_ptr",
                "label": "mapping(string => struct ExplicitUserConsent.Consent[])",
                "numberOfBytes": "32",
                "value": "t_array(t_struct(Consent)2201_storage)dyn_storage"
            },
            "t_string_memory_ptr": {
                "encoding": "bytes",
                "label": "string",
                "numberOfBytes": "32"
            },
            "t_string_storage": {
                "encoding": "bytes",
                "label": "string",
                "numberOfBytes": "32"
            },
            "t_struct(Consent)2201_storage": {
                "encoding": "inplace",
                "label": "struct ExplicitUserConsent.Consent",
                "members": [
                    {
                        "astId": 2187,
                        "contract": "contracts/ExplicitUserConsent.sol:ExplicitUserConsent",
                        "label": "dataOfferingId",
                        "offset": 0,
                        "slot": "0",
                        "type": "t_string_storage"
                    },
                    {
                        "astId": 2189,
                        "contract": "contracts/ExplicitUserConsent.sol:ExplicitUserConsent",
                        "label": "consentSubject",
                        "offset": 0,
                        "slot": "1",
                        "type": "t_string_storage"
                    },
                    {
                        "astId": 2191,
                        "contract": "contracts/ExplicitUserConsent.sol:ExplicitUserConsent",
                        "label": "consentOperator",
                        "offset": 0,
                        "slot": "2",
                        "type": "t_address"
                    },
                    {
                        "astId": 2193,
                        "contract": "contracts/ExplicitUserConsent.sol:ExplicitUserConsent",
                        "label": "consentFormHash",
                        "offset": 0,
                        "slot": "3",
                        "type": "t_string_storage"
                    },
                    {
                        "astId": 2195,
                        "contract": "contracts/ExplicitUserConsent.sol:ExplicitUserConsent",
                        "label": "startDate",
                        "offset": 0,
                        "slot": "4",
                        "type": "t_uint256"
                    },
                    {
                        "astId": 2197,
                        "contract": "contracts/ExplicitUserConsent.sol:ExplicitUserConsent",
                        "label": "endDate",
                        "offset": 0,
                        "slot": "5",
                        "type": "t_uint256"
                    },
                    {
                        "astId": 2200,
                        "contract": "contracts/ExplicitUserConsent.sol:ExplicitUserConsent",
                        "label": "status",
                        "offset": 0,
                        "slot": "6",
                        "type": "t_enum(ConsentStatus)2204"
                    }
                ],
                "numberOfBytes": "224"
            },
            "t_uint256": {
                "encoding": "inplace",
                "label": "uint256",
                "numberOfBytes": "32"
            }
        }
    }
}