{
  "address": "0xF55Cf435F9fEBa04dA62EBD9A5e8A7827241F6F8",
  "abi": [
    {
      "anonymous": false,
      "inputs": [
        {
          "indexed": false,
          "internalType": "string",
          "name": "dataOfferingId",
          "type": "string"
        }
      ],
      "name": "ConsentGiven",
      "type": "event"
    },
    {
      "anonymous": false,
      "inputs": [
        {
          "indexed": false,
          "internalType": "string[]",
          "name": "consumers",
          "type": "string[]"
        },
        {
          "indexed": false,
          "internalType": "string",
          "name": "dataOfferingId",
          "type": "string"
        }
      ],
      "name": "ConsentRevoked",
      "type": "event"
    },
    {
      "inputs": [
        {
          "internalType": "string",
          "name": "_dataOfferingId",
          "type": "string"
        },
        {
          "internalType": "string",
          "name": "_consentSubject",
          "type": "string"
        }
      ],
      "name": "checkConsentStatus",
      "outputs": [
        {
          "internalType": "uint256[]",
          "name": "",
          "type": "uint256[]"
        }
      ],
      "stateMutability": "view",
      "type": "function"
    },
    {
      "inputs": [
        {
          "internalType": "string",
          "name": "_dataOfferingId",
          "type": "string"
        },
        {
          "internalType": "string",
          "name": "_consentSubject",
          "type": "string"
        },
        {
          "internalType": "string",
          "name": "_consentFormHash",
          "type": "string"
        },
        {
          "internalType": "uint256",
          "name": "_startDate",
          "type": "uint256"
        },
        {
          "internalType": "uint256",
          "name": "_endDate",
          "type": "uint256"
        }
      ],
      "name": "giveConsent",
      "outputs": [],
      "stateMutability": "nonpayable",
      "type": "function"
    },
    {
      "inputs": [
        {
          "internalType": "address",
          "name": "_addr",
          "type": "address"
        },
        {
          "internalType": "string",
          "name": "_dataOfferingId",
          "type": "string"
        },
        {
          "internalType": "string[]",
          "name": "_consentSubjects",
          "type": "string[]"
        }
      ],
      "name": "revokeConsent",
      "outputs": [],
      "stateMutability": "nonpayable",
      "type": "function"
    }
  ],
  "transactionHash": "0xd15d03b4a4ed74a20feeb93e24f146a8bfa29deaa4a762b1031934813ab2a6d3",
  "args": [],
  "solcInputHash": "e9c5fec4a3cdca87ec853f7502d32d3d",
  "bytecode": "0x608060405234801561001057600080fd5b506112c5806100206000396000f3fe608060405234801561001057600080fd5b50600436106100415760003560e01c8063ae55e4a214610046578063c923dc661461006f578063ed59bbb514610084575b600080fd5b610059610054366004610dd0565b610097565b6040516100669190610e34565b60405180910390f35b61008261007d366004610e6c565b610559565b005b610082610092366004610f2a565b610702565b6060600080846040516100aa9190611050565b9081526020016040518091039020805480602002602001604051908101604052809291908181526020016000905b828210156102f557838290600052602060002090600702016040518060e001604052908160008201805461010b9061106c565b80601f01602080910402602001604051908101604052809291908181526020018280546101379061106c565b80156101845780601f1061015957610100808354040283529160200191610184565b820191906000526020600020905b81548152906001019060200180831161016757829003601f168201915b5050505050815260200160018201805461019d9061106c565b80601f01602080910402602001604051908101604052809291908181526020018280546101c99061106c565b80156102165780601f106101eb57610100808354040283529160200191610216565b820191906000526020600020905b8154815290600101906020018083116101f957829003601f168201915b505050918352505060028201546001600160a01b031660208201526003820180546040909201916102469061106c565b80601f01602080910402602001604051908101604052809291908181526020018280546102729061106c565b80156102bf5780601f10610294576101008083540402835291602001916102bf565b820191906000526020600020905b8154815290600101906020018083116102a257829003601f168201915b505050505081526020016004820154815260200160058201548152602001600682015481525050815260200190600101906100d8565b5050825186519394509260609250600091508690610406578367ffffffffffffffff81111561032657610326610d0b565b60405190808252806020026020018201604052801561034f578160200160208202803683370190505b50925060005b848110156104005785818151811061036f5761036f6110a7565b602002602001015160a001514211156103a7576000868281518110610396576103966110a7565b602002602001015160c00181815250505b8581815181106103b9576103b96110a7565b602002602001015160c001518484806103d1906110bd565b9550815181106103e3576103e36110a7565b6020908102919091010152806103f8816110bd565b915050610355565b5061054d565b604080516001808252818301909252906020808301908036833701905050925060005b8481101561054b57858181518110610443576104436110a7565b602002602001015160a0015142111561047b57600086828151811061046a5761046a6110a7565b602002602001015160c00181815250505b8760405160200161048c9190611050565b604051602081830303815290604052805190602001208682815181106104b4576104b46110a7565b6020026020010151602001516040516020016104d09190611050565b604051602081830303815290604052805190602001201415610539578581815181106104fe576104fe6110a7565b602002602001015160c00151848480610516906110bd565b955081518110610528576105286110a7565b60200260200101818152505061054b565b80610543816110bd565b915050610429565b505b50909695505050505050565b4282101561056657600080fd5b8181101561057357600080fd5b6105bc6040518060e00160405280606081526020016060815260200160006001600160a01b03168152602001606081526020016000815260200160008152602001600081525090565b8581526020810185905233604080830191909152606082018590526080820184905260a0820183905260c08201849052516000906105fb908890611050565b90815260405160209181900382019020805460018101825560009182529082902083518051859460079094029092019261063a92849290910190610c72565b5060208281015180516106539260018501920190610c72565b50604082015160028201805473ffffffffffffffffffffffffffffffffffffffff19166001600160a01b03909216919091179055606082015180516106a2916003840191602090910190610c72565b506080820151816004015560a0820151816005015560c0820151816006015550507f1c0d227cd1a5cb9785622f79be33cbcfa2d2cb7d18434f568511c77a591f2075866040516106f29190611112565b60405180910390a1505050505050565b600080836040516107139190611050565b9081526020016040518091039020805480602002602001604051908101604052809291908181526020016000905b8282101561095e57838290600052602060002090600702016040518060e00160405290816000820180546107749061106c565b80601f01602080910402602001604051908101604052809291908181526020018280546107a09061106c565b80156107ed5780601f106107c2576101008083540402835291602001916107ed565b820191906000526020600020905b8154815290600101906020018083116107d057829003601f168201915b505050505081526020016001820180546108069061106c565b80601f01602080910402602001604051908101604052809291908181526020018280546108329061106c565b801561087f5780601f106108545761010080835404028352916020019161087f565b820191906000526020600020905b81548152906001019060200180831161086257829003601f168201915b505050918352505060028201546001600160a01b031660208201526003820180546040909201916108af9061106c565b80601f01602080910402602001604051908101604052809291908181526020018280546108db9061106c565b80156109285780601f106108fd57610100808354040283529160200191610928565b820191906000526020600020905b81548152906001019060200180831161090b57829003601f168201915b50505050508152602001600482015481526020016005820154815260200160068201548152505081526020019060010190610741565b505050509050600081519050825160001415610a3b5760005b81811015610a3557336001600160a01b03166000866040516109999190611050565b908152602001604051809103902082815481106109b8576109b86110a7565b60009182526020909120600260079092020101546001600160a01b0316146109df57600080fd5b600080866040516109f09190611050565b90815260200160405180910390208281548110610a0f57610a0f6110a7565b600091825260209091206006600790920201015580610a2d816110bd565b915050610977565b50610ba9565b60005b81811015610ba757336001600160a01b0316600086604051610a609190611050565b90815260200160405180910390208281548110610a7f57610a7f6110a7565b60009182526020909120600260079092020101546001600160a01b031614610aa657600080fd5b60005b8451811015610b9457848181518110610ac457610ac46110a7565b6020026020010151604051602001610adc9190611050565b60405160208183030381529060405280519060200120848381518110610b0457610b046110a7565b602002602001015160200151604051602001610b209190611050565b604051602081830303815290604052805190602001201415610b825760008087604051610b4d9190611050565b90815260200160405180910390208381548110610b6c57610b6c6110a7565b9060005260206000209060070201600601819055505b80610b8c816110bd565b915050610aa9565b5080610b9f816110bd565b915050610a3e565b505b6040516332893afb60e01b815285906000906001600160a01b038316906332893afb90610bda908990600401611112565b60006040518083038186803b158015610bf257600080fd5b505afa158015610c06573d6000803e3d6000fd5b505050506040513d6000823e601f3d908101601f19168201604052610c2e919081019061112c565b90507f220274b528169157064ec77be2b4738cfbd53a9b521ed206e59707cc078251bc8187604051610c61929190611219565b60405180910390a150505050505050565b828054610c7e9061106c565b90600052602060002090601f016020900481019282610ca05760008555610ce6565b82601f10610cb957805160ff1916838001178555610ce6565b82800160010185558215610ce6579182015b82811115610ce6578251825591602001919060010190610ccb565b50610cf2929150610cf6565b5090565b5b80821115610cf25760008155600101610cf7565b634e487b7160e01b600052604160045260246000fd5b604051601f8201601f1916810167ffffffffffffffff81118282101715610d4a57610d4a610d0b565b604052919050565b600067ffffffffffffffff821115610d6c57610d6c610d0b565b50601f01601f191660200190565b600082601f830112610d8b57600080fd5b8135610d9e610d9982610d52565b610d21565b818152846020838601011115610db357600080fd5b816020850160208301376000918101602001919091529392505050565b60008060408385031215610de357600080fd5b823567ffffffffffffffff80821115610dfb57600080fd5b610e0786838701610d7a565b93506020850135915080821115610e1d57600080fd5b50610e2a85828601610d7a565b9150509250929050565b6020808252825182820181905260009190848201906040850190845b8181101561054d57835183529284019291840191600101610e50565b600080600080600060a08688031215610e8457600080fd5b853567ffffffffffffffff80821115610e9c57600080fd5b610ea889838a01610d7a565b96506020880135915080821115610ebe57600080fd5b610eca89838a01610d7a565b95506040880135915080821115610ee057600080fd5b50610eed88828901610d7a565b9598949750949560608101359550608001359392505050565b600067ffffffffffffffff821115610f2057610f20610d0b565b5060051b60200190565b600080600060608486031215610f3f57600080fd5b83356001600160a01b0381168114610f5657600080fd5b925060208481013567ffffffffffffffff80821115610f7457600080fd5b610f8088838901610d7a565b94506040870135915080821115610f9657600080fd5b818701915087601f830112610faa57600080fd5b8135610fb8610d9982610f06565b81815260059190911b8301840190848101908a831115610fd757600080fd5b8585015b8381101561100f57803585811115610ff35760008081fd5b6110018d89838a0101610d7a565b845250918601918601610fdb565b508096505050505050509250925092565b60005b8381101561103b578181015183820152602001611023565b8381111561104a576000848401525b50505050565b60008251611062818460208701611020565b9190910192915050565b600181811c9082168061108057607f821691505b602082108114156110a157634e487b7160e01b600052602260045260246000fd5b50919050565b634e487b7160e01b600052603260045260246000fd5b60006000198214156110df57634e487b7160e01b600052601160045260246000fd5b5060010190565b600081518084526110fe816020860160208601611020565b601f01601f19169290920160200192915050565b60208152600061112560208301846110e6565b9392505050565b6000602080838503121561113f57600080fd5b825167ffffffffffffffff8082111561115757600080fd5b818501915085601f83011261116b57600080fd5b8151611179610d9982610f06565b81815260059190911b8301840190848101908883111561119857600080fd5b8585015b8381101561120c578051858111156111b45760008081fd5b8601603f81018b136111c65760008081fd5b8781015160406111d8610d9983610d52565b8281528d828486010111156111ed5760008081fd5b6111fc838c8301848701611020565b865250505091860191860161119c565b5098975050505050505050565b6000604082016040835280855180835260608501915060608160051b8601019250602080880160005b8381101561127057605f1988870301855261125e8683516110e6565b95509382019390820190600101611242565b50508584038187015250505061128681856110e6565b9594505050505056fea264697066735822122022ec9cdb6840d69c2fd6ccd10e1e0d7b10f1ec1a5a3004e8fa1468a86755621a64736f6c63430008090033",
  "devdoc": {
    "kind": "dev",
    "methods": {},
    "version": 1
  },
  "userdoc": {
    "kind": "user",
    "methods": {},
    "version": 1
  },
  "storageLayout": {
    "storage": [
      {
        "astId": 2049,
        "contract": "contracts/ExplicitUserConsent.sol:ExplicitUserConsent",
        "label": "consents",
        "offset": 0,
        "slot": "0",
        "type": "t_mapping(t_string_memory_ptr,t_array(t_struct(Consent)2043_storage)dyn_storage)"
      }
    ],
    "types": {
      "t_address": {
        "encoding": "inplace",
        "label": "address",
        "numberOfBytes": "20"
      },
      "t_array(t_struct(Consent)2043_storage)dyn_storage": {
        "base": "t_struct(Consent)2043_storage",
        "encoding": "dynamic_array",
        "label": "struct ExplicitUserConsent.Consent[]",
        "numberOfBytes": "32"
      },
      "t_mapping(t_string_memory_ptr,t_array(t_struct(Consent)2043_storage)dyn_storage)": {
        "encoding": "mapping",
        "key": "t_string_memory_ptr",
        "label": "mapping(string => struct ExplicitUserConsent.Consent[])",
        "numberOfBytes": "32",
        "value": "t_array(t_struct(Consent)2043_storage)dyn_storage"
      },
      "t_string_memory_ptr": {
        "encoding": "bytes",
        "label": "string",
        "numberOfBytes": "32"
      },
      "t_string_storage": {
        "encoding": "bytes",
        "label": "string",
        "numberOfBytes": "32"
      },
      "t_struct(Consent)2043_storage": {
        "encoding": "inplace",
        "label": "struct ExplicitUserConsent.Consent",
        "members": [
          {
            "astId": 2030,
            "contract": "contracts/ExplicitUserConsent.sol:ExplicitUserConsent",
            "label": "dataOfferingId",
            "offset": 0,
            "slot": "0",
            "type": "t_string_storage"
          },
          {
            "astId": 2032,
            "contract": "contracts/ExplicitUserConsent.sol:ExplicitUserConsent",
            "label": "consentSubject",
            "offset": 0,
            "slot": "1",
            "type": "t_string_storage"
          },
          {
            "astId": 2034,
            "contract": "contracts/ExplicitUserConsent.sol:ExplicitUserConsent",
            "label": "consentOperator",
            "offset": 0,
            "slot": "2",
            "type": "t_address"
          },
          {
            "astId": 2036,
            "contract": "contracts/ExplicitUserConsent.sol:ExplicitUserConsent",
            "label": "consentFormHash",
            "offset": 0,
            "slot": "3",
            "type": "t_string_storage"
          },
          {
            "astId": 2038,
            "contract": "contracts/ExplicitUserConsent.sol:ExplicitUserConsent",
            "label": "startDate",
            "offset": 0,
            "slot": "4",
            "type": "t_uint256"
          },
          {
            "astId": 2040,
            "contract": "contracts/ExplicitUserConsent.sol:ExplicitUserConsent",
            "label": "endDate",
            "offset": 0,
            "slot": "5",
            "type": "t_uint256"
          },
          {
            "astId": 2042,
            "contract": "contracts/ExplicitUserConsent.sol:ExplicitUserConsent",
            "label": "status",
            "offset": 0,
            "slot": "6",
            "type": "t_uint256"
          }
        ],
        "numberOfBytes": "224"
      },
      "t_uint256": {
        "encoding": "inplace",
        "label": "uint256",
        "numberOfBytes": "32"
      }
    }
  }
}