{
  "address": "0x78Ebe1f299903109606fe64Ea291ffa719E98a2a",
  "abi": [
    {
      "anonymous": false,
      "inputs": [
        {
          "indexed": false,
          "internalType": "string",
          "name": "dataOfferingId",
          "type": "string"
        },
        {
          "indexed": false,
          "internalType": "string[]",
          "name": "consentSubjects",
          "type": "string[]"
        }
      ],
      "name": "ConsentGiven",
      "type": "event"
    },
    {
      "anonymous": false,
      "inputs": [
        {
          "indexed": false,
          "internalType": "string[]",
          "name": "consumers",
          "type": "string[]"
        },
        {
          "indexed": false,
          "internalType": "string",
          "name": "dataOfferingId",
          "type": "string"
        },
        {
          "indexed": false,
          "internalType": "string[]",
          "name": "consentSubjects",
          "type": "string[]"
        }
      ],
      "name": "ConsentRevoked",
      "type": "event"
    },
    {
      "inputs": [
        {
          "internalType": "string",
          "name": "_dataOfferingId",
          "type": "string"
        },
        {
          "internalType": "string",
          "name": "_consentSubject",
          "type": "string"
        }
      ],
      "name": "checkConsentStatus",
      "outputs": [
        {
          "internalType": "uint256[]",
          "name": "",
          "type": "uint256[]"
        }
      ],
      "stateMutability": "view",
      "type": "function"
    },
    {
      "inputs": [
        {
          "internalType": "string",
          "name": "_dataOfferingId",
          "type": "string"
        },
        {
          "internalType": "string[]",
          "name": "_consentSubjects",
          "type": "string[]"
        },
        {
          "internalType": "string",
          "name": "_consentFormHash",
          "type": "string"
        },
        {
          "internalType": "uint256",
          "name": "_startDate",
          "type": "uint256"
        },
        {
          "internalType": "uint256",
          "name": "_endDate",
          "type": "uint256"
        }
      ],
      "name": "giveConsent",
      "outputs": [],
      "stateMutability": "nonpayable",
      "type": "function"
    },
    {
      "inputs": [
        {
          "internalType": "address",
          "name": "_addr",
          "type": "address"
        },
        {
          "internalType": "string",
          "name": "_dataOfferingId",
          "type": "string"
        },
        {
          "internalType": "string[]",
          "name": "_consentSubjects",
          "type": "string[]"
        }
      ],
      "name": "revokeConsent",
      "outputs": [],
      "stateMutability": "nonpayable",
      "type": "function"
    }
  ],
  "transactionHash": "0x1a5d7a198666ceb3596fe1daf5be4edf1256d512cec592bdb539d5402c4022da",
  "args": [],
  "solcInputHash": "7b4b6dda4242265662469b37d10c2508",
  "bytecode": "0x608060405234801561001057600080fd5b506113a7806100206000396000f3fe608060405234801561001057600080fd5b50600436106100415760003560e01c8063ae55e4a214610046578063cf04126b1461006f578063ed59bbb514610084575b600080fd5b610059610054366004610e15565b610097565b6040516100669190610e79565b60405180910390f35b61008261007d366004610f60565b61055e565b005b610082610092366004610ffa565b610745565b6060600080846040516100aa91906110ac565b9081526020016040518091039020805480602002602001604051908101604052809291908181526020016000905b828210156102f557838290600052602060002090600702016040518060e001604052908160008201805461010b906110c8565b80601f0160208091040260200160405190810160405280929190818152602001828054610137906110c8565b80156101845780601f1061015957610100808354040283529160200191610184565b820191906000526020600020905b81548152906001019060200180831161016757829003601f168201915b5050505050815260200160018201805461019d906110c8565b80601f01602080910402602001604051908101604052809291908181526020018280546101c9906110c8565b80156102165780601f106101eb57610100808354040283529160200191610216565b820191906000526020600020905b8154815290600101906020018083116101f957829003601f168201915b505050918352505060028201546001600160a01b03166020820152600382018054604090920191610246906110c8565b80601f0160208091040260200160405190810160405280929190818152602001828054610272906110c8565b80156102bf5780601f10610294576101008083540402835291602001916102bf565b820191906000526020600020905b8154815290600101906020018083116102a257829003601f168201915b505050505081526020016004820154815260200160058201548152602001600682015481525050815260200190600101906100d8565b5050825186519394509260609250600091508690610406578367ffffffffffffffff81111561032657610326610d50565b60405190808252806020026020018201604052801561034f578160200160208202803683370190505b50925060005b848110156104005785818151811061036f5761036f611103565b602002602001015160a001514211156103a757600086828151811061039657610396611103565b602002602001015160c00181815250505b8581815181106103b9576103b9611103565b602002602001015160c001518484806103d19061112f565b9550815181106103e3576103e3611103565b6020908102919091010152806103f88161112f565b915050610355565b50610552565b6040805160018082528183019092529060208083019080368337019050509250600061043360018661114a565b90505b85818151811061044857610448611103565b602002602001015160a0015142111561048057600086828151811061046f5761046f611103565b602002602001015160c00181815250505b8760405160200161049191906110ac565b604051602081830303815290604052805190602001208682815181106104b9576104b9611103565b6020026020010151602001516040516020016104d591906110ac565b60405160208183030381529060405280519060200120141561053e5785818151811061050357610503611103565b602002602001015160c0015184848061051b9061112f565b95508151811061052d5761052d611103565b602002602001018181525050610550565b8061054881611161565b915050610436565b505b50909695505050505050565b4282101561056b57600080fd5b8181101561057857600080fd5b60005b8451811015610704576105cd6040518060e00160405280606081526020016060815260200160006001600160a01b03168152602001606081526020016000815260200160008152602001600081525090565b86815285518690839081106105e4576105e4611103565b6020908102919091018101519082015233604080830191909152606082018690526080820185905260a0820184905260c08201849052516000906106299089906110ac565b90815260405160209181900382019020805460018101825560009182529082902083518051859460079094029092019261066892849290910190610cb7565b5060208281015180516106819260018501920190610cb7565b50604082015160028201805473ffffffffffffffffffffffffffffffffffffffff19166001600160a01b03909216919091179055606082015180516106d0916003840191602090910190610cb7565b506080820151600482015560a0820151600582015560c09091015160069091015550806106fc8161112f565b91505061057b565b507f0cd3ad4ea5f5d7b0d61f83fd8ddfa39af2844eb35e62c2e169fb28bf92def32985856040516107369291906111f9565b60405180910390a15050505050565b6000808360405161075691906110ac565b9081526020016040518091039020805480602002602001604051908101604052809291908181526020016000905b828210156109a157838290600052602060002090600702016040518060e00160405290816000820180546107b7906110c8565b80601f01602080910402602001604051908101604052809291908181526020018280546107e3906110c8565b80156108305780601f1061080557610100808354040283529160200191610830565b820191906000526020600020905b81548152906001019060200180831161081357829003601f168201915b50505050508152602001600182018054610849906110c8565b80601f0160208091040260200160405190810160405280929190818152602001828054610875906110c8565b80156108c25780601f10610897576101008083540402835291602001916108c2565b820191906000526020600020905b8154815290600101906020018083116108a557829003601f168201915b505050918352505060028201546001600160a01b031660208201526003820180546040909201916108f2906110c8565b80601f016020809104026020016040519081016040528092919081815260200182805461091e906110c8565b801561096b5780601f106109405761010080835404028352916020019161096b565b820191906000526020600020905b81548152906001019060200180831161094e57829003601f168201915b50505050508152602001600482015481526020016005820154815260200160068201548152505081526020019060010190610784565b505050509050600081519050825160001415610a7e5760005b81811015610a7857336001600160a01b03166000866040516109dc91906110ac565b908152602001604051809103902082815481106109fb576109fb611103565b60009182526020909120600260079092020101546001600160a01b031614610a2257600080fd5b60008086604051610a3391906110ac565b90815260200160405180910390208281548110610a5257610a52611103565b600091825260209091206006600790920201015580610a708161112f565b9150506109ba565b50610bec565b60005b81811015610bea57336001600160a01b0316600086604051610aa391906110ac565b90815260200160405180910390208281548110610ac257610ac2611103565b60009182526020909120600260079092020101546001600160a01b031614610ae957600080fd5b60005b8451811015610bd757848181518110610b0757610b07611103565b6020026020010151604051602001610b1f91906110ac565b60405160208183030381529060405280519060200120848381518110610b4757610b47611103565b602002602001015160200151604051602001610b6391906110ac565b604051602081830303815290604052805190602001201415610bc55760008087604051610b9091906110ac565b90815260200160405180910390208381548110610baf57610baf611103565b9060005260206000209060070201600601819055505b80610bcf8161112f565b915050610aec565b5080610be28161112f565b915050610a81565b505b6040516332893afb60e01b815285906000906001600160a01b038316906332893afb90610c1d908990600401611227565b60006040518083038186803b158015610c3557600080fd5b505afa158015610c49573d6000803e3d6000fd5b505050506040513d6000823e601f3d908101601f19168201604052610c719190810190611241565b90507f633abc2421175557a8a5f1eb3b51f77faf6890ac4caf7f5b843994ed2deac55a818787604051610ca69392919061132e565b60405180910390a150505050505050565b828054610cc3906110c8565b90600052602060002090601f016020900481019282610ce55760008555610d2b565b82601f10610cfe57805160ff1916838001178555610d2b565b82800160010185558215610d2b579182015b82811115610d2b578251825591602001919060010190610d10565b50610d37929150610d3b565b5090565b5b80821115610d375760008155600101610d3c565b634e487b7160e01b600052604160045260246000fd5b604051601f8201601f1916810167ffffffffffffffff81118282101715610d8f57610d8f610d50565b604052919050565b600067ffffffffffffffff821115610db157610db1610d50565b50601f01601f191660200190565b600082601f830112610dd057600080fd5b8135610de3610dde82610d97565b610d66565b818152846020838601011115610df857600080fd5b816020850160208301376000918101602001919091529392505050565b60008060408385031215610e2857600080fd5b823567ffffffffffffffff80821115610e4057600080fd5b610e4c86838701610dbf565b93506020850135915080821115610e6257600080fd5b50610e6f85828601610dbf565b9150509250929050565b6020808252825182820181905260009190848201906040850190845b8181101561055257835183529284019291840191600101610e95565b600067ffffffffffffffff821115610ecb57610ecb610d50565b5060051b60200190565b600082601f830112610ee657600080fd5b81356020610ef6610dde83610eb1565b82815260059290921b84018101918181019086841115610f1557600080fd5b8286015b84811015610f5557803567ffffffffffffffff811115610f395760008081fd5b610f478986838b0101610dbf565b845250918301918301610f19565b509695505050505050565b600080600080600060a08688031215610f7857600080fd5b853567ffffffffffffffff80821115610f9057600080fd5b610f9c89838a01610dbf565b96506020880135915080821115610fb257600080fd5b610fbe89838a01610ed5565b95506040880135915080821115610fd457600080fd5b50610fe188828901610dbf565b9598949750949560608101359550608001359392505050565b60008060006060848603121561100f57600080fd5b83356001600160a01b038116811461102657600080fd5b9250602084013567ffffffffffffffff8082111561104357600080fd5b61104f87838801610dbf565b9350604086013591508082111561106557600080fd5b5061107286828701610ed5565b9150509250925092565b60005b8381101561109757818101518382015260200161107f565b838111156110a6576000848401525b50505050565b600082516110be81846020870161107c565b9190910192915050565b600181811c908216806110dc57607f821691505b602082108114156110fd57634e487b7160e01b600052602260045260246000fd5b50919050565b634e487b7160e01b600052603260045260246000fd5b634e487b7160e01b600052601160045260246000fd5b600060001982141561114357611143611119565b5060010190565b60008282101561115c5761115c611119565b500390565b60008161117057611170611119565b506000190190565b6000815180845261119081602086016020860161107c565b601f01601f19169290920160200192915050565b600081518084526020808501808196508360051b8101915082860160005b858110156111ec5782840389526111da848351611178565b988501989350908401906001016111c2565b5091979650505050505050565b60408152600061120c6040830185611178565b828103602084015261121e81856111a4565b95945050505050565b60208152600061123a6020830184611178565b9392505050565b6000602080838503121561125457600080fd5b825167ffffffffffffffff8082111561126c57600080fd5b818501915085601f83011261128057600080fd5b815161128e610dde82610eb1565b81815260059190911b830184019084810190888311156112ad57600080fd5b8585015b83811015611321578051858111156112c95760008081fd5b8601603f81018b136112db5760008081fd5b8781015160406112ed610dde83610d97565b8281528d828486010111156113025760008081fd5b611311838c830184870161107c565b86525050509186019186016112b1565b5098975050505050505050565b60608152600061134160608301866111a4565b82810360208401526113538186611178565b9050828103604084015261136781856111a4565b969550505050505056fea2646970667358221220ad8f30198d47cf546a52cacf4f85d11c97389524dd3e0b9e68f026d6c4e84fc964736f6c63430008090033",
  "devdoc": {
    "kind": "dev",
    "methods": {},
    "version": 1
  },
  "userdoc": {
    "kind": "user",
    "methods": {},
    "version": 1
  },
  "storageLayout": {
    "storage": [
      {
        "astId": 2219,
        "contract": "contracts/ExplicitUserConsent.sol:ExplicitUserConsent",
        "label": "consents",
        "offset": 0,
        "slot": "0",
        "type": "t_mapping(t_string_memory_ptr,t_array(t_struct(Consent)2213_storage)dyn_storage)"
      }
    ],
    "types": {
      "t_address": {
        "encoding": "inplace",
        "label": "address",
        "numberOfBytes": "20"
      },
      "t_array(t_struct(Consent)2213_storage)dyn_storage": {
        "base": "t_struct(Consent)2213_storage",
        "encoding": "dynamic_array",
        "label": "struct ExplicitUserConsent.Consent[]",
        "numberOfBytes": "32"
      },
      "t_mapping(t_string_memory_ptr,t_array(t_struct(Consent)2213_storage)dyn_storage)": {
        "encoding": "mapping",
        "key": "t_string_memory_ptr",
        "label": "mapping(string => struct ExplicitUserConsent.Consent[])",
        "numberOfBytes": "32",
        "value": "t_array(t_struct(Consent)2213_storage)dyn_storage"
      },
      "t_string_memory_ptr": {
        "encoding": "bytes",
        "label": "string",
        "numberOfBytes": "32"
      },
      "t_string_storage": {
        "encoding": "bytes",
        "label": "string",
        "numberOfBytes": "32"
      },
      "t_struct(Consent)2213_storage": {
        "encoding": "inplace",
        "label": "struct ExplicitUserConsent.Consent",
        "members": [
          {
            "astId": 2200,
            "contract": "contracts/ExplicitUserConsent.sol:ExplicitUserConsent",
            "label": "dataOfferingId",
            "offset": 0,
            "slot": "0",
            "type": "t_string_storage"
          },
          {
            "astId": 2202,
            "contract": "contracts/ExplicitUserConsent.sol:ExplicitUserConsent",
            "label": "consentSubject",
            "offset": 0,
            "slot": "1",
            "type": "t_string_storage"
          },
          {
            "astId": 2204,
            "contract": "contracts/ExplicitUserConsent.sol:ExplicitUserConsent",
            "label": "consentOperator",
            "offset": 0,
            "slot": "2",
            "type": "t_address"
          },
          {
            "astId": 2206,
            "contract": "contracts/ExplicitUserConsent.sol:ExplicitUserConsent",
            "label": "consentFormHash",
            "offset": 0,
            "slot": "3",
            "type": "t_string_storage"
          },
          {
            "astId": 2208,
            "contract": "contracts/ExplicitUserConsent.sol:ExplicitUserConsent",
            "label": "startDate",
            "offset": 0,
            "slot": "4",
            "type": "t_uint256"
          },
          {
            "astId": 2210,
            "contract": "contracts/ExplicitUserConsent.sol:ExplicitUserConsent",
            "label": "endDate",
            "offset": 0,
            "slot": "5",
            "type": "t_uint256"
          },
          {
            "astId": 2212,
            "contract": "contracts/ExplicitUserConsent.sol:ExplicitUserConsent",
            "label": "status",
            "offset": 0,
            "slot": "6",
            "type": "t_uint256"
          }
        ],
        "numberOfBytes": "224"
      },
      "t_uint256": {
        "encoding": "inplace",
        "label": "uint256",
        "numberOfBytes": "32"
      }
    }
  }
}